:10000000A02500203909000033090000350900004F
:1000100000000000000000000000000000000000E0
:100020000000000000000000000000003109000096
:100030000000000000000000310900003D07000042
:1000400031090000310900003109000031090000C8
:1000500031090000310900003109000031090000B8
:100060003109000031090000310900005505000088
:100070003109000031090000310900003109000098
:100080003109000031090000310900003109000088
:10009000310900000000000000000000DD01000048
:1000A0003109000031090000310900003109000068
:1000B00010B5064C2378002B07D1054B002B02D03E
:1000C000044800E000BF0123237010BD400400205D
:1000D000000000003C0F0200084B10B5002B03D0BD
:1000E0000749084800E000BF07480368002B00D11B
:1000F00010BD064B002BFBD09847F9E7000000002D
:10010000440400203C0F02003C0F020000000000ED
:100110000122184B1A705A7E52B2002AFBDB164A93
:100120001168164A48011268D20E0243072008409F
:1001300040010243E0204901C000D2B201400A431D
:100140001A850422DA70033A5A700D4A1A615A7EEF
:1001500052B2002AFBDB0B4A9A805A7E52B2002A26
:10016000FBDB0F221A760E3ADA755A7E52B2002A5B
:10017000FBDB70470040004224608000206080006C
:1001800002180000240400000222044B19780A43DC
:100190001A705A7E52B2002AFBDB704700400042C0
:1001A000064B10B51A69064C0843224010431861EB
:1001B0005A7E52B2002AFBDB10BDC046004000420E
:1001C000E0E0FFFF014B588B80B2704700400042D7
:1001D000014B03C37047C046F8040020012210B54C
:1001E000054B187E1A76054AC0B21368002B01D061
:1001F0005168984710BDC04600400042F8040020F6
:10020000002280211D4B9A619A8C8A439A84102285
:10021000D9681142FCD01A4A1168890E3F2900D1D1
:100220002039184A890212689205920D0A439A628F
:100230001022D9681142FCD002229A840E32D96869
:100240001142FCD0104A11495160517849B200293D
:10025000FBDB0F4951800F4951800F4951800F49F5
:1002600051800F4951800F4951800F4951800F49EA
:100270000F4A116200221A627047C046000800400F
:100280002460800028608000000C0040000701000E
:1002900014400000164000001A4000001B400000FF
:1002A0001C4000001E40000021400000141D0500FD
:1002B000000400404122054B5A7000229A7002321D
:1002C0001A70DA79002AFCD17047C0460048004213
:1002D0000B4A002110000B4B08305170586310007E
:1002E000183098630848586118003F30017007497A
:1002F00059640749118101211170064A1A8070471B
:10030000600400200048004181818181001B800041
:1003100009040000020F0000022130B5084B094A11
:100320001C7818701578E4B28D4315700D001178A3
:100330002940FCD1044A4000101841701C7030BDA7
:100340003F4800414048004160040020F7B5184A8A
:10035000184B16780500107040001818407801926C
:10036000F6B2154F154A002803D014780020A407D0
:100370001BD0032010706A009A180833012418005B
:100380002B015470C01810220D4B984702230D4AC0
:10039000200011780B4313707B6C9B049B0E04D1DF
:1003A0002300AB403A6913433B61019B1E70FEBDC5
:1003B0003F48004160040020004800414E48004191
:1003C000291600004048004170470000BFF35F8FCE
:1003D00062B6C220C0210A4A8000135809061B02D7
:1003E0001B0A0B43135080231B0113600C3013585E
:1003F0001B021B0A0B43135080231B04136070471E
:1004000000E100E08222014B5A6070470040004149
:10041000164B174A190010B502201A601A61012202
:1004200042311C000A708870002146342170A2708D
:10043000E270227162716172A272E272227362735F
:10044000A273E1731900332431310A70CC70113C6E
:100450000C712234CC7110340C724F3C4C72B4339A
:1004600097310A7048701A7010BDC04600440041B0
:10047000408020000722074B598B114206D0802173
:1004800019765A83033A197E114200D17047198DAB
:10049000F9E7C04600100042104A114B1360D22306
:1004A0005B429381C0239B025360D369002BFCD134
:1004B000116802330B431360D369002BFCD1094A46
:1004C00011002C31136293610B70D36193605362FE
:1004D000137513605360D360D385704700100042DA
:1004E00004011240880400200022024BD88DDA85D6
:1004F00080B2704788040020014BD86019617047B2
:1005000088040020F7B506000191041E13D00B4D9E
:1005100000242F002C373B78A3420CD1084B98477E
:10052000019B8421EB6101232C623B70EC851C0054
:10053000044AAE6191752000FEBDC04688040020CB
:100540007504000000100042014B58629962704728
:1005500088040020F8B54A4CA37D002B2BD0237EC5
:10056000A27DDBB252B2002A15DA5BB2002B12DA9E
:100570000722638B13400ED0424DEB85424B9847C8
:10058000842323752B0000222C331A706B6A93424C
:1005900001D0A86A98470120237EA27DDBB20242E7
:1005A00001D0034225D10422237EA17DDBB211427A
:1005B00001D013423DD1F8BD62683A40012A0BD008
:1005C0009A68511C9960B25C22859A68217EAA4281
:1005D00092410140524219E09A68511C52009960C0
:1005E000925BF1E71A6A551C1D629D6952005153D6
:1005F00035E0244B1A7D002AD5D09A685D6807271C
:10060000AA429241217E1E6852420140002901D037
:10061000002AD1D19A6859688A42C4D300221A7537
:100620005A6001322275DA68002ABCD018699047F6
:10063000B9E7144B1A002C321278002ABBD01A6A80
:10064000D8698242B7D20725218D626889B22A40D3
:10065000012AC7D01A6A551C1D629D69A9541A6ADD
:100660009042A8D1190000222C310A70DA6184323C
:1006700022755A6A002A9ED0986A90479BE7C04626
:10068000001000428804002075040000094B0A4A4B
:100690001A60D22252429A81C02292025A60DA69CA
:1006A000002AFCD1196802320A431A60DA69002A6A
:1006B000FCD17047000800420401314030B5031EF0
:1006C00005D0012407250B4A002902D10123180077
:1006D00030BD0139137E2342FCD053682B40012BDF
:1006E00003D0037801301385EEE7038802301385C9
:1006F000EAE7C046000800420023054A05491360A6
:100700009360516006211160034A93601360704743
:1007100010E000E07FBB0000B80400200022034B83
:100720009A60196801320A431A60704710E000E0CD
:10073000014B03C37047C046B8040020064B10B5F8
:100740001B68064B9A6801329A601A68002A01D029
:100750005868904710BDC04610E000E0B804002083
:1007600001220A4B1A80DA7B52B2002AFBDB084ACC
:1007700000211A80FF221A7519765A76C43A9A73A4
:10078000DA7B52B2002AFBDB7047C046002C0042E5
:10079000440500000222044B19880A431A80DA7BC0
:1007A00052B2002AFBDB7047002C0042034B187644
:1007B000DA7B52B2002AFBDB7047C046002C0042B5
:1007C00001220A4B1A80DA7B52B2002AFBDBAC22F0
:1007D000D2001A805D221A83223A9A73C5325A8156
:1007E000DA7B52B2002AFBDB7047C0460030004281
:1007F0000222044B19880A431A80DA7B52B2002A7B
:10080000FBDB7047003000420121094B19609A68F8
:100810000A40FCD1C021890019600221D9635A64C1
:100820009A64FF22D2001A649A68002AFCD17047A9
:10083000002800420222044B19681143196099688C
:100840001142FCD17047C0460028004201210D4BE7
:1008500019609A680A40FCD1C021890019605A6168
:1008600058690949014359610849D9635A649A642E
:10087000DA641A65FF22D2001A649A68002AFCD151
:100880007047C04600200042000F404002000004B4
:100890000222044B19681143196099681142FCD176
:1008A0007047C046002000420622114B10B55A6026
:1008B000104B9847104B9847104B9847104B984750
:1008C000104B9847104B9847104B9847104B984740
:1008D000104B9847104B9847104B9847104B984730
:1008E000104B9847104B9847104B984710BDC04687
:1008F0000040004111040000010200000504000056
:1009000099040000C90300008D060000F9060000EC
:10091000D10200001101000061070000B5020000D3
:10092000C1070000090800004D080000CD030000C9
:10093000FEE7FEE7FEE700001648174970B588425B
:1009400004D00023154CCA18A2421CD30021144B1A
:10095000144A93421BD3FF21134B144A8B439360D9
:100960000222134B5A62134B0832DA70124B2032B8
:100970009A738023114A51680B435360104B984778
:10098000104B9847FEE7C55804331560DBE702C3F8
:10099000DFE7C0463C0F02000000002034040020C6
:1009A00040040020A00500200000000000ED00E051
:1009B000FC700041005000410048004100400041EF
:1009C000E1150000590C000000207047002070471E
:1009D00000487047A8F4010000207047602070476D
:1009E000002070470020704760207047882040003A
:1009F0007047000030B5074D03002A6B1030C2402D
:100A000001240020224203D120001C339B005951B5
:100A100030BDC0460028004210B5074B0020984763
:100A20000021064C0800A04700210120A047044BEC
:100A30009847044B984710BDAD070000F50900002A
:100A4000350800009507000070B50D000400054B47
:100A500010009847E9000020034DA847E10001205D
:100A6000A84770BDAD070000F5090000013810B5BA
:100A70000E4B042817D800F0BDFC03070C10130020
:100A800000221100FF2002E00022FF211000984701
:100A900010BDFF2200210800F9E7FF221100FAE74C
:100AA0000022C821EEE70022F8E7C046490A00000C
:100AB00030B5084C0300226B1030C24001250020E5
:100AC0002A4205D1280009021C33090A9B0019514A
:100AD00030BDC0460020004210B5054B9847054C7C
:100AE00000210320A04700210220A04710BDC046DE
:100AF00091080000B10A00000C4B70B504000D0015
:100B00009870D970012807D100210320084CA04714
:100B100029000220A04770BD0028FCD1044D03200D
:100B2000A84721000220A847F5E7C046000500209D
:100B3000B10A000010B50B4B987801280ED1DB7874
:100B4000962B09D0C82B03D0002B04D1962100E0AE
:100B5000FF21054B984710BDC821FAE796210120D7
:100B6000F7E7C04600050020F90A000010B59621FD
:100B70000020014B984710BDF90A000010B5002174
:100B80000120014B984710BDF90A000010B50A4B2F
:100B9000DA78C82A0CD0FF2A04D0962A07D1074B4E
:100BA000984704E00220C8211856054B984710BD0D
:100BB000022096211856F8E7000500207D0B000062
:100BC000F90A0000014B98787047C04600050020E4
:100BD00010B5024B9847024B188010BDC5010000AC
:100BE000F6040020154A1378002B03D01378013B3C
:100BF000DBB21370124A1378002B03D01378013B39
:100C0000DBB213700F4A104B1188994203D8138836
:100C100001339BB213800D4A1388002B03D0138835
:100C2000013B9BB213800A4A0A4B1188994203D8B0
:100C3000138801339BB213807047C0460200002026
:100C4000F4040020F2040020A7610000000000204E
:100C5000F0040020E7030000F8B500206E4B984731
:100C600000216E486E4B98476E4B984700216E48A6
:100C70006E4B98476E4B9847C021002649010220D1
:100C80006C4B98476C4B98476C4B98476C4B98470C
:100C90006C4B984737006C4B984732282BD0332841
:100CA0002ED0312810D1694BD87803280CD8684C45
:100CB00000F0A0FB07191D1F2C0003252E002700A4
:100CC000E9E7644B9847A047634B98470300022825
:100CD0003AD0032844D0012826D1604A90780128D0
:100CE00015D0937020E05E4B98475E4BEAE75E4B71
:100CF000E8E75E4BF8E7554B18795D4B9847E3E71B
:100D0000524B9A78597818785A4B9847DCE75A4BE7
:100D1000DA78002A03D19621584B984704E09B7853
:100D2000002B01D14B4B9847554B9847051EB2D02D
:100D300006281AD17C1CE4B20025322FBED835001B
:100D4000032DBBD1250039E0444A91780229C8D14E
:100D5000494BD8780028DED09B78012BE4D1E1E71D
:100D6000454BDB78002BDFD0DCE7864241D0454B9A
:100D70009847454A454B681E1A8004284AD8344E85
:100D80003B4C00F037FB030A112C3100314B9847E4
:100D9000B0470520A047002490E7314B9847314BDE
:100DA0009847B0470620F5E70025304B98472D4B74
:100DB0009847B0470820A047354B1D80354B9847D2
:100DC000041E00D078E7324B334A1988032591423C
:100DD00000D873E718800820254B98476EE71D4B15
:100DE0009847B0470920D5E71F4B9847B0470720E1
:100DF000D0E70024042EA3D1244C2388002B07D154
:100E0000174B9847174B9847114B98471E4B238019
:100E10003500C0E7002493E7A9080000E50B0000B7
:100E2000310700001D070000D10B0000D1010000B8
:100E300089010000A1010000190A0000D90A000080
:100E4000AD11000025130000FD1100001205002067
:100E5000F50E00007D0B00009D0E00000405002033
:100E6000350B0000010F00008D0B00006D0B000022
:100E7000BD120000490A000000050020F90A000028
:100E8000B11000006D0A000088130000000000206F
:100E9000F0040020C50B0000E7030000104B30B544
:100EA000186801230F49400A18400F4A0870126A57
:100EB0004D7812091A400D4CAA420AD0C8225B1B79
:100EC0004B700B4B22701B780130002B00D00020A0
:100ED00030BD2378DBB2002BF9D18B700320F7E70C
:100EE000A04400410405002000440041020000200D
:100EF000F4040020C822014B1A707047F40400204B
:100F0000C822014B1A70704702000020F0B5654EF0
:100F100085B0F38832880020934201D8D01A80B27D
:100F200072880024934201D8D41AA4B20022B78850
:100F30000092BB4202D8FF1ABAB200923289002551
:100F4000934201D8D51AADB264272900564B35819A
:100F5000784398476B4602901B89200001936B46AB
:100F60009B882900338078434F4B984783B2039383
:100F70006B4604009B890098738078434A4B290094
:100F800098470623B080C72D18D9029BA1B21A0436
:100F9000019B00048B4216D9C30B110C8B4212DA51
:100FA000424A1378012B0CD153680133012153605D
:100FB00050680B00052801D811700533180005B0E2
:100FC000F0BD0023F2E7000C4100120C2404914212
:100FD00018DA03234343260CB34213DAC8235B0019
:100FE0009D420FD9314A1378052B09D1536801333B
:100FF0005360052351689942E0D813700133DDE74F
:101000000023F5E703235343240CA34215DAA1423E
:1010100013DA9023FF339D420FD8244A1378022B12
:1010200009D1536801335360516802230529C5D89B
:1010300013700433C2E70023F5E75600864213DA43
:1010400083006700BB420FDD184A1378032B09D1D8
:10105000536801335360516803230529AED81370D8
:10106000DB18ABE70023F5E706239142A6DD8642B5
:10107000A4DD9200A242A1DD9622920095429DD964
:101080000A4A1378042B0AD153680133536051681C
:101090000423052900D991E7137002338EE700235A
:1010A000F4E7C0460805002009140000C40400202D
:1010B000F8B52C4D2C4B29882C4A994201D9002394
:1010C00093602B88D16800208B4229D0802680270E
:1010D0002B889168D360B603254B3F02052939D888
:1010E0000800340000F086F936030B1D2830214833
:1010F00006882148C6805C614020986118E01D4840
:1011000006881D48068040209C619861802000026E
:1011100058610020052922D1184B288090609847FB
:10112000F8BD144806881448468040209C615861E8
:10113000802000029861ECE70E4806880E48868001
:1011400040205C615861E1E70A4806880A48068148
:101150009C61D1E740209E6198619F61D9E7013190
:101160009160DDE7F20400200F270000C404002096
:1011700000440041F6040020080500200D0F000087
:101180000122014B1A707047D4040020054B10B5A2
:101190009847054B0122002801D05A7010BD9A7063
:1011A000FCE7C046E9040000D404002010B500218B
:1011B0000548064B984700210548064B98470A21E9
:1011C0000548064B984710BD81110000F904000046
:1011D0008D110000490500001705002005050000DD
:1011E00002003038C0B2092806D91300613B002044
:1011F000052B01D8573AD0B270470000F7B500264A
:10120000254B9A78B24221D0244D9E700A212800A5
:10121000234B9847234C29000A22234B2000984750
:101220000A2231002800214B984728000A21204B30
:1012300098476578322D0BD0332D0FD0312D05D145
:10124000E0791C4B98471C4BD8702E003000FEBD37
:10125000E079184B9847184B1871F6E7A078154EAF
:10126000B0470190E078B047019B134F1B01C018B5
:1012700038702079B04701906079B047019B1B011D
:10128000C0187870A079B0470190E079B047019B11
:101290001B01C018B870D8E7D4040020170500203F
:1012A000BD0600002105002029160000AD16000033
:1012B00005050000E11100001205002010B5114BDA
:1012C000040000209847092C16D80F4B0F49A000A6
:1012D0000B800F4B0F4CC2580F4BA2420DD901226D
:1012E00052424A8022001B589B184B600B4BC9602E
:1012F00000208B600A4B984710BD94B24C801B585D
:10130000F2E7C0461903000009240000E0040020B1
:1013100054050020FFFF00002C0500200C4800426F
:101320004D03000070B501251B4B1C4A1C4C1A6074
:101330001C4A25605A601C4A9A601C4ADA601C4AA2
:101340001A611C4A5A611C4A9A611C4ADA611C4A99
:101350001A621C4A5A621C4B98471C4B60609847A3
:101360001B4BA06098471B4BE06098471A4B2061CD
:1013700098471A4B60619847194BA0619847194BE1
:10138000E0619847184B20629847184B6062984775
:101390002800174B984770BD2C050020100F020045
:1013A0005405002098180000400D0200A00D020016
:1013B000A00D0200400D02009818000098180000CF
:1013C000000E0200A00D0200D1090000D9090000A2
:1013D000E5090000E9090000DD090000CD09000071
:1013E000C9090000ED090000E1090000F107000053
:1013F000BD12000002B4714649084900095C490069
:101400008E4402BC7047C04603460B437FD4002283
:1014100043088B4274D303098B425FD3030A8B4288
:1014200044D3030B8B4228D3030C8B420DD3FF22F2
:10143000090212BA030C8B4202D31212090265D0C0
:10144000030B8B4219D300E0090AC30B8B4201D373
:10145000CB03C01A5241830B8B4201D38B03C01ABA
:101460005241430B8B4201D34B03C01A5241030B31
:101470008B4201D30B03C01A5241C30A8B4201D3E2
:10148000CB02C01A5241830A8B4201D38B02C01A8D
:101490005241430A8B4201D34B02C01A5241030A04
:1014A0008B4201D30B02C01A5241CDD2C3098B42E9
:1014B00001D3CB01C01A524183098B4201D38B0166
:1014C000C01A524143098B4201D34B01C01A524109
:1014D00003098B4201D30B01C01A5241C3088B424E
:1014E00001D3CB00C01A524183088B4201D38B0039
:1014F000C01A524143088B4201D34B00C01A5241DB
:10150000411A00D201465241104670475DE0CA0FB1
:1015100000D04942031000D34042534000229C4671
:1015200003098B422DD3030A8B4212D3FC2289017B
:1015300012BA030A8B420CD3890192118B4208D351
:10154000890192118B4204D389013AD0921100E0B3
:101550008909C3098B4201D3CB01C01A52418309C7
:101560008B4201D38B01C01A524143098B4201D3F4
:101570004B01C01A524103098B4201D30B01C01A1F
:101580005241C3088B4201D3CB00C01A5241830899
:101590008B4201D38B00C01A5241D9D243088B42EF
:1015A00001D34B00C01A5241411A00D20146634692
:1015B00052415B10104601D34042002B00D54942F6
:1015C000704763465B1000D3404201B5002000F035
:1015D00005F802BD0029F8D016E770477047C046ED
:1015E00070B50D4E0D4D0024AD1BAD1005D0A30000
:1015F000F35801349847A542F9D11FF08DFC084EED
:10160000084D0024AD1BAD1005D0A300F3580134E4
:101610009847A542F9D170BD240F0200240F0200A3
:10162000240F02002C0F0200F0B505000F2A2FD95D
:101630000B0003439B0734D116000C000300103E3F
:10164000350901352D01451927681F6067685F60FE
:10165000A7689F60E7681034DF6010339D42F3D1C4
:101660000F239E431036851989191340032B1AD96D
:101670001E1F0023B4080134A400CF58EF500433D8
:10168000A342FAD10324A643331D2240C918ED1802
:10169000002A05D00023CC5CEC5401339342FAD1EC
:1016A000F0BD0500F6E71A00F2E7C046F0B5830783
:1016B00043D0541E002A3FD0CEB20200032502E0E0
:1016C0001A00013C38D3531C16702B42F8D1032C5E
:1016D0002AD9FF220A40150215432A0415430F2C6C
:1016E00014D927001A00103F3E09013636019E1911
:1016F000156055609560D56010329642F8D10F2282
:1017000097431037DB191440032C0DD91A00271FFB
:10171000BE080136B6009E1920C2B242FCD1032297
:1017200097430437DB191440002C05D0C9B21C19AB
:10173000197001339C42FBD1F0BD14000300C6E7D1
:10174000034B10B5002B02D0024800F005F810BD85
:10175000000000006917000010B5010000230022FE
:10176000002000F01FF810BD70B5094B094CE41AB9
:10177000A41009D0084AA518AD00ED182B68013C4B
:101780009847043D002CF9D11FF0D0FB70BDC04636
:10179000380F02003C0F0200FFFFFF3F7047C046BA
:1017A0007047C046F0B54E464546DE465746E0B562
:1017B000364D83B00600286898460F009146FFF723
:1017C000EDFF334B1C68A4235B00E058002852D087
:1017D00043681F2B13DC5A1C0192002E28D1019A5A
:1017E00002339B0042601F502868FFF7D9FF00209A
:1017F00003B03CBC90469946A246AB46F0BD254B93
:10180000002B3DD0C820400000E000BF002837D0AA
:10181000A42200235200A15843600160A05040322E
:10182000835004328350013301930023002ED6D01D
:101830009A00924682444A46882154466250C42205
:101840005200914681444A468739994012688B4636
:101850000A4394464A46614611608422414652003A
:10186000A150022EBBD102005C468D32FF321168BE
:101870000C431460B3E720004D30FF30E050A7E781
:101880002868FFF78DFF01204042B1E730040020B7
:10189000140F02000000000052494646A0F4010067
:1018A00057415645666D742010000000010001008C
:1018B000401F0000401F00000100080064617461C7
:1018C0007CF401007D817E817C83828A8181757AAE
:1018D00078818082807C989C8B30437DD5B5804315
:1018E0003A77C4BD6F4C4FACBF9B453477D2A791BC
:1018F000452B5FA5C791544B86AFC983391F7DAE79
:10190000C88A57618CAF88763C689DA5A4684C84D2
:10191000AB9A624364B0CA8143356AC6D39E5121F3
:101920006FB7B3884C418AC4AF843B3794CAAA6668
:101930002C69C6C5A148156BC8CD8E282B9BD3C07A
:10194000701C3CAFDEB0541663C9DCA22B1881CAF0
:10195000C784273799C8B669265BB5BF954D3C89C2
:10196000BCB08036429BC2AB6A305CB0B8975A3D7F
:1019700081BAB07D39409AC3AE77334DA1B9A26820
:101980003969ABB89B503D84B3AF84424D99B8AA36
:101990006E3463ABB598543F83AFAA86494E97B86F
:1019A000A46D355FAAB49C5A3979B5B6873F3D908E
:1019B000BEB37A3653A5BDA060366FB2B7954D3C25
:1019C00082B0A97E44549CB1A06E3D6BACAC8F55E7
:1019D0004488AFA07C45529EB49A6B3C66A9AA94F9
:1019E0005C3E7CB2AD8747428BB2AB803C529DB42B
:1019F0009F63376AA9B297533F83B1AB8143529932
:101A0000B1A06A3A68ACB091533F83B4AA80434E08
:101A10009BBBA26A365EA8B296573A7AB4B08647A4
:101A2000438BB5AC7E40569DB19C663F6EA8AE938D
:101A3000574583ADA3804C5997A9996D4369A8ABCD
:101A40008F5C4580ACA5844B4E96B7A3713B5BA2DF
:101A5000B09A5F3A71ADB28F4C3F84B4B1833F4EC0
:101A600096B4A4693963A3B399563E7FB1AB81495B
:101A70005598AF9B693E68ABB28F594581B1A67F3F
:101A8000474C94B9A4703D5AA1B39B623E71AFB26A
:101A90008E514282AFA982485394AE9D6F4569A191
:101AA000A9945C457FACA4824E5695AD9C6F42656F
:101AB000A8B1935A417AACA8844A4A8FB7A8763F16
:101AC000579CB4A0663E6CABB290534382B1AC81DC
:101AD000485295B19A6A466CA6AC8E5B4881AFA31A
:101AE0007C515A98B0976C4768A9B08F604A7DAE18
:101AF000A783524E8FB6A377485A9AAF9B6A456C1C
:101B0000A8AE8F5D4C82ACA783515792AC9B714DB0
:101B10006DA3AA8F5E4B80AFA681525692AF9C6E8A
:101B20004462A6B494624777ACAA85514D8DB6A5A0
:101B300077495A98AE9969476DA8AE8C5B4B81ACDA
:101B4000A47E515995AD976E4E6DA3A8895F4F80C5
:101B5000ADA17F57598FAB98704C65A2AF91654A84
:101B600073A6A787564E87B2A67B4D5995AE9C6D3E
:101B70004A6BA3AD8E5C4C7EAAA47F525791AD9B5D
:101B8000704E6BA1AC8D5E4D7EAEA57E535891AE6E
:101B90009B6D4863A2B392614975A9A986554F8888
:101BA000B2A5794C5A96AD9869496DA3AA8C5D4F40
:101BB00081ABA37F525A94AC986F4E6CA0A88C5DF9
:101BC0004B7EADA68253558EAD9D704660A0B499F4
:101BD000644571A5AB8B534C86B2AA7D495895B02C
:101BE0009E6A466DA4AE8F594D80ABA7804F5A9424
:101BF000AD9C6E4B6CA0AA8D5A4C80ADA8815055FF
:101C00008FAC9E6E46659FB198634874A3AA8B54AF
:101C10004F85ACA77C4C5B91AB9D6D4B6D9FAA8FA4
:101C20005A4F80A7A57E515D93AC9D6C4A6B9EADCB
:101C300090594A7BABAE864F5289AEA771445F99EB
:101C4000B49F63466E9FAF8E524E82A9AA7B4A5DB7
:101C50008FACA16A4B6D9CAA9057507FA4A77E5071
:101C60005E8FA79E6E4D6D99A9915C507DA4AA864A
:101C7000525687A6A271496496AE9D664B709CAB86
:101C80008E575281A6A97E4E5D8DA9A06D4D6E9B8B
:101C9000AB925A517CA3AA81505B8CA8A16F4A6871
:101CA00097AB945C4F7BA3AB88525586A7A4734A2D
:101CB0006596AD9C644B729DAB8C575484A6A57AF7
:101CC0004D608EA89D6C4E709BA8905C527EA3A721
:101CD00081535C8BA69F724E6996AA96635279A136
:101CE000A988565684A6A4764E6491AA9D6A4F6F21
:101CF0009AAA8F5B5480A4A67D505E8CA99E6E50DC
:101D00006D99A8905E547EA3A681555D8BA69D71AA
:101D10004F6996A992615179A1A887585885A6A1C3
:101D2000754F6493AA9969506F9BA98D5D5780A2E6
:101D3000A47E55608BA79C70546D95A59061557BD2
:101D4000A0A583595E88A49E74506592A79564519E
:101D5000759DA88B5B5581A4A37A526290A79A6C5B
:101D6000516F99A78E615780A3A27F555F8DA69969
:101D700070556E97A38E62567CA1A1825B608AA289
:101D80009B76546793A4916655769CA3885D588191
:101D9000A3A17B56628EA7996E536D97A68F63574A
:101DA0007B9EA282595F89A69D75566A92A3926412
:101DB00054779DA3845C5E87A39D76546693A79415
:101DC0006654749CA6895C577FA2A27C56628CA63E
:101DD0009B6E546D96A69065597B9DA2825A608831
:101DE000A39C75596C92A2916757779DA2845D5F01
:101DF00084A19E7956648EA5966B557198A68C60C9
:101E0000577BA0A581595F88A39A70536891A391CD
:101E100067587798A0825B5F86A29B775A6B90A2E7
:101E2000916858779AA2855F5F839F9C7857658FEA
:101E3000A5976D587297A58C62597B9EA3825B61B2
:101E400086A19A74586A8FA2926B5C78989E825F82
:101E500061859E98755A6B8F9F8E6859779AA18479
:101E60005E5E82A19E7957658EA6986B566F95A58A
:101E70008C61587A9EA4805B6387A19A71586B909D
:101E8000A491695C799AA1825E6286A09A74596B6A
:101E900090A3906656769CA3835E5D83A1A078563E
:101EA000638DA6976C576F94A68C6256789CA6801B
:101EB0005E6086A19E72586691A7946A597897A72A
:101EC00081665896B5A9451F65D1D595552168B14C
:101ED000CD774C49ACC693582E5EC8C290592C6C35
:101EE0009BC193574F7D9FC594543A6895A2966CB9
:101EF0006D89A9726B5C68B09B8977527FAD9A69D6
:101F00004A5EA1C08D53395BADC7A0764765A8A7CF
:101F10008E654174BFB08D572D75B5AB844646A113
:101F2000C1A879344AA4BDA258237AC5B88B4338D6
:101F30008CC6AD743349B0CCAB622063BBB9944658
:101F40002A85BEAE8240429CC0A16D3664B4B39770
:101F50005A377AADAA8B4D438DB2A07D4A65A5A3B1
:101F6000895C4080B5A889504389AF9E7F4E5EA2B0
:101F7000AF996A4073ACA992594180ADA585494893
:101F80008FB2A7784160A1AA96674A7AA8A4895619
:101F90004E8FAE9C7A4A60A0AB91604378B1A9881D
:101FA00056488AB19D784859A2B2966B456FA9A64A
:101FB0008B5B4784AE9D80525698AB97754B69A654
:101FC000A78F61497FAE9E7E535295AD94754B6449
:101FD000A5AA91654575B0A98B574686AFA27E46E6
:101FE000519CB39C6D4168A8AE945B417EB1A881C1
:101FF0004B4E97B59E714161A6AE935F427AB0A7F2
:10200000824C4791B6A173415DA4AF92613F73B01A
:10201000AC8A534687ADA27C46559CB39D6A3E6709
:10202000A8B0945A407CADA9864B4C91B4A4733EA1
:102030005AA0B29A623F74AEAF8B4D458AB6AA7B66
:1020400041579EB69E643A69AFB8914F3D81B6B193
:1020500080414D98BCA969365EA7BD9C553979B5BC
:10206000B786434890BBAE733C5A9FB9A15E3C6FA4
:10207000ADB98E4B4485B5B07A405699B7A2633D51
:102080006BA9B99553437DB0B381454F92B7AA6E02
:102090003D5E9FBCA25C3F72AABA8E494686B6B32B
:1020A000783F5797B8A562406EA6B8924F477EAF6B
:1020B000B580445391B7A8653F67A1BB9B56447652
:1020C000AAB7874A5188B3AF73445D94B5A16349F9
:1020D000709EB08E53507FAAAE7D4B5A8CAEA369D2
:1020E000486A9AAF945A4E78A3B087515684A9A8EB
:1020F000744B6291B1A0654D6E9BAF8F59567EA512
:10210000AD7D4F5C89AFA46C4D6897B1955A4E7701
:10211000A4B185535883A9A8754F6390AF9D6651AC
:102120007099AD8F5E597D9FA67D556289A8A16F7C
:10213000536B94AB936056799EA883565C81A4A59B
:1021400078556389A79C6A526A95AE946156759CCE
:10215000A984595D80A3A27556658CAA99695670A9
:1021600097A7895D5B7C9FA47C576085A69D6F5671
:102170006B93AA916156769EAA855B5E80A1A1773A
:10218000576488A89C6D586C91A68E635B779AA45F
:10219000835F6381A09F785D6A8BA4946B5D759665
:1021A000A488615F7D9DA07C5B6587A39A6E576A5A
:1021B00093AB946758749BA7865D5C7FA3A37B5AFF
:1021C0006287A4996E586E95A68D645C7A9BA080F8
:1021D0005D62859F97725A6B91A38F6759759AA21A
:1021E000845F5E81A29D7759658DA6986E576C9429
:1021F000A48C63597A9FA4835D5E82A19C75576706
:102200008FA6946956739AA6885E5B81A29E7757C3
:10221000668FA6956A557099A78A5E577CA3A37AA4
:10222000525D8BAB9E6F506795AA92605174A1ACC2
:1022300087585781A4A27754648FA8986A537098DE
:10224000A68B605A7DA0A17B55628DA89A6B526EB9
:1022500099AA90605478A0A981535885AAA676516E
:10226000618EAA9A67506F9BAE8E5C557A9FA57C53
:10227000545F8AA79B6B516E98A78C5F597FA1A36F
:102280007D55608DA99C6D4F6B99AB92605178A282
:10229000AA85545785AAA879505F8DAA9D694E6E6C
:1022A0009BAD915D537BA0A57F55618DA79D6E521F
:1022B0006E99A98F60567CA0A37F555D8AA9A172F3
:1022C0004F6594AD99654D6F9FAE8956527FAAAA0E
:1022D0007C515E8CAA9D6A506D99AC905F557CA034
:1022E000A47F57638EA79A6B526F9BA98C5E567C16
:1022F000A1A480565B88A79F73526792AA996851E0
:10230000709CAB8C5A547FA8A97E535E8CA99C6BA1
:10231000516F9AAA905E567DA2A57F55608DA89DAB
:102320006E506B98AB92605279A1A983525785A9E0
:10233000A3714C6292AE9B644C6F9EAE8C57557FDE
:10234000A6A97C515E8AA89E6B506E98AA905E5694
:102350007C9FA48057618BA59B6E516C96A991615F
:10236000547AA0A784555A86A8A4764F6291AC9C53
:10237000684E6D9BAC8E5A537CA4A880555F8BA889
:102380009E6E536E98A88F60567CA0A37E57618D79
:10239000A79A6C516C99AA905F5378A1A98355585C
:1023A00084A9A5754F6291AC9B68506F9AAB8D5C08
:1023B000567DA2A77F566089A49A6E557095A48E0B
:1023C000615A7D9DA1805B638AA39B72556D97A81E
:1023D000926558799FA685585983A6A37854638F30
:1023E000A99B6D546E97A68D625A7E9F9F7D5B65FB
:1023F0008CA2956F5A7398A289625C809F9D7C5BCA
:10240000648BA3976F566C97A8906558789EA584A7
:102410005B5B82A4A07758668EA5956B587298A3D3
:10242000876160819F9C795B698EA1906A5B7698D9
:10243000A2865F5C81A39F7858638CA7986B546CCD
:1024400097A98D6158789FA480585D84A59E735785
:102450006991A792665A769BA3825D6184A19A7363
:10246000596B92A48D655B789BA2825D5F83A49F6C
:10247000775A668DA7976B576E97A78B625C7A9F8A
:10248000A47E5B6084A39B725B6A8FA38F695E7678
:1024900098A0826366839D9875606D8EA08C69603C
:1024A00077989F82616182A09C775E698DA4936C0E
:1024B0005B7095A489655F7A9C9F7C5E6485A1961C
:1024C000736070909F8B6A627A989B7F6568859C29
:1024D000937362708F9D8A6A6379979B7F6365832C
:1024E0009E9777616B8B9F8F6E6073939E876965F4
:1024F0007C97987D6467839A917566728C988B74CB
:10250000707D8F8E7B676C818C857169758A9489EB
:102510006F6D859D9F8A71738D9D8D6C5A647C8AC9
:10252000816661748B998F7A7A8EA1A18C7973817F
:10253000867E6C5F69797E746A7289A1A08E8284BE
:102540008F9385706262727F7667667D989C8C7BC4
:10255000809BAC9E7E68606D7D76655A6682908AAF
:1025600082899DA59F907F777A8076665D5F70787F
:1025700073707D97A5A1968E8F918E816D5E61722D
:1025800078695B5F79939B958F949BA09987736A19
:10259000727B726158617582888C93989A9C988F2F
:1025A000837D7C746B65676D6B676E80949B99937C
:1025B0009190918E83756A6B7474696063768A9268
:1025C0009391919498968A796F7176726B64666D27
:1025D00075808D96989492928F898079726D6C6EC9
:1025E000706A656C7E909898949293938F83786FBD
:1025F0006D7274706A666C7A89969C9993909190CA
:102600008779706C6E72726F69687488999C959006
:10261000919490857770707174746D676C798890FF
:1026200095999A968E87817C76706C6C70716F6FBD
:10263000717B8E9EA0968C8A8E8B7D6F666871777B
:10264000756A6571889899918F95999383746F7263
:1026500074726D6667727F85878F9BA09A8E848166
:10266000817D7369666C73756F6A748EA3A393869C
:10267000899292826F6468757D74625C6E8A9894A8
:102680008A8C979F9783716D747B776A6165747F7D
:1026900081818B9BA39C8D807F8584796A616A7818
:1026A0007B6F646E8BA4A59484869399887162660F
:1026B00076817662596D8A9993888C9AA29A8671EE
:1026C0006F7581796D5F6975838A93866C7190C02F
:1026D000C0B77434315A87ABAC8A5A273D88C3E6F9
:1026E000C16854698598A1946F45465A7CABAD8406
:1026F000483659B1E7ECB8682E1D5EA7D7B45D2AFD
:102700001048A6DFDF8B483570C8D8C283340C313F
:102710009BE4E0850B002CB9FFFFB12C12509AD23C
:10272000CF90410C2169BAE6C052132487F7FFD538
:1027300066131C6BBBD8A24D11145BB9D5CE994161
:10274000476CB7E4CB923D0A2281D2DE8B1B002777
:102750009BFFFFB95017569CD1D7974013165AAC20
:10276000D6CC7B231359CBFFFF8D1D0550A5D8BDBB
:1027700065170843ACD6C39869525893CEEBBE5D3B
:10278000110254C3EEAC34000B7FFFFFC15D365C19
:102790008CBDC19E5D3829387DC1DE9B280440C9AF
:1027A000FFFF9822074F9DD6BE6C2113478CB7BD03
:1027B000AD81594978CDFFD3680E004CBBF1B242D0
:1027C000000F6EDBFBCC7C4D5976ABC3B077482451
:1027D0001F6CC3EDAC2F0030B7FFFFA73416539129
:1027E000C6BA7832274478A9BDB68453406DCBFF72
:1027F000DA71170242A4E2BA5812175EC2E6C88F15
:1028000067586594BDC39350160B5BC4F4BA3D0082
:1028100024A1FFFFB751294779B1BB8D502C315608
:102820009BC9D3964A3058C0FFE88925013591D617
:10283000C26E261650ADE0D19C6959618CB6C6A710
:102840005B19074AB3F4C75205228DEFFFC35E320E
:102850004A71A9BB995D342C468CC8E4AA4B284E1A
:10286000B4FFEE9830062E82CCC77A301C4898D13F
:10287000D4B278595679B2D0BC68180039A4F0D0D7
:1028800067171E74D5FFD77B3A3D5C9BBFAC6F3694
:1028900022337EC1E7B95927429EF3F5A8450E269B
:1028A0006DBECA8E411E3A83C5D5BD86615166A0F4
:1028B000D1C9802600218EECDB7D211863C5FBDDAC
:1028C0008A4A415689B3B48347222364BDF2CA655C
:1028D000243792EAF4B6571A2360ACC399572A37C3
:1028E0006AAFD9D3965E49599DD4D1892E001E7EF8
:1028F000DCDA8C382059B0ECE29F5746517CACB7FB
:102900009253251C53B1F1D77B2A2E7FDBF7C2648B
:10291000212254A0BFA26431355FA0D1DBAB694551
:102920004C8ED6DC993A01156CCFDB984428529E28
:10293000DADFB2724E46619BBFAD6F260A39A5F54C
:10294000E28A302671CEF6CD752F224990BBAD7943
:1029500040314B8AD0E6BA6E3D4384CEDAA44D0DA9
:10296000135CBCD8A3582E4A8ED0E4BC78514A5987
:1029700090BCB47C300D2D91E9E2953C2668C0EE08
:10298000D07F3B2A4983B1AD86533B3E6EBEEECF2E
:102990007E383275C9E0B05D151351B2CFAC633DDE
:1029A0004680B5DDC59056474A83BCBD9039141E9C
:1029B00089D0EF92611582B8F388487B6E88317FA9
:1029C000ABC94A3500A4CAF3BA5E6C2289ACC9C649
:1029D000B10C001EDAFCC108416DC1BB66B3A0A8F2
:1029E000292E91FFDF52003869997C7AFFA54400B7
:1029F0008DFFFF690057B1B11215C0ECA40000D9DA
:102A0000FFEF194085BD954EA6E2A800008DFFF2AC
:102A1000320083CBA32E89FFE359003AFBFF9600D7
:102A20000B94BE7341B5C6A0031CEFFFE800009DE8
:102A3000E39D0042CBCE390063FFFF720071F0E0EE
:102A40004934CEDA770000DBFFB10000BAE08B51E9
:102A5000D5FB9C0000AAFFFF110052DACC4749AF1A
:102A6000B96C006AFFFF6B004FE9DC440094DC990D
:102A70000000D7FFE20100B3FFBF2A65BBBA4B00DD
:102A80004DFFFF3E0057F4DE6560CAD36E002FFF96
:102A9000FF900000C5F4871B7CC09C331ECFFFD77E
:102AA000000097F9B9222C9CB9570060FFFF5B002A
:102AB0004DFFFF610F80D4A60000B4FFB90000B93C
:102AC000F7A84C8FC89C2700A3FFF30F0053F8EC26
:102AD00054238ECB8D1454FFFF76001ADFFF810044
:102AE00047B298241DD6FFB40000CAFFBE142BAB1A
:102AF000D064004DF3FF540047F9FF80367DBF934B
:102B00001B37D5FF890000B6FFAF1A3FBDCC591E59
:102B1000A4FFDD1C0078FFE13C026EA6782E76FF54
:102B2000F7530051FFFF730041C8C32A069CFFBA48
:102B30000000A9FFE5302EA6CD711875ECD2280053
:102B40004BF4F3631574CDA33B57E1FF8D0000C632
:102B5000FFB0000790B76B44ADFFB71400AEFFDEC7
:102B60001A0083D282194CCBE35D003AFFFF890340
:102B700053CBCA4E299AE29C0000A4FFC3211FA98F
:102B8000E07F358EF3DB2F005AFFFF490041BEB8CE
:102B90005D5DBDE282093FE8FF8E001DAACA622486
:102BA00078DAB21600A3FFF7270089EFAC2C41B00A
:102BB000D0560035EEFF72064FD0D66C55A9DE9583
:102BC0000000B1FFBE00007AE3AB4E6BC8CC530AE5
:102BD0007DFFF23B0053D0B5463FA1C5680048FFDA
:102BE000FF890031C5EF7D2157B4AD240086FFDD9C
:102BF0003A057DF6CA575DB5C74F004FFAFF500042
:102C000024CFF07B418BD6A32A33C6FFA8000088CF
:102C1000E3A0394B9CA950229AFFED340071F9D9F9
:102C2000431878C97E032EC8FF950724C9FF9C3B33
:102C30006CB9A32C1293FEB90B0070FFD64F44A1C0
:102C4000D27D1B62E8FF67001DC2EE77245BA89669
:102C50004453D2FF9B0718B3FFA01C3298B24D1407
:102C600070F1EB49005FFFFF682B6FB98D2844B905
:102C7000E46F0019C9FF973463BBBD54359CF6C39C
:102C800015006AF3D047266DAF8E5281DEE16100F8
:102C90004AE9F7640C49A59A3D3DADFAA10714C174
:102CA000FFBF32328EB76B3074C3B133006AFAE5BE
:102CB000633C7DC09C455EC0E5700011BAFF951C69
:102CC0002D93C57D579FE0B52D0E95FEBD3116693C
:102CD000A57B4477CECD53056AFEFF771B4AA9B08A
:102CE000523F88C08A121AAFFFB63D3F99CD844A41
:102CF00081C6B0260069EEDC521357BEBB696CAFCB
:102D0000CE81173FC3F089162584AE775F98C396AE
:102D10002C34B7FFC838146EC999435399AD571472
:102D200060E4F87F2C56B8C878608DA76E1334B570
:102D3000EF99242290E0A25C7CB7B8511F78DFCED7
:102D40004B0547ACAF706F97A36F3C78E1EE7E19EF
:102D500033A2C77642679E8D3C369CF4CB4D2A82C7
:102D6000D7AF62648D904C2373D5CA5B1353CBD716
:102D70007B6490B78C3045A9E39B1B1078C7A46790
:102D80006E8C986B5EA6E4BB420F68CCB054457B5A
:102D90009D6C376ACFEB872549BBDE8C4E5E858202
:102DA000484D99C997322B93EBB5676793AA683959
:102DB00072C6C6510041B6D081546B9A9B6A78B5F1
:102DC000CC812034A5D0874351838E5E589FE0BBD1
:102DD0004A2A7FDDC8683F61907B4F6DA8B46927A0
:102DE0005CCCE28E5A6D9D915359A1C7831B1C8701
:102DF000D8B4614D7AAD926E8AB7AD542066C4BD29
:102E000068395988856683C0C8752A58BCE19540E1
:102E10003F7C976B5780AD95493B93E2C16C5179EC
:102E2000A0825B7BADA3491556C1D8864358A1B497
:102E30007E7097B186353E96C79845396E97877CE8
:102E40009FB8954C4792D6C15F29559D945D5E8F82
:102E5000A9783E60BDDF994F5690A3786A8B9A6F30
:102E60002C3B98D6AF58427FBAA1707B9CA06134AE
:102E700065B0BD722D468BA68D889C9B75506EB536
:102E8000D08D36337EA47B5D789D8F564A91D4C415
:102E90006E426A9F987576857D4D3872C0C67D3EBC
:102EA00059A9BE8870879E8342468BC19C422C6C78
:102EB000ADA585858F8B6B6193C1AA572A5BA099BD
:102EC0006A678795745072BCD394474C8FAF8C6AF5
:102ED000697B714D599BC39F544689C4A977768BF2
:102EE000915F3F6CAFB868284899BC9A797B8C8811
:102EF0006875A5B782363682AC8C6A708885636443
:102F0000A0D0B5623C6CACAC7A5A677B6A5779AAA0
:102F1000B57D4863A8C09573748677505C98BB8B69
:102F20003B2F77C0B881697D98846E86A79E5E34FA
:102F30005C9DA680666E807A6D8BB8BC824651918E
:102F4000B9975E506E7E69688BB09C5F5186BEB348
:102F5000806671806A5E82A79955305CAFCB9764BA
:102F6000668F9B7C768E9F8148467DAC9B6B5A72A8
:102F7000888184A2B5985C4877B3B1724859827E43
:102F800069769DAA7C536AAAC49B645A778471733C
:102F90008B9775424A8DC8B271597DA291737C940A
:102FA0009463405E9BB184555C85988C8DA1A07B19
:102FB000535E97BC955341688B7F768BA28F635E7F
:102FC00090C2B5754F61898B747788835D4970B203
:102FD000C4905A6293A48977808E7A4F4F83B29CB3
:102FE000604A71A1A0898996906D5A7CAAA86E400A
:102FF000518292827E8E9378637DAEBD91564F7CD6
:103000009A8670748275565D93C3AE6B537AA8A38B
:103010007F737F84654E6EA1AB784A5B95B09780D5
:10302000869283626793AF90503D6998967E7D8BC0
:1030300089717095B8AB6C445F949E7E6A727A69B0
:103040005C7CAFBB88546096B395706B7C7A5C5F98
:1030500087A8935B4D7AB0AD8575838F79647CA02A
:10306000A26C3C4F8BA78D747889847381A3AF8940
:10307000514D7FA7946C6070796D7395B1A06B57BB
:103080007DADAB7D626C7F726074979F764E609D64
:10309000BD9B7471888D72708C9F844D4072A9A500
:1030A0007C6A798D847E92A89D6A47649AA7805C29
:1030B0005E767D7686A3A9825A6699B697685C7318
:1030C0007E6D6B859B8B5B5381B7B18168769083F6
:1030D0006E7A929367415794B1916968859283851E
:1030E00098A284535081AA9A68506682828092A3E3
:1030F000966A5C80B0B07E555B7A8072788D9172F2
:10310000556CA3BD996A6382937F74828F7C50490A
:103110007AACA8795E729392848998926B4D679984
:10312000A8825251768F8888959A81626D99B2985B
:10313000634F6A8681767F8C8265638AB3AD8161D5
:1031400070908E79778586674B6397B193656184BC
:103150009E92868C917F5A5984A4986448628D9877
:103160008B8B918B726987AAA97B4D557B8E80775B
:103170007F8373657BA5B597675F819A8D78787D2E
:1031800072585A84A9A37359749FA68F8386866E3A
:103190005B72969F784B5281A29786858B8471795A
:1031A00099AA925D49688E907B757C7D727392AD11
:1031B000A67B5A6B929C84727273675C749AA88A1D
:1031C00061638BAA9D847B7F7C6768859B8C5D4A4D
:1031D0006A9AA58E7F7F867E778AA09E744C5780E0
:1031E0009989726E767B79859DA990666184A19696
:1031F00076686C716B70889F98705E78A2AB9079DE
:10320000777E776C788D92714F5C8AAA9B7E7580F1
:10321000898184939B865A5071969778666D8085D4
:10322000848F9D9978617498A18366636F76737CAF
:103230008D9680636B92AD9E7B6C76807976818C67
:10324000805C5476A2A8876D72888E8789928F6F72
:103250005262899E8A686075898B8C9398866969A9
:1032600088A39A745C62757D808790896E6681A759
:10327000AE8E6B6A7C847F7F84836A556793AC993A
:1032800074677B90908A8A8B7C5E5B7A9A98765C76
:10329000668493908D908B76697B99A0845F596E3C
:1032A00083878384877B6D7796AA9B7564728588F4
:1032B000807D7E77626482A1A38369718C978F86FB
:1032C00086836F5D6E8D9B87645F7995988C868809
:1032D0008271738B9D936E5763808E877E81827718
:1032E0007588A0A28566677E8D877C78786D657706
:1032F00093A3916F677F9798887D7D7666677F95AA
:1033000092715B6B8D9D92827F827A737F92977DA3
:103310005B59758F8F807A7E7E798193A0927061E0
:10332000738B8F807371716D73889B997C667391B9
:103330009D8F7B7577706B788A917E6162829D9B91
:1033400086787C807A7A87928868566889968877AA
:10335000757D7F818C99977D626782938B756A6D8D
:103360007378849398876D6C849C99827172747160
:1033700074808D886E627596A1907A777F807C824A
:103380008D8D765B5E7C96937E7277808589919534
:10339000876B62758F937E6A68717A828C938D7861
:1033A0006B7A949F8D746B7076797F878979676D5E
:1033B0008BA19A7F727884848184887D645C729109
:1033C00098857071808B8C8B8D8A77676F869487D8
:1033D0006D636E7E86898B8C817273889C957A680A
:1033E0006A777E8080837F6F6C809AA089737280F9
:1033F000898681817F70626B87998F766C7A8C91D8
:103400008D8989806E6A7C91907863677B8B8E8AC8
:1034100088847A7581959B866B64718084807E7DBB
:1034200076717B929F93786E7A8A8D857F7D7668A0
:10343000687C93957F6D73879592888481766C768E
:103440008A92816761738B938B83817E7A7F8F9A57
:103450008E72616A7E89847A7878757A8A99988280
:103460006F7385908A7E77756D68748A9688716CA3
:103470007E93988C817E7B7273828E886F5E698565
:103480009590837D7F7E7E8792927D666476898823
:103490007C7475777A8391988C776F7C8E91837723
:1034A00072706D7282908D796B748C9A92827B7B34
:1034B00078757C888B7963637B9294857A7B7F8136
:1034C000858E92866E626E848D827371777C838C1A
:1034D000938F7D6F758A958B786F7073767E888CED
:1034E00081717285989685797A7E7B7B8287816DE2
:1034F00063718A968A7A77808587898D8B796668E9
:103500007E8F89776F747F85888C8D8576738191A6
:10351000907E6E6C72787D83898779707A8F998DB1
:103520007B75797D7D7F858476666A8297948075C8
:103530007A8488898A8A806E67768B8F8070707CA7
:10354000878B8A8B897E757B8B9387736B707A7F71
:103550008285867F74778797948173757D8181805A
:10356000817A6C697A9197887574818B8B88868152
:1035700075696E828F87736C76868D8A878782786D
:103580007783918E7A69697681848283827A768064
:1035900091988A77717A83847F7D7C746C74879527
:1035A0008F7C737B898F8A82807B706D798A8C7C1B
:1035B0006C6F808E8E8784837E797D8A8F826D6525
:1035C0007081888480807E7A7D8A96907E70727EFB
:1035D00086837C78757072809093847574828F8DE9
:1035E000847D79736F76848C82706C7A8D928A81F7
:1035F0007F7F7D7D858C8673666C7E8B867C7A7EF4
:103600007F808690918373707C87867C75757475D6
:103610007E8A918A7A747E8D92897D777674767FA0
:103620008986786D7488958F827D7F818083888874
:103630007B6B6777888B80797B8082848C908B7A98
:1036400075798D85716B6E767D787885908E7D82AB
:1036500094A2917F756F6E757479867D6E6B7F9481
:10366000948480858687887D817B69626886928460
:10367000787F7D7E8786979B8A756B7986847C733D
:103680007D7C6F7483918D7D7A8291918075757B3D
:1036900077757C848478707A88938F838284888518
:1036A0007E797A786E6C7C8A867B7579848A8D8D3A
:1036B0008D85787178878B8071707881868989840F
:1036C0007C777E8C9489766D70787F7E7C7D787334
:1036D000778694938478798189898581796D6B78EF
:1036E000888C8175737D888B8B8A857B7477848DBC
:1036F00086766C717E86888684827B7B86918F80BD
:10370000706F7982847F7C7A73737E8C92877978EC
:1037100081898A847E7A756F74818B8679737885C6
:103720008D8A8583807A767B85867A6C6C7A888AA6
:103730008582817E7D838D9086776F758085807987
:103740007878797F89908C7F777B868B877F7A7773
:1037500073737B868A807677828C8D88837F7A7775
:103760007A828780726B73828B88837F7D7D80896C
:10377000908B7C6F6F7B85847C7777797D858E8E4F
:10378000847878828B8A82797574747A8288837857
:10379000757E8B918C847F7D7B7C808582766C703E
:1037A0007F8B8A827D7D8082868C8C81736E77840C
:1037B000877F7775797E838A8E897D777D888D87EF
:1037C0007B7474767A8288877D7579869190867EFF
:1037D0007C7D7E7F83847C716E79898F887F7C7FFE
:1037E00083878B8D867970738089857A74777D83E2
:1037F000888C8A817879838C8A7F7371757A7F84CB
:1038000085807775808D91897E7A7B7D8081827EAF
:10381000746D74828C897F7A7B8186898B877B71BA
:10382000717C87887C73737B8388898982797881AE
:103830008B8C827570747B7F81817F78777C8A8E98
:103840008C7F7A7A808281807D776F737D8C89848A
:10385000767C7C8A868D828272757686877F776A8F
:10386000969792344A8DD9AD7F424A88B7AD574872
:1038700053CDBA8F361E7FE8B58C4A38769FC0800C
:1038800047588E99B4765741779FB283698F8B9949
:10389000757450749F8E93665C84978C695979AA6D
:1038A000BA763A5A80B4BC824D3B82B4AB7B48486E
:1038B00087C9C087453E84BA9F6E4259ACBD9753B5
:1038C0002B62BDD090343490CFCA74252F8EDEBBCE
:1038D0005F1B50BCDFA93C227BCFCD802F3C8FC526
:1038E000AD5B264DB2D19C4B2C78C7CD913B378830
:1038F000C2B77032459ABD955C3E7DBEB67E3D46F0
:103900009AC9B272323B90BEA5693355A4C2A75C76
:103910004084B7B98746498BBAA563314F9DC0A093
:10392000583874B1C199534983B1AC78404D96B7BA
:10393000965A3E73B8BF88474592C6B577394390CB
:10394000BAA1643358A5BD9D5D4381B5B1854F557E
:1039500094B199663E5A9FB39159407DB6B48E5149
:103960004F90AFA076445496B0915A3E74B7BC8B3A
:103970004B4991BFB67F3F498CB5A56735539DBC78
:103980009F5C447EB4B7874B5492B6A0633C5AA068
:10399000B994563E7AB7B98E505092B4A47442543A
:1039A00098B392583B6FB5BA8B4D488FBEB58044E3
:1039B0004E8DAE9F6C3F5A9BB095604980B0AF87EB
:1039C000505793B4A0673C559BB8975A3A70B1BA18
:1039D00093544D8BB1A97A465292B2965C3968AF36
:1039E000BF914B4489BEBB82444D8CB4A56B3D58FE
:1039F0009BB595584983B4B17E4B5996B8A2643CA7
:103A0000599DB995574072AEB68B53548DB1A6727D
:103A10004A5A93B292583F6AAFC08E4C4687BCB99F
:103A200080475089B2A268425B9AB592564881B7E6
:103A3000B880455291BCAC65355199C2A055366BE2
:103A4000B0C3934A4C8CB6B1723F5592BA9E55386A
:103A500066ADC695463E84BBC285404B84B3AA6919
:103A6000405997B896584C7FB1B5824D5B8EB1A640
:103A70006B435692B79C5D406BAABB92545186AE85
:103A8000AC7548578CB49C5B3E63A8C2964E427F8F
:103A9000B5C089464B80AEAA6D445894B998554933
:103AA00081B6BC81425592B9AC66365192BDA358DD
:103AB0003A6AACC4944B4F89B4B4723F568CB49EEE
:103AC000563B66A6C2984F4882B1BD894A5280A72C
:103AD000A66C465B90B295574E82B1B7854A598D18
:103AE000B0AB6D3F528AB5A2624062A1C09D584EF4
:103AF0007FADB87F465084B2A35F3D5FA2C29B52A8
:103B0000447EB2C08E4A4D7EA9AA6F42558FB79BA4
:103B100057477DB2BE8844548FB4B16E3B5089B2D2
:103B2000A46242679EBB9A5A5784A7B17D4A5985C1
:103B3000AA9F6041649FBA98574E82ACB88D535784
:103B40007FA3A36F4A5A8DB1985B4A79B0BE8C4B64
:103B50005289B2B376404B82B1A76842609BBC9D4C
:103B60005B5383ABB47F485586ADA0603D60A0BE7B
:103B70009A554881AFB98D515680A3A572495A8B89
:103B8000AE995D4C7DACB78C50598BAAAA76465342
:103B900085AA9D684B699BB196625D86A6AB7F51F5
:103BA0005A84A89C66435E9CB99A5D4C7BAAB891E6
:103BB00058557CA2A4744B598CAE985F4B79ADBA22
:103BC00091525386AEB17B444E82ABA26A48669A4C
:103BD000B398605B88A8AC7F4F5B88A79C66426007
:103BE00098B39C61507CA6B3935D597E9DA1774F9D
:103BF0005D8BA895624F79A7B3925C5883A6AA8083
:103C00004F517DA4A0704D6495AD97665C82A4A9C8
:103C100082545884A69C69455C95B49C634E77A5F4
:103C2000B5935D567DA2A3764D5A8BAA97614D78C8
:103C3000A8B691595783A7AB7E4E537EA39F6E4E75
:103C40006795AC95635D84A5A97E535B86A69C6948
:103C5000475F92B09A645277A2B39360597AA0A258
:103C6000754F5A89AC98614C73A5B7925A567FA785
:103C7000AD8051527CA49F6F4F6696AF96645C8373
:103C8000A9AD80515885AAA069445B92B29C645149
:103C900076A2B392615A7B9FA176525D88A7956206
:103CA0005076A3B3915F5C82A5A97F55587FA39BF3
:103CB0006F526995AB92635E83A7AC82565A83A715
:103CC000A06E495B8EAF9C6954739FB091635B7B20
:103CD0009FA177525B87A795634F72A2B2925E58FD
:103CE0007FA5A88055577FA29A6D506894AA9162CB
:103CF0005D83A6AB82545A83A6A06F4A5D8CAB9CB1
:103D00006A55749CAD94655F7D9B9F78546086A2D4
:103D1000956652749DAE94645C80A1A88558597EC6
:103D20009E9A70526992A895675F81A4AC87595B8F
:103D300081A3A1744C5B87A69C6E587499AC946760
:103D40005F7E9C9F7A546088A2936652739DAD9566
:103D5000665D80A0A786595A7E9C9B71526990A689
:103D600094675D80A3AB885A5B80A09E754E5C868D
:103D7000A39B6F5A7496A99569627E9A9E7A556044
:103D8000869F946851709AAD97675C7C9EA8885C0A
:103D90005A7B999A7353678EA595685D7FA1AC8B0A
:103DA0005B597E9FA178505A82A19C735B7292A648
:103DB000956B637E979C7B565F839C9369526F964D
:103DC000A895695D7C9BA5885E5C7B989874556717
:103DD0008CA3966B5E7C9DA98C5F5B7B9B9F7A54CA
:103DE0005C809D99735D7291A3936C647C969B7BC0
:103DF000585F839E956C536E95AA986B5D7A9AA6D0
:103E00008A605D7B96987557688BA0956C5E7C9CEC
:103E1000A98F625C7B999F7E575D7F9998766075CC
:103E200091A0916E6781989A7C5A62859D946E5597
:103E30006C92A7996F5F7998A48C655F7A94957757
:103E40005967899D936E607B9BA790665E7B999E68
:103E50007E5A5F7F999775617592A2936E67819B79
:103E60009D7C585E849E966E536A90A7996F5F788A
:103E700096A48E655F7993957458688A9D926B5F5E
:103E80007C9CA78E635E7C999F7C595E809899721A
:103E9000607394A39369647F9DA17D585C849E9D0B
:103EA0006C556292A4A26A636F9CA295616193A80B
:103EB0008E1F388DE3AF912B3D7FCDB36F4367C924
:103EC000A088314298C982974C3C7EA3B58B456D42
:103ED0009A9DCA7A473C6396CD8171746A8F9581A9
:103EE000538294A3A763577D919E63416C97BE8ACA
:103EF000464C62B0DEAC5936639FCF99422B5CC80A
:103F0000E285291E7BE6CD792D3FA6E7C053103709
:103F1000B7F1992A1665DEEE7F2A2489F7CD661B54
:103F200033B1F9AD300A51D3E984292280E7CF6F4C
:103F30003037A0DDAB562951B5D3853C3777CFC597
:103F40006F3946A1D7AA5C325DB2C88136327AD0C9
:103F5000CB73303E9DD9B0643A59ACCF974A3A6C96
:103F6000B8C57636418ED4BA633553A5CF9E4F3A45
:103F700066AFC178434C82C3B167415AA8CD9B5507
:103F80003E69B5C27E423D77C1B771454F9ACAA01E
:103F9000624366B0C08B534672B1AF75494D8DBF59
:103FA000A7704A60A0B594624B71A9AE7B4C4E8855
:103FB000B9A26C4861A8BB955F4471AEB5864E440A
:103FC0007AB6AF79475399BDA267436CAAB58D53B2
:103FD0004C7BADAD7B495292B8A26E496EA7AD90B5
:103FE0005D4F7CA4A47C50568CB09E6E476AA8B3EB
:103FF000955E4979A6A885534E7FAAA67A4C5D980E
:10400000AF9F6A4A71A1AA8D574C7AA6A77E4C55DC
:1040100090B0A57448699EAD985F4973A0A884507C
:104020005088AFA7764666A1B39E604472A2AE8E5A
:1040300052467AA9AE82495C96B0A86E496E9AAE95
:1040400099584573A3AC854A528FAEA7754A6D9AAD
:10405000A899624C739BA6864F4E88AFAA7A476395
:104060009DB1A366446C9DAD92554375A3AD874D3C
:104070005890ADA9744C6A95A6975F48709BA98A21
:104080004F5289ACAC7A4D6A97AA9D654B6F96A644
:104090008C545181A5AB7F4F6592ADA86F4B689151
:1040A000AA985C4B7298AC8D565D86A5AB7B536A23
:1040B0008EA49A654E6F94A58D595984A2AA8357F0
:1040C000688DA4A06E516B90A5905A507AA0AC87D1
:1040D00053608BAAAD774D6189AAA064496893AEFD
:1040E000935C5B7FA0AF84586585A2A16C4F678D00
:1040F000A7925D567C9EAD885A6486A2A5755364CE
:1041000086A29863517296AB905D5F819EAB835897
:10411000617E9DA273526486A599685D7997AA8C89
:104120006065819AA076556587A29869577396ADA8
:1041300095645E7A9CAB84585C7CA0A17052658DBE
:10414000AD9C6759779BB08C5B59789CA57B545E7E
:1041500080A4A1725B7092AC97665E7897A5815738
:104160005D7E9F9F73576C8EA89C6F5E7393A88E25
:10417000625B7496A17D586082A3A2765C6E91AB5F
:104180009968576D93A5895D57759AA17D5D698979
:10419000A59C725E6F8FA18A6056749AA17D58604B
:1041A00087A7A1775B6A8EA79769546A91A2875CFB
:1041B0005A7EA1A37D5C698DA59B71596B8DA08DE5
:1041C000645773959E83626687A09C785E6C8E9F11
:1041D0008E66557196A1855C5B81A3A47F5D658A1F
:1041E000A39B7255658CA18F6254759CA7885E60F5
:1041F00087A6A37855638CA29367516E96A28A63B3
:104200006084A1A17F5C668CA1946B526C96A28B9A
:1042100061587FA2A6865F6288A39E7855638A9FB5
:104220009168557499A38B646285A0A07F5B6289B5
:104230009E946D536B93A08C665E819FA1825D629C
:1042400089A19870506592A4916453779EAA8C605E
:104250005E84A3A27C566089A0956B53729AA68D4A
:10426000626087A4A27F5A648BA0966E536C94A25E
:104270008E655D81A0A4855D6389A19A7352658F67
:10428000A3946754769DAA8F635E82A1A27F586132
:1042900087A0976D546F96A68F655E82A1A3835CFD
:1042A0006187A09871536891A391665B7EA2A686F0
:1042B0005D5F89A49C724F6290A4936652749CA91E
:1042C00090635E82A0A2805760889E946B53719821
:1042D000A48C626086A3A27F5A638AA0966E5269FC
:1042E00091A28E645A7EA1A7865D6087A49E7352B8
:1042F000638EA5946655759CA98D626284A1A27C8B
:10430000596488A09569546F97A78D605F83A3A6B1
:10431000805A6286A1996E52678EA490645A7C9FDF
:10432000A8865D6185A39F7452638BA395675571C1
:1043300098A88E64617F9DA17D5B63859D936B577B
:104340006F95A58C636083A3A47F5B6386A1986E41
:1043500053678FA48F645B7B9FA9865E6184A4A151
:1043600075546088A59769567095A88E6564809D80
:10437000A17D5E67869E9269587195A3896061826E
:10438000A1A47E5D6585A19A6F56678DA490655D39
:10439000799CA8876164809F9F76586284A1946A03
:1043A000596F93A68C6665809EA07B5E66849E9204
:1043B0006A586D92A48A63617EA0A6805F64809F24
:1043C0009A71586488A391685D7599A78762637F25
:1043D0009F9E775A63849E916B5C6E90A28A6967F8
:1043E0007E9A9C7A6167849C8F69596D91A28964D9
:1043F000627C9EA48161637F9F99725963869F8EC0
:10440000695F7496A3866667809C9A775F66839AD5
:104410008D6A5F71919F86686A819D9B78606886CE
:104420009F9069596C91A38A66637B9CA48365669F
:104430007F9C97745D67879D8C6A627897A084687B
:104440006B839D98766169869B8C6C6174929D8468
:10445000696B819B997A646A859B8D6C5D6E8F9E7A
:104460008768657C9CA1826768819B93736069887B
:104470009B8A6B6579979E836A6C849C9676626A48
:10448000869A8A6C6274929C846B6C839C98786325
:104490006B879B8B6B5D6E8F9D8669657C9A9D811A
:1044A000696A839A9173626C8999866B667A969A27
:1044B000816C6E849A9378676C8697886E65759028
:1044C00098836E6E829A967C696D86998B70627005
:1044D0008D98866E6A7D979A836E6D83978F7767C6
:1044E000708994856F6A7C9395816F7186979079B6
:1044F0006A708793867068789094826F70859892BE
:104500007B6B728894877167748C9384716E8094CE
:104510009482727384918A786C74868D81726F7FB5
:104520008F8F80747686928B7A6F75878E83736D8A
:104530007A8C8F82747484938F7F7173869189775C
:104540006C75878D857774808D8F847979858C865D
:104550007A737A87887F7575828C8A81797A878E5B
:10456000897C747986898277727C8788817979825F
:104570008A8880797A8387837B75798285827C7A41
:10458000808586837E7D8284827E797B81827E7A2D
:10459000797F8585817D7C838785807A7A81838018
:1045A0007C787C8284827E7C818585827D7C808211
:1045B000827F7A7B7E8082807E80828283828181FC
:1045C0007F7E7F7F7F7F7D7D7D7E808181828180F8
:1045D000818283837F7C7B7D80817E7B7A7D8385E6
:1045E000827E7D808585807C7C7F83817C797A82D8
:1045F00086827E7B7F8586827E7B7E83827E7A79C1
:104600007E82807D7A7D8486827D7B8087867F78AE
:10461000777F86837C76788288867E797D8689849A
:104620007B787D85857D75768188867D767B878D97
:10463000877A757C87888074737E87857C75798698
:104640008B857A767F8B8B8074727F89877B717480
:10465000838C887B747C8A8E8578737D89897D7153
:1046600073818C897B7179888F887A727B888B8043
:1046700072717E8A897B7076868F8878717C8B8F49
:1046800083716E7E8C8C7D6E71838F8C7B707A8A49
:104690009086746F7C8B8C7D6D70818E8B796D773D
:1046A000899289766F7C8C8F806E6E7F8C8A796D13
:1046B0007689938A766E7B8E92846F6C7C8D8E7CED
:1046C0006C7083918C796E798C9387726E7C8D90EF
:1046D0007E6B6E81908D796C7689938A756E7B8CFA
:1046E00090806D6E7F8E8C786A7589948B756D7CE9
:1046F0008F95846D6B7D8F907C696F83928E786DC2
:10470000798C9588716C7D8E907D696E83928E77A1
:104710006A778C978B736C7C9094816B6C80918E94
:104720007768748A978C736A7B9097846C6A7E91A1
:10473000917A686F85948D756B798E97866E6C7E95
:10474000919179676E84948E7468768D9889706B78
:104750007D92947E696D82938D7367748C988A7054
:104760006A7C9397816A6B80938F76667088978B4B
:10477000716A7B9399846C6B81969278656E86974B
:104780008C716777909A876D6B7E95957C676D8449
:10479000968D7266758E9A896E6B7D95987F696C21
:1047A00082969074657189988A706B7D9498816BFC
:1047B0006E83979075657089988A6E6778929B85ED
:1047C0006C6C8096957A676E85968B6F66778F9AFC
:1047D000866D6B7F96987E686D84968D7266738BFE
:1047E00097866D6C7F96977E696E85988F736572DC
:1047F0008A97886D687A9299826C6E8297937867AF
:10480000708897886D67789199836B6D8297967B96
:104810006A7086988C7066758D98846C6C8097969B
:104820007B697086998F7165718A98866B687B94B5
:1048300099816C708598907467738B98876E697A8C
:1048400091967F6B6F8498927768718795876E6871
:10485000788F96816D6F83989579697188988A6F42
:1048600066748C97846B6A7C93957E6D7386968C48
:104870007369758B948169687C93947C6A70859860
:104880008F7569728996856C677890957E6A6F835B
:104890009792786A748996886E68778F957F6B6E29
:1048A000829692796B74889589726B778C927F6D02
:1048B0006E8093927A6B7287988D756C768B9482EA
:1048C0006D6D7D91907A6C7286968C746B748995FF
:1048D000846E6B798F937E6E7184958E776D778AF7
:1048E00095856E6A788E917B696D81948F786C75F1
:1048F0008A9789736C788C927E6C6C7D918F796DC0
:104900007588958A756E788C92826F6D7C8E8D79A4
:104910006E7385938A756F7A8D9584706E7D908F96
:104920007A6C7083938D786F788A958874707C8E9A
:10493000917E6E7181918C786F7789948975707B87
:104940008D917F6F707F8E8A776E76889287757271
:104950007D8F9180717281908B776C738591867455
:10496000707A8D928273727F8E8D7B6F7383908845
:104970007670798B928474727F8E8E7D7173828E45
:1049800087767079888F827373808F8E7C70738244
:104990008F87756D7688918573717D8E8F80727427
:1049A000828E88776E75858D8274717C8C8E807412
:1049B00075828E897A7175848C8274717B8A8C7E03
:1049C0007375838F8A7A7176858D84746F78898DFB
:1049D000817474808D8C7E7478848C8577727987ED
:1049E0008B7F7475818C8B7D757A868E8678727AD2
:1049F000878A7E72727E8B897B7277868F887871C8
:104A000078878B8072707A88897D7477838D887BB4
:104A1000767C878B8175747E89887B7378848C879C
:104A20007B767E8A8E8376747D89897C7375828B92
:104A3000877B757B888E8578747D89897E74757F88
:104A4000898579747A868B847977808A8A7E75776E
:104A5000828A8679727A878C837776808B8B7F7552
:104A600077828B877A7379858B847977808A8C813A
:104A70007779818A867B747983888177767F8A8A41
:104A80007F777A848C887B7479868B8276737C8935
:104A90008B807779848D897D777B868C8377747C16
:104AA000888A7F7578838C897D767A868B83777404
:104AB0007D87887D7578838B877C767C878C8478EE
:104AC000757D88897D7375818B887C767B878C85E5
:104AD00078757D888A7F7576818A877B747A878DE1
:104AE000857A767D898B8076777F888679747A86D9
:104AF0008C8478767F8A8C807475808A877A7278C5
:104B0000848B8478767E898C817576808A887A72A7
:104B100076838B8578747C888B827878818B887B90
:104B20007478838A8376747C888C817677808A8A8D
:104B30007D7478828B8577737A868B827676808C8B
:104B40008C7F7478838B86787279858A8175757F7E
:104B5000898A7E767A858C8678737B878A80737360
:104B60007F8B8B7E7377838D887A7278858B827545
:104B7000727C898A7E7477838D897B747B878C8332
:104B800075737D88897C7275838C887A747B888D37
:104B90008475727C898F887A73777D8275737A8247
:104BA0008E8C837B7D828A8074787F8B907E7880E8
:104BB00086887C6E697482897B787E89958F7C6E0D
:104BC00072828F8A7E7582868A7F6E7380959B84BF
:104BD0005F54618496A79C7D6D6D655B6A86B6C1E6
:104BE000AE90644F52557098A8A59B7D614E52724D
:104BF00092B4BA9E73594E4A5A88C0D7C5894E2F6F
:104C00003F5674A9C6D2B57738243E65A1D2CFAD40
:104C1000814B34364A80C2E8D6A36520174376AA72
:104C2000D0DBBB83431B2B5797D0E4D59E55241B69
:104C30002F64B2EBECB87A3B1E2C4E86BDE8E8B888
:104C40006A2211285AA0D8E6C88A4B28264781C371
:104C5000EFE8B1621C09275FA6D9ECCF8C47212A67
:104C60004F80B9DAD9B16D341A295CA1DCF1CB8758
:104C700043232B3F74B4DDE7C27A2F0D235698D01F
:104C8000EAD38C4C322E487EB8E1E3BB6F2C101E69
:104C90004A8FD4F2DD9A4B232A4A76A9D2DDC17716
:104CA000381C204B92D4F1D4924D3038436AA4D1B1
:104CB000DAC2883B0F1D4B87C4E7DA995537334A70
:104CC00078ABD7DBBE833F17153A81CFF5DE9C5416
:104CD0002D35547298C1D6CC8F4419144086CDEE30
:104CE000D39A5F3D4149659ACED7C2964B14153E83
:104CF00079BAE4DEA6653D384E76A3CCD3BD955097
:104D00001D0E2A6FC2F9E6A4603138577292B7D2ED
:104D1000CE9F531D0D2D74C3EDD7A26D463F4B6141
:104D200091C9D8BE9C5B1E122D66AAE1E7B86F3E02
:104D30003050779FC5D1BBA366270A1456AFF9F050
:104D4000B165382F5F7193A9D0CBB4602303246081
:104D5000B1ECDAB569813B570076FDFFCE694E5361
:104D60001F0A416CFFD7DE3C3D4C4A918DB4DCE21A
:104D70007E1C2F494D462EFFFFFF5C000057B97681
:104D800097BAFFD02E006B654507B4FFF358004378
:104D90009A933B60FFFFA7000074A969008BFFFF97
:104DA0007F00218EC95944E9FFD013007E90550041
:104DB00047FFFF730023B9A1612FC5FFFE43004CDD
:104DC0009689123FFFFFB60008739782439CFFFF4E
:104DD0004C0037977F3A2BF9FFD8000087BF8E2F02
:104DE0008FFFFF76001A888C3D0DDDFFEC0D006E05
:104DF000999D5668F8FFBE00007DA76F1EA8FFF5BD
:104E00003C004DADA9614EF6FFAF0000829E7A29AD
:104E10008AFFFF440038B6BD7755D6FFE21E004139
:104E2000969C4068FFFF6E0013AAB88D48AFFFF054
:104E3000280040BC9E445DFFFF860000A2C2934351
:104E400094FFEE50001691B38253CFFFA500008966
:104E5000E1B45A7BFFFF7800008AB77D48C7FFAAFC
:104E600000007ACCB06B76F5FF8D000080C8A257A9
:104E700094FFD82D0044D8E47E49C6FFB10000530A
:104E8000BEB76F83FFD9310036E0D98656BCFFC567
:104E9000140036CAC9776ADBE0570009ACEBBA5D8B
:104EA0008EFFDA2B0015C0DDA261BAEF7E0000A7ED
:104EB000F4BF5D77F0DB550001A9D3AA60A4E485B7
:104EC00000008CF8E2745FD9F279000096F7C55EB5
:104ED0007FD4A1190059E5E98F57C6E67600008B0B
:104EE000E8D37472D1AE29003DD9F79D499CE2A365
:104EF00002005FF2F37F53B0BE4B001BC4FFBF52F2
:104F000087E1AD1B004BE4F390539BBC690000A408
:104F1000FFDD6A6CC1A9360025D5FFB0437DC88787
:104F2000040080FFF17253A7C05B0009C2FFCD5699
:104F300066AC8F26005AEEFF9E518FB06900009933
:104F4000FFE6684D9CAB3D0040EBFFB2456BAC8586
:104F5000130079FFFF7E428FA35B0120BBFFCF5D73
:104F60005B9988240069F7FFA53B679E73120DA526
:104F7000FFEC6246959343003EDFFFB4425C9C7BAE
:104F8000170E97FFFF83376E8F600828C6FFDE4D30
:104F9000408784471165F7FF953666965C092ABA03
:104FA000FFED5E2F7B97520954EFFFAD344C897DA6
:104FB000371483FFFF7D2864895D244FCBFFD846DB
:104FC0002D77823C0D76FFFF8A1A529681342EAFE0
:104FD000FFE3562E6D80492468E2FFBD282B808EAA
:104FE0004A2D94FFFF72165286712B3ECFFFCA30B6
:104FF0002A7F85543D85F5FF95223B7A6A2E3DC078
:10500000FFE4440C669F7F3B61DDFFAB242C6E7494
:10501000504498FFFF6F0E4E8E7B4A64CEFFBA3429
:10502000206E83583185FFFF78084291906559A71B
:10503000FFE5550D4777633F78EFFF96082A91A368
:105040006B4A9FFCE25A0C487F755467CDFFB52A26
:105050001D76987C6091E5EB76042A7E875557C0D3
:10506000FFC6280B6FAB996371D2FF9D110E5D7E59
:105070006965B3F8CF430560A6996573C7F2A517B4
:1050800005639C82608AE5E869023698B0836CAA61
:10509000E9BE2E004990876A8EDBDD6B073A9CB62D
:1050A000916A9AE6D64C00247F9B8185BFDF9014DD
:1050B0001E7FB4A17895D5D05200268FAD8677AFEC
:1050C000DDA7250868B3B68281C0D279001572A029
:1050D0009985ABCD9E2A0B6BB9BA8379BBDE8B0168
:1050E0000060B0AE8494C0B44C0A4898C0A486ABAB
:1050F000C288110268AEB28A8EB6B55C022F97CE16
:10510000AD7695BF9F2E0048A0C4A28EABAC6810B0
:105110002F91C5B28292BBA73C00329FCFA8819A43
:10512000AC852A1868B7D09B8CA99B4B00369ECAC9
:10513000AF8595AE8C2E1061C0D1917C9CA366107A
:105140001D79CBD097879689441859AFD3AD8391F9
:105150009E6E141277D1CB8D7E96965517379BE0B5
:10516000C78A7E8C762B176AC2D7A57D8894631F69
:105170003394DFC785798C823B0F4AB5ECBB7975D8
:10518000886C2B2F8BD7D19275878143134AB1E05E
:10519000B67C7A8D7632226DD2EFA96B6C7859226B
:1051A0003C9FE2CC826F827A43246BC8E0A673787E
:1051B0007E5A223192E6DD8D636F79532A5BBAEA1B
:1051C000BE72637268362E83D6DE98697377572D68
:1051D00052B6F4CA7258686C463277CEE4A3626263
:1051E00073683E4CA0E0CF845F6A6A48326BCEF2AF
:1051F000AD5E566E724B4791DEE18D515A6B5E3F4C
:105200005DB5E5BD715D6A634B478DE2E393515235
:1052100068604459ABE9CB70475E74654C70C5E675
:10522000AC62525E584856A8ECCF7A4D596B615328
:1052300074C4EBB35D445B685D5489D7DB91525114
:105240006160576FBFEEBB6842536258588ADAE517
:10525000934848687367649FE1CD7D4648575A601C
:1052600087D3E49F55435D68646DA1E5D3793B44E2
:10527000666F636EB7EAB85E3B51676C7099DBD7B7
:105280008B463B5662677AB8E6B55A3452757B6FE7
:1052900082C7E2A14A3151686F78A8DEC0713A45F1
:1052A00066717588C6DE9C49315273777495D6D382
:1052B0007F393B627A8084B4DAB0602F4262737DBA
:1052C00099D2CC7C383B6A81807DA3D9C0662A3CC8
:1052D000667C828DC1D2944B3354758688A2CFB739
:1052E00069313C677D828ABAD99D472E577D8A886D
:1052F00099CAC47C352E5B7C8B91B4CD9D523555BB
:105300007D8D8D93BFC780342E5D828C88A3CBAEFC
:10531000622F3F72909493B5BF86422D557D8F9238
:10532000A3C9B05E2E437994938CADC7994B2042AC
:105330007B98979AB9B2713B3D6A8E9B93A5C197B2
:105340004925487E948E92B7BC7F3A2D6296A495EB
:1053500099B7A4622F396E96A19BB0B67B3A3261A1
:10536000949F8F97BAAE67272D6F9FA5949EB08F9D
:1053700051335188A8A39BAFA46531356E9B9F9391
:10538000A1B8964F26458CB1A38EA0A97C3E2B5781
:1053900094B1A69EA98D52314986A8A194A5AF7C4F
:1053A0003722569EB69F8E9F9B69363672ABB59D4F
:1053B000969B7B472D5192ACA196A69E6530337487
:1053C000B2B6948C9F8D572B3D84BAB89A93906C4B
:1053D0003F366BA7B4A094A08C542A3D88BDB18CF5
:1053E0008B987E4B3056A1C6B18F8B8360383D7A47
:1053F000B0B69D939579493259A3C5A9868C916F12
:105400003D3068B4CCA784827856384F94C0B997A1
:105410008A866841396BB0C39F848B845E3A458924
:10542000C9C8967A7B6E4D385DA2C6B48D80785D12
:10543000414883C0C1968082745038539DD1BB8649
:10544000747465494478B8CCAB81736955445593FD
:10545000C4B88E7A79684B4370BBD6AA776C6E5EFF
:10546000444D89C3C99D746962564D69A9CBB18405
:105470006F6A5C4A4E85C9CF986B676B5B4A60A1C7
:10548000D1C189656162575177B7CDA77664625BF8
:105490005363A0D5C284606266574E71B4D6B375AB
:1054A000595D635C5E8CC5C89665585B5B5972B18B
:1054B000D3AD715761655B5C86C5D29E62515E66F5
:1054C0005E669ACCC18659525E656988BFCD9C657F
:1054D000545F625B6598D0C7855352666B6475AE46
:1054E000D3B4734B50636B7193C2C08A5A536168D3
:1054F0006779AFD4B3704B52676B6884BCCF9F5D44
:1055000043566C757EA2C5B37A525262686B85B9F8
:10551000CA9A5C475D72737395C8C788493E5D77C8
:105520007A82A6C0A46D4F566A737895C0BE844E29
:10553000486476747AA2CCB66D3B466E838089ADA2
:10554000BF975E4556727B809DBEAD73494F6C7BA5
:105550007B86B2CCA15836507A878190B3B78751F9
:1055600045617D8389A5BA9D6444526F7E7F92BC5C
:10557000C287473B61898D8595B4AD774644678581
:105580008A92A9AF8B5B4A5E798083A0C4B26A35E8
:105590004074948C8095B5A2673C477A949498A304
:1055A000A181564E61778690AFC0925038598A9744
:1055B0008585A4B6934D33598B9D928F9E9A7853CF
:1055C0004C6987919FB3AF7C4440668E94858CABC9
:1055D000AD7C403D6F9A9F90919C966C4A50708D27
:1055E00098A4AF9B66424B769A938491ACA466369E
:1055F000477BA09C8C8E9789634A587F99A0A5A66B
:10560000885A4154839A8F8496AC904F375A94AB02
:1056100099858C96825A465F8CA6A6A09476564DA4
:10562000678C998E8DA2A6763F4072A2A88D808F3E
:1056300096794D4672A2B0A292867058526A8C97A3
:105640009296A293603F5486A9A08685948E664266
:105650004F84AEAE95877F6F595673949E99999CEF
:105660007F52456394A89480899685573F5F9AB985
:10567000A78B7E7A6A57587899A29B988E6B4C506C
:1056800076A0A58D818D9374484273ACB89A7F7BC8
:10569000796A565E83A3A89C907C5D4D5A82A39F35
:1056A000898490896444548DBAB38E787974625336
:1056B0006690ACA894836D5A566A90A69B89888C94
:1056C00079534466A1BEA87F7277746158749FB302
:1056D000A58C76645A5E7597A2958889856B4E5124
:1056E0007FB3BC977471786E585A82ADB69B7B6855
:1056F0006263697F999F948A85775B4B6193B9AFA9
:10570000856F747869566695B8B18C6E6464656C03
:10571000859DA195887D6A565675A3BAA37C6F7442
:10572000715F5674A6BDA67C6462696C738CA1A17E
:105730009381725F535F84AEB493726F766F5D5FD7
:1057400086B4BA956B5E666E6C758FA3A18E786712
:105750005B5F7396B2A88671727466596B9ABEB01D
:105760008060616F74717F9AA99F83695C5D687EB8
:105770009CAD9C7F70716E615F7CAABD9F705C6503
:10578000727170849FAA97765F5B657589A3A894F0
:105790007A6E6C655E688DB4B48B645D6D7773767C
:1057A0008DA8AA8C67575D6E7C8EA1A08D776D69E0
:1057B0006364789FB8A7795C617276717A96ADA3BD
:1057C0007B5A576A7C8693A19D89726661626C8759
:1057D000AAB4956B5D6979797585A2B09668525CBB
:1057E000748287949F99836C6162697994AEAB8669
:1057F000655F6D7875788EAAAA835A526882898A05
:1058000096A0967C635B6473869EAC9C786164749E
:105810007A778099AFA07150567386868997A09148
:10582000725C5C6D7F92A2A69070606573777A8AD5
:10583000A4AC8D5F4F63818C888C9DA08866555F7A
:105840007688969F9C856C636B777B8193A9A37AFE
:10585000565470898A8590A09B7C5A556B84939886
:105860009B937D68636B777E899CA89369515D7D6E
:105870008E898795A1926B5059758D9595968D79E6
:1058800066626D7C8792A19F825E5367838B858A57
:105890009BA0855D4E638498979391887462616F35
:1058A000818F9AA094745A5B738A8B8790A09974A5
:1058B00050506F8E99938F8F856F5D60768B989C1B
:1058C0009A86695860798A8A8A97A08D644F5C7F2E
:1058D000989A8E8D8B7F6759627F949C9A8F7C6497
:1058E0005F69899A9B88897E6E52597D95A89A8FA7
:1058F000817760595D7FA4B2A69B7868614E5E791E
:10590000929B9DA2A06D5258687D8C858D9490923B
:105910007F79737A6E6672798A898797A69B7E688B
:1059200059575D6980A0B2AF997C74624B4663920F
:10593000B3BCAF9A7F6956404B6F879DB5BFA579C1
:1059400062615D5F708799A1A28E727180816B5DCB
:105950006D838F8E8D8F979D8966515161748FAE47
:10596000B4A28F80684A3A4F7BAAC3B9A18B785BF7
:1059700041466486A1B7B59D836C5E576377828785
:1059800097A49076737C7A6B6975828F91858593E5
:105990009A88685A606E778498A4A194816655515C
:1059A0005B749CBDB7978074624E5166839FAFA7AE
:1059B000917F7162556381929296998B7770737320
:1059C00072757E858D8D7E7985938D736369777F02
:1059D000878F9699927D635A5F687593B3AF957E72
:1059E0006E5F55596B85A4B7A78A766A5C5263844B
:1059F000979C9F9380726C6967758489878D907F6F
:105A0000737B8988776D717A8489858891948164A4
:105A10005D66707B93ACAA957E6A5A5A637182A1C7
:105A2000B7A4836E655C5767879CA7A79079706C55
:105A30006563778E928D908B7A71768084817B7787
:105A400078868C83808891846B646B7582929E9E2D
:105A500094836859616D75839FB2A3846E605960A9
:105A60006F8498ADAD8C70696963637992989592F3
:105A700083736F74777B84877F7B85877D79828949
:105A800080726D6F778693959290856B5B66737B62
:105A9000869DAC9E826B585665778897AEB08E6CAB
:105AA000616161657B96A1A2967F6C6B6F6F778950
:105AB00090898286837A757A7E7F7F7B73748794E0
:105AC00090898A846D606C7A80899AA297846D58D7
:105AD000566A808C98ACAE8F6C5B5B626F8194A0D1
