:10000000A0240020210500001B0500001D050000A4
:1000100000000000000000000000000000000000E0
:1000200000000000000000000000000019050000B2
:100030000000000000000000190500009D04000001
:100040001905000019050000190500001905000038
:100050001905000019050000190500001905000028
:100060001905000019050000190500001905000018
:100070001905000019050000190500001905000008
:1000800019050000190500001905000019050000F8
:100090001905000000000000000000004D020000F3
:1000A00019050000190500001905000019050000D8
:1000B00010B5064C2378002B07D1054B002B02D03E
:1000C000044800E000BF0123237010BD3404002069
:1000D0000000000078090000084B10B5002B03D089
:1000E0000749084800E000BF07480368002B00D11B
:1000F00010BD064B002BFBD09847F9E7000000002D
:100100003804002078090000780900000000000091
:1001100070470000014B9870D97070476004002050
:100120000122024B9A700022DA70704760040020AE
:10013000144B10B51B68144C9B05DB0F2370134A3E
:1001400008211348002B00D0124890470122124B7F
:1001500060781B6A11491B09134083420CD0C823E5
:100160000B700F4B121A1B786270002B08D120788D
:10017000431E9841013010BD0B780320002BFAD0AC
:100180000020F8E7A044004164040020DD030000E3
:10019000CC080000D5080000004400410000002009
:1001A000500400200122184B1A705A7E52B2002AC5
:1001B000FBDB164A1168164A48011268D20E024348
:1001C0000720084040010243E0204901C000D2B2AC
:1001D00001400A431A852D22DA702C3A5A700D4AD2
:1001E0001A615A7E52B2002AFBDB0B4A9A805A7E71
:1001F00052B2002AFBDB0F221A760E3ADA755A7ECB
:1002000052B2002AFBDB70470040004224608000AD
:100210002060800002180000240500000222044B28
:1002200019780A431A705A7E52B2002AFBDB7047D3
:1002300000400042014B588B80B2704700400042A2
:10024000014B03C37047C04668040020012210B56B
:10025000054B187E1A76054AC0B21368002B01D0F0
:100260005168984710BDC046004000426804002015
:1002700000228021194B9A619A8C8A439A84102219
:10028000D9681142FCD0164A1168890E3F2900D165
:100290002039144A890212689205920D0A439A6223
:1002A0001022D9681142FCD002229A840E32D968F9
:1002B0001142FCD00C4A0D495160517849B20029D5
:1002C000FBDB0B4951800B4951800B4951800B4995
:1002D0000B4A116200221A627047C04600080040B3
:1002E0002460800028608000000C004000070100AE
:1002F00014400000164000001E40000014000100E1
:100300000004004070470000BFF35F8F62B6C52055
:10031000C021064A8000135809061B021B0A0B4322
:10032000135080231B0413607047C04600E100E0B7
:100330008222014B5A607047004000410D4B0E4A2B
:1003400000211A601A611A00180046321170012249
:100350004830027042708270C270C17141731900DE
:1003600022203431087011304870B43394310A704F
:100370001A7070470044004140802000094B0A4A2F
:100380001A60D22252429A81C02292025A60DA69DD
:10039000002AFCD1196802320A431A60DA69002A7D
:1003A000FCD170470008004204011040094B0A4A82
:1003B0001A60D22252429A81C02292025A60DA69AD
:1003C000002AFCD1196802320A431A60DA69002A4D
:1003D000FCD17047001000420401314030B5031ECB
:1003E00005D0012407250B4A002902D1012318005A
:1003F00030BD0139137E2342FCD053682B40012BC2
:1004000003D0037801301385EEE7038802301385AB
:10041000EAE7C046001000420023054A0549136080
:100420009360516006211160034A93601360704726
:1004300010E000E07FBB0000540400200122054BC7
:100440001968914319600021996019680A431A607C
:100450007047C04610E000E00B4B70B55E681A684C
:10046000D20706D5002509499A68484301368542D6
:1004700000D370BD99688A4203D3521AAD180A009E
:10048000F5E7741AA218F9E710E000E080BB00005D
:10049000014B03C37047C04654040020064B10B5FF
:1004A0001B68064B9A6801329A601A68002A01D0CC
:1004B0005868904710BDC04610E000E0540400208A
:1004C00006220B4B10B55A600A4B98470A4B9847C7
:1004D0000A4B98470A4B98470A4B98470A4B98474C
:1004E0000A4B98470A4B98470A4B984710BDC0469D
:1004F000004000413D030000710200003103000094
:1005000005030000190400007D030000AD03000096
:10051000A501000009030000FEE7FEE7FEE700007A
:100520001648174970B5884204D00023154CCA18E4
:10053000A2421CD30021144B144A93421BD3FF2127
:10054000134B144A8B4393600222134B5A62134B92
:100550000832DA70124B20329A738023114A5168A4
:100560000B435360104B9847104B9847FEE7C55814
:1005700004331560DBE702C3DFE7C04678090000FB
:10058000000000203404002034040020A0040020D7
:100590000000000000ED00E0FC7000410050004150
:1005A00000480041004000412D070000F105000017
:1005B00010B5024B9847024B188010BD3502000061
:1005C0007A040020084A1378002B03D01378013BEB
:1005D000DBB21370054A1378002B03D01378013B6C
:1005E000DBB213707047C0460000002050040020AA
:1005F000F8B5354B98470020344B984700213448D4
:10060000344B9847344B984700213448344B984733
:10061000FA27344B98477F008023334E1B02F36147
:100620003800324B984701203149324D0A68324C2C
:10063000520A02402A70336A1B0903406B700B6830
:100640002E4806219B0500D52D48A047336A062178
:100650002C48DB0600D52C48A0472C4B984713218B
:100660000600022818D0032823D0012828D12848C2
:10067000A047A878012801D0AE70CDE7254BDA78E5
:10068000002A03D1C821244B9847C5E79B78002B4B
:10069000C2D1224B9847BFE72148A047AB78022B35
:1006A000EAD11C4BD8780028ECD09B78012BB3D131
:1006B000EFE71C48A047174BDB78002BACD0E8E7EE
:1006C0001948A047A8E7C04611010000C104000076
:1006D000C5050000910400003D040000B1050000C4
:1006E000410200001D0200000044004159040000C6
:1006F000A044004164040020DD030000DE08000087
:10070000E6080000EE080000F608000031010000D5
:10071000FE08000060040020150100002101000017
:1007200012090000260900003A09000070B50D4EBC
:100730000D4D0024AD1BAD1005D0A300F3580134BE
:100740009847A542F9D100F005F9084E084D00245C
:10075000AD1BAD1005D0A300F35801349847A54256
:10076000F9D170BD60090000600900006009000057
:1007700068090000034B10B5002B02D0024800F0BE
:1007800005F810BD000000009D07000010B5010035
:1007900000230022002000F01FF810BD70B5094BA7
:1007A000094CE41AA41009D0084AA518AD00ED18A8
:1007B0002B68013C9847043D002CF9D100F0D4F897
:1007C00070BDC0467409000078090000FFFFFF3FBC
:1007D0007047C0467047C046F0B54E464546DE46B7
:1007E0005746E0B5364D83B00600286898460F009E
:1007F0009146FFF7EDFF334B1C68A4235B00E058E4
:10080000002852D043681F2B13DC5A1C0192002E83
:1008100028D1019A02339B0042601F502868FFF7DD
:10082000D9FF002003B03CBC90469946A246AB4697
:10083000F0BD254B002B3DD0C820400000E000BF9C
:10084000002837D0A42200235200A1584360016041
:10085000A05040328350043283500133019300236F
:10086000002ED6D09A00924682444A4688215446A9
:100870006250C4225200914681444A4687399940C9
:1008800012688B460A4394464A46614611608422A8
:1008900041465200A150022EBBD102005C468D326F
:1008A000FF3211680C431460B3E720004D30FF3075
:1008B000E050A7E72868FFF78DFF01204042B1E72D
:1008C0003004002050090000000000007265733AF7
:1008D0002030200A007265733A2031200A006D64CE
:1008E0003A2030200A006D643A2031200A006D73EE
:1008F0003A2030200A006D733A2031200A006861E6
:100900006C6C207465737420726573203A203120FA
:100910000A0068616C6C20746573742072657320C2
:100920003A2032200A0068616C6C20746573742070
:10093000726573203A2033200A0068616C6C207461
:1009400065737420726573203A202D31200A0000EF
:1009500008000020F8B5C046F8BC08BC9E467047A9
:1009600075070000D9000000F8B5C046F8BC08BC07
:080970009E467047B100000033
:10097800C80000000000000000000000F402002091
:100988005C030020C40300200000000000000000F9
:10099800000000000000000000000000000000004F
:1009A800000000000000000000000000000000003F
:1009B800000000000000000000000000000000002F
:1009C800000000000000000000000000000000001F
:1009D800000000000000000000000000000000000F
:1009E80000000000000000000000000000000000FF
:1009F80000000000000000000000000000000000EF
:100A080000000000000000000000000000000000DE
:100A180000000000000000000000000000000000CE
:100A280001000000000000000E33CDAB34126DE66B
:100A3800ECDE05000B0000000000000000000000D4
:100A4800000000000000000000000000000000009E
:100A5800000000000000000000000000000000008E
:100A6800000000000000000000000000000000007E
:100A7800000000000000000000000000000000006E
:040DA8007C040020A7
:00000001FF
