:1000000088240020B10300005F02000061020000AC
:1000100000000000000000000000000000000000E0
:100020000000000000000000000000005D02000071
:1000300000000000000000005D0200008D030000D1
:100040005D0200005D0200005D0200005D02000034
:100050005D0200005D0200005D0200005D02000024
:100060005D0200005D0200005D0200005D02000014
:100070005D0200005D0200005D0200005D02000004
:100080005D0200005D0200005D0200005D020000F4
:100090005D02000000000000000000005D020000A2
:1000A0005D0200005D0200005D0200005D020000D4
:1000B00010B5064C2378002B07D1054B002B02D03E
:1000C000044800E000BF0123237010BD3404002069
:1000D0000000000040070000084B10B5002B03D0C3
:1000E0000749084800E000BF07480368002B00D11B
:1000F00010BD064B002BFBD09847F9E7000000002D
:100100003804002040070000400700000000000005
:100110008222014B5A607047004000417047000046
:10012000084A1378002B03D01378013BDBB213701D
:10013000054A1378002B03D01378013BDBB2137010
:100140007047C046000000205C04002010B500206D
:10015000214B9847214B002121489847214B984734
:10016000214B9847030002281AD003282AD00128DF
:10017000F6D11E4A9078012801D09370F0E71C4B0D
:10018000DA78002A07D196211A4B98470D211A4890
:100190001A4B9847E4E79B78002BE1D1184BDEE738
:1001A000124A91780229E8D1114BD878002805D15C
:1001B0009621104B98470D211248E9E79B78012BB7
:1001C000CED1EBE70A4BDB78002BC9D00C4B98471C
:1001D0000A210D48DCE7C0460D0200008103000043
:1001E000210100006D030000DD0400005D0400201B
:1001F0006004002035050000F0060000A1040000A6
:1002000041050000FE0600000C07000006220A4B14
:1002100010B55A60094B9847094B9847094B9847C6
:10022000094B9847094B9847094B9847094B984702
:10023000094B984710BDC0460040004165020000D0
:10024000A902000011010000410400001D0100008E
:1002500071040000490300003D030000FEE7FEE7D3
:10026000FEE700000E4B0F4A10B51A601A611A0023
:100270000021022044321C00107091700122483489
:1002800022706270A270E2701A004F321170917188
:10029000190022223431C9330A704A70187010BD17
:1002A000004400414080200000228021184B9A61C8
:1002B0009A8C8A439A841022D9681142FCD0154A3C
:1002C0001168890E3F2900D12039134A890212682A
:1002D0009205920D0A439A621022D9681142FCD00D
:1002E00002229A840E32D9681142FCD00B4A0C4982
:1002F0005160517849B20029FBDB0A4951800A4913
:1003000051800A490A4A116200221A627047C046A7
:10031000000800402460800028608000000C00403D
:100320000007010014400000164000001400010006
:1003300000040040BFF35F8F62B6704710B5014BF9
:10034000984710BD350300000023054A0549136096
:100350009360516006211160034A936013607047F7
:1003600010E000E07FBB0000500400200022034B9F
:100370009A60196801320A431A60704710E000E081
:10038000014B03C37047C04650040020064B10B514
:100390001B68064B9A6801329A601A68002A01D0DD
:1003A0005868904710BDC04610E000E0500400209F
:1003B0001648174970B5884204D00023154CCA1856
:1003C000A2421CD30021144B144A93421BD3FF2199
:1003D000134B144A8B4393600222134B5A62134B04
:1003E0000832DA70124B20329A738023114A516816
:1003F0000B435360104B9847104B9847FEE7C55886
:1004000004331560DBE702C3DFE7C04640070000A6
:100410000000002034040020340400208804002060
:100420000000000000ED00E0FC70004100500041C1
:100430000048004100400041510500004D0100000E
:10044000094B0A4A1A60D22252429A81C022920271
:100450005A60DA69002AFCD1196802320A431A602C
:10046000DA69002AFCD170470010004204013140D3
:10047000094B0A4A1A60D22252429A81C022920241
:100480005A60DA69002AFCD1196802320A431A60FC
:10049000DA69002AFCD170470008004204013140AB
:1004A00030B5031E05D0012407250B4A002902D1CF
:1004B0000123180030BD0139137E2342FCD053685C
:1004C0002B40012B03D0037801301385EEE703881E
:1004D00002301385EAE7C04600080042104B30B5F1
:1004E000186801230F49400A18400F4A0870126A21
:1004F0004D7812091A400D4CAA420AD0C8225B1B43
:100500004B700B4B22701B780130002B00D0002069
:1005100030BD2378DBB2002BF9D18B700320F7E7D5
:10052000A04400415D040020004400410000002080
:100530005C040020014B9870D97070476004002063
:100540000122024B9A700022DA707047600400208A
:1005500070B50D4E0D4D0024AD1BAD1005D0A300A0
:10056000F35801349847A542F9D100F0D7F8084E66
:10057000084D0024AD1BAD1005D0A300F358013485
:100580009847A542F9D170BD280700002807000050
:100590002807000030070000034B10B5002B02D0E5
:1005A000024800F005F810BD00000000C105000081
:1005B00010B5010000230022002000F01FF810BD3C
:1005C00070B5094B094CE41AA41009D0084AA518C3
:1005D000AD00ED182B68013C9847043D002CF9D183
:1005E00000F0A6F870BDC0463C07000040070000C0
:1005F000FFFFFF3F7047C0467047C046F0B54E460C
:100600004546DE465746E0B5364D83B006002868BD
:1006100098460F009146FFF7EDFF334B1C68A4236B
:100620005B00E058002852D043681F2B13DC5A1C93
:100630000192002E28D1019A02339B0042601F5084
:100640002868FFF7D9FF002003B03CBC90469946CC
:10065000A246AB46F0BD254B002B3DD0C820400044
:1006600000E000BF002837D0A42200235200A15888
:1006700043600160A0504032835004328350013304
:1006800001930023002ED6D09A00924682444A4617
:10069000882154466250C4225200914681444A4601
:1006A0008739994012688B460A4394464A46614608
:1006B0001160842241465200A150022EBBD102009B
:1006C0005C468D32FF3211680C431460B3E72000A2
:1006D0004D30FF30E050A7E72868FFF78DFF01207D
:1006E0004042B1E73004002018070000000000007D
:1006F000666F7277617264203A2031200A00726559
:100700007665727365203A2031200A0073746F7029
:10071000203A2031200A000008000020F8B5C04629
:10072000F8BC08BC9E46704799050000D90000003F
:10073000F8B5C046F8BC08BC9E467047B100000042
:10074000C80000000000000000000000F4020020CB
:100750005C030020C4030020000000000000000033
:100760000000000000000000000000000000000089
:100770000000000000000000000000000000000079
:100780000000000000000000000000000000000069
:100790000000000000000000000000000000000059
:1007A0000000000000000000000000000000000049
:1007B0000000000000000000000000000000000039
:1007C0000000000000000000000000000000000029
:1007D0000000000000000000000000000000000019
:1007E0000000000000000000000000000000000009
:1007F00001000000000000000E33CDAB34126DE6A6
:10080000ECDE05000B00000000000000000000000E
:1008100000000000000000000000000000000000D8
:1008200000000000000000000000000000000000C8
:1008300000000000000000000000000000000000B8
:1008400000000000000000000000000000000000A8
:040B700064040020F9
:00000001FF
