:10000000B8240020D9090000D3090000D509000058
:1000100000000000000000000000000000000000E0
:10002000000000000000000000000000D1090000F6
:100030000000000000000000D10900003D080000A1
:10004000D1090000D1090000D1090000D109000048
:10005000D1090000D1090000D1090000D109000038
:10006000D1090000D1090000D1090000D109000028
:10007000D1090000D1090000D1090000D109000018
:10008000D1090000D1090000D1090000D109000008
:10009000D109000000000000000000003906000047
:1000A000D1090000D1090000D1090000D1090000E8
:1000B00010B5064C2378002B07D1054B002B02D03E
:1000C000044800E000BF0123237010BD3404002069
:1000D0000000000014100000084B10B5002B03D0E6
:1000E0000749084800E000BF07480368002B00D11B
:1000F00010BD064B002BFBD09847F9E7000000002D
:10010000380400201410000014100000000000004B
:10011000F0B5654E85B0F38832880020934201D84F
:10012000D01A80B272880024934201D8D41AA4B2A3
:100130000022B7880092BB4202D8FF1ABAB20092DE
:1001400032890025934201D8D51AADB2642729001F
:10015000564B3581784398476B4602901B892000A7
:1001600001936B469B882900338078434F4B984717
:1001700083B203936B4604009B8900987380784395
:100180004A4B290098470623B080C72D18D9029BF7
:10019000A1B21A04019B00048B4216D9C30B110CA7
:1001A0008B4212DA424A1378012B0CD15368013387
:1001B0000121536050680B00052801D811700533E8
:1001C000180005B0F0BD0023F2E7000C4100120C4E
:1001D0002404914218DA03234343260CB34213DA72
:1001E000C8235B009D420FD9314A1378052B09D1F2
:1001F000536801335360052351689942E0D8137066
:100200000133DDE70023F5E703235343240CA34226
:1002100015DAA14213DA9023FF339D420FD8244A06
:100220001378022B09D153680133536051680223BC
:100230000529C5D813700433C2E70023F5E756003B
:10024000864213DA83006700BB420FDD184A137839
:10025000032B09D1536801335360516803230529E7
:10026000AED81370DB18ABE70023F5E70623914205
:10027000A6DD8642A4DD9200A242A1DD9622920074
:1002800095429DD90A4A1378042B0AD15368013349
:10029000536051680423052900D991E71370023394
:1002A0008EE70023F4E7C04674040020750C0000BC
:1002B00058040020F8B52C4D2C4B29882C4A994223
:1002C00001D9002393602B88D16800208B4229D06C
:1002D000802680272B889168D360B603254B3F0288
:1002E000052939D80800340000F0BAFC36030B1D8C
:1002F0002830214806882148C6805C6140209861EA
:1003000018E01D4806881D48068040209C619861C1
:100310008020000258610020052922D1184B288036
:1003200090609847F8BD14480688144846804020DD
:100330009C615861802000029861ECE70E480688B5
:100340000E48868040205C615861E1E70A480688D3
:100350000A4806819C61D1E740209E6198619F61B7
:10036000D9E701319160DDE7500400200F2700003C
:10037000580400200044004154040020740400206C
:1003800011010000104B30B5186801230F49400AD5
:1003900018400F4A0870126A4D7812091A400D4C25
:1003A000AA420AD0C8225B1B4B700B4B22701B78F1
:1003B0000130002B00D0002030BD2378DBB2002BB1
:1003C000F9D18B700320F7E7A04400417E040020A0
:1003D000004400410200002052040020C822014BCA
:1003E0001A70704752040020C822014B1A707047DF
:1003F00002000020074B10B59847074B1A6B1203F9
:10040000D20F00D1DA671A6B5203D20F00D19A676C
:1004100010BDC0464909000000200042014B987001
:10042000D9707047810400200A4B9A78012A0DD1B7
:10043000DA78962A08D0C82A03D0002A03D1962257
:1004400000E0FF22DA707047C822FBE701229A70B1
:100450009532F7E7810400200022024B9A70963211
:10046000DA707047810400200122024B9A7000224A
:10047000DA7070478104002010B5084BDA78C82A7A
:1004800009D0FF2A04D0962A04D1054B984701E0F1
:10049000C822DA7010BD9622FBE7C0468104002016
:1004A00069040000014B98787047C0468104002021
:1004B00030B5074D03002A6B1030C24001240020E4
:1004C000224203D120001C339B00595130BDC0464D
:1004D0000028004210B5074B002098470021064C29
:1004E0000800A04700210120A047044B9847044B77
:1004F000984710BDAD080000B1040000ED080000F1
:100500009508000070B50D000400054B10009847D9
:10051000E9000020034DA847E1000120A84770BD75
:10052000AD080000B1040000013810B50E4B0428DE
:1005300017D800F095FB03070C10130000221100E0
:10054000FF2002E00022FF211000984710BDFF228B
:1005500000210800F9E7FF221100FAE70022C82174
:10056000EEE70022F8E7C046050500000122184B1F
:100570001A705A7E52B2002AFBDB164A1168164ADC
:1005800048011268D20E024307200840400102438E
:10059000E0204901C000D2B201400A431A8504227A
:1005A000DA70033A5A700D4A1A615A7E52B2002A22
:1005B000FBDB0B4A9A805A7E52B2002AFBDB0F22E9
:1005C0001A760E3ADA755A7E52B2002AFBDB704771
:1005D000004000422460800020608000021800007B
:1005E000240400000222044B19780A431A705A7E30
:1005F00052B2002AFBDB704700400042064B10B5A8
:100600001A69064C08432240104318615A7E52B2C0
:10061000002AFBDB10BDC04600400042E0E0FFFFC7
:10062000014B588B80B2704700400042014B03C31E
:100630007047C04688040020012210B5054B187E83
:100640001A76054AC0B21368002B01D0516898474A
:1006500010BDC046004000428804002000228021D6
:100660001B4B9A619A8C8A439A841022D968114252
:10067000FCD0184A1168890E3F2900D12039164A4A
:10068000890212689205920D0A439A621022D96873
:100690001142FCD002229A840E32D9681142FCD059
:1006A0000E4A0F495160517849B20029FBDB0D49D0
:1006B00051800D4951800D4951800D4951800D499E
:1006C00051800D490D4A116200221A627047C046DE
:1006D000000800402460800028608000000C00407A
:1006E0000007010014400000164000001A400000FE
:1006F0001B4000001E400000140D010000040040DB
:1007000070470000BFF35F8F62B6C520C021064A64
:100710008000135809061B021B0A0B431350802349
:100720001B0413607047C04600E100E08222014BC9
:100730005A60704700400041154B164A10B51A60C8
:100740001A611A000021022044321C0010709170BE
:100750000122483422706270A270E270E17122724C
:100760006272A272E27222736173143C22312170B0
:1007700061701900442438310C7010344C704F3CB7
:100780008C70B43390310A7048701A7010BDC04636
:100790000044004140802000094B0A4A1A60D222DE
:1007A00052429A81C02292025A60DA69002AFCD130
:1007B000196802320A431A60DA69002AFCD17047CC
:1007C0000010004204013140094B0A4A1A60D2224B
:1007D00052429A81C02292025A60DA69002AFCD100
:1007E000196802320A431A60DA69002AFCD170479C
:1007F00000080042040131400023054A0549136006
:100800009360516006211160034A93601360704742
:1008100010E000E07FBB0000680400200022034BD2
:100820009A60196801320A431A60704710E000E0CC
:10083000014B03C37047C04668040020064B10B547
:100840001B68064B9A6801329A601A68002A01D028
:100850005868904710BDC04610E000E068040020D2
:1008600001220A4B1A80DA7B52B2002AFBDB084ACB
:1008700000211A80FF221A7519765A76C43A9A73A3
:10088000DA7B52B2002AFBDB7047C046002C0042E4
:10089000440500000222044B19880A431A80DA7BBF
:1008A00052B2002AFBDB7047002C0042034B187643
:1008B000DA7B52B2002AFBDB7047C046002C0042B4
:1008C0000121094B19609A680A40FCD1C0218900B6
:1008D00019600221D9635A649A64FF22D2001A6413
:1008E0009A68002AFCD17047002800420222044B7B
:1008F00019681143196099681142FCD17047C046CC
:100900000028004201210D4B19609A680A40FCD171
:10091000C021890019605A61586909490143596128
:100920000849D9635A649A64DA641A65FF22D200CE
:100930001A649A68002AFCD17047C0460020004221
:10094000000F4040020000040222044B19681143CA
:10095000196099681142FCD17047C04600200042DE
:1009600006220E4B10B55A600D4B98470D4B984719
:100970000D4B98470D4B98470D4B98470D4B98479B
:100980000D4B98470D4B98470D4B98470D4B98478B
:100990000D4B98470D4B984710BDC0460040004195
:1009A000390700005D0600002D070000C1080000A7
:1009B0009907000001070000C907000005090000B1
:1009C000F90700006D050000610800000507000040
:1009D000FEE7FEE7FEE700001648174970B58842BB
:1009E00004D00023154CCA18A2421CD30021144B7A
:1009F000144A93421BD3FF21134B144A8B43936039
:100A00000222134B5A62134B0832DA70124B203217
:100A10009A738023114A51680B435360104B9847D7
:100A2000104B9847FEE7C55804331560DBE702C357
:100A3000DFE7C0461410000000000020340400204E
:100A400034040020B40400200000000000ED00E0A9
:100A5000FC7000410050004100480041004000414E
:100A60004D0E0000D50A000010B5024B9847024B0E
:100A7000188010BD2106000054040020104A13788D
:100A8000002B03D01378013BDBB213700D4A1378AF
:100A9000002B03D01378013BDBB213700A4A0B4BD7
:100AA0001188994203D8138801339BB21380084AF6
:100AB0001388002B03D01388013B9BB2138070472F
:100AC000020000205204002050040020A761000012
:100AD00000000020F8B50020484B98470021484806
:100AE000484B9847484B984700214848484B9847FF
:100AF000484B9847C021002649010220464B9847A1
:100B0000464B9847464B98473700464B984703005B
:100B1000022825D003282FD0012812D1424A9078EC
:100B2000012801D093700CE0404BDA78002A03D101
:100B300096213F4B984704E09B78002B01D13D4B19
:100B400098473D4B9847051EDFD0062819D17C1CDD
:100B5000E4B20025322F2AD83500032D27D12FE00B
:100B6000314A91780229DDD1304BD8780028DFD086
:100B70009B78012BE5D1E2E72C4BDB78002BE0D012
:100B8000DDE7864226D02D4B98472D4A2D4B681E17
:100B90001A8004282FD82C4C00F062F818030C1887
:100BA0001A002A4B98472A4B9847A04700242E004A
:100BB0002700AAE7274B9847254B9847A0470024D2
:100BC000254B984703250028F1D1EFE7194BEBE7B8
:100BD000224BE9E70024042EBFD11A4C2388002BB6
:100BE00007D11A4B98471A4B9847174B9847144B05
:100BF00023803500DAE70024AFE7C0466109000032
:100C00007D0A0000310800001D080000690A00008C
:100C10002D060000E5050000FD050000D5040000DC
:100C2000F5030000850300007E04002081040020FD
:100C30001D04000069040000B50200002905000041
:100C40008813000000000020DD03000029040000DC
:100C5000E903000059040000A50400007904000025
:100C600002B4714649084900095C49008E4402BC3F
:100C70007047C04603460B437FD4002243088B4293
:100C800074D303098B425FD3030A8B4244D3030B13
:100C90008B4228D3030C8B420DD3FF22090212BAD8
:100CA000030C8B4202D31212090265D0030B8B4254
:100CB00019D300E0090AC30B8B4201D3CB03C01A3E
:100CC0005241830B8B4201D38B03C01A5241430B19
:100CD0008B4201D34B03C01A5241030B8B4201D309
:100CE0000B03C01A5241C30A8B4201D3CB02C01A74
:100CF0005241830A8B4201D38B02C01A5241430AEC
:100D00008B4201D34B02C01A5241030A8B4201D3DA
:100D10000B02C01A5241CDD2C3098B4201D3CB0181
:100D2000C01A524183098B4201D38B01C01A524130
:100D300043098B4201D34B01C01A524103098B4234
:100D400001D30B01C01A5241C3088B4201D3CB001F
:100D5000C01A524183088B4201D38B00C01A524102
:100D600043088B4201D34B00C01A5241411A00D2B2
:100D700001465241104670475DE0CA0F00D049421B
:100D8000031000D34042534000229C4603098B428B
:100D90002DD3030A8B4212D3FC22890112BA030A13
:100DA0008B420CD3890192118B4208D38901921195
:100DB0008B4204D389013AD0921100E08909C3091A
:100DC0008B4201D3CB01C01A524183098B4201D31C
:100DD0008B01C01A524143098B4201D34B01C01A07
:100DE000524103098B4201D30B01C01A5241C3087F
:100DF0008B4201D3CB00C01A524183088B4201D3EE
:100E00008B00C01A5241D9D243088B4201D34B0008
:100E1000C01A5241411A00D20146634652415B104A
:100E2000104601D34042002B00D54942704763462B
:100E30005B1000D3404201B5002000F005F802BD70
:100E40000029F8D016E770477047C04670B50D4EC0
:100E50000D4D0024AD1BAD1005D0A300F358013497
:100E60009847A542F9D100F0C3F8084E084D002478
:100E7000AD1BAD1005D0A300F35801349847A5422F
:100E8000F9D170BDFC0F0000FC0F0000FC0F00004A
:100E900004100000034B10B5002B02D0024800F0F4
:100EA00005F810BD00000000BD0E000010B50100E7
:100EB00000230022002000F01FF810BD70B5094B80
:100EC000094CE41AA41009D0084AA518AD00ED1881
:100ED0002B68013C9847043D002CF9D100F092F8B2
:100EE00070BDC0461010000014100000FFFFFF3F4F
:100EF0007047C0467047C046F0B54E464546DE4690
:100F00005746E0B5364D83B00600286898460F0076
:100F10009146FFF7EDFF334B1C68A4235B00E058BC
:100F2000002852D043681F2B13DC5A1C0192002E5C
:100F300028D1019A02339B0042601F502868FFF7B6
:100F4000D9FF002003B03CBC90469946A246AB4670
:100F5000F0BD254B002B3DD0C820400000E000BF75
:100F6000002837D0A42200235200A158436001601A
:100F7000A050403283500432835001330193002348
:100F8000002ED6D09A00924682444A468821544682
:100F90006250C4225200914681444A4687399940A2
:100FA00012688B460A4394464A4661461160842281
:100FB00041465200A150022EBBD102005C468D3248
:100FC000FF3211680C431460B3E720004D30FF304E
:100FD000E050A7E72868FFF78DFF01204042B1E706
:100FE00030040020EC0F000000000000080000208A
:100FF000F8B5C046F8BC08BC9E467047950E000088
:10100000D9000000F8B5C046F8BC08BC9E46704741
:04101000B10000002B
:101014008813C8000000000000000000F402002053
:101024005C030020C4030020000000000000000056
:1010340000000000000000000000000000000000AC
:10104400000000000000000000000000000000009C
:10105400000000000000000000000000000000008C
:10106400000000000000000000000000000000007C
:10107400000000000000000000000000000000006C
:10108400000000000000000000000000000000005C
:10109400000000000000000000000000000000004C
:1010A400000000000000000000000000000000003C
:1010B400000000000000000000000000000000002C
:1010C40001000000000000000E33CDAB34126DE6C9
:1010D400ECDE05000B000000000000000000000032
:1010E40000000000000000000000000000000000FC
:1010F40000000000000000000000000000000000EC
:1011040000000000000000000000000000000000DB
:1011140000000000000000000000000000000000CB
:0414440090040020F0
:00000001FF
