:1000000090240020AD040000F7020000F902000077
:1000100000000000000000000000000000000000E0
:10002000000000000000000000000000F5020000D9
:100030000000000000000000F5020000890400003C
:10004000F5020000F5020000F5020000F5020000D4
:10005000F5020000F5020000F5020000F5020000C4
:10006000F5020000F5020000F5020000F5020000B4
:10007000F5020000F5020000F5020000F5020000A4
:10008000F5020000F5020000F5020000F502000094
:10009000F50200000000000000000000F502000072
:1000A000F5020000F5020000F5020000F502000074
:1000B00010B5064C2378002B07D1054B002B02D03E
:1000C000044800E000BF0123237010BD3404002069
:1000D0000000000040090000084B10B5002B03D0C1
:1000E0000749084800E000BF07480368002B00D11B
:1000F00010BD064B002BFBD09847F9E7000000002D
:100100003804002040090000400900000000000001
:100110008222014B5A607047004000417047000046
:10012000084A1378002B03D01378013BDBB213701D
:10013000054A1378002B03D01378013BDBB2137010
:100140007047C046000000206004002070B5002009
:10015000394B984700213948394B9847394B9847D4
:10016000394B9847394B98478025394B802698471B
:100170006D02B602374C2378FF2B2DD0013323704C
:100180002078354B9847354B2278186BD20091B2C6
:10019000284200D11967186B304200D15967304BA3
:1001A000196B090300D4DA6780211A6BC9020A406F
:1001B00000D19A670A202B4B98472B4B9847030096
:1001C00002281DD003282DD00128D3D1274A9078AA
:1001D000012803D09370CDE70023D0E7244BDA78D1
:1001E000002A07D19621234B98470D212248234B03
:1001F0009847BFE79B78002BBCD1214B9847B9E7C4
:100200001A4A91780229E5D1194BD878002805D1EE
:100210009621184B98470D211A48E8E79B78012B47
:10022000A8D1EAE7124BDB78002BA3D0144B9847F8
:100230000A211548DBE7C0468D02000021010000BD
:100240007D0400003104000079060000D90600009A
:1002500025070000500400203D0700000028004250
:100260000020004245040000D90500006104002080
:100270006404002031060000F00800009D05000025
:100280003D060000FE0800000C09000006220D4B90
:1002900010B55A600C4B98470C4B98470C4B98473D
:1002A0000C4B98470C4B98470C4B98470C4B984776
:1002B0000C4B98470C4B98470C4B98470C4B984766
:1002C00010BDC04600400041FD0200005D0300007B
:1002D000110100003D0500004D0600001D01000059
:1002E0006D050000910600000D040000F1060000FD
:1002F00001040000FEE7FEE7FEE70000154B164A8A
:1003000010B51A601A611A000021022044321C0044
:10031000107091700122483422706270A270E270F5
:10032000E17122726272A272E27222731A00553275
:1003300011701900222234310A704A701A004421C7
:100340003832117010315170C9334F3991701870B3
:1003500010BDC046004400414080200000228021A2
:100360001A4B9A619A8C8A439A841022D968114256
:10037000FCD0174A1168890E3F2900D12039154A4F
:10038000890212689205920D0A439A621022D96876
:100390001142FCD002229A840E32D9681142FCD05C
:1003A0000D4A0E495160517849B20029FBDB0C49D6
:1003B00051800C4951800C4951800C4951800C49A5
:1003C0000C4A116200221A627047C04600080040C1
:1003D0002460800028608000000C004000070100BD
:1003E00014400000164000001A4000001B400000AE
:1003F000140D010000040040BFF35F8F62B6704728
:1004000010B5014B984710BDF90300000023054AC1
:10041000054913609360516006211160034A93609F
:100420001360704710E000E07FBB00005404002020
:100430000022034B9A60196801320A431A60704720
:1004400010E000E00B4B70B55E681A68D20706D565
:10045000002509499A6848430136854200D370BD9A
:1004600099688A4203D3521AAD180A00F5E7741A44
:10047000A218F9E710E000E080BB0000014B03C3C5
:100480007047C04654040020064B10B51B68064B4D
:100490009A6801329A601A68002A01D05868904719
:1004A00010BDC04610E000E0540400201648174973
:1004B00070B5884204D00023154CCA18A2421CD340
:1004C0000021144B144A93421BD3FF21134B144AAF
:1004D0008B4393600222134B5A62134B0832DA703B
:1004E000124B20329A738023114A51680B43536098
:1004F000104B9847104B9847FEE7C55804331560DA
:10050000DBE702C3DFE7C04640090000000000202F
:1005100034040020340400208C040020000000007B
:1005200000ED00E0FC700041005000410048004137
:1005300000400041510700004D010000094B0A4AEC
:100540001A60D22252429A81C02292025A60DA691B
:10055000002AFCD1196802320A431A60DA69002ABB
:10056000FCD170470010004204013140094B0A4A97
:100570001A60D22252429A81C02292025A60DA69EB
:10058000002AFCD1196802320A431A60DA69002A8B
:10059000FCD17047000800420401314030B5031E11
:1005A00005D0012407250B4A002902D10123180098
:1005B00030BD0139137E2342FCD053682B40012B00
:1005C00003D0037801301385EEE7038802301385EA
:1005D000EAE7C04600080042104B30B51868012316
:1005E0000F49400A18400F4A0870126A4D781209E4
:1005F0001A400D4CAA420AD0C8225B1B4B700B4B11
:1006000022701B780130002B00D0002030BD2378F1
:10061000DBB2002BF9D18B700320F7E7A044004137
:10062000610400200044004100000020600400201C
:10063000014B9870D9707047640400200122024B6E
:100640009A700022DA707047640400200121094B7F
:1006500019609A680A40FCD1C02189001960022102
:10066000D9635A649A64FF22D2001A649A68002AF5
:10067000FCD17047002800420222044B1968114344
:10068000196099681142FCD17047C04600280042A9
:1006900001210E4B19609A680A40FCD1C0218900E3
:1006A00019605A6158690A49014359610949D96376
:1006B0001C21596424319964DA6442321A65FF229C
:1006C000D2001A649A68002AFCD1704700200042C8
:1006D000000F4040020000040222044B196811433D
:1006E000196099681142FCD17047C0460020004251
:1006F00001220A4B1A80DA7B52B2002AFBDB084A3D
:1007000080211A80FF221A7519765A76C43A9A7394
:10071000DA7B52B2002AFBDB7047C046002C004255
:10072000440500000222044B19880A431A80DA7B30
:1007300052B2002AFBDB7047002C0042034B1876B4
:10074000DA7B52B2002AFBDB7047C046002C004225
:1007500070B50D4E0D4D0024AD1BAD1005D0A3009E
:10076000F35801349847A542F9D100F0D7F8084E64
:10077000084D0024AD1BAD1005D0A300F358013483
:100780009847A542F9D170BD28090000280900004A
:100790002809000030090000034B10B5002B02D0DF
:1007A000024800F005F810BD00000000C10700007D
:1007B00010B5010000230022002000F01FF810BD3A
:1007C00070B5094B094CE41AA41009D0084AA518C1
:1007D000AD00ED182B68013C9847043D002CF9D181
:1007E00000F0A6F870BDC0463C09000040090000BA
:1007F000FFFFFF3F7047C0467047C046F0B54E460A
:100800004546DE465746E0B5364D83B006002868BB
:1008100098460F009146FFF7EDFF334B1C68A42369
:100820005B00E058002852D043681F2B13DC5A1C91
:100830000192002E28D1019A02339B0042601F5082
:100840002868FFF7D9FF002003B03CBC90469946CA
:10085000A246AB46F0BD254B002B3DD0C820400042
:1008600000E000BF002837D0A42200235200A15886
:1008700043600160A0504032835004328350013302
:1008800001930023002ED6D09A00924682444A4615
:10089000882154466250C4225200914681444A46FF
:1008A0008739994012688B460A4394464A46614606
:1008B0001160842241465200A150022EBBD1020099
:1008C0005C468D32FF3211680C431460B3E72000A0
:1008D0004D30FF30E050A7E72868FFF78DFF01207B
:1008E0004042B1E730040020180900000000000079
:1008F000666F7277617264203A2031200A00726557
:100900007665727365203A2031200A0073746F7027
:10091000203A2031200A000008000020F8B5C04627
:10092000F8BC08BC9E46704799070000D90000003B
:10093000F8B5C046F8BC08BC9E467047B100000040
:10094000C80000000000000000000000F4020020C9
:100950005C030020C4030020000000000000000031
:100960000000000000000000000000000000000087
:100970000000000000000000000000000000000077
:100980000000000000000000000000000000000067
:100990000000000000000000000000000000000057
:1009A0000000000000000000000000000000000047
:1009B0000000000000000000000000000000000037
:1009C0000000000000000000000000000000000027
:1009D0000000000000000000000000000000000017
:1009E0000000000000000000000000000000000007
:1009F00001000000000000000E33CDAB34126DE6A4
:100A0000ECDE05000B00000000000000000000000C
:100A100000000000000000000000000000000000D6
:100A200000000000000000000000000000000000C6
:100A300000000000000000000000000000000000B6
:100A400000000000000000000000000000000000A6
:040D700068040020F3
:00000001FF
