:10000000B0240020C9080000C3080000C508000093
:1000100000000000000000000000000000000000E0
:10002000000000000000000000000000C108000007
:100030000000000000000000C10800002D070000C3
:10004000C1080000C1080000C1080000C10800008C
:10005000C1080000C1080000C1080000C10800007C
:10006000C1080000C1080000C1080000C10800006C
:10007000C1080000C1080000C1080000C10800005C
:10008000C1080000C1080000C1080000C10800004C
:10009000C108000000000000000000002905000069
:1000A000C1080000C1080000C1080000C10800002C
:1000B00010B5064C2378002B07D1054B002B02D03E
:1000C000044800E000BF0123237010BD3404002069
:1000D00000000000E80D0000084B10B5002B03D015
:1000E0000749084800E000BF07480368002B00D11B
:1000F00010BD064B002BFBD09847F9E7000000002D
:1001000038040020E80D0000E80D000000000000A9
:10011000F0B5624D85B0EB882A880020934201D863
:10012000D01A80B26A880024934201D8D41AA4B2AB
:100130000022AF880092BB4202D8FF1ABAB20092E6
:100140002A890026934201D8D61AB6B26427310014
:10015000534B2E81784398476B4602901B892000B1
:1001600001936B469B8831002B8078434C4B98471A
:1001700083B203936B4604009B8900986B8078439D
:10018000474B310098470623A880C72E18D9029BF9
:10019000A1B21A04019B00048B4216D9C30B110CA7
:1001A0008B4212DA3F4A1378012B0CD1536801338A
:1001B0000121536050680B00052801D811700533E8
:1001C000180005B0F0BD0023F2E7000C4100120C4E
:1001D0002404914218DA03234343250CAB4213DA7B
:1001E000C8235B009E420FD92E4A1378052B09D1F4
:1001F000536801335360052351689942E0D8137066
:100200000133DDE70023F5E703235343240CA34226
:1002100011DAA1420FDA234A1378022B09D153686D
:1002200001335360516802230529C9D81370043380
:10023000C6E70023F5E75500854213DA830067001F
:10024000BB420FDD174A1378032B09D153680133E2
:100250005360516803230529B2D81370DB18AFE748
:100260000023F5E706239142AADD8542A8DD92002E
:10027000A242A5DD962292009642A1D9094A13789E
:10028000042B09D1536801335360516804230529B5
:1002900096D81370023393E70023F5E77404002027
:1002A000490A000058040020F8B52C4D2C4B298831
:1002B0002C4A994201D9002393602B88D1680020F1
:1002C0008B4229D0802680272B889168D360B60383
:1002D000254B3F02052939D80800340000F0AAFB5D
:1002E00036030B1D2830214806882148C6805C61F2
:1002F0004020986118E01D4806881D48068040206F
:100300009C6198618020000258610020052922D15B
:10031000184B288090609847F8BD14480688144808
:10032000468040209C615861802000029861ECE783
:100330000E4806880E48868040205C615861E1E7DF
:100340000A4806880A4806819C61D1E740209E61E0
:1003500098619F61D9E701319160DDE75004002089
:100360000F270000580400200044004154040020DE
:100370007404002011010000074B10B59847074B8B
:100380001A6B1203D20F00D1DA671A6B5203D20F25
:1003900000D19A6710BDC046390800000020004215
:1003A00030B5074D03002A6B1030C24001240020F5
:1003B000224203D120001C339B00595130BDC0465E
:1003C0000028004210B5074B002098470021064C3A
:1003D0000800A04700210120A047044B9847044B88
:1003E000984710BD9D070000A1030000DD07000035
:1003F0008507000070B50D000400054B10009847FC
:10040000E9000020034DA847E1000120A84770BD86
:100410009D070000A1030000013810B50E4B042811
:1004200017D800F007FB03070C101300002211007F
:10043000FF2002E00022FF211000984710BDFF229C
:1004400000210800F9E7FF221100FAE70022C82185
:10045000EEE70022F8E7C046F50300000122184B42
:100460001A705A7E52B2002AFBDB164A1168164AED
:1004700048011268D20E024307200840400102439F
:10048000E0204901C000D2B201400A431A8504228B
:10049000DA70033A5A700D4A1A615A7E52B2002A33
:1004A000FBDB0B4A9A805A7E52B2002AFBDB0F22FA
:1004B0001A760E3ADA755A7E52B2002AFBDB704782
:1004C000004000422460800020608000021800008C
:1004D000240400000222044B19780A431A705A7E41
:1004E00052B2002AFBDB704700400042064B10B5B9
:1004F0001A69064C08432240104318615A7E52B2D2
:10050000002AFBDB10BDC04600400042E0E0FFFFD8
:10051000014B588B80B2704700400042014B03C32F
:100520007047C04680040020012210B5054B187E9C
:100530001A76054AC0B21368002B01D0516898475B
:1005400010BDC046004000428004002000228021EF
:100550001B4B9A619A8C8A439A841022D968114263
:10056000FCD0184A1168890E3F2900D12039164A5B
:10057000890212689205920D0A439A621022D96884
:100580001142FCD002229A840E32D9681142FCD06A
:100590000E4A0F495160517849B20029FBDB0D49E1
:1005A00051800D4951800D4951800D4951800D49AF
:1005B00051800D490D4A116200221A627047C046EF
:1005C000000800402460800028608000000C00408B
:1005D0000007010014400000164000001A4000000F
:1005E0001B4000001E400000140D010000040040EC
:1005F00070470000BFF35F8F62B6C520C021064A76
:100600008000135809061B021B0A0B43135080235A
:100610001B0413607047C04600E100E08222014BDA
:100620005A60704700400041154B164A10B51A60D9
:100630001A611A000021022044321C0010709170CF
:100640000122483422706270A270E270E17122725D
:100650006272A272E27222736173143C22312170C1
:1006600061701900442438310C7010344C704F3CC8
:100670008C70B43390310A7048701A7010BDC04647
:100680000044004140802000094B0A4A1A60D222EF
:1006900052429A81C02292025A60DA69002AFCD141
:1006A000196802320A431A60DA69002AFCD17047DD
:1006B0000010004204013140094B0A4A1A60D2225C
:1006C00052429A81C02292025A60DA69002AFCD111
:1006D000196802320A431A60DA69002AFCD17047AD
:1006E00000080042040131400023054A0549136017
:1006F0009360516006211160034A93601360704754
:1007000010E000E07FBB0000680400200022034BE3
:100710009A60196801320A431A60704710E000E0DD
:10072000014B03C37047C04668040020064B10B558
:100730001B68064B9A6801329A601A68002A01D039
:100740005868904710BDC04610E000E068040020E3
:1007500001220A4B1A80DA7B52B2002AFBDB084ADC
:1007600000211A80FF221A7519765A76C43A9A73B4
:10077000DA7B52B2002AFBDB7047C046002C0042F5
:10078000440500000222044B19880A431A80DA7BD0
:1007900052B2002AFBDB7047002C0042034B187654
:1007A000DA7B52B2002AFBDB7047C046002C0042C5
:1007B0000121094B19609A680A40FCD1C0218900C7
:1007C00019600221D9635A649A64FF22D2001A6424
:1007D0009A68002AFCD17047002800420222044B8C
:1007E00019681143196099681142FCD17047C046DD
:1007F0000028004201210D4B19609A680A40FCD183
:10080000C021890019605A61586909490143596139
:100810000849D9635A649A64DA641A65FF22D200DF
:100820001A649A68002AFCD17047C0460020004232
:10083000000F4040020000040222044B19681143DB
:10084000196099681142FCD17047C04600200042EF
:1008500006220E4B10B55A600D4B98470D4B98472A
:100860000D4B98470D4B98470D4B98470D4B9847AC
:100870000D4B98470D4B98470D4B98470D4B98479C
:100880000D4B98470D4B984710BDC04600400041A6
:10089000290600004D0500001D060000B1070000FC
:1008A00089060000F1050000B9060000F507000008
:1008B000E90600005D04000051070000F505000096
:1008C000FEE7FEE7FEE700001648174970B58842CC
:1008D00004D00023154CCA18A2421CD30021144B8B
:1008E000144A93421BD3FF21134B144A8B4393604A
:1008F0000222134B5A62134B0832DA70124B203229
:100900009A738023114A51680B435360104B9847E8
:10091000104B9847FEE7C55804331560DBE702C368
:10092000DFE7C046E80D000000000020340400208E
:1009300034040020AC0400200000000000ED00E0C2
:10094000FC7000410050004100480041004000415F
:10095000210C0000C509000010B5024B9847024B5E
:10096000188010BD1105000054040020104A1378AF
:10097000002B03D01378013BDBB213700D4A1378C0
:10098000002B03D01378013BDBB213700A4A0B4BE8
:100990001188994203D8138801339BB21380084A07
:1009A0001388002B03D01388013B9BB21380704740
:1009B000020000205204002050040020A761000023
:1009C0000000002010B500200E4B984700210E4873
:1009D0000E4B98470E4B984700210E480E4B9847F8
:1009E0000E4B9847C021022049010D4B98470D4BF3
:1009F00098470D4B98470D4B98470028FBD00C4B60
:100A00009847F8E7510800006D0900002107000031
:100A10000D070000590900001D050000D504000065
:100A2000ED040000C503000079030000A9020000E6
:100A30001904000002B4714649084900095C4900E4
:100A40008E4402BC7047C04603460B437FD400224D
:100A500043088B4274D303098B425FD3030A8B4252
:100A600044D3030B8B4228D3030C8B420DD3FF22BC
:100A7000090212BA030C8B4202D31212090265D08A
:100A8000030B8B4219D300E0090AC30B8B4201D33D
:100A9000CB03C01A5241830B8B4201D38B03C01A84
:100AA0005241430B8B4201D34B03C01A5241030BFB
:100AB0008B4201D30B03C01A5241C30A8B4201D3AC
:100AC000CB02C01A5241830A8B4201D38B02C01A57
:100AD0005241430A8B4201D34B02C01A5241030ACE
:100AE0008B4201D30B02C01A5241CDD2C3098B42B3
:100AF00001D3CB01C01A524183098B4201D38B0130
:100B0000C01A524143098B4201D34B01C01A5241D2
:100B100003098B4201D30B01C01A5241C3088B4217
:100B200001D3CB00C01A524183088B4201D38B0002
:100B3000C01A524143088B4201D34B00C01A5241A4
:100B4000411A00D201465241104670475DE0CA0F7B
:100B500000D04942031000D34042534000229C463B
:100B600003098B422DD3030A8B4212D3FC22890145
:100B700012BA030A8B420CD3890192118B4208D31B
:100B8000890192118B4204D389013AD0921100E07D
:100B90008909C3098B4201D3CB01C01A5241830991
:100BA0008B4201D38B01C01A524143098B4201D3BE
:100BB0004B01C01A524103098B4201D30B01C01AE9
:100BC0005241C3088B4201D3CB00C01A5241830863
:100BD0008B4201D38B00C01A5241D9D243088B42B9
:100BE00001D34B00C01A5241411A00D2014663465C
:100BF00052415B10104601D34042002B00D54942C0
:100C0000704763465B1000D3404201B5002000F0FE
:100C100005F802BD0029F8D016E770477047C046B6
:100C200070B50D4E0D4D0024AD1BAD1005D0A300C9
:100C3000F35801349847A542F9D100F0C3F8084EA3
:100C4000084D0024AD1BAD1005D0A300F3580134AE
:100C50009847A542F9D170BDD00D0000D00D00001D
:100C6000D00D0000D80D0000034B10B5002B02D0B2
:100C7000024800F005F810BD00000000910C0000D3
:100C800010B5010000230022002000F01FF810BD65
:100C900070B5094B094CE41AA41009D0084AA518EC
:100CA000AD00ED182B68013C9847043D002CF9D1AC
:100CB00000F092F870BDC046E40D0000E80D0000A1
:100CC000FFFFFF3F7047C0467047C046F0B54E4635
:100CD0004546DE465746E0B5364D83B006002868E7
:100CE00098460F009146FFF7EDFF334B1C68A42395
:100CF0005B00E058002852D043681F2B13DC5A1CBD
:100D00000192002E28D1019A02339B0042601F50AD
:100D10002868FFF7D9FF002003B03CBC90469946F5
:100D2000A246AB46F0BD254B002B3DD0C82040006D
:100D300000E000BF002837D0A42200235200A158B1
:100D400043600160A050403283500432835001332D
:100D500001930023002ED6D09A00924682444A4640
:100D6000882154466250C4225200914681444A462A
:100D70008739994012688B460A4394464A46614631
:100D80001160842241465200A150022EBBD10200C4
:100D90005C468D32FF3211680C431460B3E72000CB
:100DA0004D30FF30E050A7E72868FFF78DFF0120A6
:100DB0004042B1E730040020C00D000000000000F8
:100DC00008000020F8B5C046F8BC08BC9E46704735
:100DD000690C0000D9000000F8B5C046F8BC08BC9A
:080DE0009E467047B1000000BF
:100DE8008813C8000000000000000000F402002082
:100DF8005C030020C4030020000000000000000085
:100E080000000000000000000000000000000000DA
:100E180000000000000000000000000000000000CA
:100E280000000000000000000000000000000000BA
:100E380000000000000000000000000000000000AA
:100E4800000000000000000000000000000000009A
:100E5800000000000000000000000000000000008A
:100E6800000000000000000000000000000000007A
:100E7800000000000000000000000000000000006A
:100E8800000000000000000000000000000000005A
:100E980001000000000000000E33CDAB34126DE6F7
:100EA800ECDE05000B000000000000000000000060
:100EB800000000000000000000000000000000002A
:100EC800000000000000000000000000000000001A
:100ED800000000000000000000000000000000000A
:100EE80000000000000000000000000000000000FA
:041218008804002026
:00000001FF
