:1000000000250020350C00002F0C0000310C0000F2
:1000100000000000000000000000000000000000E0
:100020000000000000000000000000002D0C000097
:1000300000000000000000002D0C0000990A0000E4
:100040002D0C00002D0C00002D0C00002D0C0000CC
:100050002D0C00002D0C00002D0C00002D0C0000BC
:100060002D0C00002D0C00002D0C0000ED080000F0
:100070002D0C00002D0C00002D0C00002D0C00009C
:100080002D0C00002D0C00002D0C00002D0C00008C
:100090002D0C000000000000000000009D06000084
:1000A0002D0C00002D0C00002D0C00002D0C00006C
:1000B00010B5064C2378002B07D1054B002B02D03E
:1000C000044800E000BF0123237010BD3404002069
:1000D0000000000090140000084B10B5002B03D066
:1000E0000749084800E000BF07480368002B00D11B
:1000F00010BD064B002BFBD09847F9E7000000002D
:10010000380400209014000090140000000000004B
:10011000F0B5654E85B0F38832880020934201D84F
:10012000D01A80B272880024934201D8D41AA4B2A3
:100130000022B7880092BB4202D8FF1ABAB20092DE
:1001400032890025934201D8D51AADB2642729001F
:10015000564B3581784398476B4602901B892000A7
:1001600001936B469B882900338078434F4B984717
:1001700083B203936B4604009B8900987380784395
:100180004A4B290098470623B080C72D18D9029BF7
:10019000A1B21A04019B00048B4216D9C30B110CA7
:1001A0008B4212DA424A1378012B0CD15368013387
:1001B0000121536050680B00052801D811700533E8
:1001C000180005B0F0BD0023F2E7000C4100120C4E
:1001D0002404914218DA03234343260CB34213DA72
:1001E000C8235B009D420FD9314A1378052B09D1F2
:1001F000536801335360052351689942E0D8137066
:100200000133DDE70023F5E703235343240CA34226
:1002100015DAA14213DA9023FF339D420FD8244A06
:100220001378022B09D153680133536051680223BC
:100230000529C5D813700433C2E70023F5E756003B
:10024000864213DA83006700BB420FDD184A137839
:10025000032B09D1536801335360516803230529E7
:10026000AED81370DB18ABE70023F5E70623914205
:10027000A6DD8642A4DD9200A242A1DD9622920074
:1002800095429DD90A4A1378042B0AD15368013349
:10029000536051680423052900D991E71370023394
:1002A0008EE70023F4E7C046A80400204D100000AC
:1002B00058040020F8B52C4D2C4B29882C4A994223
:1002C00001D9002393602B88D16800208B4229D06C
:1002D000802680272B889168D360B603254B3F0288
:1002E000052939D80800340000F0A6FE36030B1D9E
:1002F0002830214806882148C6805C6140209861EA
:1003000018E01D4806881D48068040209C619861C1
:100310008020000258610020052922D1184B288036
:1003200090609847F8BD14480688144846804020DD
:100330009C615861802000029861ECE70E480688B5
:100340000E48868040205C615861E1E70A480688D3
:100350000A4806819C61D1E740209E6198619F61B7
:10036000D9E701319160DDE7500400200F2700003C
:10037000580400200044004154040020A804002038
:1003800011010000104B30B5186801230F49400AD5
:1003900018400F4A0870126A4D7812091A400D4C25
:1003A000AA420AD0C8225B1B4B700B4B22701B78F1
:1003B0000130002B00D0002030BD2378DBB2002BB1
:1003C000F9D18B700320F7E7A0440041B20400206C
:1003D000004400410200002052040020C822014BCA
:1003E0001A70704752040020C822014B1A707047DF
:1003F0000200002030B5084C0300226B1030C240D0
:10040000012500202A4205D1280009021C33090ACF
:100410009B00195130BDC0460020004210B5054B6D
:100420009847054C00210320A04700210220A04747
:1004300010BDC046A50B0000F50300000C4B70B5C5
:1004400004000D009870D970012807D10021032005
:10045000084CA04729000220A04770BD0028FCD10D
:10046000044D0320A84721000220A847F5E7C04615
:10047000B5040020F503000010B50B4B9878012857
:100480000ED1DB78962B09D0C82B03D0002B04D1DA
:10049000962100E0FF21054B984710BDC821FAE7DF
:1004A00096210120F7E7C046B50400203D04000076
:1004B00010B596210020014B984710BD3D04000067
:1004C00010B500210120014B984710BD3D040000EC
:1004D00010B50A4BDA78C82A0CD0FF2A04D0962A25
:1004E00007D1074B984704E00220C8211856054B56
:1004F000984710BD022096211856F8E7B504002051
:10050000C10400003D040000014B98787047C046CC
:10051000B504002030B5074D03002A6B1030C240EF
:1005200001240020224203D120001C339B0059519A
:1005300030BDC0460028004210B5074B0020984748
:100540000021064C0800A04700210120A047044BD1
:100550009847044B984710BD090B00001505000093
:10056000490B0000F10A000070B50D000400054BB6
:1005700010009847E9000020034DA847E100012042
:10058000A84770BD090B000015050000013810B523
:100590000E4B042817D800F04FFD03070C10130072
:1005A00000221100FF2002E00022FF2110009847E6
:1005B00010BDFF2200210800F9E7FF221100FAE731
:1005C0000022C821EEE70022F8E7C04669050000D6
:1005D0000122184B1A705A7E52B2002AFBDB164ACF
:1005E0001168164A48011268D20E024307200840DB
:1005F00040010243E0204901C000D2B201400A4359
:100600001A850422DA70033A5A700D4A1A615A7E2A
:1006100052B2002AFBDB0B4A9A805A7E52B2002A61
:10062000FBDB0F221A760E3ADA755A7E52B2002A96
:10063000FBDB7047004000422460800020608000A7
:1006400002180000240400000222044B19780A4317
:100650001A705A7E52B2002AFBDB704700400042FB
:10066000064B10B51A69064C084322401043186126
:100670005A7E52B2002AFBDB10BDC0460040004249
:10068000E0E0FFFF014B588B80B270470040004212
:10069000014B03C37047C046BC040020012210B5C3
:1006A000054B187E1A76054AC0B21368002B01D09C
:1006B0005168984710BDC04600400042BC0400206D
:1006C000002280211B4B9A619A8C8A439A841022C3
:1006D000D9681142FCD0184A1168890E3F2900D10F
:1006E0002039164A890212689205920D0A439A62CD
:1006F0001022D9681142FCD002229A840E32D968A5
:100700001142FCD00E4A0F495160517849B200297C
:10071000FBDB0D4951800D4951800D4951800D4938
:1007200051800D4951800D490D4A116200221A6213
:100730007047C046000800402460800028608000A8
:10074000000C0040000701001440000016400000AB
:100750001A4000001B4000001E400000140D010064
:100760000004004070470000BFF35F8F62B6C220F4
:10077000C0210A4A8000135809061B021B0A0B43BA
:10078000135080231B0113600C3013581B021B0AEB
:100790000B43135080231B041360704700E100E0FB
:1007A0008222014B5A60704700400041154B164AA7
:1007B00010B51A601A611A000021022044321C0090
:1007C000107091700122483422706270A270E27041
:1007D000E17122726272A272E27222736173190075
:1007E000332434310C70113C4C7022340C711034B1
:1007F0004C714F3C8C71B43394310A7048701A704C
:1008000010BDC04600440041408020000722074B35
:10081000598B114206D0802119765A83033A197EEA
:10082000114200D17047198DF9E7C046001000420F
:10083000104A114B1360D2235B429381C0239B0269
:100840005360D369002BFCD1116802330B43136052
:10085000D369002BFCD1094A11002C31136293613A
:100860000B70D36193605362137513605360D36050
:10087000D385704700100042040112406804002034
:100880000022024BD88DDA8580B2704768040020C0
:10089000014BD8601961704768040020F7B5060065
:1008A0000191041E13D00B4D00242F002C373B78F0
:1008B000A3420CD1084B9847019B8421EB61012393
:1008C0002C623B70EC851C00044AAE6191752000DF
:1008D000FEBDC046680400200D0800000010004264
:1008E000014B58629962704768040020F8B54A4C81
:1008F000A37D002B2BD0237EA27DDBB252B2002A37
:1009000015DA5BB2002B12DA0722638B13400ED08C
:10091000424DEB85424B9847842323752B000022E0
:100920002C331A706B6A934201D0A86A9847012051
:10093000237EA27DDBB2024201D0034225D10422F4
:10094000237EA17DDBB2114201D013423DD1F8BD1F
:1009500062683A40012A0BD09A68511C9960B25CD7
:1009600022859A68217EAA4292410140524219E0B2
:100970009A68511C52009960925BF1E71A6A551C03
:100980001D629D695200515335E0244B1A7D002AA7
:10099000D5D09A685D680727AA429241217E1E68D9
:1009A00052420140002901D0002AD1D19A685968E9
:1009B0008A42C4D300221A755A6001322275DA685D
:1009C000002ABCD018699047B9E7144B1A002C32A2
:1009D0001278002ABBD01A6AD8698242B7D207259A
:1009E000218D626889B22A40012AC7D01A6A551C33
:1009F0001D629D69A9541A6A9042A8D1190000226B
:100A00002C310A70DA61843222755A6A002A9ED02B
:100A1000986A90479BE7C046001000426804002097
:100A20000D080000094B0A4A1A60D22252429A81EC
:100A3000C02292025A60DA69002AFCD11968023297
:100A40000A431A60DA69002AFCD1704700080042A4
:100A5000040131400023054A054913609360516049
:100A600006211160034A93601360704710E000E0B4
:100A70007FBB0000980400200022034B9A60196895
:100A800001320A431A60704710E000E0014B03C3D3
:100A90007047C04698040020064B10B51B68064BF3
:100AA0009A6801329A601A68002A01D05868904703
:100AB00010BDC04610E000E09804002001220A4B5F
:100AC0001A80DA7B52B2002AFBDB084A00211A8026
:100AD000FF221A7519765A76C43A9A73DA7B52B2A3
:100AE000002AFBDB7047C046002C00424405000092
:100AF0000222044B19880A431A80DA7B52B2002A78
:100B0000FBDB7047002C0042034B1876DA7B52B2B5
:100B1000002AFBDB7047C046002C00420121094B34
:100B200019609A680A40FCD1C0218900196002212D
:100B3000D9635A649A64FF22D2001A649A68002A20
:100B4000FCD17047002800420222044B196811436F
:100B5000196099681142FCD17047C04600280042D4
:100B600001210D4B19609A680A40FCD1C02189000F
:100B700019605A6158690949014359610849D963A3
:100B80005A649A64DA641A65FF22D2001A649A6879
:100B9000002AFCD17047C04600200042000F4040B0
:100BA000020000040222044B19681143196099687D
:100BB0001142FCD17047C0460020004206220E4B75
:100BC00010B55A600D4B98470D4B98470D4B984701
:100BD0000D4B98470D4B98470D4B98470D4B984739
:100BE0000D4B98470D4B98470D4B98470D4B984729
:100BF0000D4B984710BDC04600400041AD070000B6
:100C0000C1060000A10700001D0B00003108000014
:100C100065070000250A0000610B0000550A00006E
:100C2000D1050000BD0A000069070000FEE7FEE7ED
:100C3000FEE700001648174970B5884204D000232B
:100C4000154CCA18A2421CD30021144B144A9342DB
:100C50001BD3FF21134B144A8B4393600222134B87
:100C60005A62134B0832DA70124B20329A73802387
:100C7000114A51680B435360104B9847104B9847EB
:100C8000FEE7C55804331560DBE702C3DFE7C04663
:100C900090140000000000203404002034040020E0
:100CA000000500200000000000ED00E0FC700041A5
:100CB0000050004100480041004000412512000062
:100CC000310D000010B5024B9847024B188010BD43
:100CD0008506000054040020104A1378002B03D02E
:100CE0001378013BDBB213700D4A1378002B03D04D
:100CF0001378013BDBB213700A4A0B4B11889942FF
:100D000003D8138801339BB21380084A1388002B41
:100D100003D01388013B9BB2138070470200002070
:100D20005204002050040020A761000000000020B1
:100D3000F8B500205A4B984700215A485A4B98471B
:100D40005A4B984700215A485A4B98475A4B984754
:100D5000C021002649010220584B9847584B98471C
:100D6000584B9847584B98473700584B984731286D
:100D700010D0332823D0564B98470300022841D087
:100D800003284BD001282ED1524A907801281DD03B
:100D9000937028E0504B18780328ECD84F4C00F0A3
:100DA0004BF902060A0C4E4B9847A047E3E74D4B20
:100DB00098474D4BF8E74D4BF6E74D4BF8E7464B60
:100DC000DA78997858784B4B9847D4E74A4BDA78D9
:100DD000002A03D19621494B984704E09B78002BC9
:100DE00001D13F4B9847464B9847051EBDD006287A
:100DF00019D17C1CE4B20025322F2AD83500032DEE
:100E000027D12FE0334A91780229C1D13A4BD878C3
:100E10000028DFD09B78012BE5D1E2E7364BDB7869
:100E2000002BE0D0DDE7864226D0364B9847364A85
:100E3000364B681E1A8004282FD8284C00F0FCF886
:100E400018030C181A00274B9847274B9847A047C0
:100E500000242E00270088E7254B9847224B98470F
:100E6000A04700242A4B984703250028F1D1EFE73B
:100E70001B4BEBE71D4BE9E70024042EBFD1234CAD
:100E80002388002B07D1174B9847174B9847134BD4
:100E900098471D4B23803500DAE70024AFE7C046B2
:100EA000BD0B0000D90C00008D0A0000790A00007B
:100EB000C50C000091060000490600006106000014
:100EC000390500001D040000410F0000910F0000D3
:100ED00085030000B2040020C4040020DD030000EC
:100EE000C104000079040000E9030000D1040000FF
:100EF000B104000069050000B50400203D040000B5
:100F0000B50200008D0500008813000000000020DD
:100F1000090500000122014B1A707047A40400204B
:100F2000054B10B59847054B0122002801D05A7097
:100F300010BD9A70FCE7C04681080000A4040020A0
:100F400010B500210548064B984700210548064B7F
:100F500098470A210548064B984710BD150F000019
:100F600091080000210F0000E1080000C8040020E3
:100F70009D08000002003038C0B2092806D91300CD
:100F8000613B0020052B01D8573AD0B270470000D2
:100F9000F7B50026204B9A78B2421CD01F4D204C4A
:100FA00029009E7020001F4B98470A22310028001C
:100FB0001D4B984728000A211C4B98476578322D15
:100FC00003D0332D09D0312D05D1E079184B984746
:100FD000184B18702E003000FEBDA078144EB0479C
:100FE0000190E078B047019B124F1B01C018787048
:100FF0002079B04701906079B047019B1B01C01870
:10100000B870A079B0470190E079B047019B1B010F
:10101000C018F870DEE7C046A4040020C804002011
:10102000D2040020011300006D1200009D08000092
:10103000750F0000C404002002B47146490849003D
:10104000095C49008E4402BC7047C04603460B430E
:101050007FD4002243088B4274D303098B425FD3B1
:10106000030A8B4244D3030B8B4228D3030C8B42DD
:101070000DD3FF22090212BA030C8B4202D31212C3
:10108000090265D0030B8B4219D300E0090AC30B98
:101090008B4201D3CB03C01A5241830B8B4201D345
:1010A0008B03C01A5241430B8B4201D34B03C01A2E
:1010B0005241030B8B4201D30B03C01A5241C30AA6
:1010C0008B4201D3CB02C01A5241830A8B4201D317
:1010D0008B02C01A5241430A8B4201D34B02C01A01
:1010E0005241030A8B4201D30B02C01A5241CDD2A6
:1010F000C3098B4201D3CB01C01A524183098B42F1
:1011000001D38B01C01A524143098B4201D34B01D9
:10111000C01A524103098B4201D30B01C01A52413C
:10112000C3088B4201D3CB00C01A524183088B42C3
:1011300001D38B00C01A524143088B4201D34B00AC
:10114000C01A5241411A00D201465241104670471E
:101150005DE0CA0F00D04942031000D34042534023
:1011600000229C4603098B422DD3030A8B4212D3E3
:10117000FC22890112BA030A8B420CD38901921115
:101180008B4208D3890192118B4204D389013AD052
:10119000921100E08909C3098B4201D3CB01C01A27
:1011A000524183098B4201D38B01C01A524143093A
:1011B0008B4201D34B01C01A524103098B4201D328
:1011C0000B01C01A5241C3088B4201D3CB00C01A95
:1011D000524183088B4201D38B00C01A5241D9D2AD
:1011E00043088B4201D34B00C01A5241411A00D22E
:1011F0000146634652415B10104601D34042002B2A
:1012000000D54942704763465B1000D3404201B5A8
:10121000002000F005F802BD0029F8D016E770475D
:101220007047C04670B50D4E0D4D0024AD1BAD107E
:1012300005D0A300F35801349847A542F9D100F036
:1012400015F9084E084D0024AD1BAD1005D0A300C4
:10125000F35801349847A542F9D170BD78140000C5
:10126000781400007814000080140000F0B58307A3
:1012700043D0541E002A3FD0CEB20200032502E024
:101280001A00013C38D3531C16702B42F8D1032CA2
:101290002AD9FF220A40150215432A0415430F2CB0
:1012A00014D927001A00103F3E09013636019E1955
:1012B000156055609560D56010329642F8D10F22C6
:1012C00097431037DB191440032C0DD91A00271F40
:1012D000BE080136B6009E1920C2B242FCD10322DC
:1012E00097430437DB191440002C05D0C9B21C19F0
:1012F000197001339C42FBD1F0BD14000300C6E716
:10130000031C0A7801311A700133002AF9D17047A1
:10131000034B10B5002B02D0024800F005F810BDB9
:10132000000000003913000010B501000023002266
:10133000002000F01FF810BD70B5094B094CE41AED
:10134000A41009D0084AA518AD00ED182B68013C7F
:101350009847043D002CF9D100F092F870BDC046CA
:101360008C14000090140000FFFFFF3F7047C04640
:101370007047C046F0B54E464546DE465746E0B596
:10138000364D83B00600286898460F009146FFF757
:10139000EDFF334B1C68A4235B00E058002852D0BB
:1013A00043681F2B13DC5A1C0192002E28D1019A8E
:1013B00002339B0042601F502868FFF7D9FF0020CE
:1013C00003B03CBC90469946A246AB46F0BD254BC7
:1013D000002B3DD0C820400000E000BF002837D0DF
:1013E000A42200235200A15843600160A050403263
:1013F000835004328350013301930023002ED6D052
:101400009A00924682444A46882154466250C42239
:101410005200914681444A468739994012688B466A
:101420000A4394464A46614611608422414652006E
:10143000A150022EBBD102005C468D32FF321168F2
:101440000C431460B3E720004D30FF30E050A7E7B5
:101450002868FFF78DFF01204042B1E730040020EB
:10146000681400000000000008000020F8B5C04625
:10147000F8BC08BC9E46704711130000D90000005C
:10148000F8B5C046F8BC08BC9E467047B1000000E5
:101490008813C8000000000000000000F4020020D3
:1014A0005C030020C40300200000000000000000D6
:1014B000000000000000000000000000000000002C
:1014C000000000000000000000000000000000001C
:1014D000000000000000000000000000000000000C
:1014E00000000000000000000000000000000000FC
:1014F00000000000000000000000000000000000EC
:1015000000000000000000000000000000000000DB
:1015100000000000000000000000000000000000CB
:1015200000000000000000000000000000000000BB
:1015300000000000000000000000000000000000AB
:1015400001000000000000000E33CDAB34126DE648
:10155000ECDE05000B0000000000000000000000B1
:10156000000000000000000000000000000000007B
:10157000000000000000000000000000000000006B
:10158000000000000000000000000000000000005B
:10159000000000000000000000000000000000004B
:0418C000DC04002024
:00000001FF
