:1000000068250020B50E0000AF0E0000B10E000004
:1000100000000000000000000000000000000000E0
:10002000000000000000000000000000AD0E000015
:100030000000000000000000AD0E0000890C000070
:10004000AD0E0000AD0E0000AD0E0000AD0E0000C4
:10005000AD0E0000AD0E0000AD0E0000AD0E0000B4
:10006000AD0E0000AD0E0000AD0E0000A10A0000B4
:10007000AD0E0000AD0E0000AD0E0000AD0E000094
:10008000AD0E0000AD0E0000AD0E0000690D0000C9
:10009000AD0E00000000000000000000F9070000A5
:1000A000AD0E0000AD0E0000AD0E0000AD0E000064
:1000B00010B5064C2378002B07D1054B002B02D03E
:1000C000044800E000BF0123237010BD3404002069
:1000D0000000000050540300084B10B5002B03D063
:1000E0000749084800E000BF07480368002B00D11B
:1000F00010BD064B002BFBD09847F9E7000000002D
:100100003804002050540300505403000000000045
:10011000F0B5654E85B0F38832880020934201D84F
:10012000D01A80B272880024934201D8D41AA4B2A3
:100130000022B7880092BB4202D8FF1ABAB20092DE
:1001400032890025934201D8D51AADB2642729001F
:10015000564B3581784398476B4602901B892000A7
:1001600001936B469B882900338078434F4B984717
:1001700083B203936B4604009B8900987380784395
:100180004A4B290098470623B080C72D18D9029BF7
:10019000A1B21A04019B00048B4216D9C30B110CA7
:1001A0008B4212DA424A1378012B0CD15368013387
:1001B0000121536050680B00052801D811700533E8
:1001C000180005B0F0BD0023F2E7000C4100120C4E
:1001D0002404914218DA03234343260CB34213DA72
:1001E000C8235B009D420FD9314A1378052B09D1F2
:1001F000536801335360052351689942E0D8137066
:100200000133DDE70023F5E703235343240CA34226
:1002100015DAA14213DA9023FF339D420FD8244A06
:100220001378022B09D153680133536051680223BC
:100230000529C5D813700433C2E70023F5E756003B
:10024000864213DA83006700BB420FDD184A137839
:10025000032B09D1536801335360516803230529E7
:10026000AED81370DB18ABE70023F5E70623914205
:10027000A6DD8642A4DD9200A242A1DD9622920074
:1002800095429DD90A4A1378042B0AD15368013349
:10029000536051680423052900D991E71370023394
:1002A0008EE70023F4E7C046A8040020D91200001E
:1002B00058040020F8B52C4D2C4B29882C4A994223
:1002C00001D9002393602B88D16800208B4229D06C
:1002D000802680272B889168D360B603254B3F0288
:1002E000052939D80800340000F0ECFF36030B1D57
:1002F0002830214806882148C6805C6140209861EA
:1003000018E01D4806881D48068040209C619861C1
:100310008020000258610020052922D1184B288036
:1003200090609847F8BD14480688144846804020DD
:100330009C615861802000029861ECE70E480688B5
:100340000E48868040205C615861E1E70A480688D3
:100350000A4806819C61D1E740209E6198619F61B7
:10036000D9E701319160DDE7520400200F2700003A
:10037000580400200044004156040020A804002036
:1003800011010000104B30B5186801230F49400AD5
:1003900018400F4A0870126A4D7812091A400D4C25
:1003A000AA420AD0C8225B1B4B700B4B22701B78F1
:1003B0000130002B00D0002030BD2378DBB2002BB1
:1003C000F9D18B700320F7E7A0440041B20400206C
:1003D000004400410200002054040020C822014BC8
:1003E0001A70704754040020C822014B1A707047DD
:1003F0000200002030B5084C0300226B1030C240D0
:10040000012500202A4205D1280009021C33090ACF
:100410009B00195130BDC0460020004210B5054B6D
:100420009847054C00210320A04700210220A04747
:1004300010BDC046150E0000F50300000C4B70B552
:1004400004000D009870D970012807D10021032005
:10045000084CA04729000220A04770BD0028FCD10D
:10046000044D0320A84721000220A847F5E7C04615
:10047000B5040020F503000010B50B4B9878012857
:100480000ED1DB78962B09D0C82B03D0002B04D1DA
:10049000962100E0FF21054B984710BDC821FAE7DF
:1004A00096210120F7E7C046B50400203D04000076
:1004B00010B596210020014B984710BD3D04000067
:1004C00010B500210120014B984710BD3D040000EC
:1004D00010B50A4BDA78C82A0CD0FF2A04D0962A25
:1004E00007D1074B984704E00220C8211856054B56
:1004F000984710BD022096211856F8E7B504002051
:10050000C10400003D040000014B98787047C046CC
:10051000B504002030B5074D03002A6B1030C240EF
:1005200001240020224203D120001C339B0059519A
:1005300030BDC0460028004210B5074B0020984748
:100540000021064C0800A04700210120A047044BD1
:100550009847044B984710BDF90C000015050000A2
:10056000B90D0000E10C000070B50D000400054B52
:1005700010009847E9000020034DA847E100012042
:10058000A84770BDF90C000015050000013810B532
:100590000E4B042817D800F095FE03070C1013002B
:1005A00000221100FF2002E00022FF2110009847E6
:1005B00010BDFF2200210800F9E7FF221100FAE731
:1005C0000022C821EEE70022F8E7C04669050000D6
:1005D0000122014B1A70704768040020054B10B5CA
:1005E0009847054B0122002801D05A7010BD9A701F
:1005F000FCE7C046350A00006804002010B5002161
:100600000548064B984700210548064B98470A21A4
:100610000548064B984710BDD1050000450A00006B
:10062000DD050000950A0000BE040020510A00000C
:1006300002003038C0B2092806D91300613B0020FF
:10064000052B01D8573AD0B270470000F7B5002605
:10065000254B9A78B24221D0244D9E700A21280061
:10066000234B9847234C29000A22234B200098470C
:100670000A2231002800214B984728000A21204BEC
:1006800098476578322D0BD0332D0FD0312D05D101
:10069000E0791C4B98471C4BD8702E003000FEBDF3
:1006A000E079184B9847184B1871F6E7A078154E6B
:1006B000B0470190E078B047019B134F1B01C01871
:1006C00038702079B04701906079B047019B1B01D9
:1006D000C0187870A079B0470190E079B047019BCD
:1006E0001B01C018B870D8E768040020BE040020C1
:1006F000090C0000C8040020F91400007D1500005A
:10070000510A000031060000B904002001230360F3
:10071000054B43608360C360036143618361C361D0
:10072000036243627047C046A8F401000122184BDF
:100730001A705A7E52B2002AFBDB164A1168164A1A
:1007400048011268D20E02430720084040010243CC
:10075000E0204901C000D2B201400A431A850422B8
:10076000DA70033A5A700D4A1A615A7E52B2002A60
:10077000FBDB0B4A9A805A7E52B2002AFBDB0F2227
:100780001A760E3ADA755A7E52B2002AFBDB7047AF
:1007900000400042246080002060800002180000B9
:1007A000240400000222044B19780A431A705A7E6E
:1007B00052B2002AFBDB704700400042064B10B5E6
:1007C0001A69064C08432240104318615A7E52B2FF
:1007D000002AFBDB10BDC04600400042E0E0FFFF06
:1007E000014B588B80B2704700400042014B03C35D
:1007F0007047C046D4040020012210B5054B187E76
:100800001A76054AC0B21368002B01D05168984788
:1008100010BDC04600400042D404002000228021C8
:100820001D4B9A619A8C8A439A841022D96811428E
:10083000FCD01A4A1168890E3F2900D12039184A84
:10084000890212689205920D0A439A621022D968B1
:100850001142FCD002229A840E32D9681142FCD097
:10086000104A11495160517849B20029FBDB0F4908
:1008700051800F4951800F4951800F4951800F49D4
:1008800051800F4951800F4951800F490F4A116221
:1008900000221A627047C0460008004024608000B1
:1008A00028608000000C0040000701001440000098
:1008B000164000001A4000001B4000001C400000D1
:1008C0001E40000021400000141D050000040040EF
:1008D0004122054B5A7000229A7002321A70DA795E
:1008E000002AFCD17047C046004800428005034BF7
:1008F000800D1881DA79002AFCD170470048004247
:1009000070470000BFF35F8F62B6C220C0210F4B5B
:1009100080001A5809061202120A0A431A5080224D
:1009200012011A6008301A581202120A0A431A50A9
:10093000802212031A6004301A581202120A11435C
:100940008022120419501A607047C04600E100E08E
:100950008222014B5A60704700400041164B174AF3
:10096000190010B502201A601A61012242311C00E0
:100970000A708870002146342170A270E2702271E2
:1009800062716172A272E27222736273A273E17386
:100990001900332431310A70CC70113C0C712234AF
:1009A000CC7110340C724F3C4C72B43397310A70D6
:1009B00048701A7010BDC0460044004140802000BD
:1009C0000722074B598B114206D0802119765A8392
:1009D000033A197E114200D17047198DF9E7C046DC
:1009E00000100042104A114B1360D2235B429381E6
:1009F000C0239B025360D369002BFCD111680233E2
:100A00000B431360D369002BFCD1094A11002C3130
:100A1000136293610B70D36193605362137513601B
:100A20005360D360D3857047001000420401124028
:100A30006C0400200022024BD88DDA8580B270470A
:100A40006C040020014BD860196170476C040020D1
:100A5000F7B506000191041E13D00B4D00242F00A2
:100A60002C373B78A3420CD1084B9847019B84213B
:100A7000EB6101232C623B70EC851C00044AAE61E3
:100A800091752000FEBDC0466C040020C109000025
:100A900000100042014B5862996270476C040020BC
:100AA000F8B54A4CA37D002B2BD0237EA27DDBB270
:100AB00052B2002A15DA5BB2002B12DA0722638BDE
:100AC00013400ED0424DEB85424B9847842323754B
:100AD0002B0000222C331A706B6A934201D0A86A53
:100AE00098470120237EA27DDBB2024201D003425F
:100AF00025D10422237EA17DDBB2114201D0134215
:100B00003DD1F8BD62683A40012A0BD09A68511C69
:100B10009960B25C22859A68217EAA429241014086
:100B2000524219E09A68511C52009960925BF1E7B9
:100B30001A6A551C1D629D695200515335E0244BC1
:100B40001A7D002AD5D09A685D680727AA4292418B
:100B5000217E1E6852420140002901D0002AD1D1D5
:100B60009A6859688A42C4D300221A755A600132C1
:100B70002275DA68002ABCD018699047B9E7144B8F
:100B80001A002C321278002ABBD01A6AD869824225
:100B9000B7D20725218D626889B22A40012AC7D0C1
:100BA0001A6A551C1D629D69A9541A6A9042A8D1FF
:100BB000190000222C310A70DA61843222755A6AD7
:100BC000002A9ED0986A90479BE7C04600100042DA
:100BD0006C040020C1090000094B0A4A1A60D222A5
:100BE00052429A81C02292025A60DA69002AFCD1EC
:100BF000196802320A431A60DA69002AFCD1704788
:100C0000000800420401314030B5031E05D0012424
:100C100007250B4A002902D10123180030BD0139F4
:100C2000137E2342FCD053682B40012B03D0037862
:100C300001301385EEE7038802301385EAE7C046EA
:100C4000000800420023054A054913609360516083
:100C500006211160034A93601360704710E000E0C2
:100C60007FBB00009C0400200022034B9A6019689F
:100C700001320A431A60704710E000E0014B03C3E1
:100C80007047C0469C040020064B10B51B68064BFD
:100C90009A6801329A601A68002A01D05868904711
:100CA00010BDC04610E000E09C04002001220A4B69
:100CB0001A80DA7B52B2002AFBDB084A00211A8034
:100CC000FF221A7519765A76C43A9A73DA7B52B2B1
:100CD000002AFBDB7047C046002C004244050000A0
:100CE0000222044B19880A431A80DA7B52B2002A86
:100CF000FBDB7047002C0042034B1876DA7B52B2C4
:100D0000002AFBDB7047C046002C004201220B4B3F
:100D10001A80DA7B52B2002AFBDBAC22D2001A80A6
:100D20005D2200211A83223A9A73054A116001223A
:100D30005A73DA7B52B2002AFBDB70470030004264
:100D4000DC0400200222044B19880A431A80DA7B53
:100D500052B2002AFBDB704700300042014B03C354
:100D60007047C046DC0400203B2210B5054B987B41
:100D70009A73054AC0B21368002B01D05168984796
:100D800010BDC04600300042DC0400200121094BA8
:100D900019609A680A40FCD1C021890019600221BB
:100DA000D9635A649A64FF22D2001A649A68002AAE
:100DB000FCD17047002800420222044B19681143FD
:100DC000196099681142FCD17047C0460028004262
:100DD00001210D4B19609A680A40FCD1C02189009D
:100DE00019605A6158690949014359610849D96331
:100DF0005A649A64DA641A65FF22D2001A649A6807
:100E0000002AFCD17047C04600200042000F40403D
:100E1000020000040222044B19681143196099680A
:100E20001142FCD17047C046002000420622104B00
:100E300010B55A600F4B98470F4B98470F4B984788
:100E40000F4B98470F4B98470F4B98470F4B9847BE
:100E50000F4B98470F4B98470F4B98470F4B9847AE
:100E60000F4B98470F4B98470F4B984710BDC04604
:100E7000004000415D0900001D080000510900000C
:100E8000E509000001090000D90B0000450C000035
:100E90002D070000AD0C0000D10800000D0D000072
:100EA0008D0D0000D10D000005090000FEE7FEE7F2
:100EB000FEE700001648174970B5884204D00023A9
:100EC000154CCA18A2421CD30021144B144A934259
:100ED0001BD3FF21134B144A8B4393600222134B05
:100EE0005A62134B0832DA70124B20329A73802305
:100EF000114A51680B435360104B9847104B984769
:100F0000FEE7C55804331560DBE702C3DFE7C046E0
:100F1000505403000000002034040020340400205A
:100F2000640500200000000000ED00E0FC700041BE
:100F3000005000410048004100400041B114000051
:100F4000CD0F000010B5024B9847024B188010BD22
:100F5000E107000056040020154A1378002B03D047
:100F60001378013BDBB21370124A1378002B03D0C5
:100F70001378013BDBB213700F4A104B1188994272
:100F800003D8138801339BB213800D4A1388002BBA
:100F900003D01388013B9BB213800A4A0A4B118885
:100FA000994203D8138801339BB213807047C0461F
:100FB000020000205404002052040020A761000019
:100FC0000000002050040020E7030000F8B50020D6
:100FD0006E4B984700216E486E4B98476E4B984772
:100FE00000216E486E4B98476E4B9847C0210026F3
:100FF000490102206C4B98476C4B98476C4B9847C3
:101000006C4B98476C4B984737006C4B984732288D
:101010002BD033282ED0312810D1694BD878032813
:101020000CD8684C00F04EF907191D1F2C00032541
:101030002E002700E9E7644B9847A047634B984789
:10104000030002283AD0032844D0012826D1604A60
:101050009078012815D0937020E05E4B98475E4B46
:10106000EAE75E4BE8E75E4BF8E7554B18795D4BD6
:101070009847E3E7524B9A78597818785A4B984733
:10108000DCE75A4BDA78002A03D19621584B98476F
:1010900004E09B78002B01D14B4B9847554B984768
:1010A000051EB2D006281AD17C1CE4B20025322FCE
:1010B000BED83500032DBBD1250039E0444A9178D4
:1010C0000229C8D1494BD8780028DED09B78012B63
:1010D000E4D1E1E7454BDB78002BDFD0DCE786424B
:1010E00041D0454B9847454A454B681E1A80042815
:1010F0004AD8344E3B4C00F0E5F8030A112C31007D
:10110000314B9847B0470520A047002490E7314B6A
:101110009847314B9847B0470620F5E70025304BFC
:1011200098472D4B9847B0470820A047354B1D8066
:10113000354B9847041E00D078E7324B334A198864
:101140000325914200D873E718800820254B984763
:101150006EE71D4B9847B0470920D5E71F4B9847CE
:10116000B0470720D0E70024042EA3D1244C2388C5
:10117000002B07D1174B9847174B9847114B9847AF
:101180001E4B23803500C0E7002493E72D0E00009E
:10119000590F00007D0C0000690C0000450F000095
:1011A000ED070000A5070000BD070000390500009D
:1011B0001D040000FD0500003D1200004D0600006A
:1011C000B9040020DD030000C10400008503000015
:1011D000B204002079040000E9030000D1040000FB
:1011E000B10400009D12000069050000B504002054
:1011F0003D040000B50200008D05000088130000CA
:10120000000000205004002009050000E703000052
:1012100010B5084CA26863689A4209D823685A1C22
:1012200022601878044B80009847A3680133A360BC
:1012300010BDC0460C050020ED08000070B500216F
:101240000E480F4B98470F4B98470F4C0F4B104DC4
:1012500023606360A360E36023616361A361E36172
:101260002362636228000B4B98470B4B62681A603D
:101270006A685A6000229A6070BDC0461112000070
:101280005D0D0000450D0000E40400207E5F0100BC
:10129000180500200D0700000C050020092809D8BA
:1012A000054B8000C258054B1A60054A82585A60A7
:1012B00000229A607047C046E40400200C0500201C
:1012C0001805002002B4714649084900095C49002C
:1012D0008E4402BC7047C04603460B437FD40022B5
:1012E00043088B4274D303098B425FD3030A8B42BA
:1012F00044D3030B8B4228D3030C8B420DD3FF2224
:10130000090212BA030C8B4202D31212090265D0F1
:10131000030B8B4219D300E0090AC30B8B4201D3A4
:10132000CB03C01A5241830B8B4201D38B03C01AEB
:101330005241430B8B4201D34B03C01A5241030B62
:101340008B4201D30B03C01A5241C30A8B4201D313
:10135000CB02C01A5241830A8B4201D38B02C01ABE
:101360005241430A8B4201D34B02C01A5241030A35
:101370008B4201D30B02C01A5241CDD2C3098B421A
:1013800001D3CB01C01A524183098B4201D38B0197
:10139000C01A524143098B4201D34B01C01A52413A
:1013A00003098B4201D30B01C01A5241C3088B427F
:1013B00001D3CB00C01A524183088B4201D38B006A
:1013C000C01A524143088B4201D34B00C01A52410C
:1013D000411A00D201465241104670475DE0CA0FE3
:1013E00000D04942031000D34042534000229C46A3
:1013F00003098B422DD3030A8B4212D3FC228901AD
:1014000012BA030A8B420CD3890192118B4208D382
:10141000890192118B4204D389013AD0921100E0E4
:101420008909C3098B4201D3CB01C01A52418309F8
:101430008B4201D38B01C01A524143098B4201D325
:101440004B01C01A524103098B4201D30B01C01A50
:101450005241C3088B4201D3CB00C01A52418308CA
:101460008B4201D38B00C01A5241D9D243088B4220
:1014700001D34B00C01A5241411A00D201466346C3
:1014800052415B10104601D34042002B00D5494227
:10149000704763465B1000D3404201B5002000F066
:1014A00005F802BD0029F8D016E770477047C0461E
:1014B00070B50D4E0D4D0024AD1BAD1005D0A30031
:1014C000F35801349847A542F9D133F0AFFF084EE5
:1014D000084D0024AD1BAD1005D0A300F358013416
:1014E0009847A542F9D170BD385403003854030021
:1014F0003854030040540300F0B505000F2A2FD9DB
:101500000B0003439B0734D116000C000300103E70
:10151000350901352D01451927681F6067685F602F
:10152000A7689F60E7681034DF6010339D42F3D1F5
:101530000F239E431036851989191340032B1AD99E
:101540001E1F0023B4080134A400CF58EF50043309
:10155000A342FAD10324A643331D2240C918ED1833
:10156000002A05D00023CC5CEC5401339342FAD11D
:10157000F0BD0500F6E71A00F2E7C046F0B58307B4
:1015800043D0541E002A3FD0CEB20200032502E011
:101590001A00013C38D3531C16702B42F8D1032C8F
:1015A0002AD9FF220A40150215432A0415430F2C9D
:1015B00014D927001A00103F3E09013636019E1942
:1015C000156055609560D56010329642F8D10F22B3
:1015D00097431037DB191440032C0DD91A00271F2D
:1015E000BE080136B6009E1920C2B242FCD10322C9
:1015F00097430437DB191440002C05D0C9B21C19DD
:10160000197001339C42FBD1F0BD14000300C6E702
:10161000034B10B5002B02D0024800F005F810BDB6
:10162000000000003916000010B501000023002260
:10163000002000F01FF810BD70B5094B094CE41AEA
:10164000A41009D0084AA518AD00ED182B68013C7C
:101650009847043D002CF9D133F0F2FE70BDC0462E
:101660004C54030050540300FFFFFF3F7047C04637
:101670007047C046F0B54E464546DE465746E0B593
:10168000364D83B00600286898460F009146FFF754
:10169000EDFF334B1C68A4235B00E058002852D0B8
:1016A00043681F2B13DC5A1C0192002E28D1019A8B
:1016B00002339B0042601F502868FFF7D9FF0020CB
:1016C00003B03CBC90469946A246AB46F0BD254BC4
:1016D000002B3DD0C820400000E000BF002837D0DC
:1016E000A42200235200A15843600160A050403260
:1016F000835004328350013301930023002ED6D04F
:101700009A00924682444A46882154466250C42236
:101710005200914681444A468739994012688B4667
:101720000A4394464A46614611608422414652006B
:10173000A150022EBBD102005C468D32FF321168EF
:101740000C431460B3E720004D30FF30E050A7E7B2
:101750002868FFF78DFF01204042B1E730040020E8
:101760002854030000000000524946461A120000A7
:1017700057415645666D74201000000001000100BD
:10178000401F0000401F00000100080064617461F8
:10179000F611000080808080808080808080808042
:1017A000808080807F807F807F808080808080803C
:1017B0008080807F80807F807F807F807F807F802F
:1017C0007F807F807F807F80524946461A120000CA
:1017D00057415645666D742010000000010001005D
:1017E000401F0000401F0000010008006461746198
:1017F000F6110000808080808080808080808080E2
:10180000808080807F807F807F80808080808080DB
:101810008080807F80807F807F807F807F807F80CE
:101820007F807F807F807F80524946461A12000069
:1018300057415645666D74201000000001000100FC
:10184000401F0000401F0000010008006461746137
:10185000F611000080808080808080808080808081
:10186000808080807F807F807F808080808080807B
:101870008080807F80807F807F807F807F807F806E
:101880007F807F807F807F8052494646121D000006
:1018900057415645666D742010000000010001009C
:1018A000401F0000401F00000100080064617461D7
:1018B000ED1C0000AAC0693952B3EBBF5110319141
:1018C000CBA65A3D74C9E196320F4DAACC96514829
:1018D0008BD5D277170C60C4DB974D468BD3C4638E
:1018E0000D1379DFE38D3B4093D6B54C03289FF869
:1018F000D96E2443A8DEA634003FC0FDCA54184C5C
:10190000B2DD972A0453CEFEBF4C164CADD69532AD
:101910001057CDFEC553113899D2A84C1B4EBBFEB3
:10192000D35F091D81D6C66C2339A1F6E4710B087B
:101930006AD7E2892B2588EDF5820C0251D4FEACE2
:101940003E1368D4F7981C003CC3FFD25C103BA345
:10195000EBBC4E011D96F8F693220A60C7E491286D
:101960000359D9FFCA46001D98F2D2640D289EFB88
:10197000ED7A090559D6F6AF42124BB8F2C25301BF
:101980001B89EFF194260C58CAF1B1400435A8F632
:10199000DA71141877DCEE9F33043CB0F5D6701979
:1019A0001D7CD9E49328034AC3FED8670B1072D478
:1019B000E39D3A164FBAF3CD640B0A69D5F7B94DDA
:1019C00010349DE4D4791A0C5FCEF8C85D0B1A7AF6
:1019D000D8E6A23B0A3EADF2DC7C16055AC7F5C537
:1019E0005F0E1D7ED9ECAB41032896EDEF9B2900DD
:1019F0003CB3F9DE76110663D2F7C258081477D8E3
:101A0000F5BF57051275DCF9BC43011B99F6FC9F25
:101A10001E002AADFCF498240039A8EADF8D2400CA
:101A20003DB9FAF98F0F002BB5FEF690120246C7AA
:101A3000FBE0720B0142C1FCFB9F1D0022A4FAF7E0
:101A400098180036C5FCFD920A0014A2FCFCC245A1
:101A5000011284E5F9B83803058BFEFCE04A010069
:101A600055D9FEE782150250C5FBE681080120B971
:101A7000FEFDC52B030378E8FDCE61070968D9FD9B
:101A8000E779030220B7FEFEBF35030778DFF6C90A
:101A90006A0F0250C4FCFAA221020484FAFBD55F4B
:101AA00007045AC7EFD58D35001C82E8FCE67B0A97
:101AB0000028A8FBF5B048081D81D2E2BD7C2D00AE
:101AC000288CE5FDE28214002599EBEDBB60181926
:101AD0006BBBD7C7974B091269C5F5EFAC3F010B3C
:101AE00069C5E1D49847123784C5D7C8852700282F
:101AF0008EE1FBE28E2900196FBAE2E4AA4A0C26B5
:101B000074BEDFCF862900308CD9F4DF963401090A
:101B100056B1EDFECA620B0345A0DEE8B75C100DBE
:101B200058ADE9EEC3650C002385E0FBFCAB350244
:101B30000347B3F8FCCE5D050343A4E2ECC6741E74
:101B400000257CCFFCFBB83801003ABBFDFCE16B03
:101B50000301197DCEF7F6BC550303309CF4FEEC6F
:101B60007902010986F0FCFBAE3D01022694F3FEEA
:101B7000FDAE1C000039C2FEFDEF7906010251C026
:101B8000FBFDED750103016FE6FDFBBF4701011C85
:101B900084E3FDFBBF4801001191FDFCFEA5270079
:101BA0000128A6FBFEF8AB4203001074E6FCFECA57
:101BB0004F00020586F8FDFAB1500C00145DBAFA28
:101BC000FCE98A18010040C0FEFCE6802400032BDB
:101BD0008CDFFEFACF690900024AC8FCFEE68B2CB6
:101BE00002012282DCFDFBD16E0F00034ABFFAFE28
:101BF000E08F340301287ED5FCFBCB721B0003422F
:101C0000B7F9FFE6943504002173CCFAFDD890377C
:101C10000201187CE4FDFCCD6C170002369CE7FF46
:101C2000F8C1691F00043297E4FFF9CB630B00038E
:101C300043BEFAFFF19A3304001D6CC6F5FFDDA028
:101C4000480500095ECDFBFFE6871F0100288CE5F3
:101C5000FCFDC87C2E00011F77D4FEFCE57A130042
:101C60000229AAFBFFF8B54905000449B8F9FFF8B5
:101C7000AD3C04000769E1FAFFD2751C0201398A04
:101C8000D1F4F1CB893F02011378DFFEFBD7620468
:101C9000000247BBFAFEEAA2481300124DA9E7FF73
:101CA000F2BB5A0A000348C0FCFEFA981F0000204D
:101CB0009CFCFDFBAE4C0F001D58A5DBF0DDB265B2
:101CC00020000A4FB7FAFEE68B270201359FEFFE90
:101CD000E7A3511C09255BA3D5E9DCB4691B000609
:101CE00052BBFBFDED8A1A000136ADFCFDF19935C2
:101CF00004022D85D7F8EAB77129020D54A9E8F638
:101D0000DA96430602328CDBFDF0B15A12001567F9
:101D1000BDF6FCD98A3001032F96EBFDFBB74C03CF
:101D2000010D78E1FBFBC4580200117ADAFCF4B132
:101D30005D15012A79BFE4DEB9783204115AB4F690
:101D4000FCD47417000A63C5F6F7C6813709093D4C
:101D50008DD9FDF6B44802012196F9FDFA972001CC
:101D6000024ABCFBFCDD7D17010350BEFAFCE07C9F
:101D70000F01014FC8FDFDE56C01020276EEFDFB8F
:101D8000AE3B0202359EEBFEE59730010347BAFBFE
:101D9000FCDB781002025BC8FCFBDF730302026FFE
:101DA000E0FCFBB33E030246AAE6F3CD7F25001C10
:101DB00074CDFDF2AD4003023FA8F3FDE68C1D019A
:101DC000035DCFFBFCB94103034FB3E5EBC37823BD
:101DD000002576CCFCF9AD3301034DBFFBFBD6618A
:101DE00002021F8EE6FEED9024001A70C2E8E4A401
:101DF0004C0F1C5BA3D3E2B7641B18559FD4DBAB1D
:101E000055162772BAD4C4914A1F2B69A6D7E5C0CC
:101E1000620A0240A8F3F9B7521426699CB3BAAC1F
:101E20007A4332568FC5D5A74D153283C2D0B77FBE
:101E30003F23468AC3D7BF731E0A4EAEDED8AB65BA
:101E4000281E4D88B9DBD084271555A5CBBA7E3D19
:101E50003370B7C3AD885A272463B9EBE7A63D00BA
:101E60001376D2E7CB8A3D183B85BDD5C0762215C7
:101E700062BCE0C0772D1D5FB6D9C08B49132579B0
:101E8000D5F9DB841B002392E9F3C66B1F1A63AB01
:101E9000CBB173312D77D0EBBE620E013FB5FCFAAA
:101EA000BF4B030352C9FDE689230A55B1D8BC7460
:101EB0002E1F62BEECD58720001E9FFDFCC83F028E
:101EC0000469DDFDD370211C69B6D0B2681A1D7596
:101ED000E3FCD35802024CDCFDFB8F14002B9EE781
:101EE000E69F360F49B3ECD3710D0253D8FDEE795E
:101EF000050236B7FCF2982B003BA8ECDA7D1A07F6
:101F000061D3FECA5904096BDEFCCC5E080B66CFB8
:101F1000F6C65E0C1A7FDEEFA3360139ADF7E27C20
:101F2000170352C0F6D0701B1768C3E5B4561630BD
:101F300090E1E3942B0544B3F0D6741C196CCAE10C
:101F4000A6491844A5E2CE7920125EC6F2C46114F7
:101F5000207DD0DB953C1F5EBFE5B147062A9DF48E
:101F6000EA8A210954BDE4B559234097D2C276309C
:101F70002972CAE4A7400730A4F9E880150863CFA6
:101F8000E89B371A65CEEEA231003CB2FAD2671652
:101F90002584DBDD8A2C0E52BEF2C35817399EE130
:101FA000BC52072AA6F9F577040663E3F5992B1AC4
:101FB00071D7E68C220A5ED0F5AC3C0942B5F8CD6B
:101FC0005C0A1F87E2DA7D272B8AE5DC6C0907793A
:101FD000F3F89A1C0260D8EF8B1B0C7AECF9840F93
:101FE000026CEEFA99160259D9FA9A2E1875DBE2AC
:101FF000700C0883F6F99210045CD9F0912B247FC1
:10200000DCD068132C9CF7D759011E9DFCE26B10A5
:102010002790DAB959285CBDE2972D0C5CD2F9A55E
:10202000331059C2DA903C3583D2C2631B39A2EC1B
:10203000C155143FACE6B24C1F58BAD48D3631842A
:10204000D8C8681D3596DDB95D2C59B3CE883431BA
:1020500083D6C769223C9DDFB6542453ADC88D4852
:102060004B8EC6A44F2A60BFDE92332373D1CF7745
:10207000304294CA9F4F3674C5C5732E4398D0A77B
:102080004D2D66C0CF863C3E80B69C5F5187C0AC6C
:10209000582450B0DCA0402D74C4BF6F3655A5C67F
:1020A000893C4294D2AD4D2762C1D17D2F3E9BD752
:1020B000A5462C72CAC3672B52AFD58F333189D84E
:1020C000B9572A5EB5C37B3E52A2C48A3F448FC82B
:1020D000A04F397AC5B7602B5CB9D07D2B3B9EE110
:1020E000B2491E5DB9C8824D6098A06A4A72B8C2F2
:1020F000732A3E9FE0AD482465BEC17948659FA222
:10210000634270C1CD78223298DEB4512B67B6BAE3
:102110007849659FA56D4B70ADB271425CA5BD82DB
:10212000414C98C29449448BC9A9502B65BCCA81C3
:10213000414D8EAD8C666C9192664E78BFC474240E
:102140003495DFBA58295EAFBD814E60919C755FB2
:102150007DAEA35F3662B2C9883C418FC9A5563CAB
:102160006EACA773587BA7985C4774B2AD6D476A95
:10217000AEB978384795C19B5B5487AA8D56508B72
:10218000BB9C523E76BDBC77405491A8815F77A539
:10219000A3693D5AAACD9541357ABDAE6E4C6EA16C
:1021A0009C67537EB4A55C315FBADA953D2E6FB162
:1021B000AB7C657C947E5965A0C18F3B2974D4DBD0
:1021C0007F293891C79E53417AB4AA6F5372A09366
:1021D00062527EB0A369496FAEB670354EA4CA9301
:1021E000443D8ACEB5592557B2C884434E97C3990A
:1021F000554575A592656295BC96462F71C8CD74FC
:10220000283B9CD9AE52326BB4B46D3E60A7BC85FE
:10221000505691AE8651528EBC9C57447BB9AF67E5
:102220003C5CA6BA7D4256A8D69E381964C9D67FB2
:10223000384BA0C9913B3181D3C3622550B1D695AB
:1022400044397AB9A6614275BEBC71354B96BE91D0
:10225000534F8CC4A6532B5EB5CF8E413F82BBA09B
:102260005F4C83BFAC521B49BAF5B8481952ACBF9A
:10227000824A5DA9C88A332A7ED5CE71294098CE7C
:10228000A3513C78C1B6632C51AAD299473D7EC375
:10229000B15A2752B7E5A43E2165BEC57A3C54A188
:1022A000C5913E327CD3D275202F8CD6B9633A6467
:1022B000ADBD7C323C8FDAC56524459CCFA4513737
:1022C0006EB9C57B333E91D9BE5D1D3E9EDFB85EC3
:1022D0003056A6BF8643448ED0BD60203A9BE2C3F1
:1022E00065284393C29B5D5082BCB266232E86DD77
:1022F000E0914233669E9E6F5775B9D498390D3F71
:10230000A8E8C46B37539DB6823C3885DEDC7C1E62
:102310001E79D1C976384D9FD1A2451950BCEFB76F
:10232000531F4699C3A15D446EB4CB903D2055B474
:10233000DDAB57305DAFCB8D341D6DD7EF982E16CA
:1023400064C6D5842F2F88E2D87215177ADEE38D04
:10235000312672C5C97F343281D7DA831F1066D621
:10236000F1A031125ECAE5932C1569D6ED98290FBC
:1023700060D1EF9B2B0654CBFDBD430434A7EDC3C6
:1023800057123DAFF9CC50001B92F6EB801B1A762A
:10239000D7DB81241B74DDF29C280046C1FEC954A2
:1023A000062A9BEBD16211259AF7EB73070465E4CB
:1023B000FCB13B0D4AB2E3AF490D37A6FAEA7F13F1
:1023C0000258C9EEAB431855C2F3B53F00219DFC3E
:1023D000ED8B21115DC1DDA5481C47A9EAD171161D
:1023E0000D65D4F8B84708309CE5D176272879CF19
:1023F000D996381040AAF2E48720014AB7EDC360AD
:102400001D379AE1D0751A0D5ECCF8CD69171468A6
:10241000C4E4B35214349BE8E1871E0150C4FACFE0
:10242000640E1675D8EDB147052691E8EC9E310390
:102430003BAAEDD982211059C0EBC868131170D79F
:10244000FCC24A020E80EEFCB944002384D6DEA70B
:102450004914379DE9ED931B002BB8FCFC96120044
:102460002CA9F2E696351248A7E0D5821B0047CE8C
:10247000FDF777010136D1FDFD9417002596E8F1AF
:10248000AF42042F9DEBEB921B0033BEFDFC9B176C
:10249000011097FBFDCE50030462E0FDE86A0403DF
:1024A00055D4FDE1750D0351C5FAE288170031B12D
:1024B000FDFBB12A030582F4FCD861060453C7FE74
:1024C000E9901A002BA7FAFCB83A03087CECFCD67A
:1024D00067070348C0FDF3A32D01097BEFFCE770FC
:1024E000050234B4FDF6B245021471C0DFCC923B54
:1024F0000E3792D7DEAE580F1A7BD7E9B76F270F8A
:1025000047A2DDDBB5701C003EABEDECB45508090D
:1025100062C2E5D1A0530E1563BBE8E6AD460308E1
:1025200067D1F7EAA037001575CFECE09C3A0018A8
:1025300072CAEEE9A439001069C1EFEEB048010D8E
:1025400054A9E5F7C25505074FACE9F4BB53080D94
:102550004E9ED9F1CE7218003188D8F8DA7E20006C
:102560002F84C8E7D5933D0D2269B0DDE3B960152E
:10257000043B90DDFDE07E18002382D2F1E19F4410
:10258000080E4F9DE4FBE07508001988EDFCF490FF
:102590001E000965C1F4F8CA6B0C001B7DDDFCFC54
:1025A000A42501035BC3F7F7C67822000F5BB6FBD7
:1025B000FBDC630101158FF1FDFBA7310202339EA5
:1025C000F6FEFB9B15010046C9FFFBE16602010414
:1025D0005FC8FAFDDF7F10010157CFFCFCCF640A12
:1025E000001162BAF1FDD98F31010231A5FCFCFC6A
:1025F000951901013DB8FCFDE2924006011E70CD27
:10260000FCFBD76701020168DDFCFBC56D23000CF4
:102610004499E0FEEBAE540A001B71C8F8F9C98575
:102620003803022989E4FEFABC4C0300106BCEFB90
:10263000F9CA8D4511001D69C4FCFDDB7D1C00023B
:102640003CA3ECFFEAB0601F000C46A5EBFFEEAD2B
:102650004D06000B62CFFAFED8802702013187D4E5
:10266000FDF9CA792800033191E1FFF9C663100032
:102670000446BAFAFEE5923C0E032A63A7D5EEE7BC
:10268000BE721A00013ABDFDFCF5801001013F99B0
:10269000DBEEDFBB88511B00115EC3FCFDEB760651
:1026A00000014BBEFAFCD39A5F3312123886DAFD72
:1026B000FBC6530201036CE2FBFDC27332110F2F04
:1026C0006AB3EDFFE49A3A0101167FE3FDFCC960AD
:1026D0000C00034CAFEDFEDEA65E2508184A9AD921
:1026E000FDF0BC5E0A00055DCDFBFCD7791E010242
:1026F00043A2E5F9DDA7642F0E144294E0FEF5AD88
:102700004203001D82DEFDF5BE732800063E9AE7F7
:10271000FFECA6490B002574C0E7EBCD92490901F7
:102720002282E2FCFBB54804001F7AD1FBF7C1729C
:1027300022000C54ACEBF4D0954F15022B7CCEF953
:10274000F1B7651D021C61ADE1F1D5974305023477
:1027500093E2FEE9A34E0D012B79C2F2F2C7761E79
:1027600000065BC6FBFBCC6F1800095ABDF8FCD114
:102770007C23000A56ACE7F6DA9438030345A6EA50
:10278000F7D29148120A3482D3FDF5AF42030233E7
:102790009EE8FEE3A24C05022487E7FDFCA8290180
:1027A000023FB6FCFCE2801902024FBBFBFBE37167
:1027B00001020173E9FDFBB44302012084DFFDFC4B
:1027C000BC3F010028ABFDFDE78522020349B4FAB6
:1027D000FCE36F02010E7BDAFCF9BD530302229A7F
:1027E000FBFCEB7D0D001270C4F4F9C65D04022FF2
:1027F000A2F8FBD67317001F76CCFAF8B641020395
:1028000047B9FAFBD37310001175DDFAFDAB2F0148
:102810000354B8EFFBD27814001F7CD7FDEA91284F
:10282000002572B6DADCA952131E5EACDBDEA54DC4
:10283000122469AED6D5A651151E64AFDCDDA952AF
:1028400011185EABDFE4B155101356A4DAE5B86297
:102850001A185299CFDCB25E232E6BA8C5BF8E4BDF
:102860002B4988B5C6B7823A1A428DC9DDC3762294
:102870000C4698D1DFBC6C201A59A3C9CCA560289E
:102880003270ACC8C28C3C1A4AA0D2D0A2571820D1
:102890006FC0DFD29C43021775CFF2D98521013F6B
:1028A000A0D3D2AB6526266AB7DAC784280645B31B
:1028B000EFE19C40021674D2F4DA8A2300309CE7E0
:1028C000E5AD50132980C9DAB469191260CDFCDF77
:1028D0007B100030AFFBFBB742040765D0FDDF7C07
:1028E00015014FBBF4D67C18034FC4FCE88C1700CD
:1028F00020A3FDFCC03C030571E4FDD262080C6F0F
:10290000D6F5C355040672EEFDDF60010342D3FB2A
:10291000FF920C002AB2FDF29016014AC5FBDC784A
:102920000D0246C9FCF987070030C2FEF7890C0288
:1029300043C1FCDB7A150457CDFADD6506015CE482
:10294000FFE259010568ECFBC44C031F88DDE7A3D7
:102950003A022FA6F7F68D16003EC0FFE572070774
:1029600061D4F4C1510C208AE3EF9F2D0035B2FCF5
:10297000EB780C035ED6FABB490A339BE4D680257C
:102980001059C2F4CC620C1578DCECA2360D4CBCAC
:10299000EFC151032193F4F194230044B5F2CF6BBE
:1029A0001B2380D4DA8C2D105CCEFDBF44011A9A13
:1029B000FAF187150560D3F2A5370C4CC1F6BE4776
:1029C0000024A2FAEF780B0362E2FDB4360037B2BE
:1029D000FCCC5807299CF5DD6A0A0E81EFFB9316A3
:1029E0000051D6FFB839003EB7FEBC48003DB6FFE7
:1029F000CC4C001D9EFCED76080C77E9EF8619099A
:102A000077E8FE8A11005DE8FFB427003BC4FFBBF6
:102A10003E004EC7FFA428004FD6FFBA310039BA96
:102A2000FFB8481150BCEDA2320552CFFEBA3500B6
:102A300032B5FFCB52093BABEAAC42145CCFF79BFB
:102A4000200057DDFDAC2B004EC5EC9C3D2C7BCE11
:102A5000C4651731A2FADB5E031E90E9D06D2542F2
:102A60009FD5A2442568C9E08E2E1B6ED0DC842F32
:102A70003188D0B45C2B58B8DF9A331663D1EB930E
:102A80002C2074CFC66F2F4CA5D9A13D1C62CEE679
:102A90008E2E2578CEC66E304CA7D3973D2B77D09F
:102AA000D071233599E2BA511F51B5D6903F398480
:102AB000C8B0572E60BCD5872F2F86D7C16126514D
:102AC000AFD18E3A398ED3B34E1F5BC4E58F251E2E
:102AD0007FDFD0672244A8D294403E8BCCAB512CF0
:102AE00064C2D07E2E3B97D4A84E306EBFBF7039E3
:102AF00056A7C1823F4B9CCD9C412B75CECB6B27FB
:102B00004BADD089343B93DBB3491D60C9D47A2FD8
:102B1000429AC9974B488CC196463983D0BD5D28EF
:102B200056B2CA803B4DA1C88C3B3E93D8AF481FDC
:102B300061C5D5883B4386AC896476A8A761274BDD
:102B4000B1EFB2401257BCCE8A4B588F9E71577C62
:102B5000B5B2652A49ABDDA4442F73BDB06A466C9B
:102B6000A9A66E4D73ADA7684163ABBE8447519370
:102B7000B286535D99BA89423E8ACBB25F3460AB6C
:102B8000B7804E6095A17B60789F9B61416CBAC90C
:102B90007B2E3993D4B1583266B0B076516D9FA177
:102BA0006F5272A6A56A486EB0B874394FA0CA9821
:102BB000483B81BEA9614570ABA86D4C6DA5A47062
:102BC0005171A7A76E4263AABF803F4893C4A15A20
:102BD0004273AB9E665784B49E573868B8C47D3E36
:102BE0004B92BA9760547E9C86656E9CAD7F404543
:102BF0008ECDAF5A3263AFBB7B43589FBC87464CE8
:102C000090BF9A56447BB6A96A4668A3A5755975C4
:102C1000A19F68476BAFB8733755AFDA942B157126
:102C2000E3E8801F2B88C7AA6752799B89656B9759
:102C3000AD7D3F4393D8BB561F50B1D490403E8EDC
:102C4000C8A24F3574BEBA703D5CA3B6814A58968F
:102C5000B78C51528EB9944E4382C3AF5C3064BE80
:102C6000D079243299E5BC4E2062C2C86C2648B0A7
:102C7000E9A83A1665C7C9733A5EACC17F363D8D87
:102C8000D0B2613C6BABA2614272C1CF802A2A7F75
:102C9000CEBC6F466AA6A3603B68C0D98A241A7866
:102CA000E1DD75263B96C4944B4791D8B84C0C4057
:102CB000B9F0B0482968B8B56C395FB3D18A3530FE
:102CC00082D1BD612855B5D88F33277ED5CA6A27F2
:102CD00048A6D2963F3585D3BC551C50BFEB9D2DE1
:102CE000146DD6D9732645AADC972C1A76E7EA79B3
:102CF000122393E3BA4C1F61CEE685181681EBDEF2
:102D00006D15319DE4B74D1F58BCD88B333189DA2E
:102D1000C65B1135A5F5CA5A1842A2CD924240921F
:102D2000E3CA58011C93F7E176294195BD8B3D34E8
:102D300082E1EB881C0A5DC4D7954F4D87BBA0513B
:102D40002148B1F5CC5C0F2D96DAB4542A63CAE859
:102D5000901E015FDEFA99291F7DDAC45A1039B23C
:102D6000FDCE500834A3E3B14F245CBCE3A33D0F78
:102D700044B2EDBE561A44AAE0AA420E50C7FFB4B0
:102D8000310045CCFEA92C0562DFF88F16056CE9F1
:102D9000F6901A0C6CDBED90261064D3F2A0310A89
:102DA00056C9F8A32E0053D7FFB6290037C5FFC276
:102DB000420049C1FEA32D0051D3FFC64000209D13
:102DC000FFDA6D0F2B97F4DB5B06088DF8FB8E0A9C
:102DD000035ADDFE9924006FE3FF9818003ECAFFF6
:102DE000DC5800178CF6E26D091191F6FB800701A3
:102DF0005AE8FEB931003CBDFFC3450024A7FCF5ED
:102E00007E050452DAFDBF400039B7FFCA45001500
:102E1000A1FCFA8C040546D1FBC44D1237A6ECD4B4
:102E200064070470F0FEC33400139BFEED811011A3
:102E300072E4EF9C250137BDFCF37805024BD3FE0D
:102E4000D454001C93F2E57F13035FDCFDC94E03ED
:102E50000978EDFCBA3A0021A0FAEE84110257D6A7
:102E6000FECC5302107EE7F9B33A0122A2F8F891A2
:102E700015003EC3FFE778080552CCF7D7670B066D
:102E80006DDEFEC63D030995FCFCA81E0026A6FDCE
:102E9000EC9B280133AAF5F39213002EC7FDFD82A7
:102EA000010036D3FEF5820E0141B2EDE58E1F0022
:102EB00042C5FDF36F02004EEFFCFA6A00013ACF03
:102EC000FBFD9D1C001A9CFBFCB1210022B3FDFC04
:102ED00094090025BCFDFEAD23020385FEFCE64DF2
:102EE000010061F3FCEE6502024FD7FCF48A0B018E
:102EF0002AB3FEFCB11F010896FEFCCC4003036C14
:102F0000E9FDEE7C04022AB9FEFEAF1F020893FC25
:102F1000FCC749040566DFFCE284160020A1FCFB27
:102F2000CC49030155E1FEF88E14001991EBF8CB62
:102F3000761F003696E3F3C96007045CC9F4D88BAA
:102F400031073A96CDD0B27D35144396D3E0BB66B7
:102F50000D085DC1E7D398440D257EC5D8C59342C1
:102F60000B2984CDE1C5873206358FCFDDC386328C
:102F700008338CCFE1CA8329043794D0DFC785306A
:102F8000043183C8E6DD9833001876D2F9E796302D
:102F9000001773C6EBE3AB4F07074CA6E6F8CD6806
:102FA0000D013593DFF7DE8625001C70C8F5F0AE05
:102FB00044030446A9F4FCDB680302209BF8FDE40B
:102FC0007F1800136CBEF1FCCE6504021C92F9FD63
:102FD000F0800D001276C7EAE7C3791F000D64CEBA
:102FE000FCFEBC30000245BDFAFDDB7F1A02025236
:102FF000C6FCFDD64C000021AAFCFDE48F31030283
:103000003C98E6FDFAA02101014AC7FCFDCC7021E5
:1030100000124F9FE0FEF5A72D010037BDFEFCE931
:103020006B0201035CC5FAFCDA882A020233A4FCB5
:10303000FCFA931B010140BCFDFCDA823603083523
:1030400083CCF9F6C16611000C68CAFBF5C47F3762
:103050000A0A3785D5FDF9BE5403011179E0FBF862
:10306000B4662707134996D7F9ECB25B11001466D2
:10307000C2F7FACC8A3E0E012871C7FCFBD4761D3C
:10308000000341ABF1FEE2A2561C001957A6E2FF75
:10309000E7AA530E000C60C7FBFDDB832601023359
:1030A0008DDAFBEABC783507053082D6FCFAC367B7
:1030B00019000648A7E5FFEAB05A1900094CB0F319
:1030C000FFE9A54609001761BFF7FED99B4A0D002D
:1030D000145EC0FAFEE28E2F03002782D7FCF9C8E7
:1030E000803709002573CAFDFCD9862F01011C8792
:1030F000EBFEFBC35203000B5EBDEDF1CB9F6639C7
:1031000015153480D5FDFBCC5A02010266DBFBFDB0
:10311000C9762F0D0B3679BEEAF1D08D3F07002717
:103120007ED1FDF8C7762A01043494E6FFF5B25249
:103130000B001765C1EDF1CA9251240F2057A8EE7C
:10314000FEE9972E010233A8F8FDDE9145242136D1
:103150005D94C7E8E3B45A0C001F76CCF5EDC1814D
:103160003B06023296F0FFF39B3103023C8FCEEA1E
:10317000DCB377390B0B4AA1E7F4D2924D1D14341E
:1031800070B1E6F4CF7E25000A5AB7EDEDC68B4A42
:103190001C123779C1F0F3C16C16001065C7FAFA3A
:1031A000C9792502044DB8FBFBD77C22010754AE38
:1031B000E9F5D6914107063B8CD5F8E9AD560B00F1
:1031C0002483D9FDE9AF651E001160BFFCFAD5610B
:1031D00002011681DBFDF4BA610F00106ED8FCFB12
:1031E000B54302012C94E7FEE59F4404023495E8C0
:1031F000FEE69835020349B3F5F9C87E320811534B
:10320000A3E7FBDC851F000B69CBF8F2C06F17004A
:10321000106FD5FCFBB43D02023BA6ECFDE39631FA
:1032200002034FBCF9FBC76C18002273BEF2F2BB5D
:1032300050040342A5E3F0CA7F2B032273C2EFE6DA
:10324000A445020E5BB0E2E9C36D15002D90E8FCC9
:10325000DD802100196FC0F4FBC353030338AFFBBB
:10326000FBD3690E00297ED1FAF39F30000F6AC6A6
:10327000EEE5A3490B185BACE3EBB24A011163BE68
:10328000EAE1A44908125DB0E7EBB556080A51A47B
:10329000DEECC2681409469DDBEAB75B162267A91B
:1032A000C7C7A15B26326FB0D2CA8D37113D92CD10
:1032B000DBBC76240A419DDCE9BE6713084FA6D823
:1032C000E0B96514125BB1DCD59D45123489C4D1D7
:1032D000B87B2C104DA9E4E1A641001982DCEAC5B7
:1032E0008132042E87D6EFD4750E024FC1EFD58EF2
:1032F00039103A94D1D9B467120860D1FDD87E1C38
:103300000035A4ECECBA5D0A0356CCFDE17E140155
:1033100047C0F7DB8E30002490EFFCCB54030359F9
:10332000DFFEEC7B0A023EB3F4E79E3200289EF4F7
:10333000F9A92F001194FCFBCC4A030258DFFCF9D9
:103340007F04033EC5FEEB820D034ACBFCEC8107F4
:103350000231C6FDFE9C0A0017AAFEFBB22A011626
:103360009AF8FDAB23001EB5FDFE94070124BCFEB8
:10337000FBA11E011B9EF6FDA729002CB5FCF17BCD
:10338000050451DEFDE06802054DD1FBEC75090135
:1033900053D4FFD14D001293FBF798180138BAFDB2
:1033A000EC84130143BFFCE46E09056AE0FDB53807
:1033B000002DA8FBE580150559C8F4C75D0E1D7FDB
:1033C000DFEDA332003BB4FDDF6E0A096FDFF6AB21
:1033D0003A083EB0EFCD640E167FE6F9A831002D15
:1033E000A8F8E47C171171D6E7962D0855CCFFC5D7
:1033F00045011495FBF48F1A0458CCEDAB3F1149ED
:10340000BCF5C64F011991F7F58F190150CDFBB8E6
:1034100044063CB2F8CA5101219FFAEC72080672C8
:10342000EEFB9C1C0053D3FFB237003FBAFFC54EE2
:10343000002FA9FED456021A9DF8F371050475F603
:10344000F896130360E1FB931D036DE5FE941700EE
:1034500056DBFFB4340041BAF6B2430D4DC1FDB5A1
:10346000370035BBFFCF4F002DA9FDC348003FC239
:10347000FFC0370031BBFFCA4C0541B2EAA2391781
:1034800066D6F2951F025AD6FCA7361159C2D78DBF
:10349000383485D6C965152A9BF6DB64082094EC80
:1034A000CE662043A4D7A040256ED2DF84231D77AB
:1034B000DBD97A263293D8B4582756B4D6973D2C08
:1034C00072CAC9742C3E98D9B2522656B7D99436CE
:1034D0002877D2D173283893D2AF573265BBCC79D5
:1034E000283396E6C95A1238A5EBB84D2159B7CA08
:1034F00084404691C6A350326AC0CE81333685CA15
:10350000B56C42609EAB744B65ACC687332C7CD6E1
:10351000D475273995CEA4523F7CC1B35C2B59B9E1
:10352000D98E312F86D7BC582156C0DC89292B89EA
:10353000DCBF5C2454B3CB863F4A96C4944B3D7D9C
:10354000C1B4673D63A7AD73496AACBC7730419E97
:10355000E1AE421B64C9D8812B3693D1A756417680
:10356000AE9E67527DAD9B59477FC3B3572153C170
:10357000EB9D29156FD4D0783B5295A77B5E7CAB31
:10358000A1593363BDD98F2E2983D1BA643961A77C
:10359000AF79516BA4A46B476AAEBE7E404A8FB927
:1035A0009200524946461A12000057415645666D30
:1035B00074201000000001000100401F0000401FA7
:1035C00000000100080064617461F6110000808051
:1035D00080808080808080808080808080807F80EC
:1035E0007F807F808080808080808080807F8080DE
:1035F0007F807F807F807F807F807F807F807F80D3
:103600007F807F80807F807F80807F807F80807FC1
:1036100080807F807F807F80807F80807F80807FB0
:10362000807F807F807F807F80807F807F808080A0
:103630007F807F7F807F807F807F807F807F807F93
:103640008080808080807F807F807F80807F80807E
:1036500080807F808080807F808080807F807F806E
:103660007F80807F807F7F807F807F807F807F8062
:103670007F807F807F807F8080808080807F807F50
:1036800080807F807F807F80807F807F807F807F41
:1036900080807F807F80807F807F807F80807F8030
:1036A0007F807F807F807F7F807F80807F807F8022
:1036B0007F807F80807F807F807F80807F807F8011
:1036C000807F80807F807F80807F807F807F807F01
:1036D000807F80807F8080807F80807F807F8080EF
:1036E0007F807F807F8080807F807F80807F8080E0
:1036F0007F807F807F807F807F807F807F807F80D2
:103700007F807F807F807F807F7F807F807F807FC2
:10371000807F807F807F807F80807E7977757271E7
:10372000757E889094928E8884817C7A7977746E85
:103730006A6F7E919D9C938C8989837B7673737469
:103740007069697C97A8A1938E8E8C84786F6F7551
:10375000776E5D5775A8BCAA887B949C917E615C4E
:103760006475765D466EB1C3AF837395AA9B7E5632
:103770004A597778562B6DC4D5B472699CC0AE7B1C
:103780003C31527E814A1782D6E6B15367ABDDC029
:10379000712219508A8F3320AAE2ED8D3275D3FF42
:1037A000B94E001160A08B114BD0E4D2562CA5FF6E
:1037B000FF9817002380BA5806A0DFD59C2159FF37
:1037C000FFDD48000054BDA40253E4CABB5224C22A
:1037D000FFFF8D00001AA0DD3A07C7D7BB8A1E790C
:1037E000FFFFCF24000067E691007DEDB9A93839CD
:1037F000DCFFFF5E000025BFE40424E6BCBB5F15D0
:103800009CFFFFAF0000007CFF5C00BED3B19414AE
:1038100060F2FFF930000037E5C6006EF5ACB22C5F
:103820002CC9FFFF78000008ABFF1F0CF7B5B36B86
:103830000D94FFFFC803000061FF8400C8E0A19A57
:10384000075AECFFFF3800002BE8E90063FF96B74A
:103850003622BFFFFF8A0000009DFF330BFFA59FAC
:1038600070069FFFFFDA00000059FF9E00CBDD8C41
:10387000A2025BE7FFFF3900001CE0F7006EFF7754
:10388000A7342ACDFFFF8800000099FF3B0BFF9D66
:10389000946E03A1FFFFD701000056FFA000D5D012
:1038A0007A9A0A6AEAFFFF39000023E8F8006FFFFE
:1038B00071A93130D6FFFF76000000AAFF3013FF58
:1038C0008D9A720BA9FFFFCB00000069FF9000D01A
:1038D000C77CA20377FCFFFF2800002CECE00083EC
:1038E000F66BAE3136E5FFFF6A000008BDFF1D290B
:1038F000FC86A26D12B5FFFFB60000007AFF7200D1
:10390000D7A980990B91FFFFE21600004AFBBA008D
:1039100091D079B42E57F5FFFF4500001FD3EB047B
:1039200044E385B75F2AD6FFFF860000009DFF476E
:1039300006D697A18F1EB1FFFFB20600006DFF8A69
:1039400000A3BB92AF2379FFFFDE2E000041EEC43F
:103950000063CA8CBD5050FFFFF35A000025C7E733
:103960000F2EC998B87836E2FFFD8300000CA0FF47
:103970004705ADA2AE9838BBFFFD931400007AFB5B
:10398000740089ADA8AD458AFFFFA33E000058E052
:10399000A30061B39FB3576FFFFFA558000050CD40
:1039A000C70136A8A5BD7B65FFFF9C79000047AF26
:1039B000D61E209BB0BD8A67EBFF9A7C190044A2FB
:1039C000DD370688ABC5A174CDF8937943013D8DF1
:1039D000CF4F037DADBDA17CC0EA8D785E103E88DF
:1039E000C863046CA6BDAC8FC0D18471722E4587AC
:1039F000B8680A69ABBBAB98BEBA7970824644829C
:103A0000AB6B1962A5AEA8A5C09D5F6B885B4B83AD
:103A1000965B296AA6A89EA6BB80516C876D5586C9
:103A20008C4C3A75A0A599B2B46351758F7A668BA8
:103A3000804454839AA49ABCA25058829882738D71
:103A400072456B8E98999FBA824D638C967F7F8763
:103A5000665077948E8AA5A06D5272988F7D817C76
:103A600065657E998183998A72628194888383795E
:103A7000706F84947E7B86867D778C90848385822C
:103A80006F6B8191857B8484777A8E92878C8B6E25
:103A9000606D888D847B7C787589988F8B8A6B5C50
:103AA000627E8D87887D6F737F939C9C905E536050
:103AB000788F928C806D6B848E9BAB9959465E7823
:103AC0008F9B987E686F838E99AA9F593E577792F5
:103AD0009FA4885E638A979DA8894F3E58839A9ECB
:103AE0009B85676789A4A99D6F3E406691A89F89C1
:103AF00077717F93A1A99155374A77A2AC9B7C6AD5
:103B00007594A7A6956B433F608EA2A18D76707EBB
:103B10009DB0A579463752819D9D8A78768092A383
:103B2000A98F593341709CAB947566799EB3AB8B6A
:103B30005F3F416898A998816E6F8DACBCA16436D7
:103B400037679BAD9E7F677493A8AE9A6F44365AD1
:103B500091B0A584696D88ACBB9762393B6696AB22
:103B60009E84727790AAAF966B3833639CB8A68216
:103B70006B769BBAB79357324070A0B2A284737F22
:103B80009BB8BC8E50293A71B1BC98786981A8BFA6
:103B9000B27A3E25417EB0B29374637CA5BFB16812
:103BA00022174E98BDAE805F698DB5BF93460F1F3B
:103BB00066AAC3A8785D6FA3C6C47F1E002888CC00
:103BC000D097635986BDD4B552000045A9DCC482A4
:103BD000535E98DBE0940E000176E2E4A454437750
:103BE000C8F2CE42000021BEFFDA7E3A429BF2FFCD
:103BF0009900000073FFFFB8432162E5FFF229003E
:103C00000012EAFFFF791425A9FFFF970000009634
:103C1000FFFFCA1B0067FFFFFF0000002BFFFFFF35
:103C200048000FE6FFFF5B000000F0FFFF99000077
:103C300090FFFFD600000086FFFFFF000030FFFF6F
:103C4000FF00000018FFFFFF480000D9FFFF6C00D5
:103C50000000E6FFFFB9000066FFFFD40000004847
:103C6000FFFFFF120009F3FFFF2D000000DEFFFF42
:103C700099000089FFFF95000A004DFFFFFF00003B
:103C800024FFFFCC07001300C8FFFFA50000A5FF1D
:103C9000FF4C0000000CF7FFFF5F0032FBFFAD00A0
:103CA00000170021FEFFFF1D0093FFFF4F000610CD
:103CB000001DFFFFEF0000CFFFFF1400002F002DBD
:103CC000FFFFDD0032EDFFF8000000660043FFFF5C
:103CD000D50075E6FFBA000019780073FFFFBB003E
:103CE000A1DCFF8F0008295800B1FFFF8000ADE480
:103CF000FF4200043C3000DEFFFF4400B7EDFF1D33
:103D000000004D0D00FFFFFF0B2AC1FFFF00000662
:103D10006A000DFFFFFF004BD2FFE500081E6C009C
:103D200040FFFFD90077D5FFA1000E34650075FF75
:103D3000FF9C008ED6FF6C00054A5000A6FFFF597D
:103D40000097E2FF310003642400CAFFFF310FA394
:103D5000FFFF030017730000EEFFFF1226B6FFFF00
:103D600000002D7D0001FCFFFF073FC4FFDD0004C4
:103D700045760029FFFFF3006CD1FFA500185579A7
:103D80000054FFFFC20083DAFF69001C657A007DE2
:103D9000FFFF9300A6B7FF3C002371870086FFFF5B
:103DA0007536AEB6FF44001F75AA0057FFFF7A3D77
:103DB000AEBBFF7000105BE10029FFFF683E94A4DA
:103DC000FFC300002AD57302FEFF604E89B8DEF300
:103DD0001A000A9CF11A93E7654B6DFD8BBF9500A5
:103DE000004EFF81639D8F584BE2B777AD5E002C8C
:103DF000B2BB7B7B9389659E9C887BBA560C7A7E8E
:103E0000AF777E88A1785D928C9F926E5251819D92
:103E1000896B9AA6496681988783805A6C818C6FDA
:103E20008699735E6E92857A8B73767978768594AF
:103E3000807B6F7586867A78898E75698D917E7A9A
:103E40007C867B8977708F9686698C8F77787E9554
:103E5000807A777B8D8C8B77868D74707693957C4A
:103E600067739B8C7D8485896C727F84937F6F6D73
:103E700090987F7F868E6D6F7883957777798F9214
:103E80007C8482857978767B8E7E7A7F8F8D797F30
:103E90008A8173827F7A82767E828D92797985801B
:103EA000757D848078737D838D8E7D787C7C7A7F30
:103EB00080817C7379828B887E807D767E837C7E18
:103EC000807A7B8289847F8484797B827C7F8080F6
:103ED0008182837E7F87857C80827A7C7E828385D7
:103EE00083787B86897E80847A767C848282857BD7
:103EF0007A7D828183867C74778585827F7E837BD1
:103F00007B7D858B7F7878808383817E86807A7BBA
:103F1000848B7F7C7F838180818186847E7A828688
:103F20007F808183827F7E8388827F7F837F7A8187
:103F300084827E7F7D8189807D7F867F757E82827F
:103F40007F7F7E80847E7D82877F777C7E7F7E827E
:103F50007F80847B7B828A7F787E7C7D7C8283826B
:103F6000837C7B828B7E7B807D7A7A828384827E57
:103F700079828A7B7C7F7E7D7B7E7E82857F7A854F
:103F8000887A7A7F7E7E80817F7E7E7F7F82868533
:103F90008482807D7D7E808081817D7C7E83888916
:103FA00086807A797E8386837C77777E878D8C8402
:103FB0007D7C7F828384817C79797E848A8D8A84EA
:103FC000817F808283817D7976777F888D8D8983DB
:103FD0007E7E7F7F7E7C797774767E888F8F8981E5
:103FE0007A787D7D7C7974727277828C8E8C877FF3
:103FF0007A787B7C7C7B74727176828C908E8982DD
:104000007C797D807D7A767472747E8B92928A84BC
:10401000828283807C7778757170747F8A949590A2
:104020008B86837F7C797676736D6B7383979E988E
:10403000918888888079747473746F686C839FA981
:104040009C908F8E8A7F756F71777769585B86B386
:10405000B89E80839B988B745F6169766E534A85A6
:10406000BAC1A17B7B9EA895724E4B617C70443394
:104070008FCED19F6977ADC0A0633638618375312B
:104080002CA9DCE18C4F7BC2DDA855182763947BFB
:104090001544C5E7E1623D95EDF59830002874AA16
:1040A00063077DDFE6B53549D3FFE66A0000409738
:1040B000A72329C9DDD074198DFFFFB01E0001713F
:1040C000C6690094E6C3A42847FCFFF35400003FF0
:1040D000BBB40543EECDB45A1EB4FFFF8D000016ED
:1040E00092E44600C7E7B78F135BFFFFD8270000B5
:1040F00055EAA90073FAB9B03120D1FFFF6500007D
:1041000016B7F3131AEFC6BE660B9AFFFFAF000097
:10411000006FFF7400C0E0AC960C5FFCFFFF340042
:104120000033E4DB0063F69EB63B30CDFFFF80003A
:104130000001A4FF2902F4B2B975018FFFFFD80373
:1041400000005FFFA100BFDA96A50B54E6FFFF4613
:10415000000024E4F4006CFF8AA83621C8FFFF8E1B
:10416000000000A0FF3606FFA7A0740095FFFFE542
:1041700006000051FF9F00CCD980A10266ECFFFF32
:104180003A000018E5FF0061FF75AF3020C9FFFF5E
:104190008B00000099FF400BFF939470009DFFFF80
:1041A000DC01000056FFAB00D1CD729C006AF0FF2D
:1041B000FF33000020E4F40078FF69AA372ED5FF12
:1041C000FF77000000A9FF3B12FF8F987D05B0FF2D
:1041D000FFBF00000066FF9500CEBD78A51275FFF9
:1041E000FFFF24000039F1D9007FE772B13738E1D1
:1041F000FFFF60000006C2FF272CF0789B6416D2F8
:10420000FFFF940000008AFF6C00CF9F92990E95EB
:10421000FFFFDA0600005BFEAB0090CB81B42F56A7
:10422000FFFFFF3D000028DDE60846DF80B6612C79
:10423000E1FFFF7300000CB2FF3909CA96AA8F1183
:10424000AFFFFFA70F000080FF7B009EB199B02F4A
:1042500086FFFFC02D00005AF0AE0068C996BC5121
:104260005EFFFFDB5300002DD3DF0D2FB899B87B25
:104270004CF0FFE17400001DB0EE2C0D9F9BB89B2D
:1042800044C0FFE5911A000E83E75D008BA2ABA14D
:1042900046A9FFEA9535000772E383006BA5A5B92F
:1042A0006290FFEA935C00055FCEA4004EABA9B517
:1042B0007889FFEB8C6A000861BDB6072C9FB1C1FD
:1042C0008B85EDDE8674220C55ABBB1D1D96B0BDF3
:1042D0009488DFD2797D4014539FBB301A8EAFBBD8
:1042E0009E9DD5BD737E60295698B13F1786B2BAA0
:1042F000A3A4CCA86C7C70395592A349237BA9AFA9
:10430000A3AABF8D5D7A7C4A558A8A45347EA8A8C7
:104310009CB1AF6C5877855C5F91783E4785A29ED3
:10432000A0BF9D555E838E6B70936A40638BA09D8A
:10433000A6C3844B698C90787F8E5C487D9398945B
:10434000AFB66A4F74958D7D888154538696899156
:10435000AD965E57859A877D83745D6A89917B8E61
:104360009A84676A9192828281736D708991798053
:104370008883787B928A8183847C6B6F868E808031
:104380008681757F8F8C868F816961758D8A847B2C
:104390007F75789096898C84655B67848A8A887932
:1043A0006F7583999C9C82555766809190897D6931
:1043B000728892A4AE864B4B6680949D9276687606
:1043C00087919EB08C48425F8196A3A079587093E4
:1043D00097A2A4764442648C9BA0967A626F94A7BD
:1043E000A7945D3949739BA7998373738698A6A890
:1043F0007F45395586AAAA9272687D9DABA58B5CD4
:104400003C466F98A69C81707188A9B29B66393A28
:10441000618EA1998273778699A6A37D48325080D8
:10442000A5A4856B6A8AAAB3A0784E3B4D7AA1A257
:104430008C796F7E9EB6B5874D31477EA5A7917466
:104440006B849FADAB8C5D363A6BA1B59E7A687676
:1044500096B7B48450314477A1AB9880727D98AE02
:10446000A98A572E3F77ADBF9F78687FA8BBB07CE5
:10447000402E4C88B6BB9E7C6B83A2BAB0763F2898
:104480004A92C0B6926F6D8AAAB79862342A589839
:10449000B5AF8E6D697EA6BB994E151C67B3CDAEC8
:1044A00072556493BCBC802B062A81C9CFA0664F8D
:1044B00072AACDBA5D040048B2E5CA86525B95C2C5
:1044C000CC8C2B00117ACEE2B5704D64A7DDCB65A4
:1044D000000023B1FADA83444F8DE0EC9D08000020
:1044E00059EBFFC25C3857C5FFF34D000002B9FF1E
:1044F000FF8D333792FFFFB900000052FFFFDE4609
:104500000F53EBFFFF38000000DCFFFF8A0010AB09
:10451000FFFFA60000008CFFFFDF06005EFFFFFC30
:1045200000000020FFFFFF480000E4FFFF700000D4
:1045300000E3FFFFA7000090FFFFD900000079FF14
:10454000FFFF09002BFFFFFF04000000FFFFFF5BE0
:104550000000C5FFFF76000000ADFFFFE300005143
:10456000FFFFD90000000EFFFFFF3E0000DFFFFF4E
:10457000500000009BFFFFE1000068FFFFAE00005D
:104580000000F7FFFF790000D8FFFD32000000397E
:10459000FFFFFF17006BFFFF820000000062FFFFBC
:1045A000D50000BFFFFF130000000070FFFFAD004B
:1045B0003FE9FFDC0000000F008DFFFF8C008CF353
:1045C000FFA30000004100B6FFFF6A00AFF7FF62E3
:1045D0000000343B00D9FFFF4600C5F2FF2D000765
:1045E0004C1B00FFFFFF0B14BAFFFF050000540037
:1045F0000BFFFFFF0035BDFFFF00000D620040FF15
:10460000FFF30062BDFFBB000527630075FFFFB32A
:104610000083D6FF8C000C3B4C00A8FFFF73009C6E
:10462000E6FF4100065A3600D2FFFF3100A2FDFF2F
:10463000140010731000ECFFFF0325AEFFFF000015
:10464000177E0005FFFFFF003FBCFFCC00003A6F64
:10465000002BFFFFD9005EC8FFA70017475F005B74
:10466000FFFFBE0077F0FF7100235E4A0090FFFF5E
:10467000A10098F4FF38002C6D3C00BBFFFF7904CB
:10468000C1EDFF13001B7D3A00D8FFFF4B2FC2DCAA
:10469000FF00000F904800DAFFFF4954ADE1FF0032
:1046A0000024826400BFFFFF62709BCCFF190017DB
:1046B0008AAB0098FFE94C74A9A7FF62001858F56F
:1046C0003560FFA8423FB8B5D0D3000035E9E236E7
:1046D000E49D313487F65EEB49001CA6FF67979591
:1046E00069186BE17F6BB03A0078DCC07C887A4C4B
:1046F0004DA49B6473CA4358828FB48880607B5AF0
:104700007A7C749EA58369549AA28461957F3979D5
:104710007F9478A3915D6E8B7C798C8F6D557A88B0
:104720008683887A7F7A6A7DA1876F736D78918A94
:104730007B7D908D68749B8E6E728081878F76757D
:1047400090967D74998F6A7286947E777E88908920
:10475000887B8E89706F7F988E766A839D887F8034
:104760008A866E797F8F8A75717B978F817C8E8523
:104770006E7376928B73788196897E818483767B43
:1047800073848B7A7E8392887983877B7A84797D20
:104790007D768185938A767D847C7882827D75752D
:1047A0008084918A797A7B7C7D7E808279747B8417
:1047B0008D857C82787982817A7F7E7A7C848B81F8
:1047C00080847E77524946465E0E0000574156452A
:1047D000666D74201000000001000100401F000001
:1047E000401F00000100080064617461F20C0000C9
:1047F000817E7E76716C6A6D716C6F76757E79786C
:1048000078857F7F8581827C797B7E6D747D777AE8
:104810007E77878F8C8885898D8D877D7F8983873B
:10482000858F9D9EA39C9E9B909691948D998A9A2C
:10483000A5929795ACA4B2A6958A76716B6C797A9D
:1048400082959DB9C3C1B4A38967656366646264D8
:104850005752688BAED1DEDCAF7E4E322B323C330A
:1048600047587BA3B5CCC8A26B403D5C83996F2AA7
:104870001D346ABFFFFFF9C57E401A2439394582CD
:10488000D5FFFFFFFFBA826664636F8090802E00C1
:10489000000165FFFFFFFFE86A1C102A728256259F
:1048A000246889AAA69FA1CCF4F3D8791C00000043
:1048B0001495FFFFFFFFD64800000061DDFFFFAC4D
:1048C0002F021869C1D3976A17214BA66B000023EA
:1048D00075F3FFFFFFA22C0E113D6F9FB4C1420084
:1048E000000000FFFFFFFFFF750000000000212A0D
:1048F0006CB2F2FFFFD800001B1583FFFFFFB8105A
:10490000000D4E91F2FBE7BA7266000091FFFFFFC7
:10491000FF6F00000043B7FFFFD6A7895D69000065
:1049200000C6FFFFFFFFFF2A00000000002E98F1E5
:10493000FFFFFF4D0061C7D5FFFFB44C0000000032
:10494000185396B0B59D838B0000E2FFFFFFFF1365
:104950000000001CDDFFFFFFFCC1999C2600003B0E
:10496000D8FFFFFFFF9E00000000002EA8FFFFA859
:10497000700000CAFFFFFFFF3A000000499BD952B8
:1049800000001856B6FF00008FB2FFFFFFC21F00E5
:1049900000003EFFFFFFFFFF8100000000A5FFFFBA
:1049A000FFEA68000046678E210000229DFFFFC1DC
:1049B00000004CCDFFFFFFC80000000075C4EFFFF2
:1049C000AF000000004AFFFFFFFFFF0400000000EF
:1049D00000123B9EFFFFFFFFC300000000A2FFFF8D
:1049E000FF4400000036BFC0CABE835474320024A6
:1049F000B7E9FFFFFF390000006DD5D7CFC5A76B22
:104A00000500000092FFFFFFFFFF00000000000014
:104A10002745B0FFFFFFFF88000022C2FFFFE1290A
:104A200000000000AAEFFFFF8E2403600000F6FFE5
:104A3000FFFFFF1400000EC2FDFFC9C4C3E4B9E5C7
:104A400081000044FFFFFFFFFF370000000085D713
:104A5000FFFF9681B5D70078FFFFFFFFBA0F000078
:104A60007DD3B11C124994F0FFFF8D00006CFFFF55
:104A7000FFFF0700000004FFFFFFFFFF78060000B4
:104A80000000A9FFFFFFFFFC7500000012000000FE
:104A900023A9CBCB640025EAFFFFFFFF0000000045
:104AA0004EC6D6716485BD9460030046FFFFFFFFCC
:104AB000E70000000004C3FFFFFFFFE384362A0085
:104AC000004990BBFFFFCECE8EDAB23D00072D81AC
:104AD0007A848600000DE8FFFFFFFF000000006DF4
:104AE000FFFFFFFF100000461A00D6FFFFFFFFCEBA
:104AF00000000000000000D1FFFFFFFFCE04000017
:104B00004CFFFFFFDE00000031FFFFFFFFA70000AA
:104B100000461900F6FFFFFFFFFF791200000005B5
:104B20005A7AC3F5AB5600000066FFFFFFFFFF0790
:104B3000000000007A74598191D9FFFF7200107C47
:104B4000FFFFFF5900000035FFFFFFFFF58E735692
:104B50003D00006FFFFFFFFFD9560A000000002B49
:104B60009CFFFFFFB70000006EFFFFFFFFC10000CA
:104B7000000051BCE76000001999FFEC60F2B8DC5E
:104B8000FCFF98000000000026A3FFFFFFFF9A0033
:104B9000000068FFFFFFFF6400000058FFFFFFC830
:104BA000755A7E7B9C04002383B9F2FFFFAD846DB0
:104BB0003A13000055B6A8410000001BFFFFFFFF9D
:104BC000FF0000000000AAFAFFFFFFFFFFE0AA12AB
:104BD000003FB3FFFFFFAF00000000AFFFEAA0B54A
:104BE000A9AFE1E90000598BF6FFFF9127000A5AAF
:104BF0008C9A9AB4D3D38B00000059FFFFFFFFFFBC
:104C00000A000000009CD3C1A672538DDAFF04474E
:104C10006C2572FFFFBBC06112000000BFFFFFFFE9
:104C2000C346000020FFFFFFFFBE00000038FFFF6B
:104C3000FFFFA52100001502000050D1FFFFFFE09B
:104C40001F000000000030BEF5FFFB76000069FF8A
:104C5000FFFFFF600000000076B69C5D66A35E204B
:104C60007712009CFFFFFFFF84000000005BF9FF4C
:104C7000FFFFFFBB7F5B00000035DFFFFFFFFF9FF3
:104C8000773E2E413E557FC28D89480000EFFFFFE1
:104C9000FFFF660000000FFFFFFFE53100003087D7
:104CA0000000ACC7FFFFFFC9060000000000A0FF26
:104CB000FFFFFFE115000057FFFFFFFF1500002D6C
:104CC000C6FFFFFFA3350000245D004AFFFFFFFF82
:104CD000FFEB3E0000000554AFD7FFFF7317000045
:104CE00000FFFFFFFFFF9300000000364B1A2C89E6
:104CF000B2BBF9BB00006FC4FFFF9D00000000C401
:104D0000FFFFFFFCB2671D1F000004E7FFFFFFFF6E
:104D1000A41A22200000003EA3FFFFD4730000006D
:104D2000FFFFFFFFFF3500000041AEAEA24A0000CA
:104D30002FDFF27EFFFFFFF9FFFF67000000000298
:104D400066F4FFFFFFD0760C0000CEFFFFFFFF1DD3
:104D500000000068D3E9BB85605C6E904400004DA4
:104D6000AFFFFFFFA2222B6C7A86847D69733E0021
:104D7000000000A1FFFFFFFFEF14000000005584BA
:104D8000D3FFFFFFFFFA86000064FFFFFFFF8100F3
:104D9000000061C8FFFF7B36132A8DFA181DB7D4B7
:104DA0007BCAFB8B6759675F806494D0FFAF87161F
:104DB00000001CFFFFFFFFFF530000000047888F2B
:104DC00070274C5785D1222583C43884BC542E6962
:104DD000721919538FC4FFDC9257650005C2FFFF9B
:104DE000FFE91C00000074FFFFFFFFFFB9783E558C
:104DF000000056F4FFFFFFF23B0000000F1C000014
:104E000027220973E00032C1E0D6F8F169140000EE
:104E1000314B477CC7D2E9A135370000C3FFFFFF04
:104E2000FF7D00000039C9FFFFFFE1834E77EF22CD
:104E30000006041EA0FFFFFFDAA7623B0D33636686
:104E400077472A3B0000DFFFFFFFFF3A00000030FA
:104E5000B0FFFFD389643B5BD1450065AFFCFFFF2A
:104E6000AA60190000000071D6FFFFFFD7EB7500A4
:104E70002F9CDDDFFFB2717598C1DEEDFCC0915350
:104E80000000680000A3FFFFFFFFB7150000002A25
:104E90007195AE925D344FAC4F00338ECFFFFFFF64
:104EA000AA4227000000094676ACBBAAAC47004ADC
:104EB000BFD9F4D0200000189FFFFFFFEF925424C9
:104EC0002F7243003496D5FFFFFFDF8A2C00000DC0
:104ED00068A0B7E5B05C4A020049C8FFFFFFED815A
:104EE000341C1154A48D2F0000418AFFFF5581AD61
:104EF000D3F6CFB64F03000029BAF8FFFFECBC9100
:104F00006B0A001FA8F5FFFFFFAB6F5E423563859C
:104F10007E758B867E9C5E001582BADBFFF88C6BFB
:104F2000626D757F8673300E13458DA22C7FC2E1B2
:104F3000FFFFFF80000000004FD4FFFFFFFFCFB155
:104F40008000188BB4F3FFFF845A6791C9E0AC6806
:104F5000566FB5D8EFFF37026C91D4FFFFFCAA6BF8
:104F6000566486C3B3A3AF6600000C005AFFFFFF70
:104F7000FFE86615000000253B39407095BDD0C69E
:104F800016000033769EF0CD7020221D4992A49A1F
:104F90008E845460540010A8A2C2CC973619365F94
:104FA00097CDF0D797766A452D0E00129EF1FFFF40
:104FB000FFDE643B1800002F514D889C99A8A52561
:104FC0003B8A80A4CAC0572D271F266396AF8D7DCC
:104FD0006949526E445DA6B6F2D9A73D0012336D01
:104FE0009FBEAD808F8F5C4C110000469FFFFFFF7E
:104FF000F17A451400254B4146656A4E677C409125
:10500000DBEFEDD1AA6349678EBBCDAA9183A4A73C
:10501000A1958A374095C2F9FFFA93100000346BCE
:10502000C9FFFFECBE8C6B480008596FB9FFFFCE7B
:10503000AABDBAAE9E9259486C7D8392803678C2E2
:10504000E4FFFFD1620C26494E5F8B80606B664D9A
:105050002C30146FC1D8FCFFE27346330916598611
:10506000AEDCF5CBC299683D6686719CB3A69BB158
:10507000C2D0E3D5BD8855514F4946380F429CBD3B
:10508000EBFFE68B473D265797BDBCA39C684B348E
:105090001C1878D0F5FFF9C1927460574426345D2E
:1050A00083A4C3E1BFAA6C7498898F927239345675
:1050B0007087B8CCBEAB72271E1C0F2074BDB6D251
:1050C000DEAF7D6A6456616987A496878263441562
:1050D0000F5C9CC7F5FFEEA57C8A76665E58494A50
:1050E00063767D7E8EA0D0B9B2C9AF602E3A44748B
:1050F000B5E0E0E6E7CAA97543415592C1CBD3BDFF
:10510000A179737060617A948298B59E61481F0A94
:10511000427BA3C2CEBB9A8877697F828159524174
:1051200040506691AEF5F5E6C89B6A30221F1F37E6
:10513000546A7A8E91856C300009538492BCBE9477
:105140005C4C46445869847C857D77664737396274
:10515000635C6C6B6F66737C7678697B5E4D2D0E3D
:1051600000000559A9BCD0D4B9804D2E1E13376A52
:105170008790B1B6A483605D708C8490AEC2A17E2E
:105180006F666E8399897C93978F7B7F91A0B19A8C
:105190008F95866F646A7387A3ACA2898D7A451355
:1051A000000A57A0CDF0E9D09F72533232475A48D7
:1051B000527A757162687B8E9F8E849095979288E3
:1051C00080798F9FA3A8B0A68B726F8AABCBD7CB09
:1051D000C3A1755D6A7C9CC9E6ECCCCAA37B55373C
:1051E0003C628CAAD5E6CDACA4896747575A627059
:1051F0007F705F6062849BB3AFAB956D4E475B4C35
:10520000495C6872757B685238496B96ADB9BEA02F
:105210007A523820293D7B9D9A9C9D7A4B2B2C41BC
:105220004E6C8696A5AEA3A3A5808193867E7C81D5
:105230006D52466A96C0D9E2D3B0826D6B606E84BF
:10524000A09987867F6A5149526388ABBDB3A79600
:105250007F6843324D7998A7BCB2A480595A7288AE
:1052600087816B5A475F656F706678766A503E3A01
:105270003032426C94BCDFBEA0807C675F607AB045
:10528000C2C7B1A2927D7B8DA2BED2DFD2C1AAA835
:10529000A1887A69798A9988939371616B8B9CB69E
:1052A000B8A3715F6A6C84A2C0CBBCA8947E59423B
:1052B0004B58769CBFC5B9A6948166514C56647A0A
:1052C0009A998362483E506D899584735D54565C0B
:1052D00055636A65727777786A6472879EB6C6B6D8
:1052E0009B817E7D707088A9C4CAB597846B4D4838
:1052F0006080A7B9B9A68F8F866B5A5E64636A69AE
:10530000606A61605A6F8296A79685676965718049
:1053100083898F8B7E7875706F6C85A1BBB9978BF5
:1053200075614C555E6B7B8BA7A097836A4E475C7B
:105330006F8B96988F8985837D7E7B74827A787A4D
:10534000787D7E8194A6B3AA98877D6F69737A7DF4
:105350008394989889766F64627D96BEC4B29F8765
:10536000796F7A76787A8A95958D92927B788994FE
:10537000A4AFA29D9DA1A0A7A1A29DA2A69E9D9122
:10538000877C83A4C4CBC1AB8E6D655C616972837D
:105390008E958E8F817062617276838F8A8C8A7D02
:1053A00069706C6775849589877B6F655F7A869372
:1053B00083746C5E615F63606A676C78706D73772D
:1053C0006D698198A5A59F96807B716D6663717FDD
:1053D00082818B8771615E696C707367686B6C6EBC
:1053E0006E6C726E747E7A77757467708594929322
:1053F000938F8B888A88827C838894969698907AFB
:105400007A8080909598988E8B877C6E6F7A7F8C4F
:105410008D919596808088858E817C736972767077
:10542000726E707185867F8275655A5E6C78848B2A
:10543000847D7C716D686266708F96928F8E858395
:10544000848895929599A3ABAD9D9389818594A10C
:105450009E9B9890908E8F94969C9E988E867A7E36
:10546000899198A1A4959489776E6B77777E878FC1
:105470008D85816B6F6F6C717A8D88897D706D639E
:1054800067666873756A686962686666687481745D
:10549000726B5F5C65716D7876736963665257579E
:1054A0005B666D7F7F817D716B686A706F7E8780C0
:1054B0008C847E6F6C746C727F807E8680726F7756
:1054C0007B7B7E7D7E7878707377707C858C86861A
:1054D0008782716E79787981898885898176756A04
:1054E0006A784C49535492000000494E464F494E49
:1054F000414D14000000547261696E20536F756E47
:105500006420456666656374730049505244100018
:105510000000536F756E644269626C652E636F6D37
:105520000000494152540C0000004D696B65204B4E
:105530006F656E69670049434D5414000000547252
:1055400061696E20536F756E64204566666563748D
:1055500073004943524406000000323031310000EC
:1055600049474E5214000000547261696E20536F17
:10557000756E6420456666656374730069643320E4
:10558000A60000004944330300000000011C434F03
:105590004D4D000000180000000000000054726132
:1055A000696E20536F756E6420456666656374731B
:1055B0005449543200000014000000547261696EB6
:1055C00020536F756E64204566666563747354443A
:1055D0005243000000050000003230313154414C8C
:1055E000420000000F000000536F756E6442696254
:1055F0006C652E636F6D545045310000000C000047
:10560000004D696B65204B6F656E696754434F4E63
:1056100000000014000000547261696E20536F7521
:105620006E64204566666563747352494646167E0D
:10563000000057415645666D7420100000000100BF
:105640000100401F0000401F0000010008006461CD
:105650007461347D00007C797C7C83827F7F7F78DD
:105660007C787C7B7C7E7C7E797B7C797C787F827D
:105670007F82838583857F7F7F797B767876807E46
:10568000807B7F80787C7B807F787C7F7F7876755D
:105690007670737376767F7979797676757F7B838A
:1056A0008682868583828685837B7C7B7C78797CF9
:1056B000827F8985897F7C7C888C888C897F757CBA
:1056C000756D6F6D75766F797B7F787C7B73757385
:1056D000767E736F7980757C7F7F76727072736C63
:1056E000808E89868589837E767B7F7F8C918F8271
:1056F00086857F736F767B7C7F8C8586888C827CA9
:105700006669706C707B897F868378665F5A687380
:10571000737892918C9288796C665F66666F8991D6
:105720008F898B7975707373787C98ACAFA29E9CCF
:105730007E63494D52667F9FA19FA19F8260524D1B
:10574000556D7B96A8AFABA57F563C3D4F505F7C17
:105750009EB2A89C7B6050494D4F5A85ACC2C2B7DF
:10576000A285695943393D69A1BFC8BEAF8E79563C
:105770002C172D66B4D5CEC5B7B885532C1D39630B
:105780008EA4ACBECFB58643372727345D7999B553
:10579000D7D8A14F30333029336DA8E5FAF8C27657
:1057A000475340141456A2B8D8CF9673697B7C42F5
:1057B0002765A5CAD2C7B88B7E866224000D79A85A
:1057C000A2C1D8DBC7995D0000064D8398B2E4DB27
:1057D000A1895F2A103D707B7C92CAE8A8694F4777
:1057E0004D4266626385B2E2CAB28E804A231A0DC8
:1057F000438EE8FEFFD7A58879330006346899C444
:10580000C2927B807043232D4983C4A98B769BB5BC
:10581000B7863C3D2F407883A4C8D1E5A15D000048
:105820000A14438FD1EEFEFFBB7F4A2A30434F76E6
:10583000ACCAC2C1B26F6668835D4D6286B5AFB156
:10584000C2A4474C2D01002A6FBCFFDAD5CB823AA7
:10585000300600008FC1D8DDC5C4804C4A393D1DDB
:105860006C969C997FB8D49C5F837649477899B1B0
:10587000A9F0EE7616272700114A79C2FEF4FFED53
:10588000562050601D43A2CBC8B89F924A376D7214
:1058900007003953A4A5A2C1A9726D76432446B26C
:1058A000E1C5CEFFD572301C0000247BD5F0F4FB9F
:1058B000F7A52D4F6D23145A7B9F7592FBD48C92C4
:1058C000783D140D66A18698F4FF823D4F370000A5
:1058D0003996BED8FFFE89000E4C0707599CE7CACF
:1058E000BCFEE5626DB45D00002F867576DAEBAB29
:1058F0007988A137003A99CEC5FEFFE4501C4200DA
:10590000003699D896BFFFFA6616602F00005689B8
:105910008986EBFEE865667F30000462705FCFFF2A
:10592000F18F557C4D000078C8ACE7FFFE660E266F
:1059300037000073BBB8BEFFFFD486626336000E2B
:105940003C8083A4EBCFA47C6C4D00002A6892C7F6
:10595000FFFFD4895D3300002478928ED2F4DA768A
:105960003420170000559CC4DBFFFEEBDA9256236F
:10597000001907629FD1FFF4D8856900002746739C
:10598000A1EBFFF0BC4F30260E204376A4E2EBFBE8
:10599000DE5C501C0A24090A42BFDDEEFEF1BE5651
:1059A000060000001992DAFFFEE8AE8F42142D3790
:1059B000478CFEE5F0D86F47030709234772EEE4F2
:1059C000E8FEFFCF7E432000060055D5C4E8DDDEAB
:1059D000A5190000000036B5B5FFFFDBAE5D1C0762
:1059E000466355A5D4D2FDC28B4D1119211900690A
:1059F000D7D8FEFFFE964F2A1900000D83D5FEFF73
:105A0000FEE87B340300000483E7B5E2DBA99F3D99
:105A10004A4C112F569BA2A9B1E5D43A372A001758
:105A20001CA2E4D2F7FFFE96360E0000002D9B92DA
:105A3000F7FFFFC74365896C4A75B59BA5F5FFC4A1
:105A40003726531A0000699683D1F1ED6D496D42F6
:105A50002400279FC1FFFEFFC73D6F0E000000928C
:105A6000A87CBBFFEE8E8F75000000739583AEFFA0
:105A7000FEA573996334365D726696FDFFFF893D1E
:105A8000470000003C73A4E5FEDB7B8C422D000048
:105A900039567FD5FEFFAFA4A962070607732C2DE8
:105AA00091D2CB52997207001D8F9EC8FEFFFECE89
:105AB000925F0E0000013A70ACFEFFE79F72240077
:105AC000004C707B7CD4FFD7A2EBC760100055243C
:105AD0004091D2E17372795500003C664CBFFEFFE5
