:1000000068250020950E00008F0E0000910E000064
:1000100000000000000000000000000000000000E0
:100020000000000000000000000000008D0E000035
:1000300000000000000000008D0E0000690C0000B0
:100040008D0E00008D0E00008D0E00008D0E000044
:100050008D0E00008D0E00008D0E00008D0E000034
:100060008D0E00008D0E00008D0E0000810A000034
:100070008D0E00008D0E00008D0E00008D0E000014
:100080008D0E00008D0E00008D0E0000490D000049
:100090008D0E00000000000000000000D9070000E5
:1000A0008D0E00008D0E00008D0E00008D0E0000E4
:1000B00010B5064C2378002B07D1054B002B02D03E
:1000C000044800E000BF0123237010BD3404002069
:1000D00000000000F4540300084B10B5002B03D0BF
:1000E0000749084800E000BF07480368002B00D11B
:1000F00010BD064B002BFBD09847F9E7000000002D
:1001000038040020F4540300F454030000000000FD
:10011000F0B5654E85B0F38832880020934201D84F
:10012000D01A80B272880024934201D8D41AA4B2A3
:100130000022B7880092BB4202D8FF1ABAB20092DE
:1001400032890025934201D8D51AADB2642729001F
:10015000564B3581784398476B4602901B892000A7
:1001600001936B469B882900338078434F4B984717
:1001700083B203936B4604009B8900987380784395
:100180004A4B290098470623B080C72D18D9029BF7
:10019000A1B21A04019B00048B4216D9C30B110CA7
:1001A0008B4212DA424A1378012B0CD15368013387
:1001B0000121536050680B00052801D811700533E8
:1001C000180005B0F0BD0023F2E7000C4100120C4E
:1001D0002404914218DA03234343260CB34213DA72
:1001E000C8235B009D420FD9314A1378052B09D1F2
:1001F000536801335360052351689942E0D8137066
:100200000133DDE70023F5E703235343240CA34226
:1002100015DAA14213DA9023FF339D420FD8244A06
:100220001378022B09D153680133536051680223BC
:100230000529C5D813700433C2E70023F5E756003B
:10024000864213DA83006700BB420FDD184A137839
:10025000032B09D1536801335360516803230529E7
:10026000AED81370DB18ABE70023F5E70623914205
:10027000A6DD8642A4DD9200A242A1DD9622920074
:1002800095429DD90A4A1378042B0AD15368013349
:10029000536051680423052900D991E71370023394
:1002A0008EE70023F4E7C046A80400207D13000079
:1002B00058040020F8B52C4D2C4B29882C4A994223
:1002C00001D9002393602B88D16800208B4229D06C
:1002D000802680272B889168D360B603254B3F0288
:1002E000052939D80800340001F03EF836030B1D0B
:1002F0002830214806882148C6805C6140209861EA
:1003000018E01D4806881D48068040209C619861C1
:100310008020000258610020052922D1184B288036
:1003200090609847F8BD14480688144846804020DD
:100330009C615861802000029861ECE70E480688B5
:100340000E48868040205C615861E1E70A480688D3
:100350000A4806819C61D1E740209E6198619F61B7
:10036000D9E701319160DDE7520400200F2700003A
:10037000580400200044004156040020A804002036
:1003800011010000104B30B5186801230F49400AD5
:1003900018400F4A0870126A4D7812091A400D4C25
:1003A000AA420AD0C8225B1B4B700B4B22701B78F1
:1003B0000130002B00D0002030BD2378DBB2002BB1
:1003C000F9D18B700320F7E7A0440041B20400206C
:1003D000004400410200002054040020C822014BC8
:1003E0001A70704754040020C822014B1A707047DD
:1003F0000200002030B5084C0300226B1030C240D0
:10040000012500202A4205D1280009021C33090ACF
:100410009B00195130BDC0460020004210B5054B6D
:100420009847054C00210320A04700210220A04747
:1004300010BDC046F50D0000F50300000C4B70B573
:1004400004000D009870D970012807D10021032005
:10045000084CA04729000220A04770BD0028FCD10D
:10046000044D0320A84721000220A847F5E7C04615
:10047000B5040020F503000010B50B4B9878012857
:100480000ED1DB78962B09D0C82B03D0002B04D1DA
:10049000962100E0FF21054B984710BDC821FAE7DF
:1004A00096210120F7E7C046B50400203D04000076
:1004B00010B596210020014B984710BD3D04000067
:1004C00010B500210120014B984710BD3D040000EC
:1004D00010B50A4BDA78C82A0CD0FF2A04D0962A25
:1004E00007D1074B984704E00220C8211856054B56
:1004F000984710BD022096211856F8E7B504002051
:10050000C10400003D040000014B98787047C046CC
:10051000B504002030B5074D03002A6B1030C240EF
:1005200001240020224203D120001C339B0059519A
:1005300030BDC0460028004210B5074B0020984748
:100540000021064C0800A04700210120A047044BD1
:100550009847044B984710BDD90C000015050000C2
:10056000990D0000C10C000070B50D000400054B92
:1005700010009847E9000020034DA847E100012042
:10058000A84770BDD90C000015050000013810B552
:100590000E4B042817D800F0E7FE03070C101300D9
:1005A00000221100FF2002E00022FF2110009847E6
:1005B00010BDFF2200210800F9E7FF221100FAE731
:1005C0000022C821EEE70022F8E7C04669050000D6
:1005D0000122014B1A70704768040020054B10B5CA
:1005E0009847054B0122002801D05A7010BD9A701F
:1005F000FCE7C046150A00006804002010B5002181
:100600000548064B984700210548064B98470A21A4
:100610000548064B984710BDD1050000250A00008B
:10062000DD050000750A0000BE040020310A00004C
:1006300002003038C0B2092806D91300613B0020FF
:10064000052B01D8573AD0B270470000F7B5002605
:10065000254B9A78B24221D0244D9E700A21280061
:10066000234B9847234C29000A22234B200098470C
:100670000A2231002800214B984728000A21204BEC
:1006800098476578322D0BD0332D0FD0312D05D101
:10069000E0791C4B98471C4BD8702E003000FEBDF3
:1006A000E079184B9847184B1871F6E7A078154E6B
:1006B000B0470190E078B047019B134F1B01C01871
:1006C00038702079B04701906079B047019B1B01D9
:1006D000C0187870A079B0470190E079B047019BCD
:1006E0001B01C018B870D8E768040020BE040020C1
:1006F000E90B0000C80400209D1500002116000031
:10070000310A000031060000B90400200122184B14
:100710001A705A7E52B2002AFBDB164A1168164A3A
:1007200048011268D20E02430720084040010243EC
:10073000E0204901C000D2B201400A431A850422D8
:10074000DA70033A5A700D4A1A615A7E52B2002A80
:10075000FBDB0B4A9A805A7E52B2002AFBDB0F2247
:100760001A760E3ADA755A7E52B2002AFBDB7047CF
:1007700000400042246080002060800002180000D9
:10078000240400000222044B19780A431A705A7E8E
:1007900052B2002AFBDB704700400042064B10B506
:1007A0001A69064C08432240104318615A7E52B21F
:1007B000002AFBDB10BDC04600400042E0E0FFFF26
:1007C000014B588B80B2704700400042014B03C37D
:1007D0007047C046D4040020012210B5054B187E96
:1007E0001A76054AC0B21368002B01D051689847A9
:1007F00010BDC04600400042D404002000228021E9
:100800001D4B9A619A8C8A439A841022D9681142AE
:10081000FCD01A4A1168890E3F2900D12039184AA4
:10082000890212689205920D0A439A621022D968D1
:100830001142FCD002229A840E32D9681142FCD0B7
:10084000104A11495160517849B20029FBDB0F4928
:1008500051800F4951800F4951800F4951800F49F4
:1008600051800F4951800F4951800F490F4A116241
:1008700000221A627047C0460008004024608000D1
:1008800028608000000C00400007010014400000B8
:10089000164000001A4000001B4000001C400000F1
:1008A0001E40000021400000141D0500000400400F
:1008B0004122054B5A7000229A7002321A70DA797E
:1008C000002AFCD17047C046004800428005034B17
:1008D000800D1881DA79002AFCD170470048004267
:1008E00070470000BFF35F8F62B6C220C0210F4B7C
:1008F00080001A5809061202120A0A431A5080226E
:1009000012011A6008301A581202120A0A431A50C9
:10091000802212031A6004301A581202120A11437C
:100920008022120419501A607047C04600E100E0AE
:100930008222014B5A60704700400041164B174A13
:10094000190010B502201A601A61012242311C0000
:100950000A708870002146342170A270E270227102
:1009600062716172A272E27222736273A273E173A6
:100970001900332431310A70CC70113C0C712234CF
:10098000CC7110340C724F3C4C72B43397310A70F6
:1009900048701A7010BDC0460044004140802000DD
:1009A0000722074B598B114206D0802119765A83B2
:1009B000033A197E114200D17047198DF9E7C046FC
:1009C00000100042104A114B1360D2235B42938106
:1009D000C0239B025360D369002BFCD11168023302
:1009E0000B431360D369002BFCD1094A11002C3151
:1009F000136293610B70D36193605362137513603C
:100A00005360D360D3857047001000420401124048
:100A10006C0400200022024BD88DDA8580B270472A
:100A20006C040020014BD860196170476C040020F1
:100A3000F7B506000191041E13D00B4D00242F00C2
:100A40002C373B78A3420CD1084B9847019B84215B
:100A5000EB6101232C623B70EC851C00044AAE6103
:100A600091752000FEBDC0466C040020A109000065
:100A700000100042014B5862996270476C040020DC
:100A8000F8B54A4CA37D002B2BD0237EA27DDBB290
:100A900052B2002A15DA5BB2002B12DA0722638BFE
:100AA00013400ED0424DEB85424B9847842323756B
:100AB0002B0000222C331A706B6A934201D0A86A73
:100AC00098470120237EA27DDBB2024201D003427F
:100AD00025D10422237EA17DDBB2114201D0134235
:100AE0003DD1F8BD62683A40012A0BD09A68511C8A
:100AF0009960B25C22859A68217EAA4292410140A7
:100B0000524219E09A68511C52009960925BF1E7D9
:100B10001A6A551C1D629D695200515335E0244BE1
:100B20001A7D002AD5D09A685D680727AA429241AB
:100B3000217E1E6852420140002901D0002AD1D1F5
:100B40009A6859688A42C4D300221A755A600132E1
:100B50002275DA68002ABCD018699047B9E7144BAF
:100B60001A002C321278002ABBD01A6AD869824245
:100B7000B7D20725218D626889B22A40012AC7D0E1
:100B80001A6A551C1D629D69A9541A6A9042A8D11F
:100B9000190000222C310A70DA61843222755A6AF7
:100BA000002A9ED0986A90479BE7C04600100042FA
:100BB0006C040020A1090000094B0A4A1A60D222E5
:100BC00052429A81C02292025A60DA69002AFCD10C
:100BD000196802320A431A60DA69002AFCD17047A8
:100BE000000800420401314030B5031E05D0012445
:100BF00007250B4A002902D10123180030BD013915
:100C0000137E2342FCD053682B40012B03D0037882
:100C100001301385EEE7038802301385EAE7C0460A
:100C2000000800420023054A0549136093605160A3
:100C300006211160034A93601360704710E000E0E2
:100C40007FBB00009C0400200022034B9A601968BF
:100C500001320A431A60704710E000E0014B03C301
:100C60007047C0469C040020064B10B51B68064B1D
:100C70009A6801329A601A68002A01D05868904731
:100C800010BDC04610E000E09C04002001220A4B89
:100C90001A80DA7B52B2002AFBDB084A00211A8054
:100CA000FF221A7519765A76C43A9A73DA7B52B2D1
:100CB000002AFBDB7047C046002C004244050000C0
:100CC0000222044B19880A431A80DA7B52B2002AA6
:100CD000FBDB7047002C0042034B1876DA7B52B2E4
:100CE000002AFBDB7047C046002C004201220B4B60
:100CF0001A80DA7B52B2002AFBDBAC22D2001A80C7
:100D00005D2200211A83223A9A73054A116001225A
:100D10005A73DA7B52B2002AFBDB70470030004284
:100D2000DC0400200222044B19880A431A80DA7B73
:100D300052B2002AFBDB704700300042014B03C374
:100D40007047C046DC0400203B2210B5054B987B61
:100D50009A73054AC0B21368002B01D051689847B6
:100D600010BDC04600300042DC0400200121094BC8
:100D700019609A680A40FCD1C021890019600221DB
:100D8000D9635A649A64FF22D2001A649A68002ACE
:100D9000FCD17047002800420222044B196811431D
:100DA000196099681142FCD17047C0460028004282
:100DB00001210D4B19609A680A40FCD1C0218900BD
:100DC00019605A6158690949014359610849D96351
:100DD0005A649A64DA641A65FF22D2001A649A6827
:100DE000002AFCD17047C04600200042000F40405E
:100DF000020000040222044B19681143196099682B
:100E00001142FCD17047C046002000420622104B20
:100E100010B55A600F4B98470F4B98470F4B9847A8
:100E20000F4B98470F4B98470F4B98470F4B9847DE
:100E30000F4B98470F4B98470F4B98470F4B9847CE
:100E40000F4B98470F4B98470F4B984710BDC04624
:100E5000004000413D090000FD070000310900008D
:100E6000C5090000E1080000B90B0000250C0000D6
:100E70000D0700008D0C0000B1080000ED0C000013
:100E80006D0D0000B10D0000E5080000FEE7FEE773
:100E9000FEE700001648174970B5884204D00023C9
:100EA000154CCA18A2421CD30021144B144A934279
:100EB0001BD3FF21134B144A8B4393600222134B25
:100EC0005A62134B0832DA70124B20329A73802325
:100ED000114A51680B435360104B9847104B984789
:100EE000FEE7C55804331560DBE702C3DFE7C04601
:100EF000F4540300000000203404002034040020D7
:100F0000640500200000000000ED00E0FC700041DE
:100F100000500041004800410040004155150000CC
:100F2000AD0F000010B5024B9847024B188010BD62
:100F3000C107000056040020154A1378002B03D087
:100F40001378013BDBB21370124A1378002B03D0E5
:100F50001378013BDBB213700F4A104B1188994292
:100F600003D8138801339BB213800D4A1388002BDA
:100F700003D01388013B9BB213800A4A0A4B1188A5
:100F8000994203D8138801339BB213807047C0463F
:100F9000020000205404002052040020A761000039
:100FA0000000002050040020E7030000F8B50020F6
:100FB0006E4B984700216E486E4B98476E4B984792
:100FC00000216E486E4B98476E4B9847C021002613
:100FD000490102206C4B98476C4B98476C4B9847E3
:100FE0006C4B98476C4B984737006C4B98473228AE
:100FF0002BD033282ED0312810D1694BD878032834
:101000000CD8684C00F0B0F907191D1F2C000325FF
:101010002E002700E9E7644B9847A047634B9847A9
:10102000030002283AD0032844D0012826D1604A80
:101030009078012815D0937020E05E4B98475E4B66
:10104000EAE75E4BE8E75E4BF8E7554B18795D4BF6
:101050009847E3E7524B9A78597818785A4B984753
:10106000DCE75A4BDA78002A03D19621584B98478F
:1010700004E09B78002B01D14B4B9847554B984788
:10108000051EB2D006281AD17C1CE4B20025322FEE
:10109000BED83500032DBBD1250039E0444A9178F4
:1010A0000229C8D1494BD8780028DED09B78012B83
:1010B000E4D1E1E7454BDB78002BDFD0DCE786426B
:1010C00041D0454B9847454A454B681E1A80042835
:1010D0004AD8344E3B4C00F047F9030A112C31003A
:1010E000314B9847B0470520A047002490E7314B8B
:1010F0009847314B9847B0470620F5E70025304B1D
:1011000098472D4B9847B0470820A047354B1D8086
:10111000354B9847041E00D078E7324B334A198884
:101120000325914200D873E718800820254B984783
:101130006EE71D4B9847B0470920D5E71F4B9847EE
:10114000B0470720D0E70024042EA3D1244C2388E5
:10115000002B07D1174B9847174B9847114B9847CF
:101160001E4B23803500C0E7002493E70D0E0000DE
:10117000390F00005D0C0000490C0000250F000035
:10118000CD070000850700009D070000390500001D
:101190001D040000FD0500001D1200004D060000AA
:1011A000B9040020DD030000C10400008503000035
:1011B000B204002079040000E9030000D10400001B
:1011C000B10400000513000069050000B50400200B
:1011D0003D040000B50200008D05000088130000EA
:1011E000000000205004002009050000E703000073
:1011F00010B5084CA26863689A4209D823685A1C43
:1012000022601878044B80009847A3680133A360DC
:1012100010BDC0460C050020CD08000070B50021AF
:101220001F48204B9847204B9847204D204B214C7E
:101230002B60214B6B60214BAB60214BEB60214B52
:101240002B61214B6B61214BAB61214BEB61214B3E
:101250002B62214B6B6201232360204B9847204B6C
:10126000606098471F4BA06098471F4BE06098470D
:101270001E4B206198471E4B606198471D4BA06133
:1012800098471D4BE06198471C4B206298476A685D
:101290001B4B60621A6062685A6000229A6070BDDF
:1012A000F11100003D0D0000250D0000E4040020B8
:1012B0000C1800001805002013B70000BBAB02009B
:1012C0000D1800002B960000F1360300B3B60000A5
:1012D00091A4000051370300B13703004913000007
:1012E000511300002D1300003513000059130000A6
:1012F000451300003D1300005D1300006113000062
:101300000C050020092809D8054B8000C258054B60
:101310001A60054A82585A6000229A607047C04697
:10132000E40400200C050020180500200048704748
:101330001E7E000000487047660E0000004870479F
:10134000221200006020704700487047A8F4010096
:1013500000487047368B000060207047602070475F
:10136000004870471A1D000002B471464908490040
:10137000095C49008E4402BC7047C04603460B43DB
:101380007FD4002243088B4274D303098B425FD37E
:10139000030A8B4244D3030B8B4228D3030C8B42AA
:1013A0000DD3FF22090212BA030C8B4202D3121290
:1013B000090265D0030B8B4219D300E0090AC30B65
:1013C0008B4201D3CB03C01A5241830B8B4201D312
:1013D0008B03C01A5241430B8B4201D34B03C01AFB
:1013E0005241030B8B4201D30B03C01A5241C30A73
:1013F0008B4201D3CB02C01A5241830A8B4201D3E4
:101400008B02C01A5241430A8B4201D34B02C01ACD
:101410005241030A8B4201D30B02C01A5241CDD272
:10142000C3098B4201D3CB01C01A524183098B42BD
:1014300001D38B01C01A524143098B4201D34B01A6
:10144000C01A524103098B4201D30B01C01A524109
:10145000C3088B4201D3CB00C01A524183088B4290
:1014600001D38B00C01A524143088B4201D34B0079
:10147000C01A5241411A00D20146524110467047EB
:101480005DE0CA0F00D04942031000D340425340F0
:1014900000229C4603098B422DD3030A8B4212D3B0
:1014A000FC22890112BA030A8B420CD389019211E2
:1014B0008B4208D3890192118B4204D389013AD01F
:1014C000921100E08909C3098B4201D3CB01C01AF4
:1014D000524183098B4201D38B01C01A5241430907
:1014E0008B4201D34B01C01A524103098B4201D3F5
:1014F0000B01C01A5241C3088B4201D3CB00C01A62
:10150000524183088B4201D38B00C01A5241D9D279
:1015100043088B4201D34B00C01A5241411A00D2FA
:101520000146634652415B10104601D34042002BF6
:1015300000D54942704763465B1000D3404201B575
:10154000002000F005F802BD0029F8D016E770472A
:101550007047C04670B50D4E0D4D0024AD1BAD104B
:1015600005D0A300F35801349847A542F9D133F0D0
:10157000AFFF084E084D0024AD1BAD1005D0A300F1
:10158000F35801349847A542F9D170BDDC540300EB
:10159000DC540300DC540300E4540300F0B5050000
:1015A0000F2A2FD90B0003439B0734D116000C00E0
:1015B0000300103E350901352D01451927681F60CC
:1015C00067685F60A7689F60E7681034DF6010336A
:1015D0009D42F3D10F239E4310368519891913407C
:1015E000032B1AD91E1F0023B4080134A400CF58BE
:1015F000EF500433A342FAD10324A643331D224003
:10160000C918ED18002A05D00023CC5CEC54013336
:101610009342FAD1F0BD0500F6E71A00F2E7C046A2
:10162000F0B5830743D0541E002A3FD0CEB202004B
:10163000032502E01A00013C38D3531C16702B42DC
:10164000F8D1032C2AD9FF220A40150215432A0497
:1016500015430F2C14D927001A00103F3E090136FC
:1016600036019E19156055609560D560103296421E
:10167000F8D10F2297431037DB191440032C0DD9F2
:101680001A00271FBE080136B6009E1920C2B242BA
:10169000FCD1032297430437DB191440002C05D0FA
:1016A000C9B21C19197001339C42FBD1F0BD140062
:1016B0000300C6E7034B10B5002B02D0024800F030
:1016C00005F810BD00000000DD16000010B5010097
:1016D00000230022002000F01FF810BD70B5094B58
:1016E000094CE41AA41009D0084AA518AD00ED1859
:1016F0002B68013C9847043D002CF9D133F0F2FEF1
:1017000070BDC046F0540300F4540300FFFFFF3FD8
:101710007047C0467047C046F0B54E464546DE4667
:101720005746E0B5364D83B00600286898460F004E
:101730009146FFF7EDFF334B1C68A4235B00E05894
:10174000002852D043681F2B13DC5A1C0192002E34
:1017500028D1019A02339B0042601F502868FFF78E
:10176000D9FF002003B03CBC90469946A246AB4648
:10177000F0BD254B002B3DD0C820400000E000BF4D
:10178000002837D0A42200235200A15843600160F2
:10179000A050403283500432835001330193002320
:1017A000002ED6D09A00924682444A46882154465A
:1017B0006250C4225200914681444A46873999407A
:1017C00012688B460A4394464A4661461160842259
:1017D00041465200A150022EBBD102005C468D3220
:1017E000FF3211680C431460B3E720004D30FF3026
:1017F000E050A7E72868FFF78DFF01204042B1E7DE
:1018000030040020CC540300000000000052494680
:1018100046167E000057415645666D742010000044
:101820000001000100401F0000401F0000010008EF
:101830000064617461347D00007C797C7C83827FEC
:101840007F7F787C787C7B7C7E7C7E797B7C797CDE
:10185000787F827F82838583857F7F7F797B76789F
:1018600076807E807B7F80787C7B807F787C7F7FAA
:101870007876757670737376767F79797976767502
:101880007F7B838682868583828685837B7C7B7C47
:1018900078797C827F8985897F7C7C888C888C891B
:1018A0007F757C756D6F6D75766F797B7F787C7BCE
:1018B000737573767E736F7980757C7F7F767270B7
:1018C00072736C808E89868589837E767B7F7F8C20
:1018D000918F8286857F736F767B7C7F8C858688EF
:1018E0008C827C6669706C707B897F868378665F8A
:1018F0005A6873737892918C9288796C665F666689
:101900006F89918F898B7975707373787C98ACAF80
:10191000A29E9C7E63494D52667F9FA19FA19F829C
:1019200060524D556D7B96A8AFABA57F563C3D4FA1
:10193000505F7C9EB2A89C7B6050494D4F5A85AC4D
:10194000C2C2B7A285695943393D69A1BFC8BEAFBC
:101950008E79562C172D66B4D5CEC5B7B885532CC5
:101960001D39638EA4ACBECFB58643372727345DBF
:101970007999B5D7D8A14F30333029336DA8E5FA1E
:10198000F8C276475340141456A2B8D8CF9673695C
:101990007B7C422765A5CAD2C7B88B7E86622400AD
:1019A0000D79A8A2C1D8DBC7995D0000064D8398C8
:1019B000B2E4DBA1895F2A103D707B7C92CAE8A863
:1019C000694F474D4266626385B2E2CAB28E804A71
:1019D000231A0D438EE8FEFFD7A58879330006341D
:1019E0006899C4C2927B807043232D4983C4A98B1C
:1019F000769BB5B7863C3D2F407883A4C8D1E5A13E
:101A00005D00000A14438FD1EEFEFFBB7F4A2A30EF
:101A1000434F76ACCAC2C1B26F6668835D4D6286C1
:101A2000B5AFB1C2A4474C2D01002A6FBCFFDAD577
:101A3000CB823A300600008FC1D8DDC5C4804C4A45
:101A4000393D1D6C969C997FB8D49C5F837649473D
:101A50007899B1A9F0EE7616272700114A79C2FECF
:101A6000F4FFED562050601D43A2CBC8B89F924AA8
:101A7000376D7207003953A4A5A2C1A9726D7643D0
:101A80002446B2E1C5CEFFD572301C0000247BD5C0
:101A9000F0F4FBF7A52D4F6D23145A7B9F7592FB35
:101AA000D48C92783D140D66A18698F4FF823D4F48
:101AB0003700003996BED8FFFE89000E4C07075943
:101AC0009CE7CABCFEE5626DB45D00002F867576AA
:101AD000DAEBAB7988A137003A99CEC5FEFFE45026
:101AE0001C4200003699D896BFFFFA6616602F0098
:101AF0000056898986EBFEE865667F3000046270D7
:101B00005FCFFFF18F557C4D000078C8ACE7FFFE3A
:101B1000660E2637000073BBB8BEFFFFD486626333
:101B200036000E3C8083A4EBCFA47C6C4D00002AD1
:101B30006892C7FFFFD4895D3300002478928ED26B
:101B4000F4DA763420170000559CC4DBFFFEEBDA94
:101B5000925623001907629FD1FFF4D885690000CF
:101B6000274673A1EBFFF0BC4F30260E204376A42E
:101B7000E2EBFBDE5C501C0A24090A42BFDDEEFEEC
:101B8000F1BE56060000001992DAFFFEE8AE8F4261
:101B9000142D37478CFEE5F0D86F4703070923471C
:101BA00072EEE4E8FEFFCF7E432000060055D5C468
:101BB000E8DDDEA5190000000036B5B5FFFFDBAE9D
:101BC0005D1C07466355A5D4D2FDC28B4D1119216A
:101BD000190069D7D8FEFFFE964F2A1900000D8321
:101BE000D5FEFFFEE87B340300000483E7B5E2DBAB
:101BF000A99F3D4A4C112F569BA2A9B1E5D43A3773
:101C00002A00171CA2E4D2F7FFFE96360E00000051
:101C10002D9B92F7FFFFC74365896C4A75B59BA55D
:101C2000F5FFC43726531A0000699683D1F1ED6D94
:101C3000496D422400279FC1FFFEFFC73D6F0E0084
:101C4000000092A87CBBFFEE8E8F7500000073959C
:101C500083AEFFFEA573996334365D726696FDFF11
:101C6000FF893D470000003C73A4E5FEDB7B8C420E
:101C70002D000039567FD5FEFFAFA4A962070607E5
:101C8000732C2D91D2CB52997207001D8F9EC8FEE6
:101C9000FFFECE925F0E0000013A70ACFEFFE79FA0
:101CA000722400004C707B7CD4FFD7A2EBC760107D
:101CB0000055244091D2E17372795500003C664C86
:101CC000BFFEFFFAA8A5130000237343ABFFFEF588
:101CD0009EB7994F0019472D2A66E5FECFBBDB66FC
:101CE00000215F40279BD5FED8C1E28E1A0011204B
:101CF0001A95FFFFF789783D0000002F0A2669FF3B
:101D0000FFFEFFF7D5603343231153757F9156C70C
:101D1000B24D26373A0073E1FFFFFDF19543001401
:101D20006F4D95D5F0C8BEFEA85A01000A3C043C90
:101D300099BCBEE2EAA289394D3C0004249BD5D768
:101D4000FFDE5D83554D264DBEDEF39CA5A52A160C
:101D50004A2F00006DC5AECFE4FBB875734F8F3CC2
:101D60003DA58E8099FFFEC2692C27090010796875
:101D700053D5E1734C7C68898292E7E5A8C8FEA937
:101D800000000007000063AE9976E7FFC18C988FD2
:101D90003F075A72839BD5FECB528C956601207605
:101DA000594A5FCFDB4F4D78A25D2488C2AE96CEF4
:101DB000C85336838F3C04394D70629FFEFFCB9B26
:101DC000833F00005A562100B1FFAEA9CB9537657D
:101DD00096867283F0FFB549569F8E6D5A2F5A39F9
:101DE0004ADDF86F2DB45D003663599698FFFEFF0B
:101DF000CAEEC407000000000D47BEE88C88A55F4E
:101E00003A9F6F569891A5EAB846C7992F7C825D94
:101E1000654A7BB8B87B76AB2A13502C1A5279E40A
:101E2000FFFEFBF89B3A2A200126342CCB9876BB88
:101E3000EEC47C791C632317DABC6D427F662056A2
:101E400059404C30A8FFFEBCFFCA2414000D2D1CC5
:101E500030FEFF89B1EB85213600233403A5FEDE79
:101E6000C5FEFFAEB29F275A0007C7A91940B2723C
:101E70001D00003F404CFFFEFFDEFFB12106142194
:101E800036047EFFC7BCBBE24706342C430029F86A
:101E9000EA9CBEFFFE637F70531C00C7FFC5ABAC5E
:101EA00085300024243D1AA4FFFEC8C7E550000079
:101EB000000E0017DBFEA5B2FAFFC486693F3700AB
:101EC0004AA5A17CB1E2A11100401A0433DDFFCA8A
:101ED000E8F3B4340337654372FFFFFED8CE7916BA
:101EE00000000E000000C8F0CFFEFFFEA5555A0A04
:101EF000000085D8DDBFB2C247491A19111083FE10
:101F0000FFD492A26500003D1A3C8CFEFFFFC7CBB8
:101F1000FE9F07040000006CB8D1EEFFFFFE764F75
:101F20004700001A89C8D5DDFFC727002A655A99DE
:101F3000F7FFFED5AB9C39000000000024A9EAEEB3
:101F4000F4FFBB5053720E000D47FEFFFFFEFFAEC5
:101F5000000300000E63BBDECB8E9CB153528F3664
:101F60005A95FFFEFBCAA2BC3D002A00001356CFC3
:101F7000D1EBFFFEEE50000000000089FEEDE2FA1A
:101F8000E83A003A13345389EEE2BFF0DE78001CE1
:101F90004D205D5CB8C7B2D2D4C216004F0000001D
:101FA000A8FFFEFFFFFEB819210000001173B8BBA7
:101FB0009FD1A52F2A72042053F0FFDAB5C2F76033
:101FC000236039000060D1B5BBE8FE9F000000002F
:101FD0000042FFFFFFFFFEFF36000007000053C76F
:101FE000AFC4FFF4660E68965C2139BFC799D1FF74
:101FF000A8000030110000D5FFFDFFFEFF291410DE
:102000000000003DBEF4CFFEFFA1142669160010AB
:1020100096AF6273FEFFA189F0D20907AEE875633F
:10202000EAD81C00003A000068FFEBCAFFFFEA276D
:102030000043340000B1FE5FDEFEF855005C730023
:102040000011624750FFFF992DA1FF4F0029A28880
:1020500034FEFF99165A6F140000A5FFD1FFFEFF52
:102060006C1A6556000039C57F37FFFEE27BBCB5B0
:10207000190000996F0073FFCA4A8EC24D00006DAF
:102080009F178FFFFE86093D5900006DD7CB8FFE4D
:10209000FFD5393A7000000047620EC4FFFD96B2CA
:1020A000E7BC29004F5D1D82FFFFBF4A8566000027
:1020B0000080825DFEFFB25F409B0E00005ACF5D44
:1020C000CFFFFE8F4CA58600001D4C002FE8FED2EE
:1020D000DEF8FF1C0039696250CFFEC8759CB81D40
:1020E000004A68833AC1FFFFD2638E5A00006D4FE9
:1020F0000755FFF7EAC5CEE526000A060000CAFF2D
:10210000FEFBCEFF6F001400000091FFDB9F76B155
:102110006600007EAF8BD8FFFEE8B7B5C2000000B6
:10212000070000ABFFC2F7FFED7900472A000073FC
:10213000FEF4E4FFFF9B00002716175FF8FEAF7563
:10214000639B00006955244CD8FEF1FFF4D84F0082
:10215000142D000049E5FEFFFFFFC83D14360000C6
:1021600000FAFFB5CAD2982A2F4075373ABFEDD88A
:10217000A1D5ED632C371D0021629FB799DDFED2FA
:102180004F3A100000068FD5F1FEFFFE5A193C3081
:10219000003DA4AC91C7EBB470002F402311A1C245
:1021A000B7E5FEFFCB6237732F00004F7CEAFFFFDD
:1021B000D1834C040000003DB4C2F7FFDAB5867944
:1021C0006611004A8F959291B2795960594D3F69D5
:1021D0006292A5B4E8FEF565370000004D6CCBE4D3
:1021E000FFFFEAAF2356001D1C4079BBEBE7D88503
:1021F00027524A294A56707F86C1E5EE99637E0EC2
:10220000394039B5BBF5FE9F6F1A26000000007BF0
:10221000A9FEFFFEE5788C68213756769699859F52
:10222000C18E79854D33392472CF9BBBEEBC706370
:10223000300D476876B5C1DBFFDB7F3D0E000B0D2F
:10224000349FEDBCEDFEB140478E5D1900044F8018
:10225000ABFFFE9278735F504F408EBF9CD8ED8CE1
:102260004C764F0100277ED2CAEEFB95565C66493C
:10227000276368929B86FFF5AC628959111A204A40
:102280004F34A5DE769892BF5F305C5DABA2EDFF68
:10229000AB5D394713112069688C9FD4F495B28ED9
:1022A0008F392A463A8596CEFFDBA4B88553294D4F
:1022B0001A033096EDE59866A86D292A5F63A1C2DE
:1022C000DABF62606299230E232D2CA5FEEEDA8020
:1022D0009EB57F1C2A46002475B5B4C2EAB5994262
:1022E000376F3750A2D7B89BA5A8994A2F4D394AC6
:1022F00050DAEB7F7C7F8F4A3347624D76D4CBB781
:10230000C8F0CB75471A290B004788AC9EACC8852E
:10231000795988602011B8E1B8E1D5BE867F3C3795
:102320003429A2D48C59767C78666F5A3F1A5DFBAB
:10233000CAD5FBDDB28E5A651400147F8346CFE701
:10234000FED1633637131D80A163A1C5808C6C5606
:10235000555A3350A180B4FFD77C9B807C270B005B
:10236000567547EAFEF0C591833F0000108B9FD160
:10237000FFF0C8CAAF8929277873555091924F86CC
:10238000736807004AA4C568A5FFEAC5C1A25F003B
:10239000000E503989FEFFF199694F070030495A04
:1023A0004DEEFECBBEACBE73214270753A96FE9CDC
:1023B00053629C912421105D686DFFFED8ABB57F00
:1023C00000000024695ADBFFE5BECBC44D000A368D
:1023D00052537FD1B89585AC8B405C5A524A23A5A5
:1023E000E1DEEDD8BB4A000A3C796CEEFFCED2A408
:1023F000921C00000709016FFFFFF7E5CEB24756B8
:102400005F60331495BF6C96CF7B560911200B2962
:10241000AFFEFFEDC2CF7F2A00073334A1FFFFC418
:10242000CBC1890A000042374FD5EEAEB2F7DEB11C
:1024300040345F11005AABACB8DED2833D2A606DE8
:102440003778CFEBFDB2C5622700001D0030BBFF1F
:10245000EDE2AC918F49737B53005AA8A5D1DEFE03
:10246000B842303F210029A58899B4C2E4B55A4941
:10247000532640FEFFFEFFB4692C00000100005A05
:10248000BF92BBD2E1DB9889292A003A9F91C2AE64
:10249000E8E7AC86360421003A95A2F1D2C27C0E60
:1024A00000216055BCB5C7F8C4BF8F493046210D27
:1024B0002172CFFEFFE4F8D780593D030000147C61
:1024C000C7C8A4B2915D39304676F8FEFFF79C6F1D
:1024D0005D463A13000062BC9BA59F9E69525D1643
:1024E0002A4289C7BFDBFFFFFFF8990600030000FF
:1024F0006550ACCB8970525A3C8C7BB5E8C1FFF07B
:10250000AC662753342710407965C5E4F7A95F9678
:102510005A240000134D9EFFFEDBAFC1B555560D8A
:10252000218668B2C5B78082E25A4A5F2DA486B17F
:10253000A26D5511A46D073C5A6DABB8E2FFFFEEDA
:10254000E7E50000001D002C3D9CCE9F70913400FB
:102550005D37783D82E8FEDB91C2A95F808F753AD6
:1025600020AFB2BB1D46A90D212C4D4352B8FEFF32
:10257000BEB8FEA54F5300001360AEBC9B79B7D226
:10258000334065567F505DBF734782D8962360689D
:1025900083566F89B4A272B8985A4263785A2D72E2
:1025A000FEC88BF1AC160023402F0B53E5FFB8C5D6
:1025B000FFC2C4F5988623077B8C5517707C014DAC
:1025C00068635F2182D8BEA9C8FECB6D4924492A21
:1025D00059D5D4A27BA9964C372D06040042B2826D
:1025E000C2FFFEACBCACBBB83F37564D167FEDAC5E
:1025F00059706D555D1CC5FF9B96E1BF163749307C
:10260000422701ACFFA4E2FEA25F7B73720003923B
:102610008E4A52DEAB7C8E966C00003AA26550D199
:10262000FFD19289C4CB6573EBEA667FC2680E0066
:1026300000010E0053B4AC98FFEACFFAF5D59639F5
:10264000007C7669A4E8AB6355532D000020603F01
:1026500063C1E2D7B27B99726673C8D49C959669C0
:102660004A4D435A270E3A668CDBFFFFFFBCA4603D
:102670002400003370829CEDC5D8AFCA8F190A7B45
:10268000A5BBAFAEBC687840550E005A557C4C6077
:10269000D2DBC46D525A173696CEC2D1FFFED898FF
:1026A0006026000000005D70CEFFD19F5F9C8B9282
:1026B00073A4CFBE92E8D49682766F00001C7C98FB
:1026C000929EB7997F6D6C50000065B5BCD5FEFF3A
:1026D000EDAF333D000029728C5CAF929BD58C78B6
:1026E0005D00046F705F92E7CFE1AF73683D2F66C6
:1026F000B58C98FFFEFFE753030000002C6675DEE3
:10270000E5D2B575708247032D568FCAFFFDFEB71F
:1027100089823700003940426D91C5D4794F4A0013
:102720000063D7FFFEFFFEFFC450290000004F5D8D
:1027300088BCDAFFEB625326000068698ED5E8FF9B
:10274000FECB4F765200002766B4DBFAF8BC1127A7
:102750002700002D7ED2D8E2FFF5460139000000A7
:1027600083FEFFFEFFFFC173727C0000003F837891
:10277000C2F4E8652A560D001C80FEE2DAFFFFF77E
:10278000736C2700001C76BE9FE2FF91000E0D00C7
:1027900000005AACB1FBFEFFFE7C957300000EA456
:1027A0008F8BF8FFE1302F2700000099C1B2FFFEA8
:1027B000FF8952402A030059FEC4FFFEFFA15A5D63
:1027C0002F000000A9857CFFFEE87B8F850E0000AE
:1027D0005D9B5DDAFFFEE5804900000037FEAFC774
:1027E000FFFED83950230000005D8CA9FFFFFEF1E9
:1027F0007580784D005AA466CAFFFFD45D5F2D0036
:1028000000006062ACFFFEFF6D42636F00008FE569
:10281000D2FFFFFEA2462D11000000503DBEBFFDBD
:10282000FF9E9C9B6000004F6DA8FFFFFECB88734E
:102830003F00003D7E69C7FFFEFE6F5600000000AE
:1028400096A1FBFFFEFFB5797C9800000D436C9FBD
:10285000FFFEFF95692D0000001C5AA9D1FFFE9FC5
:1028600079683D00005688FFEAFFFF955643420015
:1028700000003DC8E8D2FFFECBB1471400000B8B2F
:10288000F1CEFFFEFFB26963000000369998E8FEC2
:10289000F150000001000049BCD1DEFFFFBBA95C84
:1028A0003D04000069B8B7FFFEFB8E706C2D000080
:1028B00000788FE8FFFFFE5D5A3400001DBEE2C8BD
:1028C000FEFFDA66504600000059AF91FBFFFEACF8
:1028D00062560A0000005569D4FFFEFFD88243000B
:1028E00000001686C1FFFEFF7F636243000036666C
:1028F0008FDAFFFEC563757C2F0E4FAFA8D2E8EDCF
:10290000FFC4736201000000399FFEFFFEFF916962
:102910003F00001452A2B7FFFEE8885039000000C3
:102920005580A2BFC7DB9B7C91500400003AC4FFD6
:10293000FFFEFFB17B2A000000066DB2E7FFFED567
:102940008F68240300016FAFD1C2F4E76659666255
:102950005A2F5D9678B5E7F1B4703C000000007026
:10296000CAEBF8FEFFDD92461D000050C7E2FEFFF5
:10297000FEBF42211D49071C4D59697FFFFFA192EF
:10298000726D070060AFDDF8FEFFA47C40390000E7
:1029900000639BCFF7FFFE563D10040000899BBCEF
:1029A000E7E8FEEB9BCF822100002F5398B8FEFF93
:1029B0009840532C00235D95C8F1FEFFD73A37218C
:1029C000000062C8E8FFFEFFFF6860722700000099
:1029D0001D70B5F1FFBF86762C210A374F6D8CFB39
:1029E000FFFF928C5A00000060B5EEC2EEFF40245B
:1029F0005224190B2D46C8FAFEFFFEC8C7601C0002
:102A000000273C8C82DEFD99CB98370000265D952F
:102A1000DEFFFFF873550000142A8F8F9299E2FDB4
:102A200099955A131A00046C9FC7E8FEFBD2A46064
:102A300046000000119FFFFFFEF1D88F49171C438D
:102A40004676868FB2AB63524729000360BBF8F12C
:102A5000FEFFAE8C8855270000135C96ABFFFEB5D9
:102A6000564C0000001D80A9D1FFFED8B7A28514E6
:102A70002A4342738BACF7C52066520B20375C9615
:102A8000B4D5FEFFE28C7C1700000024B1EBFFFE02
:102A9000FE6F8F4F000000005AB2E1FFFE6D798695
:102AA0003700003A6C8682C2FFB49FCA76000011DC
:102AB00042A2CAFFFFFE9F7243000000003979DA8C
:102AC000FFFEF1BBC2290E133A537BB2F4FFD16073
:102AD0009F880E0004061624C1FFFECF98B2110095
:102AE00000002683E1FFFEFFB78356000000005080
:102AF00078FFFEFFF8E8DD4016111334409FDBF449
:102B0000FFB1DE730000006D6D8CFFFDFFFFDE7016
:102B1000000000000036FFFFFFFF835C000E000096
:102B20003943E4FFFEFFEAD5850E1C00000037C4E0
:102B30009CFEFFC476233017003488FFFEFFFEEEB4
:102B4000C4340000000034D5FED5FEFFCA69000E73
:102B50000000006CC2BEFFFEFFCE5A2C0000003009
:102B60008B8FC7FFFEB7502924000000D2DADBFEAE
:102B7000FF9E4D170D00000072D2C4FFFEFFD176FC
:102B8000651A000027A483D8FEFFAE9C66110000E2
:102B9000007C9EE5FEFFFEC4661900000079B48348
:102BA000C4FFFF82302100000020C8B2FEFFFFFFFB
:102BB000B18F5F0100003A275FFFFEFF955D3F0187
:102BC00000005DABA2FEFFFEFF5D3F11000000AC08
:102BD0008BFFFEFEF5395346100000705999E8FE50
:102BE000FFCB8B8016000000503CC2FEFFFEA98880
:102BF0008C0000007276CAFFFFFE700D21000000FD
:102C00005D7BB2F1FFFFFF9EA9720000215F60AC07
:102C1000FEFFFE994F5A000000191D6CE5FEFFFEF5
:102C20005D63200000699E83E1FFFFD2682D3F00B5
:102C30000000426DC2FFFFFEE28B7F3C00001D2DB5
:102C40008BC8FFFFFFBB76490000004D92A5E7FF50
:102C5000FEA216602C0000427388BCFFFFD44A65B8
:102C60003D00002973AEB5F7FFFECB918F00000049
:102C7000003A65CBFEFFD773532C00005DC59FE47F
:102C8000FFFEFFA17C36000000687C4286FDFF76D7
:102C900040795A13002F8C79B7FFFEFFAE703300D6
:102CA0000000044C63DDFFFFB25F702F0000598607
:102CB00085D5FEFBA2688C78170021886670D1FF4D
:102CC000FDBB8F7B2D0000765563C7FFFED5725686
:102CD0003F00000BAC6CCBFFFEFFD46D523D0024D7
:102CE0007211007699988C5A5560000053996CDEE9
:102CF000FEFFFEC8A5AE69000072342AFAFBC79237
:102D0000464D170000696639A2FEFFB7ACBBB88C10
:102D10001666C44079CBDAAF687652110000504F86
:102D200055E5F7F8E1A56D3400003F636FBCFEFF89
:102D3000FEB58E8C3A36568F2F0E8FB1AFB17937E4
:102D40005C340663884A75E5D1E5F0BFC5A121363C
:102D50005A427FFAFFC78352240B00004742219159
:102D6000D8D4BCBBBCA48F5083896C66B28C8C91C8
:102D700066787024002A551D70C1C2CFC29F78505A
:102D8000274DA2B58BF8FFCFCB926540032A52376F
:102D90001C60A9CAA595998E76408576233D86AE9E
:102DA000E8D1B899950E2F5A655D95E899826959D1
:102DB000432C10431C4069F5FF99C7CB96AB836F3A
:102DC000AC6547726D6892D2BE8F492716000D3DE3
:102DD0008C92DDBFCEAC5C6688C59289D5E2C5BB5E
:102DE000BC6C470D004A00001370866CDBDAD2B76A
:102DF0009F914A00017BDBC8CFFFDE8949864911DC
:102E00002426897C88D2D1894A597F4C47599C9580
:102E1000708EB29BB5A4B56D232489BE56CEFFFE3D
:102E2000AC6065210000004C403FDBFEE27F6DA8F6
:102E3000703F69BCBF79BFFFD25A4F636C00004737
:102E40002F2142F8FEB2768EAF2C004088B2A5FE4C
:102E5000FFFEACAFC71D000021362D7BFFC7345DE0
:102E6000A1AF362D85AC6F6DEDFF9E99BEA22700F8
:102E7000246C66005AFFED868FBB4A00005D3F4020
:102E800082FFFEE299B2BE070060590E19D5FFE13C
:102E90004DACEA6600145F000099FFFE4A62DBBE9B
:102EA000000069623D82FFFFFEBBD2CA0000091A22
:102EB0000D01C7FFAE53B8FE56000047002DA9FE16
:102EC000FFD4EBFEEB0D00A1470014AFFE998E96E8
:102ED000CA0000001C013FEBFFFFE5CEF18E003978
:102EE00089240086FEFFBC65968B00003C00001420
:102EF000B1FFD8AEC5FEAC003A2F0023C2FEFFC41E
:102F0000D8F7DE00004200003AFFFEDBACC4AF00A1
:102F10000000140E62E5FEFBEEFFFEBF1D623D00E9
:102F20000055F5FED5C2B85500003300002DE5FE72
:102F3000FFFEF5F450003D30235DFEFFFFE1A59854
:102F40005D000000000049DECFFFFEFFFE7336404B
:102F5000370353FEFFFEFEFFD16600000000008233
:102F6000FFF8E2E2AC66333720003F5DEDFBFEFF89
:102F7000FFC8404F00000013B5CAB5EADECA60338F
:102F80000400000E4CDBFFFEFFFF89470E003A6095
:102F9000AFFFFEDBFAF170424D000000003FCFDBD7
:102FA000FFFFCB594D6800295A40E2FFFEFFFFACFE
:102FB000694D000000107C9EA2C4AC854D751700C1
:102FC0002F8CC1FFFFFEFFE87BA5270000430D40CB
:102FD000A1AFFDFF8B8F750000015C69F1FFFEFF63
:102FE000BB796F2A000D8685A2ABFFFAD29B6D23B9
:102FF00000003A1956A5C5FBBB9279AB1D00173DE1
:10300000377EFFFEFFFDDBAB3A0000422D4279AC7C
:10301000C189865F3A00005A9C9BD5FEFFF4B5DE5D
:10302000D28300134D29539698B89E765F11000005
:10303000075253AFFEFFFEFFFDB200003683535927
:10304000CBABC5AE603600003478866996C5DDFB33
:10305000EAA572270027405078FFFEF1FEBF654DBC
:103060001D2C211D4CB5CAB2C7793F1100277072C3
:1030700069ABC2D1EBC1CF996F6D52567E7CB85F00
:103080009998503F00010000435FCBE2BBFFFFFE79
:10309000B2406C768E797F989FC49F2900002136BC
:1030A0004060345586DDFFFAB56F9F8C5F6988AC50
:1030B000BF92E5CF9B371C50000011507680F0EE98
:1030C000BB5053D15D666270A840B8FFAB7039C584
:1030D000B7304DA2B77030B1C88250479200004C53
:1030E00070785AD7FFE49275B2591D8BAF9B3D9E05
:1030F000FFC13A1C737B00003D590000D7FE805A87
:10310000A5EDA978AFA46943CAFFD16D539C3600E1
:103110000021463778FFC47973D8FE60339EAC59DE
:1031200027B7F1758F91F5885665662F002FA97C1A
:103130003C86B58C298C5F703663FEE8B15DD7E8BC
:10314000200E4D79531ADDEBBB706CE8792D4D7F65
:103150002C0020928B70A2FFFF8985B286004AD492
:10316000E8AE8FCFC756004D4F2A0062BF7B5D6F20
:10317000E2A85A69726D2C5CD8DDA27FDEE19C95D5
:103180006D3300001950626DC7FF987C9270472024
:1031900083A99BA5B7FFAE306247624D59838B89E7
:1031A00060AEB56C7376662F074A75C5DDFBFEB859
:1031B0009189461D00004A91C2CEFFAE8FB13410F6
:1031C0002D242D72966CBFAB569E79406F896C731F
:1031D000D1B8C5FFEAD5AE2D000000002CB8C2D58D
:1031E000F4D2DA3D000013073CB8DBFEFFE2E582D3
:1031F00050988349071366A88C3C966D0E375A5F2A
:103200001D65EBFEF7D8CACF75110700000078FFE7
:10321000FEFFAED2BE0B002A2C005CDBE7C589DACC
:10322000FE5C4383460E1699B29F7C9FFE6D076538
:103230009F59007FD5D2C1AFFE920000001D00143F
:10324000F0FFFEE2FFFE8B3D8B92000099CEA2784C
:1032500092C750003083170047E2E7B2DAFFFE6DF5
:103260004772660003F5FEF1A1CFCA3700002300C4
:103270000083EDD4C5FDFFF0695F83330004A4B281
:103280005672FFFE5629636200007CD7B295FFFF9D
:103290005300377034007CFFFFC8D8FFCB010B56BA
:1032A00000000095E8AEA9FEFF7C5CD58F00003CD5
:1032B000997F89E4FF851749893A0059EEBCAED55C
:1032C000FEDB0E093D000000C8F1CBC8FEFF4C56E6
:1032D000986600048EB2957CDDFFCB7863753D0067
:1032E000475D72607FE1BF4C437F601D47B1BCCE3C
:1032F000EBF7FF7E04202700005A8BAFC1CFE176A9
:10330000628C721100425A6FA5D5DDFF9983AF79A7
:10331000140763376FB596FEBF6362342F2A808E21
:10332000B8FA99BE99766843421136708BCBE8EAB9
:10333000D2AE8F5A431A173411568B70DDCFA89630
:10334000694F43683083BB92C4D87847432A3A9682
:103350008F7CACAF999896624A3F2D4A7C298CCAE3
:10336000FDFFEAEB958C6C2716000070999CAFCEA0
:10337000C868736296633689DD8F8B7379562179BD
:103380002F866873AFA9967FB59550602F504C2457
:10339000837F9CE2FEE27B6370394A0047857CD1E3
:1033A000B8DA796689B2B74D49867972A9BC5553A6
:1033B000654A7B4D11959F95CFF3D585A27656270B
:1033C00000037C75C2F8E483537253551A105D7381
:1033D00075A2D7B898B5DBBE706266734F409199FD
:1033E0005963887927464A7573A5FEFFFE999C6F3D
:1033F000472930391778CFE4B573959975503A2736
:1034000003437BD2B75A8CEAF19E7956172A3FA51F
:1034100099917395C8330E294D898ED2FBC1C8B1DD
:10342000EE63002A04190783C1C2ABB2FEE8768EB0
:10343000732004068C7C99A9F0F45F507626000670
:1034400073A499B492B19F605553164076FFDDB5D1
:10345000A4ACC12A272900002D989F9BB2FEFFE74C
:10346000A570400E009BB8B1BC8EEB821D394D2675
:103470000053B58EDBE7FFC7375A293A004DE4AC5D
:103480008CABFFE776593A0000005DB192A8FFFFD0
:10349000F0A5B18F160003697B76DDFFC15D785022
:1034A00043002DC2B1AFCBF4F8624D783A00004F23
:1034B000A2B1A9FDFFCA928C3F000009A99B9CFB09
:1034C000FEFFBEAC5500000016663FBCFEE1796C05
:1034D000691D531D8FCABCC4FFFEC58E600000006D
:1034E0000030969BE2FEFFDAE2910700001D829F0A
:1034F000F5FEFFB1B5A91C000000394D53FFFEC811
:10350000AB99460024239FAB9FE7FFE783A45A00B3
:103510000000001D72F1FEFFFFDBFE2A0000000D1F
:103520001D7BFFFEC899D49614001152607FFFFEE8
:10353000E29BACA900000A0E4663C4FFFECBB4FBBD
:10354000230000001353B7FFFFFEE8FFA2000000B6
:1035500000002AC2F5FFA5AF8200008FAB5665FFC1
:10356000FEFFEDB2E75D000000000086FFFFF7AF51
:10357000E7BC00001C040E65FFFEFFFEF1C5230042
:103580000000000086FFDDB5A4FFB50D2D7F4000D3
:1035900075FFE7C5C8C1A9000000060A42EBFFFE9F
:1035A000FFFEFF8000002C000083FEFFBEBCC49C19
:1035B0000000693F001CCFFFFEE5FEE55C001989B5
:1035C0000D1799FDC89BBFA55A0000030000A9FE76
:1035D000FFFEFFFEC52F003F270000ACD885C2F0DC
:1035E000F178000D562A16ACFEE5E5FEFFB10000AD
:1035F0001C1D006DE4E5B2C4FF7501000A76234A84
:10360000F7FFE1E2FFF0662F0016000011CBD8BFF4
:10361000F7F18062345F7F0D70D1FFC5B5FF801A6E
:1036200000004D213ABFFFF099E5D29C63657C3CD8
:103630000036BFD8F8FAFF962F17030000004DA4FC
:10364000ACD4FFE8987652536260A5FDB56F8085D3
:103650003000000D40434698DBD4FFFEFE9B691707
:10366000013C3D557FBEE2F4BC896C2120373F40D0
:1036700078E5FDFFD4835A2D5375794F607C7B929A
:1036800089A9685D4907564263A5EEFEEED4A99963
:103690003600000E091A73C1DEAB70969B7669BEC8
:1036A000D288968F958C5F96855340829C47656D36
:1036B00088928EB28C6D392AAE8349B5DDFFDD8CE0
:1036C0008B5600000B5D193098C2A499A8B28B7676
:1036D0009EE87C06568E867B698E8652508C9B1A9D
:1036E0005ABBDEA173BCC16D3650765F3D98DEAB30
:1036F000706986895A50C48F3433668576ACE8F594
:10370000B199AEB824000E3F30498F78632F3AC18B
:103710008962A5D1F1B7CBC28B56368386240E437E
:103720007B83529991BCA595EB720E0076BB95DE1A
:10373000F7CBBF98B2750000117B4736C2765A733B
:1037400079AC9B6380C4A57260958982997B603651
:1037500000246C6096DDE8B7D5B5A46600113F4D36
:103760007BBFFFCA809B8F72370E73806880BFAEAD
:1037700092CAC5C4B51D5289434273BEA28E705C05
:103780004300004292ABEAFFFEFFD1A57B000000A0
:1037900040466688ACA58583ABAF212D6F474F9916
:1037A000DDEBF8C596C143005A4C505C9FFFD1D267
:1037B0006F5A2400003495C8FDFFFEE58E76A20006
:1037C0000000015A3996DAE7DB9ECF8B001D395A8B
:1037D0006F85F8E1BC72867300000376A2A4FFFE39
:1037E000FF78406C00002183A486E5FEFFCA99BBE8
:1037F00056000000233D68FEFFFED2FAF8460000A6
:1038000004463AAEFFFFC476460000005D8C85AFEB
:10381000FEFFBE9F8B5D1000092A6882D5FEEBB2C9
:10382000A9AB4A0300000D2DBFFEFFF8DBBF650A00
:1038300000004689B7FFFE9C89786027000055ACE0
:10384000A8FFFEFECEAC4904000000294D3CE8FF75
:10385000FEFFF07F340000004766FFFEEBB7C86252
:103860003000001D3F63A5FFFFBCB756172F045063
:10387000688CBEFEFFD1E5AC5C300000000E7BDE44
:10388000FEFFFFFE8F6C3700002F6DB8FEF1BEAF5C
:1038900060060000004082ACFEFFE1B5AB665C5301
:1038A00000003656BEFFFEFFFEAF170000000042CC
:1038B0007CD8FEFFFFFF86782D0000205DBCFEFB5C
:1038C000B773215F56000A606896FFFEFFCE9F6CBB
:1038D000270000003D78D5FFFEB8AF732617000023
:1038E0001673DAFFFEFFE4EB725A00002168839E34
:1038F000E2E2A873754A19000DACB5C7FFFEFEA140
:1039000079392100001D4C76EEFEFFEDA28E3400C9
:10391000000E5A5DACF1FEBC8EA5885D00003440FF
:1039200047DEFFDDB59C7B4A1C0156AC75BCFEF83A
:10393000A8968B430000003052AFFEFFFBB7B58660
:103940003C070011292799FEFFAEBCCF5F11000094
:103950002C3073FED5828CEAB5370021536F66DDBB
:10396000FFCECFB7AC13000026431979FEFFE2F477
:10397000FF78070B0D37094AFFFED285D5B85943AA
:103980004256040096FECBA1ACCA3D002149432C0F
:10399000B8FEDB92BEE58E1D000000003FFFFFFF7A
:1039A000C7FFD44A200142000068CBB499D1FF83FD
:1039B000423465730D6DF0FF9EAEFFAB1A162F4AB1
:1039C0000A04ABFFCBB5EED82700343F010076DA0E
:1039D000DEBFE8FEBC5C606C3A000091B2A588DBFB
:1039E000A26F538892000072C2BBC2FFFE9C491DA9
:1039F0003F000095F1C7A5CAFFC29B5A553D000084
:103A00008FA599B7FFFEA56F69960B00243D5D7CDD
:103A1000FEFFB8736069430E437099B2A9CB91342D
:103A20003C6078002170C2E8BEFFFFB2866D790E5F
:103A3000002D3F9996AEFBB4B282832900102A91E3
:103A4000CFD8FED8A5856668043356659670DDFB31
:103A50009B99523A06002C63898EACFEE2ACA8AF6B
:103A6000551100002185B8FFFFA4B58E7C4A2F3088
:103A70001480A5B4FFBFA1896C600026277FC2987F
:103A8000FFE895AC95530A0600008CA5E2FFFFEA1B
:103A9000A96933000000268CACF7F8C1D8A17039B1
:103AA000240D539CA8FBFF9E9F66263A0000005AF7
:103AB00082A9FEFBFFFE896C2400094A9BC5FFFE1C
:103AC000CEEE75213D0000003986CEFEDBF1BC5DF7
:103AD0008F3D2A1D4680C1CFAFDBE1562C3400005C
:103AE0000066BEFFFEFFFE9272470000000183EAFF
:103AF000EEEAFFD268863300000099DAE2FEFFFEAC
:103B0000837F800900003360ABF5F3FFE18026146A
:103B100000002DB7C5DAFFFFFE8F72000000003DE8
:103B20009BAFD1FFFF9B835F5A23001D6CE2FEFF1A
:103B3000FFC166592700000029A5EDFFFED7969525
:103B40003D0000000EAFFEFFFEFFD783781100009E
:103B5000004791B5DDFFD7EBAF3A0000000091F5CB
:103B6000F5FFDA7F924F1D0A192139A9EDFFFEFFFB
:103B7000CE5D000000002A9EE2FAFFC5E1A22F37C9
:103B80000000003DEDFFFFFED2E76042301C000068
:103B90006DCEE8CEC5B862001300001683FEFFFEAE
:103BA000F8F7EB62270000000DB5E1F1FBD4EE550C
:103BB0000A00000A0AA1CBDAFFC1FFF48655433997
:103BC0000036CBFFF1BFBF9900000024000070DE7B
:103BD000FEFFFEFF9C000000000069F7FFFEBFF73C
:103BE000C2786D3A1A000072D7F1CECBAB60162ABC
:103BF0002C0A0072EEF7CFF3FFED692F210000557C
:103C0000DBFFFEEBFE862D01000000004DC7CFDE7E
:103C1000FEFFD79F8959110034B1A273AED59E6DB6
:103C20004D340300005AF1FAFFFFCA9F3C000B23FA
:103C30002A6FF1FEC2FFFE8F622100000000B4DE99
:103C4000B7E8E7B8EE917C831600007691E2EEFFCC
:103C5000BF7C2624391175C5E4CBB7CF8B6616001F
:103C600000000072CBFFDEE5F5B26C4A56363442F6
:103C700092B8C7F8FEFFBB6D400000000A6085B235
:103C8000D7D59E795569636FB5E5F1D5FBDD804CDD
:103C900011000A07295682BC98D8F4E49246240001
:103CA000000953B7DEF4FFDDA96C60211C271666FE
:103CB000769FEBB783433D708B7960AFF3BF7BAEEC
:103CC0007F88765C341C112CCBD1BFFEFFE87B349F
:103CD00000000001688691C2FEEBAE73625D524344
:103CE000429FA1ACDABC5F474F6396523A42507094
:103CF000BBD2AB7062432C340683F7F8FFFFEE9122
:103D000083782A000006669896CACF8B7691998EA2
:103D10004D2356555089A2C7B28E8360420A4C9FEC
:103D20008E79DDEB8C784A3937000070AB9CDAFF76
:103D3000E19F7F2768470043927F89FADB99D1BCD6
:103D4000AEB82D00243C56A4E2826D72507E5323FF
:103D500083AE99BEFFF49F86625020000079A8963A
:103D6000E1CB95B27075730A00004A42AFFBE8F0F0
:103D7000FFE7D8852D3953232198A985B27C553A80
:103D8000092488A5A1CFFFF1A283966827031A33DF
:103D900056A8E8F8B5C4A97E53000000375CBCD42F
:103DA000A9AFDACF954D00112C70B7D5BB9F9B8082
:103DB000524742307589B7BFDECEAC99652A000004
:103DC000003778D2E7EBFBFEDEBE7C2400003F8CA0
:103DD000BBC2F8E29580551A00171D657673ACD505
:103DE000C47F7F632F5A79A5DEDED8E8AC6050141B
:103DF000000000037985F1FFFEFBC4E23F000034C0
:103E00009298B5DACFDAA299A14D0D00296D7CB850
:103E1000D4AC8B476256090A859C62C8FDF8B7E2AC
:103E2000AF4F0000006F7CACFFFFEB968560260073
:103E30000011552798E5FED8B8AB53593486B479AC
:103E400085CBFFB176AE792600004A6565DEFEF8C7
:103E50008E68792300004A755AD7FFFEEEEEEB70AC
:103E60001600002A06438EDE9853C4B28C55215F9B
:103E70003D3CD2FEFF91C2C22000002A7F76ACC733
:103E8000EEBFC4FF6C0400004F435CB5FEFFDDE5F0
:103E9000D579432C5316001DC7FFC2B1DE682A0036
:103EA000014F3A72D8F4C542B88B271100293D70F2
:103EB000FDFFFED5C2E7732900162A005691E5CE14
:103EC000A5FBAF431300042653BEFFFEBFF5F473FA
:103ED000504350693D65ACD4A57B8F390000145A1E
:103EE0005969BBFFFEB2FEED631C010000005FFFDD
:103EF000FED8BEE24724373733004DE2FFE5B2E596
:103F0000A83A1024364365DEFEEB8679D58B433D17
:103F1000030A2379C2F4FFD7FFA514000000001C98
:103F2000CBCBC4CFE4FF9C565D431A1DA5B8B8C7E0
:103F300092A5500A243C5A13658CA4FFDDDBA265D0
:103F40004026142F50B8FEFFFEB8BB633A1C000099
:103F50000060C8D7F8BBB2AF91534650427682AFEB
:103F6000959291A99F2F072011377BBCF7FBD7B8FB
:103F70008E4A0E2F2719509CE7FFDABFC486210016
:103F80001113478EAFDAE5B5AEBCA18675210034BA
:103F90006F999FD5C7BF850E3C2D2F76A1DEDDF82A
:103FA000CAACB437000000005CA5D4D8C8918C8B93
:103FB000668C520E5A6073B7D5F7E8DD834C30003B
:103FC0000E466685A9B8A9CA6068760D4D91C2F8FB
:103FD000FEFFB88B43166300005D4A8E7CA4EEA8FA
:103FE000D8BF887000004C508092EBD1CBB44D7894
:103FF0000B0082345CA2D8F4A27B534934078EBCF8
:10400000A19FAEFF8B7095666C00001A49809EFFE1
:10401000FED2D7B8A24000471C303DB1FF88869B36
:10402000732100538B89A5B8FFAE5696B7A53F07FD
:104030004A4F3A689FB19992BB891C003443214D85
:10404000B5FEFFFDFFD762301656240D7CDADE4D3B
:104050005C86754768A9826D75BCFF8E60C79649FE
:1040600000001D23539BFFDB8FC8FEB227111410E5
:104070000E8BFFFE99969E9900004C6D3F2A82D2CE
:104080008B73FEFF8B5D6FAC5F3475EEA8438CB70E
:104090007014002A1D0046FFFFFED8FFD1111C53EB
:1040A000622103ACE7A53996ED500455632A003A26
:1040B000EAE57685FFF839567E3D0000AEFBC58205
:1040C000D8FE4D0000401904D8FEFEA8CBFEB22C4D
:1040D00050621D0000A89F8F8FFFFF658CA8AC3336
:1040E0002182A97276C7FF910403140E002FD5D246
:1040F000BC95E8AE30395A7B2A2FDBFFE7CBE7FFD0
:1041000075303340000026896953B8FEFFAE92BB7C
:1041100056002799CFBE89D7D54A2A07491124A826
:10412000A5D7CBFDFF9B432F2D00007CBBA2A4BCD9
:10413000DBBB6D75700000002070C4E8FFFEC29C00
:104140008843003D53628986B1C2955D5D16004289
:104150008395EEFEFFFECFAE964C00000D00007979
:10416000AFEAE5FEE58230031A0621AEFEEEEAE58F
:10417000EBBE6000241600499FC1794D696F4D2F39
:1041800053B57065E2F3EECAFFFF8807000307002E
:1041900069EAFEC2D2FED5911D215F0000AEEEC1DC
:1041A000B5CFBB43161A88660099E7AC6DBBF18E9C
:1041B00037165A3D0040EAFFC7A2E4BB1A00002CA4
:1041C0000000A9FFFED5FFFE92031D79030046CB38
:1041D000AE5062F0A23F349173001DE4FFDBC5FFD7
:1041E000FF7500196300005DCAD473B7FFAE00000D
:1041F00024000043E5FFF4C5FEFF402FA591000019
:104200005D8F703AC5FF890068BF591460F7FF964B
:1042100098FFDA0A0034290000C5FEE8C7FFFE7FD8
:104220000E6689010075D5C17CB1FFCA14398911A8
:10423000000099B2605DFEE85550ABAF1C2D9EE2C8
:104240009589D4F57000046C040079F5CB86EEFFF7
:10425000FF5653D563000096BF8C7CCFD434005AF0
:104260006D210080C1999BE8FFBC5D739863047663
:10427000C5C5A18CC8981A00665A000079B8A57FF8
:10428000DDFFA91A5688301759BFA479D1F5CE7031
:1042900050955D03379ECB91ACDAD24C0E986D17DA
:1042A00020437E7999A4C2AC425075403C73C4D877
:1042B000D4E5C1E276236623000D4A6D8FC4A9BB05
:1042C000AC5570533C3A5A8C99B4B8B2C876598000
:1042D000494A5F7683B1D5B48C754A4F4D50627CA4
:1042E00091B8DEAFA4C27547271034366D99D4BF9C
:1042F0009EC88B704D2C5047465D98C2A1929E6619
:10430000506F6D9E7F85A9E79C72A96F3D2A294A4F
:10431000556060B2CA8F9E9E894F53837C70699BA3
:10432000FFBB99B4926F345653435560CE96558374
:104330008892596375706D6299B48C6F9E89192D3E
:104340005C697C6C86D1C27BACBE6D2152535986B0
:104350007ED2C183737C9F435F9F887C3676B86F23
:104360007C7FA9553AA88C827389CA9C89689F7200
:104370003755476C7C8EC2D18C6C9286191D686350
:104380007060919C8E5D6DA9786D7B9CA87F8CA1DF
:104390009F7C5599783A7B60837870AEAFAF769802
:1043A0009620475D889285BC9BB2734C83555669B5
:1043B0007083707C8EA985437C8B6D85638E8C7B2E
:1043C000967C917C6C6D3C50436F8F96B496A8861A
:1043D0005A8B63606883AE92AF958691475F596947
:1043E0008B5A9BA28F8968BC8B737C6CA96853869F
:1043F000707B738883335D42536F60A1ACC1AC9511
:10440000B86269705C805668A2A896595D503460A5
:104410005C8F836F9FAEBF837B9F7B79798F8C701E
:1044200092A5926F696C5956525672768ED8D4A95D
:104430007B7F634C4A475A7C7996A8998E868B5627
:104440004D4355836D7896889C8C88794F5D4C7967
:10445000757CC2B8B1AC855046533F7998799BC8FA
:10446000AEA578474956504F8F736CC8C5B4A29813
:1044700073657C5A60656091B8A4967F6342472D4E
:104480002C707F9BBFB48F9196604C5A596396AB4A
:10449000B2C5B78F75564736213C6D7889B1B5B82E
:1044A000B5A17055535C89968EA5A99B8F7E4D3919
:1044B0005A5C7C8B8CA2B1BC8569402C535A6879BC
:1044C000859CAEB29E9F753D554A3950759FB1BCD3
:1044D000AB89834D3956506376AE9CA8BC7E897EED
:1044E0004755707688BCBC99A985897F4A4A33476D
:1044F000596FAF9B9FB1A48F5543535C706C9FA9BC
:104500009BAFA1BC793C474C535F83827F918C88E1
:10451000835F5A60625A6C8F9B96ABAC966547730B
:104520006863759CBCB1AFA1A58F555043465D68CB
:104530008F91998B8F9B665C5D62606F929B999E59
:10454000A2A4795F56505553758C95837F8E7C5508
:104550004355667F98A5C2BCA49F91665C4D426698
:1045600069668698929C9C795C504C706889B2C14F
:10457000A59FB1A26F434F605A686D989F727F826A
:104580006952405F7C7F7E99B18FABAC89753D3CB1
:1045900050425A89B492A8B295795355797270797C
:1045A000B4A27C9B92754D595D737F6698A97896ED
:1045B0009B927B69605C7C728FAF988CA58266430E
:1045C00033434F5D6FA59C8EAC9189756D5C666FB2
:1045D000739BA2729688766F504F607C657CA17F3A
:1045E0009EAC98896F6352707F82AF9F9CAF7F5A59
:1045F00062604C5A7579A8B292A9A57066695A4D45
:104600005F6375998292A88C73766F4D557373961C
:1046100091899E895F70655649698B9CA286A59F8A
:1046200072606876637896A1B58E99A87660667692
:1046300062607E7C95807BA278565569625A759F30
:10464000B7A291AC8B5D465D664C5A7BA2A89CAC30
:10465000A97E5A52665F4363868F7B839E8962631D
:10466000858F6F76A2B7AC869B966543427F635970
:104670008CB2BC868C95734F2D6D694A73A4BF9F15
:1046800098B59573465983595D758F857091896288
:104690003D49807B6C86C7C58C9BA5804F30626C82
:1046A00047508BBF95868F6D5A435C8C726D95C554
:1046B000BC91B8B1895C5675604F6DA8A56D7B99AA
:1046C0007B5D4D6F7C596389AB8C859C7C5C3442EF
:1046D00070626D91B5AE8FA48F735553756D597F10
:1046E000A8BF959C8E60422A566560789FB79FA8A8
:1046F000BC9C7E6668706670839C92828668604C03
:104700005A63687388A5B5B7A99F82565355535FFE
:1047100076858C927B797C59504C5D66838592B20C
:10472000A2998E8970636D7988968599A49F7F6917
:104730005C4A4F56759C9EA2B1A588706256525A2B
:10474000698589899BAC8B736D6869666F929B964E
:1047500091AC9B765C5346372F63829298A2B192BC
:10476000796C6066526D9CA89C9EB8996853555DA3
:10477000424A8CA88F8BACB1806F6D6C633673B27C
:104780009F8F96BF966256595A3C569FAB9295BCE6
:104790009F655D5C5D424782A29589A4A5694F5AD9
:1047A000765C406DA8A5919FB28F535679734A529B
:1047B00099A99F92A8B2795956654D4986AEAC9E8B
:1047C0009FA480635973593A5A98A98E8FA9986308
:1047D000526D734F5378999985A2A883565A6D4D9F
:1047E000437396AB9F98AF8860566D5D406D9CB5E6
:1047F000AC8EA99F654A6579565C7C9E8F7F929F9F
:104800008E666F7659567B969E9298A28E6D5973DE
:104810005A526D809B96919F926F56685D5273833A
:104820008E8378798273596D7263698599B1A99F76
:10483000928C6D55735C5A7070838F9892917662EA
:10484000767362839196A99E9C958C696F7355606F
:104850006C707C838879726D6870555D8991999BC5
:104860009F8E8678636F664F70767E869192887F82
:104870006D7B7C6C7C8E898286919C857676826647
:10488000627B8C827C8283796369837B73828F896C
:104890008F91998866527069535A73767C838B9C8A
:1048A0008B8091967668808279686D7C7E606C8C56
:1048B0007C6C76827F78768B99887C8E96767586EE
:1048C000887C7579887C6276807270888985868F0D
:1048D0009B9272697F7C7372735F5D5D6C8C7F6D80
:1048E0008696827F7F75797266889279809F8C72B6
:1048F000767886866C7986685A788C797683808219
:10490000767F9295728398837872766F66597F95D9
:104910008989A196888678796F63708B7662797EB3
:104920007873687F7B69697F8C6C769B928E7F7FC2
:104930007C6F667B8978738E998880757065566206
:104940008088838B998C82797B79766873827F7873
:104950008F99918388837566657C7C737C96968538
:104960007672695F66707972707B86836F6D707323
:10497000797F99958F889C927B797F766F5D6C7932
:10498000787C86958972767C7B696C797F7F86A23C
:1049900096857C787C6965838E8C828C8F7B696C34
:1049A000706F606F80807B89A291837973654D53AE
:1049B0007273686992958C7E807E736D788F88861D
:1049C00095A58972737B767372838E8689958C6FB9
:1049D0006D72736263687C787996988375807F7254
:1049E000697283807F8CA499827F7B765C606F790B
:1049F00073687C7B736870737065768E8F88929E07
:104A000099867E7B766F6678867F89999B897F7C85
:104A10007870666C83857C8C8E867273756D62602F
:104A20007B8078838C917C7279806F6672898889AB
:104A30008F988976727362565C79797B8F9B927CB2
:104A400075766F635F868883888F99867F7B7C729B
:104A50006D7E8C868B99958F86887C756369786668
:104A6000666C797B70696F70706D8580858C959CA4
:104A70008B807C72705F737B797B838580727678A4
:104A80007F70788082898C8880727979756D697879
:104A90007983858C8F8F898C897B767F8983888FBA
:104AA00089857C7566625A666C6D728086858380A6
:104AB0007B766C697B7975807F7F7B8985837E7649
:104AC000827978868F8685837E807268767873781F
:104AD00080827C757F73736C6D7F737F8E998E96E9
:104AE00098968B867F86796F797873666F6D696823
:104AF000606C73657C8889727C85867E767C857324
:104B00006D78867B808F888675798C887C82968983
:104B100070828C837B697B7C687382866C737B83F9
:104B20007B73828C7F79858C7E7383858375738597
:104B30007C6675867C6876787C6F697F806F6D8611
:104B4000887C788C8B796C797F73667283797886B0
:104B5000988F83859685767B89857376828C7F7224
:104B60007F82696270756D6C8095867B838F826DA4
:104B70007B8378706F80806D7583826D728682759D
:104B80007C85897C76898E7C727C7E6D6C6D7B7C6D
:104B900072808583727C8E807F8988897C83898CF2
:104BA00075727F7B6D737F867E7F83857C767F8643
:104BB0006D72767B736876726D5F697F787C8B8FA0
:104BC000918686827C79758380787C88897F7C82D7
:104BD0007C6C667076757C7F867C828C897E7C7B23
:104BE0007F738389898980807C726D6C7673728013
:104BF000828382868C7E766F736F6D757F7F8082F5
:104C0000897876737C796D737C807C8689897B79E1
:104C100085867B76837B7678838B7C75797B7376D0
:104C2000858C857C86867570787C79757C88867B9A
:104C300089888072737C726D768E8976757C7E73BE
:104C40006F837F7270808276727C827362798273E6
:104C50006F808E89858F9E8C78797E766273858C45
:104C600078798E897370838365697B836C69828FA1
:104C7000807C898F75707F89826D7B897B696F7F6E
:104C80006F636F83897B86958F706C7C7E70697B88
:104C9000797065838E83788F988373828F82737F18
:104CA000967F797F92826D6F7C7C696F7F7B697262
:104CB00086827370808F79708392837C86867B6610
:104CC0007079705C738883757C85807273857C696C
:104CD00070898C7C828C8B766C838B796F869676D0
:104CE000707F88837283918975839B8972798573BC
:104CF0005F6376765C668B8C7E80928E7368768B33
:104D00007F6F898E796675807C6D7380756D799201
:104D1000806C6D7E796C6F8F988685969579697BAE
:104D20007F736C808E8378898E76626678707580EA
:104D300099918389998060626D625D758F988F9873
:104D40009C86625062605C6D8EA29891A2987C6095
:104D500052594A5273A1A8929BA58E705A636366FA
:104D60007392A999A2A58C5F56554D4676A1B4A918
:104D7000ABAF9E664650422A4D82A2B7BCBBAC8602
:104D80005C4A4F374669828C9BAFA4807256463D81
:104D9000396DA1C2B7C8CE9C6C563D2C24337CB172
:104DA000C2D1E2C196825029214A727F99A8A9A84E
:104DB0008F8870432030627CA1BCC4BFA18F703348
:104DC000243C5A6F89B7CBC1BCB77926040E264064
:104DD0006FB2E2E5D1C8A170363A303C4D7BB5B434
:104DE000ABAFB17C33474C404F8FCBD5AFA9BF9110
:104DF0004A372F1D1C4D9EE2D7C8EAD56F3A2720AF
:104E0000142C86BCAEA5D1D5863A2C401C115FB2BD
:104E1000B49FB4CFA16D5D63553A68A9B49FABD57B
:104E2000B170462A0D072F70BFC2CBEEF8A96D5A9C
:104E30003F211366AFB4ACD1DB924937292423401C
:104E400085A9A5ACD1B87B694F47342C69A8BFC7E9
:104E5000E2DD92683D0D0000378CC4D2EDFFD595A0
:104E6000733604092169B5D1B5C4BF9C826D504722
:104E70003D2775ACA5B2DBC48C60302A2C345F9C16
:104E8000AEB5D4DDAF65430D070647ACF0EBEEEAF7
:104E9000B56639342A17004D8E969CBFBCA5865D39
:104EA0005D43375FA9C1D2D7BFBB865F4A16001AE0
:104EB0006CA5B1D5E5CF832A332A103091CBD8C762
:104EC000D5D2C49C6253210014537C8FBC9C969B0A
:104ED00078765F3D335C697BE2DAC1B8622D0A2FD8
:104EE000377ED2DECAD5B79F8856341C11106DAC00
:104EF000B2E1D5A29C836253503F4A5C66ABD2BB01
:104F0000BCB4793C1A143666AEC5F5A879824D3327
:104F10001D201A4FA9C1F1F4BCCFA4561C243A2677
:104F2000738E8FAB8CA8DBA9683D26002C7695E8A4
:104F3000D7CFD8985D365D5F668BAFC8C2B8AB92ED
:104F4000130000171950B7DEDBB7C5CA8965693C85
:104F50000000569FCADBE4E29F6C5640030439967A
:104F6000B1A5B7D5C1564A3C24195DB8D2E7E8CA05
:104F7000AC6C534C241D3D4983A1C5E8FEDB76652E
:104F80001400001D698CBFC8EBDBAF8E762F0023A9
:104F90006685D7E2DDBC8530101A0A303F869FAFA8
:104FA000DBE7DBA869361D132F66BBEEFAFFE8D8F6
:104FB0007F5310000000539BC2EEFDC86F473A2D8F
:104FC000233482DEEDDBDDCFB262472900103A9850
:104FD000B8AED5E2B780460700001765A5B1FBFE65
:104FE000FFBB80391400005999C2EAFFD79F554092
:104FF000491D112F7095BFF7E88F6C4342272D4F45
:105000008FBEC5FFFEC5A48C5C000000236D8ECF53
:10501000FEDD9678806004004A8F82BCFEFFCAA441
:105020008C551D1C30636C6DC4AF9C8B7C5F3A1338
:1050300000349C9BEEFEFFDE919F390000015F76FD
:10504000B1F4F7F1986D5221000047789FDAF8E447
:10505000AC606F5A1C245C664AB7F8E7E2AE79553B
:105060000000004A75A9FFFEFFDA8C833F000001B3
:10507000427CFEFFE1BF917C75433350785678C87F
:10508000AF9C8FAE8F210011566573E5FEDED7C54C
:10509000B4430000365053BBFFE8DAB86211000099
:1050A000043C5A89E4EEBBD2B5B4835C4A556336FE
:1050B0009FDAC5B18F853A2614004A63B7FFFEFB1D
:1050C000F7BF4C1100001462A2E7F5C1A9BB8C4FD9
:1050D0004D392D195A889FBCA4A59B7C34504F375D
:1050E000526991A5E5DDBFA43A1A0E294DA1FFFB37
:1050F000EAE2B55F140000163452CFCFC1EEE1B83A
:105100007C6243334D52787095D5D1C28F6F601C4D
:10511000000A3A6DC7FBFECB682D2921295D7BAFC4
:10512000BEE2DBB8A1474D36000A4796AEB2CEBF0D
:10513000B2B483B176132D33305CB2DDF8CB753762
:105140003F302F9FC492BBE2BEAC5A20402911527F
:1051500070969CDEE49F7847656049405953498FBB
:10516000E2FECFA49B8F16000D3C638CBBBCA469F0
:10517000558C6F3D688FB1B2D4EEE192213F633C14
:10518000479196764A789FB183A2D76007004A7804
:105190008FBCF7FFB1737C680E134D6C4A6CAFD7B0
:1051A000BC65635D363082C8AB8FA8B5915A3D9817
:1051B000833C3D5F432679EDFED59E92B150100EA3
:1051C000524063DAF1D492838E5606145A9879D4F9
:1051D000FBAC5C47969B69629179654A79A4604F04
:1051E00096AF551D47786D4680F7E2A8CBD8721D63
:1051F000332A394085E5E1966260594763A19F688B
:105200004783AB8072A9C8A4738F7F632F6DC18C55
:1052100082767F6D633D24276076FFFFACC8998F4F
:10522000503D2A2A472F798E767985C8A89C9C8E76
:10523000865F56894F638F9EA56F634A5C603F8F80
:10524000AFA4D2DAAC6F5A472670789CD476ACA85B
:1052500076554A8834465A2683A196AEA59E99EA89
:10526000A96C662F3D4D5286AEA58F8E5A000E7BDF
:105270008FBCC8CEBF8C7C8F9B403C6D5583AB866A
:10528000A1835C928E731C4D5C66635D9CACDEDB1F
:10529000EBC5404760473D408CBC8C7076703A4D02
:1052A000857C7870A1DBA8897E9F75375C47555D4A
:1052B000557C887C7BD2FF9B7F7830134D8EA5B5C3
:1052C000A4B8AE7C164A6F3D5F7CA8B5A19FB1998A
:1052D0004C4795865C668596707B9CAE804F4D37BB
:1052E00034193095B8E7EBE4D8883D5540101A7C66
:1052F000C19FA1B28B4723346C637985D8BC858666
:10530000BEC5686D82892C1D7B92A5BBBFCE763A47
:105310002F110123A9BED5FFEEDBB8562A200E0AB5
:1053200056A8B29580A1B24D27687C594782D7A272
:10533000A8C5D1C84A240E21130E91C2DECEE5FEC7
:10534000992A20240D2183EAF1E1BFD866003A7240
:10535000501953B7A9757FE8FD7C4F5A520703B81F
:10536000E1BCACCEEB5D0A0A16000079BFF7F8CFBE
:10537000FEC52C0426300D69C5FFCE6DBBE840008C
:105380006D6F000086D8B4AFD8FEE55A20475200B2
:1053900016ACAEACB8F7E84A030E370304D2FEE809
:1053A000DDFBDA5D29346F30002FAFA89685FFD47E
:1053B0003039477C0033C8D1EB95D8FE7C2F1A26B4
:1053C000000066DAFBDADBE8A12D0334600963D163
:1053D000EBFEBFFFE2722A002D00007FC8BB79DA26
:1053E000FFCB521D5649002DB1F5D7D2FEDB62002E
:1053F000032D00007CD8BFC2C5FA925A142436008F
:105400005AD5FFE5C1EBA188371C6900006CD5D4E3
:1054100092F8DA8F5F14260A0070FDFFC4A5DD9CA8
:1054200063000019000D69FEFFF4FFEBA51D0040AD
:10543000030462B4C28BC2CBCE83144C370D17B8B1
:10544000FEE8FED4D58B0A0D24230040CEC8DEE74B
:10545000CFC753000A26004AF4FFFEFFCAEEB73A50
:105460001D1900004AABC2B48FB49940194A260EE8
:1054700062CFE4C8E5FEFE8C00000016008CE2FF5F
:10548000F4ACC48F130034420E3FCBFAFFDAF5FAC6
:105490005A131120170775AFAEA298FBC769374A98
:1054A000470052E5FDFFA8B8A50000002D0446D234
:1054B000DDFFBBC2FE9F300000431456C8CFB5705D
:1054C000FED256402F47001483BEFFD1F8FE8C5900
:1054D000014A3D307CEBFFAF8FBB760D0000000032
:1054E0005ADAFFFAD2EDCE9C520E2A39212FABB8F0
:1054F00075C8FEDA6D1D000A100B99EDE5CEEEB40D
:10550000700304626D7563F7FFB8C7A273000033C0
:10551000433C37D5FAB2D8D4FBA542142304003D4E
:10552000C5C7D2E4EBCE47103462212AD1E2DDB503
:10553000A5865606004C4D4091E5DDB57FA5B150DE
:10554000195A5F0439B8BFDAEEFEF5A80B00240043
:10555000005AA2CBEEE5DBBB3A1C80702443BFF1BE
:10556000D19682704611337F6F3C6DA8C2B480F42F
:10557000D54900362D0047D5FEF8C2CFE569230096
:105580000D000070EBFEAFBBD5A55623766C406FC7
:1055900092CA736CCBE492045563374253D1F8C17D
:1055A000CBE2BC14003D000017B8FEC8CEDBC73A02
:1055B00000272D162182FFE888B8F1D4665F9F4945
:1055C00000049BB87579ABBF2C11626D0726E2FE13
:1055D000D2C5FEFFAB07002116006FFFFE7C9BEEDD
:1055E000D1560D4D7000006DC79CB7FFFEA8475205
:1055F000A2490039927553A8FFC269273A5A072F6A
:10560000AFFEC5B7E89959072643240079FEEEC1DD
:10561000D8FDD27B43704300006F997880DAEB9E0F
:10562000665C730E167CBFDBC2FDEBC819005950D7
:10563000173F92D7C5BBD58B7603013300035DDAE4
:10564000FFE1F8E8FE8C49894300006D9F9FDDF57E
:10565000ED7C2F63621D0078DBAFB1ACA99C4336B3
:10566000270D1170E4FFC7CFDEB4761D4F2A00016D
:1056700052A8C8C1DEFEDB6F564F1700216DB1A2E4
:10568000B1D2D78019563F433C99FAD5DAC8A84A17
:105690000009210D3755B2FDF1F8E1FEB52940268C
:1056A00000006DE4D8BBAFE4BF6F2A1600000062B3
:1056B000D2CFDBFBFD70003075665FD5FFD1BF98A0
:1056C000966D0600101D003ACEF1D1A5EAFF9B4A67
:1056D0002637370D50CFEBE8EAEEB14300271A1911
:1056E0004095EBD4CFA88C420046706C7CBBDEB7F3
:1056F000667B8F5907196843247BFBFEF4B1ACDB52
:105700004C013C3D000E82B5E8AC92B583261A757B
:105710006955B7DBCEC596C1AC4200509C3C5ABB24
:10572000A99E435F9C4C2120997F66C4D8FFF0A2BC
:10573000A89F29003C2A004D959CC89BAC953A0730
:105740005FA94073B5C5E7B87C959C3911967B215C
:105750009BB5C1BC3F709B70004386366DB7D8FEC9
:10576000C27E8C683A07554D299CA2D7E58EB8A415
:105770005A135DB12D59A58B834F509876370D7F05
:10578000A44A95B5FFDD9680825A0070A1634989CD
:10579000EBE88C655040092788606082EEFF958CAD
:1057A000A4995D2495A95C6096E4A93F607F66009A
:1057B000069F65638FD4F888668B7F420A6F966276
:1057C00096CFF4BC528C72240137AC605378BFC4BE
:1057D00063A2A480493AB7AF6962B8F3794F6D6D9F
:1057E0004907789C558CC4FFC259693F530A29A2C6
:1057F000796688C5D56D7C916D63368F8C7580C256
:10580000C76D5F837F4D2F4A6F767B86BEA269721C
:105810006D6C4D469CBFBEB8B7D288865F4D5F1A8F
:105820005970664D80B2967F8F758C5C4DB29889A9
:105830006DBEA28F955D66503653887665A2B469B9
:10584000703F4D76425DA1BC9192EACB997B47684F
:105850003423607BA572A9AE8CA176787F49506F06
:10586000A27969AF7F786049665F7096C8C298BCBC
:10587000AEA27C2C624339567C9B5395929F784014
:105880006C6D555A78998E80A8AFC17C42725D5D6F
:105890007392AF928C92826934596655737BA9AC2E
:1058A0009EA5A89F5560655D3C66A59EA27B86B5BA
:1058B0006C4D554D59609BA9A5928EBC8E533F4DA2
:1058C0006D526998A288667EAC724768836C66A840
:1058D000AF9C8289AB791C4372704980B4B29892B4
:1058E000C7AF604F70825669B2BC9C557C9C563ADB
:1058F000497C4C3A8991A2837BDE9E564F767C4D43
:105900008E92BB865DABA25924596D4D6296BEB88E
:10591000729FB27F40398956687C85A57583AB99A3
:10592000695F89895F7C96BB9C66A48F6F4A5A7CAD
:1059300060606098B865859F88504C6D62868883EA
:10594000AF7F6DA48968507570606D69B29E5D7C93
:105950008F8C62667F7F83759C9E8F9CB48C624027
:10596000535D887C7BAC7F707982795D728F958383
:105970005D9899728688836863919282696FA26F3D
:1059800076837372536F6D6C7070A59E837B737595
:105990006D687C7B8C78929879796C83726D969522
:1059A000A288868E69656D8589898873686370822F
:1059B0008C7F8C85736860736F899E898F6F7C88FC
:1059C000767B6D79828C9173757C5D5F607B9F982F
:1059D00088837563606F738B928286898069807F0C
:1059E0007C6F7C8B857C8292856F709886807C78BA
:1059F000695F668B968599987F50525D6C76869B21
:105A0000A97972806F695672868580829F927070C4
:105A1000807F5D69807C5D7086837985AFB17359C5
:105A2000637373709F9E8F7F7C855D505C8C887CD8
:105A300098A29C807B8675605C7C9879788085795B
:105A40006F7C7B764C70806C6389918F91798365D4
:105A5000536F9986768B9F918376696D665F6985B2
:105A60008392B29982797B696C667B8F787395A2F9
:105A70007E807C73535673888F9599A58B6D727C4D
:105A80007050737F7C82899E8F7B7C6D66596062CB
:105A90007088929282868C6F63625665798292AB2F
:105AA000B192887C726C6D7586858999867C838BB2
:105AB00069505C6972706382A59B8999A48C6F6D33
:105AC000755D50789C987F8B8C5F4A5C797C5C8993
:105AD000A89E896F9C7B605F6385605F8692807EF5
