:1000000068250020B50E0000AF0E0000B10E000004
:1000100000000000000000000000000000000000E0
:10002000000000000000000000000000AD0E000015
:100030000000000000000000AD0E0000890C000070
:10004000AD0E0000AD0E0000AD0E0000AD0E0000C4
:10005000AD0E0000AD0E0000AD0E0000AD0E0000B4
:10006000AD0E0000AD0E0000AD0E0000A10A0000B4
:10007000AD0E0000AD0E0000AD0E0000AD0E000094
:10008000AD0E0000AD0E0000AD0E0000690D0000C9
:10009000AD0E00000000000000000000F9070000A5
:1000A000AD0E0000AD0E0000AD0E0000AD0E000064
:1000B00010B5064C2378002B07D1054B002B02D03E
:1000C000044800E000BF0123237010BD3404002069
:1000D00000000000EC530300084B10B5002B03D0C8
:1000E0000749084800E000BF07480368002B00D11B
:1000F00010BD064B002BFBD09847F9E7000000002D
:1001000038040020EC530300EC530300000000000F
:10011000F0B5654E85B0F38832880020934201D84F
:10012000D01A80B272880024934201D8D41AA4B2A3
:100130000022B7880092BB4202D8FF1ABAB20092DE
:1001400032890025934201D8D51AADB2642729001F
:10015000564B3581784398476B4602901B892000A7
:1001600001936B469B882900338078434F4B984717
:1001700083B203936B4604009B8900987380784395
:100180004A4B290098470623B080C72D18D9029BF7
:10019000A1B21A04019B00048B4216D9C30B110CA7
:1001A0008B4212DA424A1378012B0CD15368013387
:1001B0000121536050680B00052801D811700533E8
:1001C000180005B0F0BD0023F2E7000C4100120C4E
:1001D0002404914218DA03234343260CB34213DA72
:1001E000C8235B009D420FD9314A1378052B09D1F2
:1001F000536801335360052351689942E0D8137066
:100200000133DDE70023F5E703235343240CA34226
:1002100015DAA14213DA9023FF339D420FD8244A06
:100220001378022B09D153680133536051680223BC
:100230000529C5D813700433C2E70023F5E756003B
:10024000864213DA83006700BB420FDD184A137839
:10025000032B09D1536801335360516803230529E7
:10026000AED81370DB18ABE70023F5E70623914205
:10027000A6DD8642A4DD9200A242A1DD9622920074
:1002800095429DD90A4A1378042B0AD15368013349
:10029000536051680423052900D991E71370023394
:1002A0008EE70023F4E7C046A80400207512000082
:1002B00058040020F8B52C4D2C4B29882C4A994223
:1002C00001D9002393602B88D16800208B4229D06C
:1002D000802680272B889168D360B603254B3F0288
:1002E000052939D80800340000F0BAFF36030B1D89
:1002F0002830214806882148C6805C6140209861EA
:1003000018E01D4806881D48068040209C619861C1
:100310008020000258610020052922D1184B288036
:1003200090609847F8BD14480688144846804020DD
:100330009C615861802000029861ECE70E480688B5
:100340000E48868040205C615861E1E70A480688D3
:100350000A4806819C61D1E740209E6198619F61B7
:10036000D9E701319160DDE7500400200F2700003C
:10037000580400200044004154040020A804002038
:1003800011010000104B30B5186801230F49400AD5
:1003900018400F4A0870126A4D7812091A400D4C25
:1003A000AA420AD0C8225B1B4B700B4B22701B78F1
:1003B0000130002B00D0002030BD2378DBB2002BB1
:1003C000F9D18B700320F7E7A0440041B20400206C
:1003D000004400410200002052040020C822014BCA
:1003E0001A70704752040020C822014B1A707047DF
:1003F0000200002030B5084C0300226B1030C240D0
:10040000012500202A4205D1280009021C33090ACF
:100410009B00195130BDC0460020004210B5054B6D
:100420009847054C00210320A04700210220A04747
:1004300010BDC046150E0000F50300000C4B70B552
:1004400004000D009870D970012807D10021032005
:10045000084CA04729000220A04770BD0028FCD10D
:10046000044D0320A84721000220A847F5E7C04615
:10047000B5040020F503000010B50B4B9878012857
:100480000ED1DB78962B09D0C82B03D0002B04D1DA
:10049000962100E0FF21054B984710BDC821FAE7DF
:1004A00096210120F7E7C046B50400203D04000076
:1004B00010B596210020014B984710BD3D04000067
:1004C00010B500210120014B984710BD3D040000EC
:1004D00010B50A4BDA78C82A0CD0FF2A04D0962A25
:1004E00007D1074B984704E00220C8211856054B56
:1004F000984710BD022096211856F8E7B504002051
:10050000C10400003D040000014B98787047C046CC
:10051000B504002030B5074D03002A6B1030C240EF
:1005200001240020224203D120001C339B0059519A
:1005300030BDC0460028004210B5074B0020984748
:100540000021064C0800A04700210120A047044BD1
:100550009847044B984710BDF90C000015050000A2
:10056000B90D0000E10C000070B50D000400054B52
:1005700010009847E9000020034DA847E100012042
:10058000A84770BDF90C000015050000013810B532
:100590000E4B042817D800F063FE03070C1013005D
:1005A00000221100FF2002E00022FF2110009847E6
:1005B00010BDFF2200210800F9E7FF221100FAE731
:1005C0000022C821EEE70022F8E7C04669050000D6
:1005D0000122014B1A70704768040020054B10B5CA
:1005E0009847054B0122002801D05A7010BD9A701F
:1005F000FCE7C046350A00006804002010B5002161
:100600000548064B984700210548064B98470A21A4
:100610000548064B984710BDD1050000450A00006B
:10062000DD050000950A0000BE040020510A00000C
:1006300002003038C0B2092806D91300613B0020FF
:10064000052B01D8573AD0B270470000F7B5002605
:10065000254B9A78B24221D0244D9E700A21280061
:10066000234B9847234C29000A22234B200098470C
:100670000A2231002800214B984728000A21204BEC
:1006800098476578322D0BD0332D0FD0312D05D101
:10069000E0791C4B98471C4BD8702E003000FEBDF3
:1006A000E079184B9847184B1871F6E7A078154E6B
:1006B000B0470190E078B047019B134F1B01C01871
:1006C00038702079B04701906079B047019B1B01D9
:1006D000C0187870A079B0470190E079B047019BCD
:1006E0001B01C018B870D8E768040020BE040020C1
:1006F000090C0000C8040020951400001915000022
:10070000510A000031060000B904002001230360F3
:10071000054B43608360C360036143618361C361D0
:10072000036243627047C0461E7E00000122184BE0
:100730001A705A7E52B2002AFBDB164A1168164A1A
:1007400048011268D20E02430720084040010243CC
:10075000E0204901C000D2B201400A431A850422B8
:10076000DA70033A5A700D4A1A615A7E52B2002A60
:10077000FBDB0B4A9A805A7E52B2002AFBDB0F2227
:100780001A760E3ADA755A7E52B2002AFBDB7047AF
:1007900000400042246080002060800002180000B9
:1007A000240400000222044B19780A431A705A7E6E
:1007B00052B2002AFBDB704700400042064B10B5E6
:1007C0001A69064C08432240104318615A7E52B2FF
:1007D000002AFBDB10BDC04600400042E0E0FFFF06
:1007E000014B588B80B2704700400042014B03C35D
:1007F0007047C046D4040020012210B5054B187E76
:100800001A76054AC0B21368002B01D05168984788
:1008100010BDC04600400042D404002000228021C8
:100820001D4B9A619A8C8A439A841022D96811428E
:10083000FCD01A4A1168890E3F2900D12039184A84
:10084000890212689205920D0A439A621022D968B1
:100850001142FCD002229A840E32D9681142FCD097
:10086000104A11495160517849B20029FBDB0F4908
:1008700051800F4951800F4951800F4951800F49D4
:1008800051800F4951800F4951800F490F4A116221
:1008900000221A627047C0460008004024608000B1
:1008A00028608000000C0040000701001440000098
:1008B000164000001A4000001B4000001C400000D1
:1008C0001E40000021400000141D050000040040EF
:1008D0004122054B5A7000229A7002321A70DA795E
:1008E000002AFCD17047C046004800428005034BF7
:1008F000800D1881DA79002AFCD170470048004247
:1009000070470000BFF35F8F62B6C220C0210F4B5B
:1009100080001A5809061202120A0A431A5080224D
:1009200012011A6008301A581202120A0A431A50A9
:10093000802212031A6004301A581202120A11435C
:100940008022120419501A607047C04600E100E08E
:100950008222014B5A60704700400041164B174AF3
:10096000190010B502201A601A61012242311C00E0
:100970000A708870002146342170A270E2702271E2
:1009800062716172A272E27222736273A273E17386
:100990001900332431310A70CC70113C0C712234AF
:1009A000CC7110340C724F3C4C72B43397310A70D6
:1009B00048701A7010BDC0460044004140802000BD
:1009C0000722074B598B114206D0802119765A8392
:1009D000033A197E114200D17047198DF9E7C046DC
:1009E00000100042104A114B1360D2235B429381E6
:1009F000C0239B025360D369002BFCD111680233E2
:100A00000B431360D369002BFCD1094A11002C3130
:100A1000136293610B70D36193605362137513601B
:100A20005360D360D3857047001000420401124028
:100A30006C0400200022024BD88DDA8580B270470A
:100A40006C040020014BD860196170476C040020D1
:100A5000F7B506000191041E13D00B4D00242F00A2
:100A60002C373B78A3420CD1084B9847019B84213B
:100A7000EB6101232C623B70EC851C00044AAE61E3
:100A800091752000FEBDC0466C040020C109000025
:100A900000100042014B5862996270476C040020BC
:100AA000F8B54A4CA37D002B2BD0237EA27DDBB270
:100AB00052B2002A15DA5BB2002B12DA0722638BDE
:100AC00013400ED0424DEB85424B9847842323754B
:100AD0002B0000222C331A706B6A934201D0A86A53
:100AE00098470120237EA27DDBB2024201D003425F
:100AF00025D10422237EA17DDBB2114201D0134215
:100B00003DD1F8BD62683A40012A0BD09A68511C69
:100B10009960B25C22859A68217EAA429241014086
:100B2000524219E09A68511C52009960925BF1E7B9
:100B30001A6A551C1D629D695200515335E0244BC1
:100B40001A7D002AD5D09A685D680727AA4292418B
:100B5000217E1E6852420140002901D0002AD1D1D5
:100B60009A6859688A42C4D300221A755A600132C1
:100B70002275DA68002ABCD018699047B9E7144B8F
:100B80001A002C321278002ABBD01A6AD869824225
:100B9000B7D20725218D626889B22A40012AC7D0C1
:100BA0001A6A551C1D629D69A9541A6A9042A8D1FF
:100BB000190000222C310A70DA61843222755A6AD7
:100BC000002A9ED0986A90479BE7C04600100042DA
:100BD0006C040020C1090000094B0A4A1A60D222A5
:100BE00052429A81C02292025A60DA69002AFCD1EC
:100BF000196802320A431A60DA69002AFCD1704788
:100C0000000800420401314030B5031E05D0012424
:100C100007250B4A002902D10123180030BD0139F4
:100C2000137E2342FCD053682B40012B03D0037862
:100C300001301385EEE7038802301385EAE7C046EA
:100C4000000800420023054A054913609360516083
:100C500006211160034A93601360704710E000E0C2
:100C60007FBB00009C0400200022034B9A6019689F
:100C700001320A431A60704710E000E0014B03C3E1
:100C80007047C0469C040020064B10B51B68064BFD
:100C90009A6801329A601A68002A01D05868904711
:100CA00010BDC04610E000E09C04002001220A4B69
:100CB0001A80DA7B52B2002AFBDB084A00211A8034
:100CC000FF221A7519765A76C43A9A73DA7B52B2B1
:100CD000002AFBDB7047C046002C004244050000A0
:100CE0000222044B19880A431A80DA7B52B2002A86
:100CF000FBDB7047002C0042034B1876DA7B52B2C4
:100D0000002AFBDB7047C046002C004201220B4B3F
:100D10001A80DA7B52B2002AFBDBAC22D2001A80A6
:100D20005D2200211A83223A9A73054A116001223A
:100D30005A73DA7B52B2002AFBDB70470030004264
:100D4000DC0400200222044B19880A431A80DA7B53
:100D500052B2002AFBDB704700300042014B03C354
:100D60007047C046DC0400203B2210B5054B987B41
:100D70009A73054AC0B21368002B01D05168984796
:100D800010BDC04600300042DC0400200121094BA8
:100D900019609A680A40FCD1C021890019600221BB
:100DA000D9635A649A64FF22D2001A649A68002AAE
:100DB000FCD17047002800420222044B19681143FD
:100DC000196099681142FCD17047C0460028004262
:100DD00001210D4B19609A680A40FCD1C02189009D
:100DE00019605A6158690949014359610849D96331
:100DF0005A649A64DA641A65FF22D2001A649A6807
:100E0000002AFCD17047C04600200042000F40403D
:100E1000020000040222044B19681143196099680A
:100E20001142FCD17047C046002000420622104B00
:100E300010B55A600F4B98470F4B98470F4B984788
:100E40000F4B98470F4B98470F4B98470F4B9847BE
:100E50000F4B98470F4B98470F4B98470F4B9847AE
:100E60000F4B98470F4B98470F4B984710BDC04604
:100E7000004000415D0900001D080000510900000C
:100E8000E509000001090000D90B0000450C000035
:100E90002D070000AD0C0000D10800000D0D000072
:100EA0008D0D0000D10D000005090000FEE7FEE7F2
:100EB000FEE700001648174970B5884204D00023A9
:100EC000154CCA18A2421CD30021144B144A934259
:100ED0001BD3FF21134B144A8B4393600222134B05
:100EE0005A62134B0832DA70124B20329A73802305
:100EF000114A51680B435360104B9847104B984769
:100F0000FEE7C55804331560DBE702C3DFE7C046E0
:100F1000EC530300000000203404002034040020BF
:100F2000640500200000000000ED00E0FC700041BE
:100F30000050004100480041004000414D140000B5
:100F4000B10F000010B5024B9847024B188010BD3E
:100F5000E107000054040020104A1378002B03D04E
:100F60001378013BDBB213700D4A1378002B03D0CA
:100F70001378013BDBB213700A4A0B4B118899427C
:100F800003D8138801339BB21380084A1388002BBF
:100F900003D01388013B9BB21380704702000020EE
:100FA0005204002050040020A7610000000000202F
:100FB000F8B500205E4B984700215E485E4B98478D
:100FC0005E4B984700215E485E4B98475E4B9847C2
:100FD000C0210026490102205C4B98475C4B984792
:100FE0005C4B98475C4B98475C4B984737005C4B91
:100FF0009847322826D0332829D031280BD1594B95
:10100000D878032807D8584C00F02AF90214181A87
:10101000564B9847A047564B98470300022839D0B3
:10102000032843D0012826D1524A9078012815D0B0
:10103000937020E0504B9847504BEAE7504BE8E75D
:10104000504BF8E7474B18794F4B9847E3E7454B30
:101050009A78597818784D4B9847DCE74C4BDA78FA
:10106000002A03D196214B4B984704E09B78002B34
:1010700001D13E4B9847484B9847051EB7D00628EC
:1010800019D17C1CE4B20025322F2AD83500032D5B
:1010900027D12FE0374A91780229C9D13C4BD87823
:1010A0000028DFD09B78012BE5D1E2E7384BDB78D5
:1010B000002BE0D0DDE7864226D0384B9847384AEF
:1010C000384B681E1A8004282FD8274C00F0C8F827
:1010D00018030C181A00284B9847284B9847A0472C
:1010E00000242E00270082E7264B9847234B984781
:1010F000A04700242C4B984703250028F1D1EFE7A7
:101100001A4BEBE71E4BE9E70024042EBFD1254C18
:101110002388002B07D1184B9847184B9847124B40
:1011200098471F4B23803500DAE70024AFE7C0461D
:101130002D0E0000590F00007D0C0000690C00000E
:10114000450F0000ED070000A5070000BD070000E7
:10115000390500001D040000FD050000D911000044
:101160004D060000B9040020DD030000C1040000AA
:1011700085030000B204002079040000E9030000A8
:10118000D1040000B104000039120000690500001C
:10119000B50400203D040000B50200008D050000EC
:1011A00088130000000000200905000010B5084C5D
:1011B000A26863689A4209D823685A1C226018788A
:1011C000044B80009847A3680133A36010BDC0465C
:1011D0000C050020ED08000070B500210E480F4BF3
:1011E00098470F4B98470F4C0F4B104D236063608F
:1011F000A360E36023616361A361E36123626362CF
:1012000028000B4B98470B4B62681A606A685A605B
:1012100000229A6070BDC046AD1100005D0D000057
:10122000450D0000E4040020C7550000180500200B
:101230000D0700000C050020092809D8054B800087
:10124000C258054B1A60054A82585A6000229A60BB
:101250007047C046E40400200C050020180500205B
:1012600002B4714649084900095C49008E4402BC39
:101270007047C04603460B437FD4002243088B428D
:1012800074D303098B425FD3030A8B4244D3030B0D
:101290008B4228D3030C8B420DD3FF22090212BAD2
:1012A000030C8B4202D31212090265D0030B8B424E
:1012B00019D300E0090AC30B8B4201D3CB03C01A38
:1012C0005241830B8B4201D38B03C01A5241430B13
:1012D0008B4201D34B03C01A5241030B8B4201D303
:1012E0000B03C01A5241C30A8B4201D3CB02C01A6E
:1012F0005241830A8B4201D38B02C01A5241430AE6
:101300008B4201D34B02C01A5241030A8B4201D3D4
:101310000B02C01A5241CDD2C3098B4201D3CB017B
:10132000C01A524183098B4201D38B01C01A52412A
:1013300043098B4201D34B01C01A524103098B422E
:1013400001D30B01C01A5241C3088B4201D3CB0019
:10135000C01A524183088B4201D38B00C01A5241FC
:1013600043088B4201D34B00C01A5241411A00D2AC
:1013700001465241104670475DE0CA0F00D0494215
:10138000031000D34042534000229C4603098B4285
:101390002DD3030A8B4212D3FC22890112BA030A0D
:1013A0008B420CD3890192118B4208D3890192118F
:1013B0008B4204D389013AD0921100E08909C30914
:1013C0008B4201D3CB01C01A524183098B4201D316
:1013D0008B01C01A524143098B4201D34B01C01A01
:1013E000524103098B4201D30B01C01A5241C30879
:1013F0008B4201D3CB00C01A524183088B4201D3E8
:101400008B00C01A5241D9D243088B4201D34B0002
:10141000C01A5241411A00D20146634652415B1044
:10142000104601D34042002B00D549427047634625
:101430005B1000D3404201B5002000F005F802BD6A
:101440000029F8D016E770477047C04670B50D4EBA
:101450000D4D0024AD1BAD1005D0A300F358013491
:101460009847A542F9D133F0AFFF084E084D00244C
:10147000AD1BAD1005D0A300F35801349847A54229
:10148000F9D170BDD4530300D4530300D4530300E7
:10149000DC530300F0B505000F2A2FD90B000343DE
:1014A0009B0734D116000C000300103E35090135AE
:1014B0002D01451927681F6067685F60A7689F60F6
:1014C000E7681034DF6010339D42F3D10F239E4351
:1014D0001036851989191340032B1AD91E1F0023B2
:1014E000B4080134A400CF58EF500433A342FAD11A
:1014F0000324A643331D2240C918ED18002A05D045
:101500000023CC5CEC5401339342FAD1F0BD0500CA
:10151000F6E71A00F2E7C046F0B5830743D0541E41
:10152000002A3FD0CEB20200032502E01A00013C9F
:1015300038D3531C16702B42F8D1032C2AD9FF2222
:101540000A40150215432A0415430F2C14D927000D
:101550001A00103F3E09013636019E19156055608C
:101560009560D56010329642F8D10F22974310371C
:10157000DB191440032C0DD91A00271FBE080136B1
:10158000B6009E1920C2B242FCD103229743043711
:10159000DB191440002C05D0C9B21C191970013395
:1015A0009C42FBD1F0BD14000300C6E7034B10B50D
:1015B000002B02D0024800F005F810BD000000002A
:1015C000D515000010B5010000230022002000F016
:1015D0001FF810BD70B5094B094CE41AA41009D0CE
:1015E000084AA518AD00ED182B68013C9847043D4A
:1015F000002CF9D133F0F2FE70BDC046E853030071
:10160000EC530300FFFFFF3F7047C0467047C046E2
:10161000F0B54E464546DE465746E0B5364D83B0FA
:101620000600286898460F009146FFF7EDFF334B00
:101630001C68A4235B00E058002852D043681F2B8D
:1016400013DC5A1C0192002E28D1019A02339B0010
:1016500042601F502868FFF7D9FF002003B03CBC50
:1016600090469946A246AB46F0BD254B002B3DD097
:10167000C820400000E000BF002837D0A42200238B
:101680005200A15843600160A050403283500432A0
:101690008350013301930023002ED6D09A00924646
:1016A00082444A46882154466250C42252009146E0
:1016B00081444A468739994012688B460A439446CA
:1016C0004A4661461160842241465200A150022ED2
:1016D000BBD102005C468D32FF3211680C431460AE
:1016E000B3E720004D30FF30E050A7E72868FFF750
:1016F0008DFF01204042B1E730040020C4530300B5
:101700000000000000524946461A12000057415698
:1017100045666D74201000000001000100401F00AC
:1017200000401F00000100080064617461F61100B0
:101730000080808080808080808080808080808029
:10174000807F807F807F808080808080808080809C
:101750007F80807F807F807F807F807F807F807F91
:10176000807F807F80524946461A120000574156BA
:1017700045666D74201000000001000100401F004C
:1017800000401F00000100080064617461F6110050
:1017900000808080808080808080808080808080C9
:1017A000807F807F807F808080808080808080803C
:1017B0007F80807F807F807F807F807F807F807F31
:1017C000807F807F80524946461A1200005741565A
:1017D00045666D74201000000001000100401F00EC
:1017E00000401F00000100080064617461F61100F0
:1017F0000080808080808080808080808080808069
:10180000807F807F807F80808080808080808080DB
:101810007F80807F807F807F807F807F807F807FD0
:10182000807F807F8052494646121D0000574156F6
:1018300045666D74201000000001000100401F008B
:1018400000401F00000100080064617461ED1C008D
:1018500000AAC0693952B3EBBF51103191CBA65ADF
:101860003D74C9E196320F4DAACC9651488BD5D222
:1018700077170C60C4DB974D468BD3C4630D137987
:10188000DFE38D3B4093D6B54C03289FF8D96E24F7
:1018900043A8DEA634003FC0FDCA54184CB2DD9701
:1018A0002A0453CEFEBF4C164CADD695321057CD00
:1018B000FEC553113899D2A84C1B4EBBFED35F090D
:1018C0001D81D6C66C2339A1F6E4710B086AD7E2F4
:1018D000892B2588EDF5820C0251D4FEAC3E1368AD
:1018E000D4F7981C003CC3FFD25C103BA3EBBC4E6A
:1018F000011D96F8F693220A60C7E491280359D98E
:10190000FFCA46001D98F2D2640D289EFBED7A09AD
:101910000559D6F6AF42124BB8F2C253011B89EFFC
:10192000F194260C58CAF1B1400435A8F6DA7114C6
:101930001877DCEE9F33043CB0F5D670191D7CD9C6
:10194000E49328034AC3FED8670B1072D4E39D3A90
:10195000164FBAF3CD640B0A69D5F7B94D10349D13
:10196000E4D4791A0C5FCEF8C85D0B1A7AD8E6A2D7
:101970003B0A3EADF2DC7C16055AC7F5C55F0E1D6D
:101980007ED9ECAB41032896EDEF9B29003CB3F9DF
:10199000DE76110663D2F7C258081477D8F5BF5720
:1019A000051275DCF9BC43011B99F6FC9F1E002A49
:1019B000ADFCF498240039A8EADF8D24003DB9FA83
:1019C000F98F0F002BB5FEF690120246C7FBE072AE
:1019D0000B0142C1FCFB9F1D0022A4FAF7981800DE
:1019E00036C5FCFD920A0014A2FCFCC2450112841B
:1019F000E5F9B83803058BFEFCE04A010055D9FE35
:101A0000E782150250C5FBE681080120B9FEFDC53D
:101A10002B030378E8FDCE61070968D9FDE7790358
:101A20000220B7FEFEBF35030778DFF6C96A0F0252
:101A300050C4FCFAA221020484FAFBD55F07045AC1
:101A4000C7EFD58D35001C82E8FCE67B0A0028A88C
:101A5000FBF5B048081D81D2E2BD7C2D00288CE545
:101A6000FDE28214002599EBEDBB6018196BBBD722
:101A7000C7974B091269C5F5EFAC3F010B69C5E18A
:101A8000D49847123784C5D7C8852700288EE1FB34
:101A9000E28E2900196FBAE2E4AA4A0C2674BEDF6E
:101AA000CF862900308CD9F4DF9634010956B1ED88
:101AB000FECA620B0345A0DEE8B75C100D58ADE925
:101AC000EEC3650C002385E0FBFCAB35020347B396
:101AD000F8FCCE5D050343A4E2ECC6741E00257C31
:101AE000CFFCFBB83801003ABBFDFCE16B030119E8
:101AF0007DCEF7F6BC550303309CF4FEEC79020171
:101B00000986F0FCFBAE3D01022694F3FEFDAE1CFF
:101B1000000039C2FEFDEF7906010251C0FBFDED68
:101B2000750103016FE6FDFBBF4701011C84E3FD66
:101B3000FBBF4801001191FDFCFEA527000128A66E
:101B4000FBFEF8AB4203001074E6FCFECA4F000235
:101B50000586F8FDFAB1500C00145DBAFAFCE98A6A
:101B600018010040C0FEFCE6802400032B8CDFFE41
:101B7000FACF690900024AC8FCFEE68B2C0201225A
:101B800082DCFDFBD16E0F00034ABFFAFEE08F340A
:101B90000301287ED5FCFBCB721B000342B7F9FF83
:101BA000E6943504002173CCFAFDD8903702011871
:101BB0007CE4FDFCCD6C170002369CE7FFF8C169A0
:101BC0001F00043297E4FFF9CB630B000343BEFA16
:101BD000FFF19A3304001D6CC6F5FFDDA048050037
:101BE000095ECDFBFFE6871F0100288CE5FCFDC8E0
:101BF0007C2E00011F77D4FEFCE57A13000229AA8F
:101C0000FBFFF8B54905000449B8F9FFF8AD3C04FD
:101C1000000769E1FAFFD2751C0201398AD1F4F19B
:101C2000CB893F02011378DFFEFBD7620400024735
:101C3000BBFAFEEAA2481300124DA9E7FFF2BB5A15
:101C40000A000348C0FCFEFA981F0000209CFCFD1F
:101C5000FBAE4C0F001D58A5DBF0DDB26520000A7D
:101C60004FB7FAFEE68B270201359FEFFEE7A3513F
:101C70001C09255BA3D5E9DCB4691B000652BBFB3C
:101C8000FDED8A1A000136ADFCFDF1993504022DF7
:101C900085D7F8EAB77129020D54A9E8F6DA964318
:101CA0000602328CDBFDF0B15A12001567BDF6FC5E
:101CB000D98A3001032F96EBFDFBB74C03010D7859
:101CC000E1FBFBC4580200117ADAFCF4B15D1501A6
:101CD0002A79BFE4DEB9783204115AB4F6FCD47420
:101CE00017000A63C5F6F7C6813709093D8DD9FD8E
:101CF000F6B44802012196F9FDFA972001024ABC88
:101D0000FBFCDD7D17010350BEFAFCE07C0F0101F6
:101D10004FC8FDFDE56C01020276EEFDFBAE3B0215
:101D200002359EEBFEE59730010347BAFBFCDB78FA
:101D30001002025BC8FCFBDF730302026FE0FCFBD6
:101D4000B33E030246AAE6F3CD7F25001C74CDFD09
:101D5000F2AD4003023FA8F3FDE68C1D01035DCF09
:101D6000FBFCB94103034FB3E5EBC37823002576B1
:101D7000CCFCF9AD3301034DBFFBFBD66102021F62
:101D80008EE6FEED9024001A70C2E8E4A44C0F1C0D
:101D90005BA3D3E2B7641B18559FD4DBAB55162762
:101DA00072BAD4C4914A1F2B69A6D7E5C0620A0251
:101DB00040A8F3F9B7521426699CB3BAAC7A4332FF
:101DC000568FC5D5A74D153283C2D0B77F3F234666
:101DD0008AC3D7BF731E0A4EAEDED8AB65281E4D30
:101DE00088B9DBD084271555A5CBBA7E3D3370B7B3
:101DF000C3AD885A272463B9EBE7A63D001376D21A
:101E0000E7CB8A3D183B85BDD5C076221562BCE084
:101E1000C0772D1D5FB6D9C08B49132579D5F9DB65
:101E2000841B002392E9F3C66B1F1A63ABCBB1731B
:101E3000312D77D0EBBE620E013FB5FCFABF4B03EC
:101E40000352C9FDE689230A55B1D8BC742E1F621E
:101E5000BEECD58720001E9FFDFCC83F020469DD53
:101E6000FDD370211C69B6D0B2681A1D75E3FCD38E
:101E70005802024CDCFDFB8F14002B9EE7E69F36D8
:101E80000F49B3ECD3710D0253D8FDEE790502363C
:101E9000B7FCF2982B003BA8ECDA7D1A0761D3FE61
:101EA000CA5904096BDEFCCC5E080B66CFF6C65E31
:101EB0000C1A7FDEEFA3360139ADF7E27C1703522F
:101EC000C0F6D0701B1768C3E5B456163090E1E336
:101ED000942B0544B3F0D6741C196CCAE1A64918BA
:101EE00044A5E2CE7920125EC6F2C46114207DD0F2
:101EF000DB953C1F5EBFE5B147062A9DF4EA8A21C7
:101F00000954BDE4B559234097D2C276302972CA2C
:101F1000E4A7400730A4F9E880150863CFE89B37B1
:101F20001A65CEEEA231003CB2FAD267162584DBE8
:101F3000DD8A2C0E52BEF2C35817399EE1BC5207FF
:101F40002AA6F9F577040663E3F5992B1A71D7E60B
:101F50008C220A5ED0F5AC3C0942B5F8CD5C0A1F74
:101F600087E2DA7D272B8AE5DC6C090779F3F89A9A
:101F70001C0260D8EF8B1B0C7AECF9840F026CEE1C
:101F8000FA99160259D9FA9A2E1875DBE2700C08E4
:101F900083F6F99210045CD9F0912B247FDCD06891
:101FA000132C9CF7D759011E9DFCE26B102790DA89
:101FB000B959285CBDE2972D0C5CD2F9A5331059B4
:101FC000C2DA903C3583D2C2631B39A2ECC15514EE
:101FD0003FACE6B24C1F58BAD48D363184D8C868AD
:101FE0001D3596DDB95D2C59B3CE88343183D6C703
:101FF00069223C9DDFB6542453ADC88D484B8EC634
:10200000A44F2A60BFDE92332373D1CF773042943E
:10201000CA9F4F3674C5C5732E4398D0A74D2D6601
:10202000C0CF863C3E80B69C5F5187C0AC582450E0
:10203000B0DCA0402D74C4BF6F3655A5C6893C42A4
:1020400094D2AD4D2762C1D17D2F3E9BD7A5462CA2
:1020500072CAC3672B52AFD58F333189D8B9572A8B
:102060005EB5C37B3E52A2C48A3F448FC8A04F399D
:102070007AC5B7602B5CB9D07D2B3B9EE1B2491E7F
:102080005DB9C8824D6098A06A4A72B8C2732A3E90
:102090009FE0AD482465BEC17948659FA263427048
:1020A000C1CD78223298DEB4512B67B6BA78496533
:1020B0009FA56D4B70ADB271425CA5BD82414C983D
:1020C000C29449448BC9A9502B65BCCA81414D8E2D
:1020D000AD8C666C9192664E78BFC474243495DFE3
:1020E000BA58295EAFBD814E60919C755F7DAEA3ED
:1020F0005F3662B2C9883C418FC9A5563C6EACA719
:1021000073587BA7985C4774B2AD6D476AAEB978D7
:10211000384795C19B5B5487AA8D56508BBB9C5208
:102120003E76BDBC77405491A8815F77A5A3693DF9
:102130005AAACD9541357ABDAE6E4C6EA19C6753BF
:102140007EB4A55C315FBADA953D2E6FB1AB7C658C
:102150007C947E5965A0C18F3B2974D4DB7F2938DC
:1021600091C79E53417AB4AA6F5372A09362527E74
:10217000B0A369496FAEB670354EA4CA93443D8A88
:10218000CEB5592557B2C884434E97C39955457566
:10219000A592656295BC96462F71C8CD74283B9C6C
:1021A000D9AE52326BB4B46D3E60A7BC8550569127
:1021B000AE8651528EBC9C57447BB9AF673C5CA63F
:1021C000BA7D4256A8D69E381964C9D67F384BA02E
:1021D000C9913B3181D3C3622550B1D69544397A38
:1021E000B9A6614275BEBC71354B96BE91534F8CFA
:1021F000C4A6532B5EB5CF8E413F82BBA05F4C83FC
:10220000BFAC521B49BAF5B8481952ACBF824A5DFF
:10221000A9C88A332A7ED5CE71294098CEA3513CD5
:1022200078C1B6632C51AAD299473D7EC3B15A27D3
:1022300052B7E5A43E2165BEC57A3C54A1C5913E86
:10224000327CD3D275202F8CD6B9633A64ADBD7C75
:10225000323C8FDAC56524459CCFA451376EB9C591
:102260007B333E91D9BE5D1D3E9EDFB85E3056A6E3
:10227000BF8643448ED0BD60203A9BE2C3652843AD
:1022800093C29B5D5082BCB266232E86DDE09142F4
:1022900033669E9E6F5775B9D498390D3FA8E8C430
:1022A0006B37539DB6823C3885DEDC7C1E1E79D1AF
:1022B000C976384D9FD1A2451950BCEFB7531F4680
:1022C00099C3A15D446EB4CB903D2055B4DDAB57AE
:1022D000305DAFCB8D341D6DD7EF982E1664C6D50B
:1022E000842F2F88E2D87215177ADEE38D3126729B
:1022F000C5C97F343281D7DA831F1066D6F1A03189
:10230000125ECAE5932C1569D6ED98290F60D1EFBE
:102310009B2B0654CBFDBD430434A7EDC357123DA0
:10232000AFF9CC50001B92F6EB801B1A76D7DB81FD
:10233000241B74DDF29C280046C1FEC954062A9B6A
:10234000EBD16211259AF7EB73070465E4FCB13B0E
:102350000D4AB2E3AF490D37A6FAEA7F130258C916
:10236000EEAB431855C2F3B53F00219DFCED8B2128
:10237000115DC1DDA5481C47A9EAD171160D65D4D0
:10238000F8B84708309CE5D176272879CFD9963818
:102390001040AAF2E48720014AB7EDC3601D379AC6
:1023A000E1D0751A0D5ECCF8CD69171468C4E4B39A
:1023B0005214349BE8E1871E0150C4FACF640E1614
:1023C00075D8EDB147052691E8EC9E31033BAAEDA7
:1023D000D982211059C0EBC868131170D7FCC24ACA
:1023E000020E80EEFCB944002384D6DEA7491437E0
:1023F0009DE9ED931B002BB8FCFC9612002CA9F272
:10240000E696351248A7E0D5821B0047CEFDF77748
:10241000010136D1FDFD9417002596E8F1AF420485
:102420002F9DEBEB921B0033BEFDFC9B1701109719
:10243000FBFDCE50030462E0FDE86A040355D4FDC1
:10244000E1750D0351C5FAE288170031B1FDFBB10A
:102450002A030582F4FCD861060453C7FEE9901AEA
:10246000002BA7FAFCB83A03087CECFCD6670703FC
:1024700048C0FDF3A32D01097BEFFCE77005023492
:10248000B4FDF6B245021471C0DFCC923B0E379218
:10249000D7DEAE580F1A7BD7E9B76F270F47A2DDFB
:1024A000DBB5701C003EABEDECB455080962C2E52B
:1024B000D1A0530E1563BBE8E6AD46030867D1F71C
:1024C000EAA037001575CFECE09C3A001872CAEE0E
:1024D000E9A439001069C1EFEEB048010D54A9E537
:1024E000F7C25505074FACE9F4BB53080D4E9ED912
:1024F000F1CE7218003188D8F8DA7E20002F84C817
:10250000E7D5933D0D2269B0DDE3B96015043B903A
:10251000DDFDE07E18002382D2F1E19F44080E4FDA
:102520009DE4FBE07508001988EDFCF4901E00099D
:1025300065C1F4F8CA6B0C001B7DDDFCFCA4250111
:10254000035BC3F7F7C67822000F5BB6FBFBDC63C7
:102550000101158FF1FDFBA7310202339EF6FEFB50
:102560009B15010046C9FFFBE1660201045FC8FA42
:10257000FDDF7F10010157CFFCFCCF640A00116220
:10258000BAF1FDD98F31010231A5FCFCFC9519018E
:10259000013DB8FCFDE2924006011E70CDFCFBD768
:1025A0006701020168DDFCFBC56D23000C4499E066
:1025B000FEEBAE540A001B71C8F8F9C98538030256
:1025C0002989E4FEFABC4C0300106BCEFBF9CA8DDE
:1025D0004511001D69C4FCFDDB7D1C00023CA3EC21
:1025E000FFEAB0601F000C46A5EBFFEEAD4D060004
:1025F0000B62CFFAFED8802702013187D4FDF9CAD9
:10260000792800033191E1FFF9C66310000446BA4E
:10261000FAFEE5923C0E032A63A7D5EEE7BE721AD6
:1026200000013ABDFDFCF5801001013F99DBEEDFB2
:10263000BB88511B00115EC3FCFDEB760600014B0D
:10264000BEFAFCD39A5F3312123886DAFDFBC6530A
:102650000201036CE2FBFDC27332110F2F6AB3ED6E
:10266000FFE49A3A0101167FE3FDFCC9600C000308
:102670004CAFEDFEDEA65E2508184A9AD9FDF0BCE7
:102680005E0A00055DCDFBFCD7791E010243A2E581
:10269000F9DDA7642F0E144294E0FEF5AD4203006D
:1026A0001D82DEFDF5BE732800063E9AE7FFECA60C
:1026B000490B002574C0E7EBCD924909012282E263
:1026C000FCFBB54804001F7AD1FBF7C17222000C55
:1026D00054ACEBF4D0954F15022B7CCEF9F1B765D5
:1026E0001D021C61ADE1F1D5974305023493E2FE72
:1026F000E9A34E0D012B79C2F2F2C7761E00065BEC
:10270000C6FBFBCC6F1800095ABDF8FCD17C230036
:102710000A56ACE7F6DA9438030345A6EAF7D291F5
:1027200048120A3482D3FDF5AF420302339EE8FE1D
:10273000E3A24C05022487E7FDFCA82901023FB66D
:10274000FCFCE2801902024FBBFBFBE371010201BA
:1027500073E9FDFBB44302012084DFFDFCBC3F01B3
:102760000028ABFDFDE78522020349B4FAFCE36FC4
:1027700002010E7BDAFCF9BD530302229AFBFCEB4B
:102780007D0D001270C4F4F9C65D04022FA2F8FB9F
:10279000D67317001F76CCFAF8B641020347B9FA90
:1027A000FBD37310001175DDFAFDAB2F010354B894
:1027B000EFFBD27814001F7CD7FDEA912800257228
:1027C000B6DADCA952131E5EACDBDEA54D1224691D
:1027D000AED6D5A651151E64AFDCDDA95211185E28
:1027E000ABDFE4B155101356A4DAE5B8621A1852FB
:1027F00099CFDCB25E232E6BA8C5BF8E4B2B4988C8
:10280000B5C6B7823A1A428DC9DDC376220C469806
:10281000D1DFBC6C201A59A3C9CCA560283270AC9A
:10282000C8C28C3C1A4AA0D2D0A25718206FC0DF71
:10283000D29C43021775CFF2D98521013FA0D3D294
:10284000AB6526266AB7DAC784280645B3EFE19C54
:1028500040021674D2F4DA8A2300309CE7E5AD50CA
:10286000132980C9DAB469191260CDFCDF7B10002E
:1028700030AFFBFBB742040765D0FDDF7C15014F8D
:10288000BBF4D67C18034FC4FCE88C170020A3FDD2
:10289000FCC03C030571E4FDD262080C6FD6F5C3A1
:1028A00055040672EEFDDF60010342D3FBFF920C7C
:1028B000002AB2FDF29016014AC5FBDC780D0246F3
:1028C000C9FCF987070030C2FEF7890C0243C1FC3E
:1028D000DB7A150457CDFADD6506015CE4FFE259A9
:1028E000010568ECFBC44C031F88DDE7A33A022F07
:1028F000A6F7F68D16003EC0FFE572070761D4F417
:10290000C1510C208AE3EF9F2D0035B2FCEB780C0F
:10291000035ED6FABB490A339BE4D680251059C220
:10292000F4CC620C1578DCECA2360D4CBCEFC15136
:10293000032193F4F194230044B5F2CF6B1B238061
:10294000D4DA8C2D105CCEFDBF44011A9AFAF187BF
:10295000150560D3F2A5370C4CC1F6BE470024A282
:10296000FAEF780B0362E2FDB4360037B2FCCC58C4
:1029700007299CF5DD6A0A0E81EFFB93160051D6FC
:10298000FFB839003EB7FEBC48003DB6FFCC4C0056
:102990001D9EFCED76080C77E9EF86190977E8FEB5
:1029A0008A11005DE8FFB427003BC4FFBB3E004E28
:1029B000C7FFA428004FD6FFBA310039BAFFB84884
:1029C0001150BCEDA2320552CFFEBA350032B5FF30
:1029D000CB52093BABEAAC42145CCFF79B200057CB
:1029E000DDFDAC2B004EC5EC9C3D2C7BCEC46517A9
:1029F00031A2FADB5E031E90E9D06D25429FD5A27D
:102A0000442568C9E08E2E1B6ED0DC842F3188D01F
:102A1000B45C2B58B8DF9A331663D1EB932C207437
:102A2000CFC66F2F4CA5D9A13D1C62CEE68E2E25B8
:102A300078CEC66E304CA7D3973D2B77D0D071237C
:102A40003599E2BA511F51B5D6903F3984C8B05775
:102A50002E60BCD5872F2F86D7C1612651AFD18E6E
:102A60003A398ED3B34E1F5BC4E58F251E7FDFD06E
:102A7000672244A8D294403E8BCCAB512C64C2D088
:102A80007E2E3B97D4A84E306EBFBF703956A7C17B
:102A9000823F4B9CCD9C412B75CECB6B274BADD051
:102AA00089343B93DBB3491D60C9D47A2F429AC95C
:102AB000974B488CC196463983D0BD5D2856B2CA23
:102AC000803B4DA1C88C3B3E93D8AF481F61C5D514
:102AD000883B4386AC896476A8A761274BB1EFB2E7
:102AE000401257BCCE8A4B588F9E71577CB5B26549
:102AF0002A49ABDDA4442F73BDB06A466CA9A66E0B
:102B00004D73ADA7684163ABBE84475193B2865302
:102B10005D99BA89423E8ACBB25F3460ABB7804ED2
:102B20006095A17B60789F9B61416CBAC97B2E390F
:102B300093D4B1583266B0B076516D9FA16F527286
:102B4000A6A56A486EB0B874394FA0CA98483B81B0
:102B5000BEA9614570ABA86D4C6DA5A4705171A75D
:102B6000A76E4263AABF803F4893C4A15A4273AB89
:102B70009E665784B49E573868B8C47D3E4B92BA5F
:102B80009760547E9C86656E9CAD7F40458ECDAF30
:102B90005A3263AFBB7B43589FBC87464C90BF9A69
:102BA00056447BB6A96A4668A3A5755975A19F6866
:102BB000476BAFB8733755AFDA942B1571E3E880E4
:102BC0001F2B88C7AA6752799B89656B97AD7D3F9C
:102BD0004393D8BB561F50B1D490403E8EC8A24FED
:102BE0003574BEBA703D5CA3B6814A5896B78C5115
:102BF000528EB9944E4382C3AF5C3064BED0792408
:102C00003299E5BC4E2062C2C86C2648B0E9A83AA9
:102C10001665C7C9733A5EACC17F363D8DD0B261CF
:102C20003C6BABA2614272C1CF802A2A7FCEBC6FBF
:102C3000466AA6A3603B68C0D98A241A78E1DD758C
:102C4000263B96C4944B4791D8B84C0C40B9F0B091
:102C5000482968B8B56C395FB3D18A353082D1BDA7
:102C6000612855B5D88F33277ED5CA6A2748A6D2A2
:102C7000963F3585D3BC551C50BFEB9D2D146DD6AA
:102C8000D9732645AADC972C1A76E7EA79122393A2
:102C9000E3BA4C1F61CEE685181681EBDE6D153167
:102CA0009DE4B74D1F58BCD88B333189DAC65B1110
:102CB00035A5F5CA5A1842A2CD92424092E3CA58AD
:102CC000011C93F7E176294195BD8B3D3482E1EB00
:102CD000881C0A5DC4D7954F4D87BBA0512148B1D0
:102CE000F5CC5C0F2D96DAB4542A63CAE8901E0125
:102CF0005FDEFA99291F7DDAC45A1039B2FDCE5031
:102D00000834A3E3B14F245CBCE3A33D0F44B2ED10
:102D1000BE561A44AAE0AA420E50C7FFB43100457D
:102D2000CCFEA92C0562DFF88F16056CE9F6901A27
:102D30000C6CDBED90261064D3F2A0310A56C9F872
:102D4000A32E0053D7FFB6290037C5FFC242004962
:102D5000C1FEA32D0051D3FFC64000209DFFDA6DB8
:102D60000F2B97F4DB5B06088DF8FB8E0A035ADD08
:102D7000FE9924006FE3FF9818003ECAFFDC58005C
:102D8000178CF6E26D091191F6FB8007015AE8FEF7
:102D9000B931003CBDFFC3450024A7FCF57E050406
:102DA00052DAFDBF400039B7FFCA450015A1FCFA51
:102DB0008C040546D1FBC44D1237A6ECD46407043D
:102DC00070F0FEC33400139BFEED81101172E4EF2E
:102DD0009C250137BDFCF37805024BD3FED454008B
:102DE0001C93F2E57F13035FDCFDC94E030978ED08
:102DF000FCBA3A0021A0FAEE84110257D6FECC5359
:102E000002107EE7F9B33A0122A2F8F89115003ECC
:102E1000C3FFE778080552CCF7D7670B066DDEFED7
:102E2000C63D030995FCFCA81E0026A6FDEC9B28C8
:102E30000133AAF5F39213002EC7FDFD820100367F
:102E4000D3FEF5820E0141B2EDE58E1F0042C5FDB5
:102E5000F36F02004EEFFCFA6A00013ACFFBFD9DD2
:102E60001C001A9CFBFCB1210022B3FDFC9409005C
:102E700025BCFDFEAD23020385FEFCE64D0100618D
:102E8000F3FCEE6502024FD7FCF48A0B012AB3FE75
:102E9000FCB11F010896FEFCCC4003036CE9FDEE7B
:102EA0007C04022AB9FEFEAF1F020893FCFCC7494E
:102EB000040566DFFCE284160020A1FCFBCC49037C
:102EC0000155E1FEF88E14001991EBF8CB761F0046
:102ED0003696E3F3C96007045CC9F4D88B31073A2E
:102EE00096CDD0B27D35144396D3E0BB660D085D18
:102EF000C1E7D398440D257EC5D8C593420B2984DC
:102F0000CDE1C5873206358FCFDDC3863208338CDD
:102F1000CFE1CA8329043794D0DFC78530043183D9
:102F2000C8E6DD9833001876D2F9E79630001773BB
:102F3000C6EBE3AB4F07074CA6E6F8CD680D0135AD
:102F400093DFF7DE8625001C70C8F5F0AE4403045D
:102F500046A9F4FCDB680302209BF8FDE47F18001F
:102F6000136CBEF1FCCE6504021C92F9FDF0800DDD
:102F7000001276C7EAE7C3791F000D64CEFCFEBCE1
:102F800030000245BDFAFDDB7F1A020252C6FCFD8D
:102F9000D64C000021AAFCFDE48F3103023C98E6E8
:102FA000FDFAA02101014AC7FCFDCC702100124F9F
:102FB0009FE0FEF5A72D010037BDFEFCE96B020185
:102FC000035CC5FAFCDA882A020233A4FCFCFA93FB
:102FD0001B010140BCFDFCDA823603083583CCF9C5
:102FE000F6C16611000C68CAFBF5C47F370A0A37C0
:102FF00085D5FDF9BE5403011179E0FBF8B46627CD
:1030000007134996D7F9ECB25B11001466C2F7FAC0
:10301000CC8A3E0E012871C7FCFBD4761D0003410B
:10302000ABF1FEE2A2561C001957A6E2FFE7AA5335
:103030000E000C60C7FBFDDB83260102338DDAFB3B
:10304000EABC783507053082D6FCFAC3671900065A
:1030500048A7E5FFEAB05A1900094CB0F3FFE9A50B
:103060004609001761BFF7FED99B4A0D00145EC0E8
:10307000FAFEE28E2F03002782D7FCF9C8803709B9
:10308000002573CAFDFCD9862F01011C87EBFEFBCE
:10309000C35203000B5EBDEDF1CB9F6639151534AD
:1030A00080D5FDFBCC5A02010266DBFBFDC9762F01
:1030B0000D0B3679BEEAF1D08D3F0700277ED1FD9A
:1030C000F8C7762A01043494E6FFF5B2520B0017D4
:1030D00065C1EDF1CA9251240F2057A8EEFEE99781
:1030E0002E010233A8F8FDDE91452421365D94C7F8
:1030F000E8E3B45A0C001F76CCF5EDC1813B060223
:103100003296F0FFF39B3103023C8FCEEADCB377BB
:10311000390B0B4AA1E7F4D2924D1D143470B1E67D
:10312000F4CF7E25000A5AB7EDEDC68B4A1C123744
:1031300079C1F0F3C16C16001065C7FAFAC9792598
:1031400002044DB8FBFBD77C22010754AEE9F5D64B
:10315000914107063B8CD5F8E9AD560B002483D985
:10316000FDE9AF651E001160BFFCFAD561020116D2
:1031700081DBFDF4BA610F00106ED8FCFBB5430291
:10318000012C94E7FEE59F4404023495E8FEE6989E
:1031900035020349B3F5F9C87E32081153A3E7FBA2
:1031A000DC851F000B69CBF8F2C06F1700106FD5DC
:1031B000FCFBB43D02023BA6ECFDE3963102034F5B
:1031C000BCF9FBC76C18002273BEF2F2BB500403BB
:1031D00042A5E3F0CA7F2B032273C2EFE6A44502A7
:1031E0000E5BB0E2E9C36D15002D90E8FCDD802197
:1031F00000196FC0F4FBC353030338AFFBFBD36963
:103200000E00297ED1FAF39F30000F6AC6EEE5A3C7
:10321000490B185BACE3EBB24A011163BEEAE1A4CF
:103220004908125DB0E7EBB556080A51A4DEECC2BE
:10323000681409469DDBEAB75B162267A9C7C7A1D8
:103240005B26326FB0D2CA8D37113D92CDDBBC7692
:10325000240A419DDCE9BE6713084FA6D8E0B96592
:1032600014125BB1DCD59D45123489C4D1B87B2CD6
:10327000104DA9E4E1A641001982DCEAC5813204BF
:103280002E87D6EFD4750E024FC1EFD58E39103A86
:1032900094D1D9B467120860D1FDD87E1C0035A442
:1032A000ECECBA5D0A0356CCFDE17E140147C0F791
:1032B000DB8E30002490EFFCCB54030359DFFEEC8F
:1032C0007B0A023EB3F4E79E3200289EF4F9A92F50
:1032D000001194FCFBCC4A030258DFFCF97F040385
:1032E0003EC5FEEB820D034ACBFCEC81070231C6E2
:1032F000FDFE9C0A0017AAFEFBB22A01169AF8FDF1
:10330000AB23001EB5FDFE94070124BCFEFBA11EED
:10331000011B9EF6FDA729002CB5FCF17B0504518D
:10332000DEFDE06802054DD1FBEC75090153D4FFC9
:10333000D14D001293FBF798180138BAFDEC8413B5
:103340000143BFFCE46E09056AE0FDB538002DA815
:10335000FBE580150559C8F4C75D0E1D7FDFEDA3A1
:1033600032003BB4FDDF6E0A096FDFF6AB3A083E70
:10337000B0EFCD640E167FE6F9A831002DA8F8E471
:103380007C171171D6E7962D0855CCFFC545011461
:1033900095FBF48F1A0458CCEDAB3F1149BCF5C630
:1033A0004F011991F7F58F190150CDFBB844063C38
:1033B000B2F8CA5101219FFAEC72080672EEFB9C2A
:1033C0001C0053D3FFB237003FBAFFC54E002FA9F0
:1033D000FED456021A9DF8F371050475F6F896139B
:1033E0000360E1FB931D036DE5FE94170056DBFFC0
:1033F000B4340041BAF6B2430D4DC1FDB5370035C6
:10340000BBFFCF4F002DA9FDC348003FC2FFC0370F
:103410000031BBFFCA4C0541B2EAA2391766D6F2A9
:10342000951F025AD6FCA7361159C2D78D3834855C
:10343000D6C965152A9BF6DB64082094ECCE66207D
:1034400043A4D7A040256ED2DF84231D77DBD97A31
:10345000263293D8B4582756B4D6973D2C72CAC991
:10346000742C3E98D9B2522656B7D994362877D2C2
:10347000D173283893D2AF573265BBCC79283396B5
:10348000E6C95A1238A5EBB84D2159B7CA8440464F
:1034900091C6A350326AC0CE81333685CAB56C421C
:1034A000609EAB744B65ACC687332C7CD6D4752735
:1034B0003995CEA4523F7CC1B35C2B59B9D98E311A
:1034C0002F86D7BC582156C0DC89292B89DCBF5CEC
:1034D0002454B3CB863F4A96C4944B3D7DC1B46718
:1034E0003D63A7AD73496AACBC7730419EE1AE4203
:1034F0001B64C9D8812B3693D1A7564176AE9E67FF
:10350000527DAD9B59477FC3B3572153C1EB9D29D2
:10351000156FD4D0783B5295A77B5E7CABA1593315
:1035200063BDD98F2E2983D1BA643961A7AF795190
:103530006BA4A46B476AAEBE7E404A8FB99200521C
:103540004946461A12000057415645666D742010D0
:1035500000000001000100401F0000401F000001AA
:1035600000080064617461F6110000808080808032
:1035700080808080808080808080807F807F807F4E
:10358000808080808080808080807F80807F807F3E
:10359000807F807F807F807F807F807F807F807F33
:1035A00080807F807F80807F807F80807F80807F21
:1035B000807F807F80807F80807F80807F807F8011
:1035C0007F807F807F80807F807F8080807F807F02
:1035D0007F807F807F807F807F807F807F808080F2
:1035E0008080807F807F807F80807F808080807FE0
:1035F000808080807F808080807F807F807F8080CF
:103600007F807F7F807F807F807F807F807F807FC3
:10361000807F807F8080808080807F807F80807FAF
:10362000807F807F80807F807F807F807F80807FA1
:10363000807F80807F807F807F80807F807F807F91
:10364000807F807F7F807F80807F807F807F807F82
:1036500080807F807F807F80807F807F80807F8070
:10366000807F807F80807F807F807F807F807F8061
:10367000807F8080807F80807F807F80807F807F50
:10368000807F8080807F807F80807F80807F807F40
:10369000807F807F807F807F807F807F807F807F32
:1036A000807F807F807F7F807F807F807F807F8022
:1036B0007F807F807F80807E7977757271757E884C
:1036C0009094928E8884817C7A7977746E6A6F7E0A
:1036D000919D9C938C8989837B76737374706969DF
:1036E0007C97A8A1938E8E8C84786F6F75776E5DB2
:1036F0005775A8BCAA887B949C917E615C647576A2
:103700005D466EB1C3AF837395AA9B7E564A5977C7
:1037100078562B6DC4D5B472699CC0AE7B3C3152D7
:103720007E814A1782D6E6B15367ABDDC07122199C
:10373000508A8F3320AAE2ED8D3275D3FFB94E0047
:103740001160A08B114BD0E4D2562CA5FFFF981727
:10375000002380BA5806A0DFD59C2159FFFFDD4821
:10376000000054BDA40253E4CABB5224C2FFFF8D23
:1037700000001AA0DD3A07C7D7BB8A1E79FFFFCF2A
:1037800024000067E691007DEDB9A93839DCFFFF20
:103790005E000025BFE40424E6BCBB5F159CFFFF70
:1037A000AF0000007CFF5C00BED3B1941460F2FF58
:1037B000F930000037E5C6006EF5ACB22C2CC9FF1D
:1037C000FF78000008ABFF1F0CF7B5B36B0D94FF3B
:1037D000FFC803000061FF8400C8E0A19A075AEC0B
:1037E000FFFF3800002BE8E90063FF96B73622BFE1
:1037F000FFFF8A0000009DFF330BFFA59F70069F0F
:10380000FFFFDA00000059FF9E00CBDD8CA2025BB7
:10381000E7FFFF3900001CE0F7006EFF77A7342AAE
:10382000CDFFFF8800000099FF3B0BFF9D946E03C6
:10383000A1FFFFD701000056FFA000D5D07A9A0A59
:103840006AEAFFFF39000023E8F8006FFF71A93131
:1038500030D6FFFF76000000AAFF3013FF8D9A726A
:103860000BA9FFFFCB00000069FF9000D0C77CA22E
:103870000377FCFFFF2800002CECE00083F66BAE22
:103880003136E5FFFF6A000008BDFF1D29FC86A256
:103890006D12B5FFFFB60000007AFF7200D7A98055
:1038A000990B91FFFFE21600004AFBBA0091D07914
:1038B000B42E57F5FFFF4500001FD3EB0444E3850A
:1038C000B75F2AD6FFFF860000009DFF4706D69708
:1038D000A18F1EB1FFFFB20600006DFF8A00A3BBDF
:1038E00092AF2379FFFFDE2E000041EEC40063CAD1
:1038F0008CBD5050FFFFF35A000025C7E70F2EC9BB
:1039000098B87836E2FFFD8300000CA0FF4705ADB4
:10391000A2AE9838BBFFFD931400007AFB740089B7
:10392000ADA8AD458AFFFFA33E000058E0A30061AB
:10393000B39FB3576FFFFFA558000050CDC70136A6
:10394000A8A5BD7B65FFFF9C79000047AFD61E2070
:103950009BB0BD8A67EBFF9A7C190044A2DD370655
:1039600088ABC5A174CDF8937943013D8DCF4F034A
:103970007DADBDA17CC0EA8D785E103E88C8630431
:103980006CA6BDAC8FC0D18471722E4587B8680A11
:1039900069ABBBAB98BEBA797082464482AB6B19F7
:1039A00062A5AEA8A5C09D5F6B885B4B83965B2923
:1039B0006AA6A89EA6BB80516C876D55868C4C3A32
:1039C00075A0A599B2B46351758F7A668B80445403
:1039D000839AA49ABCA25058829882738D72456BC8
:1039E0008E98999FBA824D638C967F7F87665077B9
:1039F000948E8AA5A06D5272988F7D817C65657EBC
:103A0000998183998A7262819488838379706F84A3
:103A1000947E7B86867D778C90848385826F6B8194
:103A200091857B8484777A8E92878C8B6E606D888B
:103A30008D847B7C787589988F8B8A6B5C627E8D98
:103A400087887D6F737F939C9C905E5360788F9284
:103A50008C806D6B848E9BAB9959465E788F9B985A
:103A60007E686F838E99AA9F593E5777929FA4884C
:103A70005E638A979DA8894F3E58839A9E9B85676F
:103A80006789A4A99D6F3E406691A89F8977717F41
:103A900093A1A99155374A77A2AC9B7C6A7594A7EC
:103AA000A6956B433F608EA2A18D76707E9DB0A5DA
:103AB00079463752819D9D8A78768092A3A98F5945
:103AC0003341709CAB947566799EB3AB8B5F3F417D
:103AD0006898A998816E6F8DACBCA1643637679BDE
:103AE000AD9E7F677493A8AE9A6F44365A91B0A585
:103AF00084696D88ACBB9762393B6696AB9E8472D5
:103B00007790AAAF966B3833639CB8A6826B769B8E
:103B1000BAB79357324070A0B2A284737F9BB8BCEF
:103B20008E50293A71B1BC98786981A8BFB27A3EAB
:103B300025417EB0B29374637CA5BFB16822174E55
:103B400098BDAE805F698DB5BF93460F1F66AAC34F
:103B5000A8785D6FA3C6C47F1E002888CCD0976369
:103B60005986BDD4B552000045A9DCC482535E9885
:103B7000DBE0940E000176E2E4A4544377C8F2CE71
:103B800042000021BEFFDA7E3A429BF2FF9900001C
:103B90000073FFFFB8432162E5FFF229000012EA3B
:103BA000FFFF791425A9FFFF9700000096FFFFCAC9
:103BB0001B0067FFFFFF0000002BFFFFFF48000F07
:103BC000E6FFFF5B000000F0FFFF99000090FFFFA1
:103BD000D600000086FFFFFF000030FFFFFF00005F
:103BE0000018FFFFFF480000D9FFFF6C000000E64F
:103BF000FFFFB9000066FFFFD400000048FFFFFF91
:103C0000120009F3FFFF2D000000DEFFFF99000006
:103C100089FFFF95000A004DFFFFFF000024FFFF12
:103C2000CC07001300C8FFFFA50000A5FFFF4C0054
:103C300000000CF7FFFF5F0032FBFFAD0000170034
:103C400021FEFFFF1D0093FFFF4F000610001DFF28
:103C5000FFEF0000CFFFFF1400002F002DFFFFDD5E
:103C60000032EDFFF8000000660043FFFFD500754D
:103C7000E6FFBA000019780073FFFFBB00A1DCFF6C
:103C80008F0008295800B1FFFF8000ADE4FF42001B
:103C9000043C3000DEFFFF4400B7EDFF1D00004D87
:103CA0000D00FFFFFF0B2AC1FFFF0000066A000D99
:103CB000FFFFFF004BD2FFE500081E6C0040FFFF36
:103CC000D90077D5FFA1000E34650075FFFF9C0079
:103CD0008ED6FF6C00054A5000A6FFFF590097E200
:103CE000FF310003642400CAFFFF310FA3FFFF036D
:103CF0000017730000EEFFFF1226B6FFFF00002D35
:103D00007D0001FCFFFF073FC4FFDD000445760096
:103D100029FFFFF3006CD1FFA5001855790054FF6F
:103D2000FFC20083DAFF69001C657A007DFFFF9304
:103D300000A6B7FF3C002371870086FFFF7536AEF3
:103D4000B6FF44001F75AA0057FFFF7A3DAEBBFFC8
:103D50007000105BE10029FFFF683E94A4FFC300E0
:103D6000002AD57302FEFF604E89B8DEF31A000AFE
:103D70009CF11A93E7654B6DFD8BBF9500004EFFDC
:103D800081639D8F584BE2B777AD5E002CB2BB7B51
:103D90007B9389659E9C887BBA560C7A7EAF777E32
:103DA00088A1785D928C9F926E5251819D896B9A09
:103DB000A6496681988783805A6C818C6F86997337
:103DC0005E6E92857A8B73767978768594807B6F38
:103DD0007586867A78898E75698D917E7A7C867BE8
:103DE0008977708F9686698C8F77787E95807A77C1
:103DF0007B8D8C8B77868D74707693957C67739BA7
:103E00008C7D8485896C727F84937F6F6D90987FA1
:103E10007F868E6D6F7883957777798F927C848299
:103E2000857978767B8E7E7A7F8F8D797F8A817394
:103E3000827F7A82767E828D9279798580757D8483
:103E40008078737D838D8E7D787C7C7A7F80817C89
:103E50007379828B887E807D767E837C7E807A7B80
:103E60008289847F8484797B827C7F808081828345
:103E70007E7F87857C80827A7C7E82838583787B47
:103E800086897E80847A767C848282857B7A7D8234
:103E90008183867C74778585827F7E837B7B7D852D
:103EA0008B7F7878808383817E86807A7B848B7F0A
:103EB0007C7F838180818186847E7A82867F8081F7
:103EC00083827F7E8388827F7F837F7A8184827EE4
:103ED0007F7D8189807D7F867F757E82827F7F7EE8
:103EE00080847E7D82877F777C7E7F7E827F8084D8
:103EF0007B7B828A7F787E7C7D7C828382837C7BD5
:103F0000828B7E7B807D7A7A828384827E79828AAC
:103F10007B7C7F7E7D7B7E7E82857F7A85887A7AB8
:103F20007F7E7E80817F7E7E7F7F82868584828089
:103F30007D7D7E808081817D7C7E83888986807A7C
:103F4000797E8386837C77777E878D8C847D7C7F6A
:103F5000828384817C79797E848A8D8A84817F8042
:103F60008283817D7976777F888D8D89837E7E7F40
:103F70007F7E7C797774767E888F8F89817A787D51
:103F80007D7C7974727277828C8E8C877F7A787B55
:103F90007C7C7B74727176828C908E89827C797D38
:103FA000807D7A767472747E8B92928A8482828308
:103FB000807C7778757170747F8A9495908B8683F6
:103FC0007F7C797676736D6B7383979E98918888E2
:103FD000888079747473746F686C839FA99C908FC8
:103FE0008E8A7F756F71777769585B86B3B89E80CC
:103FF000839B988B745F6169766E534A85BAC1A1C1
:104000007B7B9EA895724E4B617C7044338FCED1E2
:104010009F6977ADC0A0633638618375312CA9DC08
:10402000E18C4F7BC2DDA855182763947B1544C5EE
:10403000E7E1623D95EDF59830002874AA63077DAD
:10404000DFE6B53549D3FFE66A00004097A723298C
:10405000C9DDD074198DFFFFB01E000171C6690063
:1040600094E6C3A42847FCFFF35400003FBBB4050B
:1040700043EECDB45A1EB4FFFF8D00001692E44605
:1040800000C7E7B78F135BFFFFD827000055EAA9E9
:104090000073FAB9B03120D1FFFF65000016B7F305
:1040A000131AEFC6BE660B9AFFFFAF0000006FFF4A
:1040B0007400C0E0AC960C5FFCFFFF34000033E4FA
:1040C000DB0063F69EB63B30CDFFFF80000001A40D
:1040D000FF2902F4B2B975018FFFFFD80300005F1A
:1040E000FFA100BFDA96A50B54E6FFFF46000024AF
:1040F000E4F4006CFF8AA83621C8FFFF8E000000A0
:10410000A0FF3606FFA7A0740095FFFFE50600009C
:1041100051FF9F00CCD980A10266ECFFFF3A00005E
:1041200018E5FF0061FF75AF3020C9FFFF8B00006D
:104130000099FF400BFF939470009DFFFFDC01008E
:104140000056FFAB00D1CD729C006AF0FFFF330038
:104150000020E4F40078FF69AA372ED5FFFF77002E
:104160000000A9FF3B12FF8F987D05B0FFFFBF0045
:10417000000066FF9500CEBD78A51275FFFFFF24F5
:10418000000039F1D9007FE772B13738E1FFFF60F5
:10419000000006C2FF272CF0789B6416D2FFFF9424
:1041A0000000008AFF6C00CF9F92990E95FFFFDA06
:1041B0000600005BFEAB0090CB81B42F56FFFFFFE3
:1041C0003D000028DDE60846DF80B6612CE1FFFFF8
:1041D0007300000CB2FF3909CA96AA8F11AFFFFF16
:1041E000A70F000080FF7B009EB199B02F86FFFFD4
:1041F000C02D00005AF0AE0068C996BC515EFFFFAA
:10420000DB5300002DD3DF0D2FB899B87B4CF0FFA6
:10421000E17400001DB0EE2C0D9F9BB89B44C0FFC5
:10422000E5911A000E83E75D008BA2ABA146A9FFC2
:10423000EA9535000772E383006BA5A5B96290FF8C
:10424000EA935C00055FCEA4004EABA9B57889FF68
:10425000EB8C6A000861BDB6072C9FB1C18B85ED60
:10426000DE8674220C55ABBB1D1D96B0BD9488DF55
:10427000D2797D4014539FBB301A8EAFBB9E9DD523
:10428000BD737E60295698B13F1786B2BAA3A4CCFD
:10429000A86C7C70395592A349237BA9AFA3AABF10
:1042A0008D5D7A7C4A558A8A45347EA8A89CB1AF38
:1042B0006C5877855C5F91783E4785A29EA0BF9D34
:1042C000555E838E6B70936A40638BA09DA6C384FA
:1042D0004B698C90787F8E5C487D939894AFB66ADA
:1042E0004F74958D7D8881545386968991AD965EE5
:1042F00057859A877D83745D6A89917B8E9A8467DE
:104300006A9192828281736D7089917980888378B5
:104310007B928A8183847C6B6F868E808086817598
:104320007F8F8C868F816961758D8A847B7F75789C
:104330009096898C84655B67848A8A88796F758397
:10434000999C9C82555766809190897D697288926C
:10435000A4AE864B4B6680949D9276687687919E3C
:10436000B08C48425F8196A3A07958709397A2A41D
:10437000764442648C9BA0967A626F94A7A7945D62
:104380003949739BA7998373738698A6A87F45398B
:104390005586AAAA9272687D9DABA58B5C3C466F40
:1043A00098A69C81707188A9B29B66393A618EA1EA
:1043B000998273778699A6A37D48325080A5A485FB
:1043C0006B6A8AAAB3A0784E3B4D7AA1A28C796F12
:1043D0007E9EB6B5874D31477EA5A791746B849FAD
:1043E000ADAB8C5D363A6BA1B59E7A687696B7B464
:1043F0008450314477A1AB9880727D98AEA98A57DA
:104400002E3F77ADBF9F78687FA8BBB07C402E4C15
:1044100088B6BB9E7C6B83A2BAB0763F284A92C016
:10442000B6926F6D8AAAB79862342A5898B5AF8E43
:104430006D697EA6BB994E151C67B3CDAE725564EF
:1044400093BCBC802B062A81C9CFA0664F72AACD2F
:10445000BA5D040048B2E5CA86525B95C2CC8C2B8B
:1044600000117ACEE2B5704D64A7DDCB6500002364
:10447000B1FADA83444F8DE0EC9D08000059EBFF60
:10448000C25C3857C5FFF34D000002B9FFFF8D3302
:104490003792FFFFB900000052FFFFDE460F53EBDB
:1044A000FFFF38000000DCFFFF8A0010ABFFFFA613
:1044B0000000008CFFFFDF06005EFFFFFC00000035
:1044C00020FFFFFF480000E4FFFF70000000E3FF53
:1044D000FFA7000090FFFFD900000079FFFFFF0950
:1044E000002BFFFFFF04000000FFFFFF5B0000C583
:1044F000FFFF76000000ADFFFFE3000051FFFFD992
:104500000000000EFFFFFF3E0000DFFFFF50000035
:10451000009BFFFFE1000068FFFFAE00000000F716
:10452000FFFF790000D8FFFD3200000039FFFFFFD8
:1045300017006BFFFF820000000062FFFFD5000044
:10454000BFFFFF130000000070FFFFAD003FE9FF59
:10455000DC0000000F008DFFFF8C008CF3FFA30038
:1045600000004100B6FFFF6A00AFF7FF62000034B1
:104570003B00D9FFFF4600C5F2FF2D00074C1B0092
:10458000FFFFFF0B14BAFFFF05000054000BFFFFF5
:10459000FF0035BDFFFF00000D620040FFFFF3008C
:1045A00062BDFFBB000527630075FFFFB30083D624
:1045B000FF8C000C3B4C00A8FFFF73009CE6FF4102
:1045C00000065A3600D2FFFF3100A2FDFF14001092
:1045D000731000ECFFFF0325AEFFFF0000177E0005
:1045E00005FFFFFF003FBCFFCC00003A6F002BFF30
:1045F000FFD9005EC8FFA70017475F005BFFFFBE43
:104600000077F0FF7100235E4A0090FFFFA1009841
:10461000F4FF38002C6D3C00BBFFFF7904C1EDFFB7
:1046200013001B7D3A00D8FFFF4B2FC2DCFF0000B8
:104630000F904800DAFFFF4954ADE1FF00002482EB
:104640006400BFFFFF62709BCCFF1900178AAB00AC
:1046500098FFE94C74A9A7FF62001858F53560FF70
:10466000A8423FB8B5D0D3000035E9E236E49D3129
:104670003487F65EEB49001CA6FF67979569186BB7
:10468000E17F6BB03A0078DCC07C887A4C4DA49B0B
:104690006473CA4358828FB48880607B5A7A7C7472
:1046A0009EA58369549AA28461957F39797F947815
:1046B000A3915D6E8B7C798C8F6D557A888683880B
:1046C0007A7F7A6A7DA1876F736D78918A7B7D90FE
:1046D0008D68749B8E6E728081878F767590967DC3
:1046E00074998F6A7286947E777E889089887B8E93
:1046F00089706F7F988E766A839D887F808A866EA8
:10470000797F8F8A75717B978F817C8E856E7376AA
:10471000928B73788196897E818483767B73848B78
:104720007A7E8392887983877B7A84797D7D76818E
:1047300085938A767D847C7882827D75758084916C
:104740008A797A7B7C7D7E808279747B848D857C7E
:1047500082787982817A7F7E7A7C848B8180847E64
:1047600077524946465E0E000057415645666D74C5
:10477000201000000001000100401F0000401F0049
:10478000000100080064617461F20C0000817E7E0B
:1047900076716C6A6D716C6F76757E797878857FCD
:1047A0007F8581827C797B7E6D747D777A7E778749
:1047B0008F8C8885898D8D877D7F898387858F9D67
:1047C0009EA39C9E9B909691948D998A9AA5929770
:1047D00095ACA4B2A6958A76716B6C797A82959D18
:1047E000B9C3C1B4A38967656366646264575268DC
:1047F0008BAED1DEDCAF7E4E322B323C3347587B62
:10480000A3B5CCC8A26B403D5C83996F2A1D346A66
:10481000BFFFFFF9C57E401A2439394582D5FFFF15
:10482000FFFFBA826664636F8090802E000001658E
:10483000FFFFFFFFE86A1C102A7282562524688950
:10484000AAA69FA1CCF4F3D8791C0000001495FF10
:10485000FFFFFFD64800000061DDFFFFAC2F02180C
:1048600069C1D3976A17214BA66B00002375F3FF2C
:10487000FFFFA22C0E113D6F9FB4C142000000004B
:10488000FFFFFFFFFF750000000000212A6CB2F25D
:10489000FFFFD800001B1583FFFFFFB810000D4E6F
:1048A00091F2FBE7BA7266000091FFFFFFFF6F0015
:1048B000000043B7FFFFD6A7895D69000000C6FF6F
:1048C000FFFFFFFF2A00000000002E98F1FFFFFF0E
:1048D0004D0061C7D5FFFFB44C000000001853968F
:1048E000B0B59D838B0000E2FFFFFFFF13000000C7
:1048F0001CDDFFFFFFFCC1999C2600003BD8FFFF99
:10490000FFFF9E00000000002EA8FFFFA87000001F
:10491000CAFFFFFFFF3A000000499BD95200001870
:1049200056B6FF00008FB2FFFFFFC21F0000003E1F
:10493000FFFFFFFFFF8100000000A5FFFFFFEA6807
:10494000000046678E210000229DFFFFC100004C41
:10495000CDFFFFFFC80000000075C4EFFFAF0000EF
:1049600000004AFFFFFFFFFF040000000000123BB1
:104970009EFFFFFFFFC300000000A2FFFFFF4400F7
:10498000000036BFC0CABE835474320024B7E9FFAA
:10499000FFFF390000006DD5D7CFC5A76B0500001C
:1049A0000092FFFFFFFFFF0000000000002745B05E
:1049B000FFFFFFFF88000022C2FFFFE12900000087
:1049C00000AAEFFFFF8E2403600000F6FFFFFFFF49
:1049D0001400000EC2FDFFC9C4C3E4B9E5810000A4
:1049E00044FFFFFFFFFF370000000085D7FFFF9661
:1049F00081B5D70078FFFFFFFFBA0F00007DD3B16C
:104A00001C124994F0FFFF8D00006CFFFFFFFF07B1
:104A100000000004FFFFFFFFFF780600000000A970
:104A2000FFFFFFFFFC750000001200000023A9CB70
:104A3000CB640025EAFFFFFFFF000000004EC6D652
:104A4000716485BD9460030046FFFFFFFFE700002F
:104A5000000004C3FFFFFFFFE384362A00004990F3
:104A6000BBFFFFCECE8EDAB23D00072D817A848661
:104A700000000DE8FFFFFFFF000000006DFFFFFFDB
:104A8000FF100000461A00D6FFFFFFFFCE00000017
:104A900000000000D1FFFFFFFFCE0400004CFFFF2D
:104AA000FFDE00000031FFFFFFFFA70000004619F6
:104AB00000F6FFFFFFFFFF7912000000055A7AC3DE
:104AC000F5AB5600000066FFFFFFFFFF0700000088
:104AD000007A74598191D9FFFF7200107CFFFFFFAB
:104AE0005900000035FFFFFFFFF58E73563D0000B3
:104AF0006FFFFFFFFFD9560A000000002B9CFFFF4D
:104B0000FFB70000006EFFFFFFFFC1000000005173
:104B1000BCE76000001999FFEC60F2B8DCFCFF987C
:104B2000000000000026A3FFFFFFFF9A00000068BE
:104B3000FFFFFFFF6400000058FFFFFFC8755A7EAB
:104B40007B9C04002383B9F2FFFFAD846D3A130010
:104B50000055B6A8410000001BFFFFFFFFFF00004B
:104B6000000000AAFAFFFFFFFFFFE0AA12003FB318
:104B7000FFFFFFAF00000000AFFFEAA0B5A9AFE163
:104B8000E90000598BF6FFFF9127000A5A8C9A9A88
:104B9000B4D3D38B00000059FFFFFFFFFF0A0000D2
:104BA00000009CD3C1A672538DDAFF04476C2572B6
:104BB000FFFFBBC06112000000BFFFFFFFC3460044
:104BC0000020FFFFFFFFBE00000038FFFFFFFFA532
:104BD0002100001502000050D1FFFFFFE01F000080
:104BE00000000030BEF5FFFB76000069FFFFFFFF0D
:104BF000600000000076B69C5D66A35E2077120020
:104C00009CFFFFFFFF84000000005BF9FFFFFFFF38
:104C1000BB7F5B00000035DFFFFFFFFF9F773E2E6D
:104C2000413E557FC28D89480000EFFFFFFFFF66C0
:104C30000000000FFFFFFFE531000030870000ACEF
:104C4000C7FFFFFFC9060000000000A0FFFFFFFF35
:104C5000E115000057FFFFFFFF1500002DC6FFFF05
:104C6000FFA3350000245D004AFFFFFFFFFFEB3E7E
:104C70000000000554AFD7FFFF7317000000FFFFCF
:104C8000FFFFFF9300000000364B1A2C89B2BBF9DE
:104C9000BB00006FC4FFFF9D00000000C4FFFFFFCA
:104CA000FCB2671D1F000004E7FFFFFFFFA41A22EC
:104CB000200000003EA3FFFFD473000000FFFFFFB1
:104CC000FFFF3500000041AEAEA24A00002FDFF228
:104CD0007EFFFFFFF9FFFF67000000000266F4FFA0
:104CE000FFFFD0760C0000CEFFFFFFFF1D0000008D
:104CF00068D3E9BB85605C6E904400004DAFFFFF58
:104D0000FFA2222B6C7A86847D69733E000000002E
:104D1000A1FFFFFFFFEF14000000005584D3FFFF49
:104D2000FFFFFA86000064FFFFFFFF8100000061C3
:104D3000C8FFFF7B36132A8DFA181DB7D47BCAFB38
:104D40008B6759675F806494D0FFAF871600001CA3
:104D5000FFFFFFFFFF530000000047888F70274CC4
:104D60005785D1222583C43884BC542E6972191901
:104D7000538FC4FFDC9257650005C2FFFFFFE91C9B
:104D800000000074FFFFFFFFFFB9783E550000569A
:104D9000F4FFFFFFF23B0000000F1C000027220978
:104DA00073E00032C1E0D6F8F169140000314B47DE
:104DB0007CC7D2E9A135370000C3FFFFFFFF7D00AC
:104DC000000039C9FFFFFFE1834E77EF22000604A0
:104DD0001EA0FFFFFFDAA7623B0D33636677472A09
:104DE0003B0000DFFFFFFFFF3A00000030B0FFFF95
:104DF000D389643B5BD1450065AFFCFFFFAA601916
:104E00000000000071D6FFFFFFD7EB75002F9CDD7F
:104E1000DFFFB2717598C1DEEDFCC09153000068F0
:104E20000000A3FFFFFFFFB7150000002A7195AE39
:104E3000925D344FAC4F00338ECFFFFFFFAA422765
:104E4000000000094676ACBBAAAC47004ABFD9F4C3
:104E5000D0200000189FFFFFFFEF9254242F7243D1
:104E6000003496D5FFFFFFDF8A2C00000D68A0B745
:104E7000E5B05C4A020049C8FFFFFFED81341C1118
:104E800054A48D2F0000418AFFFF5581ADD3F6CF8A
:104E9000B64F03000029BAF8FFFFECBC916B0A0083
:104EA0001FA8F5FFFFFFAB6F5E423563857E758BF4
:104EB000867E9C5E001582BADBFFF88C6B626D7596
:104EC0007F8673300E13458DA22C7FC2E1FFFFFF5A
:104ED00080000000004FD4FFFFFFFFCFB18000181B
:104EE0008BB4F3FFFF845A6791C9E0AC68566FB585
:104EF000D8EFFF37026C91D4FFFFFCAA6B56648693
:104F0000C3B3A3AF6600000C005AFFFFFFFFE866C3
:104F100015000000253B39407095BDD0C616000035
:104F200033769EF0CD7020221D4992A49A8E84542F
:104F300060540010A8A2C2CC973619365F97CDF006
:104F4000D797766A452D0E00129EF1FFFFFFDE64B3
:104F50003B1800002F514D889C99A8A5253B8A80BD
:104F6000A4CAC0572D271F266396AF8D7D6949526D
:104F70006E445DA6B6F2D9A73D0012336D9FBEAD5B
:104F8000808F8F5C4C110000469FFFFFFFF17A4538
:104F90001400254B4146656A4E677C4091DBEFED7E
:104FA000D1AA6349678EBBCDAA9183A4A7A1958A94
:104FB000374095C2F9FFFA93100000346BC9FFFF28
:104FC000ECBE8C6B480008596FB9FFFFCEAABDBA82
:104FD000AE9E9259486C7D8392803678C2E4FFFF82
:104FE000D1620C26494E5F8B80606B664D2C30146D
:104FF0006FC1D8FCFFE273463309165986AEDCF563
:10500000CBC299683D6686719CB3A69BB1C2D0E3C2
:10501000D5BD8855514F4946380F429CBDEBFFE640
:105020008B473D265797BDBCA39C684B341C187812
:10503000D0F5FFF9C1927460574426345D83A4C350
:10504000E1BFAA6C7498898F92723934567087B810
:10505000CCBEAB72271E1C0F2074BDB6D2DEAF7D56
:105060006A6456616987A49687826344150F5C9CC5
:10507000C7F5FFEEA57C8A76665E58494A63767D61
:105080007E8EA0D0B9B2C9AF602E3A4474B5E0E0CC
:10509000E6E7CAA97543415592C1CBD3BDA1797347
:1050A0007060617A948298B59E61481F0A427BA322
:1050B000C2CEBB9A8877697F82815952414050663F
:1050C00091AEF5F5E6C89B6A30221F1F37546A7A05
:1050D0008E91856C300009538492BCBE945C4C4622
:1050E000445869847C857D776647373962635C6C98
:1050F0006B6F66737C7678697B5E4D2D0E000005C4
:1051000059A9BCD0D4B9804D2E1E13376A8790B1EF
:10511000B6A483605D708C8490AEC2A17E6F666E13
:105120008399897C93978F7B7F91A0B19A8F958685
:105130006F646A7387A3ACA2898D7A4513000A57FE
:10514000A0CDF0E9D09F72533232475A48527A7557
:105150007162687B8E9F8E84909597928880798FFC
:105160009FA3A8B0A68B726F8AABCBD7CBC3A17518
:105170005D6A7C9CC9E6ECCCCAA37B55373C628C4B
:10518000AAD5E6CDACA4896747575A62707F705F95
:105190006062849BB3AFAB956D4E475B4C495C68D6
:1051A00072757B685238496B96ADB9BEA07A523899
:1051B00020293D7B9D9A9C9D7A4B2B2C414E6C86E1
:1051C00096A5AEA3A3A5808193867E7C816D524671
:1051D0006A96C0D9E2D3B0826D6B606E84A0998765
:1051E000867F6A5149526388ABBDB3A7967F6843F7
:1051F000324D7998A7BCB2A480595A728887816BC6
:105200005A475F656F706678766A503E3A30324230
:105210006C94BCDFBEA0807C675F607AB0C2C7B10F
:10522000A2927D7B8DA2BED2DFD2C1AAA8A1887A2C
:1052300069798A9988939371616B8B9CB6B8A371D5
:105240005F6A6C84A2C0CBBCA8947E59424B58764E
:105250009CBFC5B9A6948166514C56647A9A9983CD
:1052600062483E506D899584735D54565C55636AFF
:1052700065727777786A6472879EB6C6B69B817EC0
:105280007D707088A9C4CAB597846B4D486080A7AB
:10529000B9B9A68F8F866B5A5E64636A69606A616A
:1052A000605A6F8296A79685676965718083898F3A
:1052B0008B7E7875706F6C85A1BBB9978B75614CCF
:1052C000555E6B7B8BA7A097836A4E475C6F8B966E
:1052D000988F8985837D7E7B74827A787A787D7ECB
:1052E0008194A6B3AA98877D6F69737A7D83949819
:1052F0009889766F64627D96BEC4B29F87796F7A13
:1053000076787A8A95958D92927B788994A4AFA2CB
:105310009D9DA1A0A7A1A29DA2A69E9D91877C83F1
:10532000A4C4CBC1AB8E6D655C616972838E958EB2
:105330008F817062617276838F8A8C8A7D69706CCE
:105340006775849589877B6F655F7A869383746CB4
:105350005E615F63606A676C78706D73776D698199
:1053600098A5A59F96807B716D6663717F82818B06
:105370008771615E696C707367686B6C6E6E6C725E
:105380006E747E7A777574677085949293938F8B21
:10539000888A88827C838894969698907A7A80808E
:1053A000909598988E8B877C6E6F7A7F8C8D919577
:1053B00096808088858E817C7369727670726E703B
:1053C0007185867F8275655A5E6C78848B847D7C5E
:1053D000716D686266708F96928F8E8583848895D2
:1053E000929599A3ABAD9D9389818594A19E9B983D
:1053F00090908E8F94969C9E988E867A7E899198B6
:10540000A1A4959489776E6B77777E878F8D858140
:105410006B6F6F6C717A8D88897D706D636766685C
:1054200073756A68696268666668748174726B5FB6
:105430005C65716D7876736963665257575B666D0C
:105440007F7F817D716B686A706F7E87808C847EC0
:105450006F6C746C727F807E8680726F777B7B7ED0
:105460007D7E7878707377707C858C868687827174
:105470006E79787981898885898176756A6A784CB0
:1054800049535492000000494E464F494E414D1435
:10549000000000547261696E20536F756E64204580
:1054A00066666563747300495052441000000053EF
:1054B0006F756E644269626C652E636F6D000049A2
:1054C0004152540C0000004D696B65204B6F656EB6
:1054D00069670049434D5414000000547261696EBD
:1054E00020536F756E64204566666563747300496A
:1054F0004352440600000032303131000049474E2B
:105500005214000000547261696E20536F756E640E
:1055100020456666656374730069643320A60000E5
:10552000004944330300000000011C434F4D4D006F
:1055300000001800000000000000547261696E2035
:10554000536F756E64204566666563747354495481
:105550003200000014000000547261696E20536F25
:10556000756E6420456666656374735444524300E7
:105570000000050000003230313154414C4200003F
:10558000000F000000536F756E644269626C652EF7
:10559000636F6D545045310000000C0000004D69F0
:1055A0006B65204B6F656E696754434F4E0000007A
:1055B00014000000547261696E20536F756E642090
:1055C0004566666563747352494646167E00005709
:1055D000415645666D742010000000010001004036
:1055E0001F0000401F000001000800646174613466
:1055F0007D00007C797C7C83827F7F7F787C787CD7
:105600007B7C7E7C7E797B7C797C787F827F8283C9
:105610008583857F7F7F797B767876807E807B7FB0
:1056200080787C7B807F787C7F7F787675767073DE
:105630007376767F7979797676757F7B83868286B5
:105640008583828685837B7C7B7C78797C827F895D
:1056500085897F7C7C888C888C897F757C756D6F53
:105660006D75766F797B7F787C7B737573767E73CF
:105670006F7980757C7F7F76727072736C808E8993
:10568000868589837E767B7F7F8C918F8286857FDE
:10569000736F767B7C7F8C8586888C827C66697054
:1056A0006C707B897F868378665F5A6873737892A3
:1056B000918C9288796C665F66666F89918F898B11
:1056C0007975707373787C98ACAFA29E9C7E6349A9
:1056D0004D52667F9FA19FA19F8260524D556D7B69
:1056E00096A8AFABA57F563C3D4F505F7C9EB2A8BD
:1056F0009C7B6050494D4F5A85ACC2C2B7A28569A8
:105700005943393D69A1BFC8BEAF8E79562C172DBC
:1057100066B4D5CEC5B7B885532C1D39638EA4ACFD
:10572000BECFB58643372727345D7999B5D7D8A141
:105730004F30333029336DA8E5FAF8C2764753402D
:10574000141456A2B8D8CF9673697B7C422765A5FE
:10575000CAD2C7B88B7E866224000D79A8A2C1D8B0
:10576000DBC7995D0000064D8398B2E4DBA1895F39
:105770002A103D707B7C92CAE8A8694F474D42666B
:10578000626385B2E2CAB28E804A231A0D438EE864
:10579000FEFFD7A58879330006346899C4C2927B8E
:1057A000807043232D4983C4A98B769BB5B7863C73
:1057B0003D2F407883A4C8D1E5A15D00000A1443C1
:1057C0008FD1EEFEFFBB7F4A2A30434F76ACCAC270
:1057D000C1B26F6668835D4D6286B5AFB1C2A44742
:1057E0004C2D01002A6FBCFFDAD5CB823A3006007F
:1057F000008FC1D8DDC5C4804C4A393D1D6C969CD4
:10580000997FB8D49C5F837649477899B1A9F0EE27
:105810007616272700114A79C2FEF4FFED56205074
:10582000601D43A2CBC8B89F924A376D72070039FA
:1058300053A4A5A2C1A9726D76432446B2E1C5CE98
:10584000FFD572301C0000247BD5F0F4FBF7A52DAA
:105850004F6D23145A7B9F7592FBD48C92783D1424
:105860000D66A18698F4FF823D4F3700003996BE41
:10587000D8FFFE89000E4C0707599CE7CABCFEE51D
:10588000626DB45D00002F867576DAEBAB7988A186
:1058900037003A99CEC5FEFFE4501C42000036990D
:1058A000D896BFFFFA6616602F000056898986EBEE
:1058B000FEE865667F30000462705FCFFFF18F55B0
:1058C0007C4D000078C8ACE7FFFE660E263700006E
:1058D00073BBB8BEFFFFD486626336000E3C808384
:1058E000A4EBCFA47C6C4D00002A6892C7FFFFD4C4
:1058F000895D3300002478928ED2F4DA7634201752
:105900000000559CC4DBFFFEEBDA9256230019071A
:10591000629FD1FFF4D885690000274673A1EBFF91
:10592000F0BC4F30260E204376A4E2EBFBDE5C5049
:105930001C0A24090A42BFDDEEFEF1BE5606000035
:10594000001992DAFFFEE8AE8F42142D37478CFE25
:10595000E5F0D86F47030709234772EEE4E8FEFF3E
:10596000CF7E432000060055D5C4E8DDDEA5190032
:1059700000000036B5B5FFFFDBAE5D1C0746635582
:10598000A5D4D2FDC28B4D111921190069D7D8FEBB
:10599000FFFE964F2A1900000D83D5FEFFFEE87B1F
:1059A000340300000483E7B5E2DBA99F3D4A4C11B4
:1059B0002F569BA2A9B1E5D43A372A00171CA2E4BE
:1059C000D2F7FFFE96360E0000002D9B92F7FFFFE8
:1059D000C74365896C4A75B59BA5F5FFC437265347
:1059E0001A0000699683D1F1ED6D496D42240027BC
:1059F0009FC1FFFEFFC73D6F0E00000092A87CBB59
:105A0000FFEE8E8F75000000739583AEFFFEA573C9
:105A1000996334365D726696FDFFFF893D4700004D
:105A2000003C73A4E5FEDB7B8C422D000039567FE1
:105A3000D5FEFFAFA4A962070607732C2D91D2CB28
:105A400052997207001D8F9EC8FEFFFECE925F0E18
:105A50000000013A70ACFEFFE79F722400004C701A
:105A60007B7CD4FFD7A2EBC760100055244091D2B5
:105A7000E17372795500003C664CBFFEFFFAA8A5A1
:105A8000130000237343ABFFFEF59EB7994F001937
:105A9000472D2A66E5FECFBBDB6600215F40279BD2
:105AA000D5FED8C1E28E1A0011201A95FFFFF789A2
:105AB000783D0000002F0A2669FFFFFEFFF7D56042
:105AC0003343231153757F9156C7B24D26373A00A1
:105AD00073E1FFFFFDF1954300146F4D95D5F0C8BC
